{
  "contractName": "ECMR",
  "abi": [
    {
      "constant": true,
      "inputs": [],
      "name": "getTenants",
      "outputs": [
        {
          "internalType": "address",
          "name": "",
          "type": "address"
        },
        {
          "internalType": "int256",
          "name": "",
          "type": "int256"
        },
        {
          "internalType": "int256",
          "name": "",
          "type": "int256"
        },
        {
          "internalType": "address",
          "name": "",
          "type": "address"
        },
        {
          "internalType": "int256",
          "name": "",
          "type": "int256"
        },
        {
          "internalType": "int256",
          "name": "",
          "type": "int256"
        },
        {
          "internalType": "address",
          "name": "",
          "type": "address"
        },
        {
          "internalType": "int256",
          "name": "",
          "type": "int256"
        },
        {
          "internalType": "int256",
          "name": "",
          "type": "int256"
        }
      ],
      "payable": false,
      "stateMutability": "view",
      "type": "function"
    },
    {
      "constant": true,
      "inputs": [],
      "name": "getCommand",
      "outputs": [
        {
          "internalType": "int256",
          "name": "",
          "type": "int256"
        },
        {
          "internalType": "int256",
          "name": "",
          "type": "int256"
        },
        {
          "internalType": "int256",
          "name": "",
          "type": "int256"
        },
        {
          "internalType": "int256",
          "name": "",
          "type": "int256"
        },
        {
          "internalType": "string",
          "name": "",
          "type": "string"
        },
        {
          "internalType": "uint256",
          "name": "",
          "type": "uint256"
        },
        {
          "internalType": "uint256",
          "name": "",
          "type": "uint256"
        },
        {
          "internalType": "uint256",
          "name": "",
          "type": "uint256"
        },
        {
          "internalType": "string[]",
          "name": "",
          "type": "string[]"
        },
        {
          "internalType": "uint256",
          "name": "",
          "type": "uint256"
        },
        {
          "internalType": "uint256",
          "name": "",
          "type": "uint256"
        }
      ],
      "payable": false,
      "stateMutability": "view",
      "type": "function"
    },
    {
      "constant": false,
      "inputs": [
        {
          "internalType": "address",
          "name": "_consigneeID",
          "type": "address"
        },
        {
          "internalType": "int256",
          "name": "_consigneeLat",
          "type": "int256"
        },
        {
          "internalType": "int256",
          "name": "_consigneeLng",
          "type": "int256"
        },
        {
          "internalType": "address",
          "name": "_consignorID",
          "type": "address"
        },
        {
          "internalType": "int256",
          "name": "_consignorLat",
          "type": "int256"
        },
        {
          "internalType": "int256",
          "name": "_consignorLng",
          "type": "int256"
        },
        {
          "internalType": "address",
          "name": "_carrierID",
          "type": "address"
        },
        {
          "internalType": "int256",
          "name": "_carrierLat",
          "type": "int256"
        },
        {
          "internalType": "int256",
          "name": "_carrierLng",
          "type": "int256"
        }
      ],
      "name": "initializeTenants",
      "outputs": [],
      "payable": true,
      "stateMutability": "payable",
      "type": "function"
    },
    {
      "constant": false,
      "inputs": [
        {
          "internalType": "int256",
          "name": "_shipFromLat",
          "type": "int256"
        },
        {
          "internalType": "int256",
          "name": "_shipFromLng",
          "type": "int256"
        },
        {
          "internalType": "int256",
          "name": "_shipToLat",
          "type": "int256"
        },
        {
          "internalType": "int256",
          "name": "_shipToLng",
          "type": "int256"
        },
        {
          "internalType": "string",
          "name": "_nature",
          "type": "string"
        },
        {
          "internalType": "uint256",
          "name": "_quantity",
          "type": "uint256"
        },
        {
          "internalType": "uint256",
          "name": "_grossWeight",
          "type": "uint256"
        },
        {
          "internalType": "uint256",
          "name": "_grossVolume",
          "type": "uint256"
        },
        {
          "internalType": "string",
          "name": "_newComment",
          "type": "string"
        },
        {
          "internalType": "uint256",
          "name": "_takeoverDate",
          "type": "uint256"
        }
      ],
      "name": "initializeCommand",
      "outputs": [],
      "payable": true,
      "stateMutability": "payable",
      "type": "function"
    },
    {
      "constant": false,
      "inputs": [
        {
          "internalType": "string",
          "name": "_newComment",
          "type": "string"
        }
      ],
      "name": "addComment",
      "outputs": [],
      "payable": true,
      "stateMutability": "payable",
      "type": "function"
    },
    {
      "constant": true,
      "inputs": [],
      "name": "getStatus",
      "outputs": [
        {
          "internalType": "string[]",
          "name": "",
          "type": "string[]"
        }
      ],
      "payable": false,
      "stateMutability": "view",
      "type": "function"
    }
  ],
  "bytecode": "0x608060405234801561001057600080fd5b5061121f806100206000396000f3fe6080604052600436106100555760003560e01c80630110da291461005a5780634e69d5601461008f57806353be7ded146100ba578063843b4386146100ed57806389718abd146101095780639b51717614610125575b600080fd5b34801561006657600080fd5b5061006f610141565b6040516100869b9a99989796959493929190610f70565b60405180910390f35b34801561009b57600080fd5b506100a4610314565b6040516100b19190610f4e565b60405180910390f35b3480156100c657600080fd5b506100cf6103fd565b6040516100e499989796959493929190610ec1565b60405180910390f35b61010760048036036101029190810190610cdc565b6104a2565b005b610123600480360361011e9190810190610b0b565b6104e4565b005b61013f600480360361013a9190810190610bd1565b610690565b005b600080600080606060008060006060600080600954600a54600b54600c54600d600e54600f546010546013601154601254868054600181600116156101000203166002900480601f0160208091040260200160405190810160405280929190818152602001828054600181600116156101000203166002900480156102075780601f106101dc57610100808354040283529160200191610207565b820191906000526020600020905b8154815290600101906020018083116101ea57829003601f168201915b5050505050965082805480602002602001604051908101604052809291908181526020016000905b828210156102eb578382906000526020600020018054600181600116156101000203166002900480601f0160208091040260200160405190810160405280929190818152602001828054600181600116156101000203166002900480156102d75780601f106102ac576101008083540402835291602001916102d7565b820191906000526020600020905b8154815290600101906020018083116102ba57829003601f168201915b50505050508152602001906001019061022f565b5050505092509a509a509a509a509a509a509a509a509a509a509a50909192939495969798999a565b60606014805480602002602001604051908101604052809291908181526020016000905b828210156103f4578382906000526020600020018054600181600116156101000203166002900480601f0160208091040260200160405190810160405280929190818152602001828054600181600116156101000203166002900480156103e05780601f106103b5576101008083540402835291602001916103e0565b820191906000526020600020905b8154815290600101906020018083116103c357829003601f168201915b505050505081526020019060010190610338565b50505050905090565b60008060008060008060008060008060009054906101000a900473ffffffffffffffffffffffffffffffffffffffff16600154600254600360009054906101000a900473ffffffffffffffffffffffffffffffffffffffff16600454600554600660009054906101000a900473ffffffffffffffffffffffffffffffffffffffff16600754600854985098509850985098509850985098509850909192939495969798565b60138190806001815401808255809150509060018203906000526020600020016000909192909190915090805190602001906104df9291906109d3565b505050565b886000806101000a81548173ffffffffffffffffffffffffffffffffffffffff021916908373ffffffffffffffffffffffffffffffffffffffff160217905550876001819055508660028190555085600360006101000a81548173ffffffffffffffffffffffffffffffffffffffff021916908373ffffffffffffffffffffffffffffffffffffffff160217905550846004819055508360028190555082600660006101000a81548173ffffffffffffffffffffffffffffffffffffffff021916908373ffffffffffffffffffffffffffffffffffffffff160217905550816007819055508060088190555060146106496105de42610871565b6040518060400160405280601281526020017f696e697469616c697a656454656e616e7473000000000000000000000000000081525060405180602001604052806000815250604051806020016040528060008152506040518060200160405280600081525061099e565b90806001815401808255809150509060018203906000526020600020016000909192909190915090805190602001906106839291906109d3565b5050505050505050505050565b8960098190555088600a8190555087600b8190555086600c8190555085600d90805190602001906106c29291906109d3565b5084600e8190555083600f81905550826010819055508060128190555060138060018154018082558091505090600182039060005260206000200160006040518060400160405280601681526020017f5b494e464f5d20496e697469616c697a6174696f6e2e000000000000000000008152509091909150908051906020019061074d9291906109d3565b505060405180602001604052806000815250518251146107a75760138290806001815401808255809150509060018203906000526020600020016000909192909190915090805190602001906107a49291906109d3565b50505b4260118190555060146108296107be601154610871565b6040518060400160405280601281526020017f696e697469616c697a6564436f6d6d616e64000000000000000000000000000081525060405180602001604052806000815250604051806020016040528060008152506040518060200160405280600081525061099e565b90806001815401808255809150509060018203906000526020600020016000909192909190915090805190602001906108639291906109d3565b505050505050505050505050565b606060008214156108b9576040518060400160405280600181526020017f30000000000000000000000000000000000000000000000000000000000000008152509050610999565b600082905060005b600082146108e3578080600101915050600a82816108db57fe5b0491506108c1565b6060816040519080825280601f01601f1916602001820160405280156109185781602001600182028038833980820191505090505b50905060006001830390505b6000861461099157600a868161093657fe5b0660300160f81b8282806001900393508151811061095057fe5b60200101907effffffffffffffffffffffffffffffffffffffffffffffffffffffffffffff1916908160001a905350600a868161098957fe5b049550610924565b819450505050505b919050565b606085858585856040516020016109b9959493929190610e76565b604051602081830303815290604052905095945050505050565b828054600181600116156101000203166002900490600052602060002090601f016020900481019282601f10610a1457805160ff1916838001178555610a42565b82800160010185558215610a42579182015b82811115610a41578251825591602001919060010190610a26565b5b509050610a4f9190610a53565b5090565b610a7591905b80821115610a71576000816000905550600101610a59565b5090565b90565b600081359050610a8781611197565b92915050565b600081359050610a9c816111ae565b92915050565b600082601f830112610ab357600080fd5b8135610ac6610ac182611056565b611029565b91508082526020830160208301858383011115610ae257600080fd5b610aed838284611144565b50505092915050565b600081359050610b05816111c5565b92915050565b60008060008060008060008060006101208a8c031215610b2a57600080fd5b6000610b388c828d01610a78565b9950506020610b498c828d01610a8d565b9850506040610b5a8c828d01610a8d565b9750506060610b6b8c828d01610a78565b9650506080610b7c8c828d01610a8d565b95505060a0610b8d8c828d01610a8d565b94505060c0610b9e8c828d01610a78565b93505060e0610baf8c828d01610a8d565b925050610100610bc18c828d01610a8d565b9150509295985092959850929598565b6000806000806000806000806000806101408b8d031215610bf157600080fd5b6000610bff8d828e01610a8d565b9a50506020610c108d828e01610a8d565b9950506040610c218d828e01610a8d565b9850506060610c328d828e01610a8d565b97505060808b013567ffffffffffffffff811115610c4f57600080fd5b610c5b8d828e01610aa2565b96505060a0610c6c8d828e01610af6565b95505060c0610c7d8d828e01610af6565b94505060e0610c8e8d828e01610af6565b9350506101008b013567ffffffffffffffff811115610cac57600080fd5b610cb88d828e01610aa2565b925050610120610cca8d828e01610af6565b9150509295989b9194979a5092959850565b600060208284031215610cee57600080fd5b600082013567ffffffffffffffff811115610d0857600080fd5b610d1484828501610aa2565b91505092915050565b6000610d298383610e2e565b905092915050565b610d3a816110fe565b82525050565b6000610d4b82611092565b610d5581856110c0565b935083602082028501610d6785611082565b8060005b85811015610da35784840389528151610d848582610d1d565b9450610d8f836110b3565b925060208a01995050600181019050610d6b565b50829750879550505050505092915050565b610dbe81611110565b82525050565b6000610dcf826110a8565b610dd981856110e2565b9350610de9818560208601611153565b610df281611186565b840191505092915050565b6000610e08826110a8565b610e1281856110f3565b9350610e22818560208601611153565b80840191505092915050565b6000610e398261109d565b610e4381856110d1565b9350610e53818560208601611153565b610e5c81611186565b840191505092915050565b610e708161113a565b82525050565b6000610e828288610dfd565b9150610e8e8287610dfd565b9150610e9a8286610dfd565b9150610ea68285610dfd565b9150610eb28284610dfd565b91508190509695505050505050565b600061012082019050610ed7600083018c610d31565b610ee4602083018b610db5565b610ef1604083018a610db5565b610efe6060830189610d31565b610f0b6080830188610db5565b610f1860a0830187610db5565b610f2560c0830186610d31565b610f3260e0830185610db5565b610f40610100830184610db5565b9a9950505050505050505050565b60006020820190508181036000830152610f688184610d40565b905092915050565b600061016082019050610f86600083018e610db5565b610f93602083018d610db5565b610fa0604083018c610db5565b610fad606083018b610db5565b8181036080830152610fbf818a610dc4565b9050610fce60a0830189610e67565b610fdb60c0830188610e67565b610fe860e0830187610e67565b818103610100830152610ffb8186610d40565b905061100b610120830185610e67565b611019610140830184610e67565b9c9b505050505050505050505050565b6000604051905081810181811067ffffffffffffffff8211171561104c57600080fd5b8060405250919050565b600067ffffffffffffffff82111561106d57600080fd5b601f19601f8301169050602081019050919050565b6000819050602082019050919050565b600081519050919050565b600081519050919050565b600081519050919050565b6000602082019050919050565b600082825260208201905092915050565b600082825260208201905092915050565b600082825260208201905092915050565b600081905092915050565b60006111098261111a565b9050919050565b6000819050919050565b600073ffffffffffffffffffffffffffffffffffffffff82169050919050565b6000819050919050565b82818337600083830152505050565b60005b83811015611171578082015181840152602081019050611156565b83811115611180576000848401525b50505050565b6000601f19601f8301169050919050565b6111a0816110fe565b81146111ab57600080fd5b50565b6111b781611110565b81146111c257600080fd5b50565b6111ce8161113a565b81146111d957600080fd5b5056fea365627a7a7231582000df35da817753bc76fd14e5913eb71822907c995bd33c9d942c020dda8d425e6c6578706572696d656e74616cf564736f6c63430005100040",
  "source": "pragma solidity ^0.5.16;\npragma experimental ABIEncoderV2;\ncontract ECMR {\n\n    // initialization of the ECMR \n    address  consigneeID;\n    int  consigneeLat;\n    int  consigneeLng;\n    \n    address  consignorID;\n    int  consignorLat;\n    int  consignorLng;\n\n    address  carrierID;\n    int  carrierLat;\n    int  carrierLng;\n\n    int  shipFromLat;\n    int  shipFromLng;\n\n    int  shipToLat;\n    int  shipToLng;\n\n    string  nature;\n    uint  quantity;\n    uint  grossWeight;\n    uint  grossVolume;\n\n    uint  issuanceDate;\n    uint  takeoverDate;\n\n    string[] comments;\n\n    string[] status;\n    \n    function uint2str(uint _i) internal pure returns (string memory _uintAsString) {\n        if (_i == 0) {\n            return \"0\";\n        }\n        uint j = _i;\n        uint len;\n        while (j != 0) {\n            len++;\n            j /= 10;\n        }\n        bytes memory bstr = new bytes(len);\n        uint k = len - 1;\n        while (_i != 0) {\n            bstr[k--] = byte(uint8(48 + _i % 10));\n            _i /= 10;\n        }\n        return string(bstr);\n    }\n    \n    function append(string memory a, string memory b, string memory c, string memory d, string memory e) internal pure returns (string memory) {\n        return string(abi.encodePacked(a, b, c, d, e));\n    }\n    \n    \n    function getTenants() public view returns (address, int, int, address, int, int, address, int, int){\n        return (consigneeID, consigneeLat, consigneeLng, \n                consignorID, consignorLat, consignorLng,\n                carrierID, carrierLat, carrierLng);\n    }\n    \n    function getCommand() public view returns (int, int, int, int, string memory, uint, uint, uint, string[] memory, uint, uint){\n        return (shipFromLat, shipFromLng, shipToLat, shipToLng, \n                nature, quantity, grossWeight, grossVolume,\n                comments, issuanceDate, takeoverDate);\n    }\n\n\n    function initializeTenants(address _consigneeID, int _consigneeLat, int _consigneeLng,\n                                address _consignorID, int _consignorLat, int _consignorLng,\n                                address _carrierID, int _carrierLat, int _carrierLng) public payable {\n                                    \n        consigneeID = _consigneeID;\n        consigneeLat = _consigneeLat;\n        consigneeLng = _consigneeLng;\n        \n        consignorID = _consignorID;\n        consignorLat = _consignorLat;\n        consigneeLng = _consignorLng;\n        \n        carrierID = _carrierID;\n        carrierLat = _carrierLat;\n        carrierLng = _carrierLng;\n        \n                                    \n        status.push(append(uint2str(now), 'initializedTenants', '', '', ''));\n    }\n    \n    function initializeCommand( int _shipFromLat, int _shipFromLng, int _shipToLat, int _shipToLng,\n                                string memory _nature, uint _quantity, uint _grossWeight, uint _grossVolume,\n                                string memory _newComment, uint _takeoverDate\n                                ) public payable {\n                                    \n        shipFromLat = _shipFromLat;\n        shipFromLng = _shipFromLng;\n        shipToLat = _shipToLat;\n        shipToLng = _shipToLng;\n        \n        nature =_nature;\n        quantity = _quantity;\n        grossWeight =_grossWeight;\n        grossVolume = _grossVolume;\n\n        takeoverDate = _takeoverDate;\n        \n        comments.push('[INFO] Initialization.');\n        \n        if(bytes(_newComment).length != bytes('').length) {\n            comments.push(_newComment);\n        } \n\n        issuanceDate = now;\n\n        status.push(append(uint2str(issuanceDate), 'initializedCommand', '', '', ''));\n\n    }\n    \n\n    function addComment(string memory _newComment) public payable {\n        comments.push(_newComment);\n    }\n    \n    function getStatus() public view returns (string[] memory) {\n     return status;   \n    }\n\n\n}",
  "sourcePath": "/home/vtlr2002/source/SMLogs/contracts/ECMR.sol",
  "compiler": {
    "name": "solc",
    "version": "0.5.16+commit.9c3226ce.Emscripten.clang"
  },
  "schemaVersion": "3.2.4",
  "updatedAt": "2020-11-22T15:38:56.171Z",
  "devdoc": {
    "methods": {}
  },
  "userdoc": {
    "methods": {}
  }
}