{
  "contractName": "ECMR",
  "abi": [
    {
      "constant": true,
      "inputs": [],
      "name": "getTenants",
      "outputs": [
        {
          "internalType": "address",
          "name": "",
          "type": "address"
        },
        {
          "internalType": "string",
          "name": "",
          "type": "string"
        },
        {
          "internalType": "string",
          "name": "",
          "type": "string"
        },
        {
          "internalType": "address",
          "name": "",
          "type": "address"
        },
        {
          "internalType": "string",
          "name": "",
          "type": "string"
        },
        {
          "internalType": "string",
          "name": "",
          "type": "string"
        },
        {
          "internalType": "address",
          "name": "",
          "type": "address"
        },
        {
          "internalType": "string",
          "name": "",
          "type": "string"
        },
        {
          "internalType": "string",
          "name": "",
          "type": "string"
        }
      ],
      "payable": false,
      "stateMutability": "view",
      "type": "function"
    },
    {
      "constant": true,
      "inputs": [],
      "name": "getCommand",
      "outputs": [
        {
          "internalType": "string",
          "name": "",
          "type": "string"
        },
        {
          "internalType": "string",
          "name": "",
          "type": "string"
        },
        {
          "internalType": "string",
          "name": "",
          "type": "string"
        },
        {
          "internalType": "string",
          "name": "",
          "type": "string"
        },
        {
          "internalType": "string",
          "name": "",
          "type": "string"
        },
        {
          "internalType": "uint256",
          "name": "",
          "type": "uint256"
        },
        {
          "internalType": "uint256",
          "name": "",
          "type": "uint256"
        },
        {
          "internalType": "uint256",
          "name": "",
          "type": "uint256"
        },
        {
          "internalType": "string[]",
          "name": "",
          "type": "string[]"
        },
        {
          "internalType": "string",
          "name": "",
          "type": "string"
        },
        {
          "internalType": "string",
          "name": "",
          "type": "string"
        }
      ],
      "payable": false,
      "stateMutability": "view",
      "type": "function"
    },
    {
      "constant": false,
      "inputs": [
        {
          "internalType": "address",
          "name": "_consigneeID",
          "type": "address"
        },
        {
          "internalType": "string",
          "name": "_consigneeLat",
          "type": "string"
        },
        {
          "internalType": "string",
          "name": "_consigneeLng",
          "type": "string"
        },
        {
          "internalType": "address",
          "name": "_consignorID",
          "type": "address"
        },
        {
          "internalType": "string",
          "name": "_consignorLat",
          "type": "string"
        },
        {
          "internalType": "string",
          "name": "_consignorLng",
          "type": "string"
        },
        {
          "internalType": "address",
          "name": "_carrierID",
          "type": "address"
        },
        {
          "internalType": "string",
          "name": "_carrierLat",
          "type": "string"
        },
        {
          "internalType": "string",
          "name": "_carrierLng",
          "type": "string"
        },
        {
          "internalType": "string",
          "name": "_issuanceDate",
          "type": "string"
        }
      ],
      "name": "initializeTenants",
      "outputs": [],
      "payable": true,
      "stateMutability": "payable",
      "type": "function"
    },
    {
      "constant": false,
      "inputs": [
        {
          "internalType": "string",
          "name": "_shipFromLat",
          "type": "string"
        },
        {
          "internalType": "string",
          "name": "_shipFromLng",
          "type": "string"
        },
        {
          "internalType": "string",
          "name": "_shipToLat",
          "type": "string"
        },
        {
          "internalType": "string",
          "name": "_shipToLng",
          "type": "string"
        },
        {
          "internalType": "string",
          "name": "_nature",
          "type": "string"
        },
        {
          "internalType": "uint256",
          "name": "_quantity",
          "type": "uint256"
        },
        {
          "internalType": "uint256",
          "name": "_grossWeight",
          "type": "uint256"
        },
        {
          "internalType": "uint256",
          "name": "_grossVolume",
          "type": "uint256"
        },
        {
          "internalType": "string",
          "name": "_newComment",
          "type": "string"
        },
        {
          "internalType": "string",
          "name": "_takeoverDate",
          "type": "string"
        },
        {
          "internalType": "string",
          "name": "_issuanceDate",
          "type": "string"
        }
      ],
      "name": "initializeCommand",
      "outputs": [],
      "payable": true,
      "stateMutability": "payable",
      "type": "function"
    },
    {
      "constant": false,
      "inputs": [
        {
          "internalType": "string",
          "name": "_newComment",
          "type": "string"
        }
      ],
      "name": "addComment",
      "outputs": [],
      "payable": true,
      "stateMutability": "payable",
      "type": "function"
    },
    {
      "constant": true,
      "inputs": [],
      "name": "getStatus",
      "outputs": [
        {
          "internalType": "string[]",
          "name": "",
          "type": "string[]"
        }
      ],
      "payable": false,
      "stateMutability": "view",
      "type": "function"
    }
  ],
  "bytecode": "0x608060405234801561001057600080fd5b506119ff806100206000396000f3fe6080604052600436106100555760003560e01c80630110da291461005a5780634e69d5601461008f57806353be7ded146100ba578063843b4386146100ed578063844008d114610109578063fb65189914610125575b600080fd5b34801561006657600080fd5b5061006f610141565b6040516100869b9a99989796959493929190611747565b60405180910390f35b34801561009b57600080fd5b506100a46106b6565b6040516100b19190611725565b60405180910390f35b3480156100c657600080fd5b506100cf61079f565b6040516100e49998979695949392919061166e565b60405180910390f35b610107600480360361010291908101906112e8565b610be7565b005b610123600480360361011e9190810190611329565b610c29565b005b61013f600480360361013a9190810190611165565b610e08565b005b6060806060806060600080600060608060606009600a600b600c600d600e54600f546010546013601160128a8054600181600116156101000203166002900480601f0160208091040260200160405190810160405280929190818152602001828054600181600116156101000203166002900480156102015780601f106101d657610100808354040283529160200191610201565b820191906000526020600020905b8154815290600101906020018083116101e457829003601f168201915b50505050509a50898054600181600116156101000203166002900480601f01602080910402602001604051908101604052809291908181526020018280546001816001161561010002031660029004801561029d5780601f106102725761010080835404028352916020019161029d565b820191906000526020600020905b81548152906001019060200180831161028057829003601f168201915b50505050509950888054600181600116156101000203166002900480601f0160208091040260200160405190810160405280929190818152602001828054600181600116156101000203166002900480156103395780601f1061030e57610100808354040283529160200191610339565b820191906000526020600020905b81548152906001019060200180831161031c57829003601f168201915b50505050509850878054600181600116156101000203166002900480601f0160208091040260200160405190810160405280929190818152602001828054600181600116156101000203166002900480156103d55780601f106103aa576101008083540402835291602001916103d5565b820191906000526020600020905b8154815290600101906020018083116103b857829003601f168201915b50505050509750868054600181600116156101000203166002900480601f0160208091040260200160405190810160405280929190818152602001828054600181600116156101000203166002900480156104715780601f1061044657610100808354040283529160200191610471565b820191906000526020600020905b81548152906001019060200180831161045457829003601f168201915b5050505050965082805480602002602001604051908101604052809291908181526020016000905b82821015610555578382906000526020600020018054600181600116156101000203166002900480601f0160208091040260200160405190810160405280929190818152602001828054600181600116156101000203166002900480156105415780601f1061051657610100808354040283529160200191610541565b820191906000526020600020905b81548152906001019060200180831161052457829003601f168201915b505050505081526020019060010190610499565b505050509250818054600181600116156101000203166002900480601f0160208091040260200160405190810160405280929190818152602001828054600181600116156101000203166002900480156105f05780601f106105c5576101008083540402835291602001916105f0565b820191906000526020600020905b8154815290600101906020018083116105d357829003601f168201915b50505050509150808054600181600116156101000203166002900480601f01602080910402602001604051908101604052809291908181526020018280546001816001161561010002031660029004801561068c5780601f106106615761010080835404028352916020019161068c565b820191906000526020600020905b81548152906001019060200180831161066f57829003601f168201915b505050505090509a509a509a509a509a509a509a509a509a509a509a50909192939495969798999a565b60606014805480602002602001604051908101604052809291908181526020016000905b82821015610796578382906000526020600020018054600181600116156101000203166002900480601f0160208091040260200160405190810160405280929190818152602001828054600181600116156101000203166002900480156107825780601f1061075757610100808354040283529160200191610782565b820191906000526020600020905b81548152906001019060200180831161076557829003601f168201915b5050505050815260200190600101906106da565b50505050905090565b6000606080600060608060006060806000809054906101000a900473ffffffffffffffffffffffffffffffffffffffff1660016002600360009054906101000a900473ffffffffffffffffffffffffffffffffffffffff1660046005600660009054906101000a900473ffffffffffffffffffffffffffffffffffffffff1660076008878054600181600116156101000203166002900480601f0160208091040260200160405190810160405280929190818152602001828054600181600116156101000203166002900480156108b75780601f1061088c576101008083540402835291602001916108b7565b820191906000526020600020905b81548152906001019060200180831161089a57829003601f168201915b50505050509750868054600181600116156101000203166002900480601f0160208091040260200160405190810160405280929190818152602001828054600181600116156101000203166002900480156109535780601f1061092857610100808354040283529160200191610953565b820191906000526020600020905b81548152906001019060200180831161093657829003601f168201915b50505050509650848054600181600116156101000203166002900480601f0160208091040260200160405190810160405280929190818152602001828054600181600116156101000203166002900480156109ef5780601f106109c4576101008083540402835291602001916109ef565b820191906000526020600020905b8154815290600101906020018083116109d257829003601f168201915b50505050509450838054600181600116156101000203166002900480601f016020809104026020016040519081016040528092919081815260200182805460018160011615610100020316600290048015610a8b5780601f10610a6057610100808354040283529160200191610a8b565b820191906000526020600020905b815481529060010190602001808311610a6e57829003601f168201915b50505050509350818054600181600116156101000203166002900480601f016020809104026020016040519081016040528092919081815260200182805460018160011615610100020316600290048015610b275780601f10610afc57610100808354040283529160200191610b27565b820191906000526020600020905b815481529060010190602001808311610b0a57829003601f168201915b50505050509150808054600181600116156101000203166002900480601f016020809104026020016040519081016040528092919081815260200182805460018160011615610100020316600290048015610bc35780601f10610b9857610100808354040283529160200191610bc3565b820191906000526020600020905b815481529060010190602001808311610ba657829003601f168201915b50505050509050985098509850985098509850985098509850909192939495969798565b6013819080600181540180825580915050906001820390600052602060002001600090919290919091509080519060200190610c24929190611042565b505050565b8a60099080519060200190610c3f929190611042565b5089600a9080519060200190610c56929190611042565b5088600b9080519060200190610c6d929190611042565b5087600c9080519060200190610c84929190611042565b5086600d9080519060200190610c9b929190611042565b5085600e8190555084600f81905550836010819055508160129080519060200190610cc7929190611042565b508060119080519060200190610cde929190611042565b506040518060200160405280600081525051835114610d37576013839080600181540180825580915050906001820390600052602060002001600090919290919091509080519060200190610d34929190611042565b50505b8060119080519060200190610d4d929190611042565b506014610dbf826040518060400160405280601481526020017f3a20696e697469616c697a6564436f6d6d616e6400000000000000000000000081525060405180602001604052806000815250604051806020016040528060008152506040518060200160405280600081525061100d565b9080600181540180825580915050906001820390600052602060002001600090919290919091509080519060200190610df9929190611042565b50505050505050505050505050565b896000806101000a81548173ffffffffffffffffffffffffffffffffffffffff021916908373ffffffffffffffffffffffffffffffffffffffff1602179055508860019080519060200190610e5e929190611042565b508760029080519060200190610e75929190611042565b5086600360006101000a81548173ffffffffffffffffffffffffffffffffffffffff021916908373ffffffffffffffffffffffffffffffffffffffff1602179055508560049080519060200190610ecd929190611042565b508460059080519060200190610ee4929190611042565b5083600660006101000a81548173ffffffffffffffffffffffffffffffffffffffff021916908373ffffffffffffffffffffffffffffffffffffffff1602179055508260079080519060200190610f3c929190611042565b508160089080519060200190610f53929190611042565b506014610fc5826040518060400160405280601481526020017f3a20696e697469616c697a656454656e616e747300000000000000000000000081525060405180602001604052806000815250604051806020016040528060008152506040518060200160405280600081525061100d565b9080600181540180825580915050906001820390600052602060002001600090919290919091509080519060200190610fff929190611042565b505050505050505050505050565b60608585858585604051602001611028959493929190611623565b604051602081830303815290604052905095945050505050565b828054600181600116156101000203166002900490600052602060002090601f016020900481019282601f1061108357805160ff19168380011785556110b1565b828001600101855582156110b1579182015b828111156110b0578251825591602001919060010190611095565b5b5090506110be91906110c2565b5090565b6110e491905b808211156110e05760008160009055506001016110c8565b5090565b90565b6000813590506110f68161198e565b92915050565b600082601f83011261110d57600080fd5b813561112061111b82611857565b61182a565b9150808252602083016020830185838301111561113c57600080fd5b61114783828461193b565b50505092915050565b60008135905061115f816119a5565b92915050565b6000806000806000806000806000806101408b8d03121561118557600080fd5b60006111938d828e016110e7565b9a505060208b013567ffffffffffffffff8111156111b057600080fd5b6111bc8d828e016110fc565b99505060408b013567ffffffffffffffff8111156111d957600080fd5b6111e58d828e016110fc565b98505060606111f68d828e016110e7565b97505060808b013567ffffffffffffffff81111561121357600080fd5b61121f8d828e016110fc565b96505060a08b013567ffffffffffffffff81111561123c57600080fd5b6112488d828e016110fc565b95505060c06112598d828e016110e7565b94505060e08b013567ffffffffffffffff81111561127657600080fd5b6112828d828e016110fc565b9350506101008b013567ffffffffffffffff8111156112a057600080fd5b6112ac8d828e016110fc565b9250506101208b013567ffffffffffffffff8111156112ca57600080fd5b6112d68d828e016110fc565b9150509295989b9194979a5092959850565b6000602082840312156112fa57600080fd5b600082013567ffffffffffffffff81111561131457600080fd5b611320848285016110fc565b91505092915050565b60008060008060008060008060008060006101608c8e03121561134b57600080fd5b60008c013567ffffffffffffffff81111561136557600080fd5b6113718e828f016110fc565b9b505060208c013567ffffffffffffffff81111561138e57600080fd5b61139a8e828f016110fc565b9a505060408c013567ffffffffffffffff8111156113b757600080fd5b6113c38e828f016110fc565b99505060608c013567ffffffffffffffff8111156113e057600080fd5b6113ec8e828f016110fc565b98505060808c013567ffffffffffffffff81111561140957600080fd5b6114158e828f016110fc565b97505060a06114268e828f01611150565b96505060c06114378e828f01611150565b95505060e06114488e828f01611150565b9450506101008c013567ffffffffffffffff81111561146657600080fd5b6114728e828f016110fc565b9350506101208c013567ffffffffffffffff81111561149057600080fd5b61149c8e828f016110fc565b9250506101408c013567ffffffffffffffff8111156114ba57600080fd5b6114c68e828f016110fc565b9150509295989b509295989b9093969950565b60006114e583836115db565b905092915050565b6114f6816118ff565b82525050565b600061150782611893565b61151181856118c1565b93508360208202850161152385611883565b8060005b8581101561155f578484038952815161154085826114d9565b945061154b836118b4565b925060208a01995050600181019050611527565b50829750879550505050505092915050565b600061157c826118a9565b61158681856118e3565b935061159681856020860161194a565b61159f8161197d565b840191505092915050565b60006115b5826118a9565b6115bf81856118f4565b93506115cf81856020860161194a565b80840191505092915050565b60006115e68261189e565b6115f081856118d2565b935061160081856020860161194a565b6116098161197d565b840191505092915050565b61161d81611931565b82525050565b600061162f82886115aa565b915061163b82876115aa565b915061164782866115aa565b915061165382856115aa565b915061165f82846115aa565b91508190509695505050505050565b600061012082019050611684600083018c6114ed565b8181036020830152611696818b611571565b905081810360408301526116aa818a611571565b90506116b960608301896114ed565b81810360808301526116cb8188611571565b905081810360a08301526116df8187611571565b90506116ee60c08301866114ed565b81810360e08301526117008185611571565b90508181036101008301526117158184611571565b90509a9950505050505050505050565b6000602082019050818103600083015261173f81846114fc565b905092915050565b6000610160820190508181036000830152611762818e611571565b90508181036020830152611776818d611571565b9050818103604083015261178a818c611571565b9050818103606083015261179e818b611571565b905081810360808301526117b2818a611571565b90506117c160a0830189611614565b6117ce60c0830188611614565b6117db60e0830187611614565b8181036101008301526117ee81866114fc565b90508181036101208301526118038185611571565b90508181036101408301526118188184611571565b90509c9b505050505050505050505050565b6000604051905081810181811067ffffffffffffffff8211171561184d57600080fd5b8060405250919050565b600067ffffffffffffffff82111561186e57600080fd5b601f19601f8301169050602081019050919050565b6000819050602082019050919050565b600081519050919050565b600081519050919050565b600081519050919050565b6000602082019050919050565b600082825260208201905092915050565b600082825260208201905092915050565b600082825260208201905092915050565b600081905092915050565b600061190a82611911565b9050919050565b600073ffffffffffffffffffffffffffffffffffffffff82169050919050565b6000819050919050565b82818337600083830152505050565b60005b8381101561196857808201518184015260208101905061194d565b83811115611977576000848401525b50505050565b6000601f19601f8301169050919050565b611997816118ff565b81146119a257600080fd5b50565b6119ae81611931565b81146119b957600080fd5b5056fea365627a7a723158203daef37b01a0ac5910958a92e216585bd47daf7bcfe690d82795a77065f33b7f6c6578706572696d656e74616cf564736f6c63430005100040",
  "source": "pragma solidity ^0.5.16;\npragma experimental ABIEncoderV2;\ncontract ECMR {\n\n    // initialization of the ECMR \n    address  consigneeID;\n    string  consigneeLat;\n    string  consigneeLng;\n    \n    address  consignorID;\n    string  consignorLat;\n    string  consignorLng;\n\n    address  carrierID;\n    string  carrierLat;\n    string  carrierLng;\n\n    string  shipFromLat;\n    string  shipFromLng;\n\n    string  shipToLat;\n    string  shipToLng;\n\n    string  nature;\n    uint  quantity;\n    uint  grossWeight;\n    uint  grossVolume;\n\n    string  issuanceDate;\n    string  takeoverDate;\n\n    string[] comments;\n\n    string[] status;\n    \n    function uint2str(uint _i) internal pure returns (string memory _uintAsString) {\n        if (_i == 0) {\n            return \"0\";\n        }\n        uint j = _i;\n        uint len;\n        while (j != 0) {\n            len++;\n            j /= 10;\n        }\n        bytes memory bstr = new bytes(len);\n        uint k = len - 1;\n        while (_i != 0) {\n            bstr[k--] = byte(uint8(48 + _i % 10));\n            _i /= 10;\n        }\n        return string(bstr);\n    }\n    \n    function append(string memory a, string memory b, string memory c, string memory d, string memory e) internal pure returns (string memory) {\n        return string(abi.encodePacked(a, b, c, d, e));\n    }\n    \n    \n    function getTenants() public view returns (address, string memory, string memory, address, string memory, string memory, address, string memory, string memory){\n        return (consigneeID, consigneeLat, consigneeLng, \n                consignorID, consignorLat, consignorLng,\n                carrierID, carrierLat, carrierLng);\n    }\n    \n    function getCommand() public view returns (string memory, string memory, string memory, string memory, string memory, uint, uint, uint, string[] memory, string memory, string memory){\n        return (shipFromLat, shipFromLng, shipToLat, shipToLng, \n                nature, quantity, grossWeight, grossVolume,\n                comments, issuanceDate, takeoverDate);\n    }\n\n\n    function initializeTenants(address _consigneeID, string memory _consigneeLat, string memory _consigneeLng,\n                                address _consignorID, string memory _consignorLat, string memory _consignorLng,\n                                address _carrierID, string memory _carrierLat, string memory _carrierLng, string memory _issuanceDate) public payable {\n                                    \n        consigneeID = _consigneeID;\n        consigneeLat = _consigneeLat;\n        consigneeLng = _consigneeLng;\n        \n        consignorID = _consignorID;\n        consignorLat = _consignorLat;\n        consignorLng = _consignorLng;\n        \n        carrierID = _carrierID;\n        carrierLat = _carrierLat;\n        carrierLng = _carrierLng;\n        \n                                    \n        status.push(append(_issuanceDate, ': initializedTenants', '', '', ''));\n    }\n    \n    function initializeCommand( string memory _shipFromLat, string memory _shipFromLng, string memory _shipToLat, string memory _shipToLng,\n                                string memory _nature, uint _quantity, uint _grossWeight, uint _grossVolume,\n                                string memory _newComment, string memory _takeoverDate, string memory _issuanceDate\n                                ) public payable {\n                                    \n        shipFromLat = _shipFromLat;\n        shipFromLng = _shipFromLng;\n        shipToLat = _shipToLat;\n        shipToLng = _shipToLng;\n        \n        nature =_nature;\n        quantity = _quantity;\n        grossWeight =_grossWeight;\n        grossVolume = _grossVolume;\n\n        takeoverDate = _takeoverDate;\n        issuanceDate = _issuanceDate;\n        \n        if(bytes(_newComment).length != bytes('').length) {\n            comments.push(_newComment);\n        } \n\n        issuanceDate = _issuanceDate;\n\n        status.push(append(_issuanceDate, ': initializedCommand', '', '', ''));\n\n    }\n    \n\n    function addComment(string memory _newComment) public payable {\n        comments.push(_newComment);\n    }\n    \n    function getStatus() public view returns (string[] memory) {\n     return status;   \n    }\n\n\n}",
  "sourcePath": "/home/vtlr2002/source/SMLogs/contracts/ECMR.sol",
  "compiler": {
    "name": "solc",
    "version": "0.5.16+commit.9c3226ce.Emscripten.clang"
  },
  "schemaVersion": "3.2.4",
  "updatedAt": "2020-12-15T21:27:31.000Z",
  "networkType": "ethereum",
  "devdoc": {
    "methods": {}
  },
  "userdoc": {
    "methods": {}
  }
}