{
  "contractName": "Elect",
  "abi": [
    {
      "constant": true,
      "inputs": [],
      "name": "getFilteredCandidates",
      "outputs": [
        {
          "internalType": "uint256[]",
          "name": "",
          "type": "uint256[]"
        }
      ],
      "payable": false,
      "stateMutability": "view",
      "type": "function"
    },
    {
      "constant": true,
      "inputs": [],
      "name": "existsCandidates",
      "outputs": [
        {
          "internalType": "bool",
          "name": "",
          "type": "bool"
        }
      ],
      "payable": false,
      "stateMutability": "view",
      "type": "function"
    },
    {
      "constant": false,
      "inputs": [
        {
          "internalType": "uint256[][]",
          "name": "_candidates",
          "type": "uint256[][]"
        }
      ],
      "name": "setCandidates",
      "outputs": [],
      "payable": true,
      "stateMutability": "payable",
      "type": "function"
    },
    {
      "constant": true,
      "inputs": [],
      "name": "getCandidates",
      "outputs": [
        {
          "internalType": "uint256[][]",
          "name": "",
          "type": "uint256[][]"
        }
      ],
      "payable": false,
      "stateMutability": "view",
      "type": "function"
    },
    {
      "constant": true,
      "inputs": [],
      "name": "getTestState",
      "outputs": [
        {
          "internalType": "string",
          "name": "",
          "type": "string"
        }
      ],
      "payable": false,
      "stateMutability": "view",
      "type": "function"
    },
    {
      "constant": true,
      "inputs": [],
      "name": "getQoSList",
      "outputs": [
        {
          "internalType": "uint256[]",
          "name": "",
          "type": "uint256[]"
        }
      ],
      "payable": false,
      "stateMutability": "view",
      "type": "function"
    },
    {
      "constant": true,
      "inputs": [],
      "name": "getSortedQoS",
      "outputs": [
        {
          "internalType": "uint256[]",
          "name": "",
          "type": "uint256[]"
        }
      ],
      "payable": false,
      "stateMutability": "view",
      "type": "function"
    },
    {
      "constant": true,
      "inputs": [],
      "name": "getNormalized",
      "outputs": [
        {
          "internalType": "uint256[]",
          "name": "",
          "type": "uint256[]"
        }
      ],
      "payable": false,
      "stateMutability": "view",
      "type": "function"
    },
    {
      "constant": true,
      "inputs": [],
      "name": "getNormalizedArray",
      "outputs": [
        {
          "internalType": "uint256[][]",
          "name": "",
          "type": "uint256[][]"
        }
      ],
      "payable": false,
      "stateMutability": "view",
      "type": "function"
    },
    {
      "constant": true,
      "inputs": [],
      "name": "getQoS",
      "outputs": [
        {
          "internalType": "uint256",
          "name": "",
          "type": "uint256"
        }
      ],
      "payable": false,
      "stateMutability": "view",
      "type": "function"
    },
    {
      "constant": true,
      "inputs": [],
      "name": "getN",
      "outputs": [
        {
          "internalType": "uint256",
          "name": "",
          "type": "uint256"
        }
      ],
      "payable": false,
      "stateMutability": "view",
      "type": "function"
    },
    {
      "constant": true,
      "inputs": [],
      "name": "getBestProfiles",
      "outputs": [
        {
          "internalType": "uint256[][]",
          "name": "",
          "type": "uint256[][]"
        }
      ],
      "payable": false,
      "stateMutability": "view",
      "type": "function"
    },
    {
      "constant": false,
      "inputs": [
        {
          "internalType": "uint256[]",
          "name": "_person",
          "type": "uint256[]"
        },
        {
          "internalType": "uint256[]",
          "name": "_availability",
          "type": "uint256[]"
        }
      ],
      "name": "oneDayAvailability",
      "outputs": [
        {
          "internalType": "bool",
          "name": "",
          "type": "bool"
        }
      ],
      "payable": true,
      "stateMutability": "payable",
      "type": "function"
    },
    {
      "constant": false,
      "inputs": [
        {
          "internalType": "uint256[]",
          "name": "_person",
          "type": "uint256[]"
        },
        {
          "internalType": "uint256[]",
          "name": "_availability",
          "type": "uint256[]"
        }
      ],
      "name": "severalDaysAvailability",
      "outputs": [
        {
          "internalType": "bool",
          "name": "",
          "type": "bool"
        }
      ],
      "payable": true,
      "stateMutability": "payable",
      "type": "function"
    },
    {
      "constant": false,
      "inputs": [
        {
          "internalType": "uint256[]",
          "name": "filter",
          "type": "uint256[]"
        },
        {
          "internalType": "uint256[]",
          "name": "input",
          "type": "uint256[]"
        }
      ],
      "name": "computeQoS",
      "outputs": [],
      "payable": true,
      "stateMutability": "payable",
      "type": "function"
    },
    {
      "constant": false,
      "inputs": [
        {
          "internalType": "uint256[]",
          "name": "qosList",
          "type": "uint256[]"
        },
        {
          "internalType": "uint256[]",
          "name": "filteringAttributes",
          "type": "uint256[]"
        },
        {
          "internalType": "uint256[]",
          "name": "availability",
          "type": "uint256[]"
        }
      ],
      "name": "elect",
      "outputs": [],
      "payable": true,
      "stateMutability": "payable",
      "type": "function"
    }
  ],
  "bytecode": "0x60806040526000600560006101000a81548160ff0219169083151502179055506003600d5534801561003057600080fd5b50611d25806100406000396000f3fe6080604052600436106100f35760003560e01c806361c6e08b1161008a5780639ca5760e116100595780639ca5760e146102f2578063a74c2b4e1461030e578063f106b1a714610339578063f852f2f314610369576100f3565b806361c6e08b14610241578063639e79901461026c578063850b014414610297578063915a5715146102c2576100f3565b80632c9e582c116100c65780632c9e582c146101a4578063316c655d146101cf5780633e955225146101eb5780634c6fe56914610216576100f3565b806302cf21a8146100f857806306a49fce146101235780632306bdd71461014e5780632b3b1ba914610179575b600080fd5b34801561010457600080fd5b5061010d610385565b60405161011a9190611a88565b60405180910390f35b34801561012f57600080fd5b50610138610427565b6040516101459190611a29565b60405180910390f35b34801561015a57600080fd5b506101636104c6565b6040516101709190611a4b565b60405180910390f35b34801561018557600080fd5b5061018e61051e565b60405161019b9190611a6d565b60405180910390f35b3480156101b057600080fd5b506101b9610535565b6040516101c69190611a4b565b60405180910390f35b6101e960048036036101e49190810190611729565b61058d565b005b3480156101f757600080fd5b5061020061098d565b60405161020d9190611aea565b60405180910390f35b34801561022257600080fd5b5061022b610997565b6040516102389190611a4b565b60405180910390f35b34801561024d57600080fd5b506102566109ef565b6040516102639190611aea565b60405180910390f35b34801561027857600080fd5b506102816109f9565b60405161028e9190611a4b565b60405180910390f35b3480156102a357600080fd5b506102ac610a51565b6040516102b99190611a29565b60405180910390f35b6102dc60048036036102d791908101906116bd565b610af0565b6040516102e99190611a6d565b60405180910390f35b61030c6004803603610307919081019061167c565b610c70565b005b34801561031a57600080fd5b50610323610c8a565b6040516103309190611a29565b60405180910390f35b610353600480360361034e91908101906116bd565b610d29565b6040516103609190611a6d565b60405180910390f35b610383600480360361037e91908101906116bd565b610f2d565b005b606060028054600181600116156101000203166002900480601f01602080910402602001604051908101604052809291908181526020018280546001816001161561010002031660029004801561041d5780601f106103f25761010080835404028352916020019161041d565b820191906000526020600020905b81548152906001019060200180831161040057829003601f168201915b5050505050905090565b60606004805480602002602001604051908101604052809291908181526020016000905b828210156104bd578382906000526020600020018054806020026020016040519081016040528092919081815260200182805480156104a957602002820191906000526020600020905b815481526020019060010190808311610495575b50505050508152602001906001019061044b565b50505050905090565b6060600980548060200260200160405190810160405280929190818152602001828054801561051457602002820191906000526020600020905b815481526020019060010190808311610500575b5050505050905090565b6000600560009054906101000a900460ff16905090565b6060600080548060200260200160405190810160405280929190818152602001828054801561058357602002820191906000526020600020905b81548152602001906001019080831161056f575b5050505050905090565b60606004805490506040519080825280602002602001820160405280156105c35781602001602082028038833980820191505090505b50905060008090505b6004805490508110156106005760008282815181106105e757fe5b60200260200101818152505080806001019150506105cc565b5060008090505b600480549050811015610915576000600381610623919061120a565b506004818154811061063157fe5b90600052602060002001600390805461064b929190611236565b5060006001905060008090506000865160070190506000600790505b818110156106c957600188848151811061067d57fe5b60200260200101511480156106aa575060016003828154811061069c57fe5b906000526020600020015414155b156106b457600093505b82806001019350508080600101915050610667565b5082156109055760038651148061076d5750856003815181106106e857fe5b6020026020010151866000815181106106fd57fe5b602002602001015114801561073957508560048151811061071a57fe5b60200260200101518660018151811061072f57fe5b6020026020010151145b801561076c57508560058151811061074d57fe5b60200260200101518660028151811061076257fe5b6020026020010151145b5b1561081f576040518060400160405280600681526020017f6f6e656461790000000000000000000000000000000000000000000000000000815250600290805190602001906107bd929190611288565b50610818600380548060200260200160405190810160405280929190818152602001828054801561080d57602002820191906000526020600020905b8154815260200190600101908083116107f9575b505050505087610af0565b92506108c8565b6040518060400160405280600b81526020017f7365766572616c646179730000000000000000000000000000000000000000008152506002908051906020019061086a929190611288565b506108c560038054806020026020016040519081016040528092919081815260200182805480156108ba57602002820191906000526020600020905b8154815260200190600101908083116108a6575b505050505087610d29565b92505b82156109045760018585815181106108dc57fe5b6020026020010181815250506001600560006101000a81548160ff0219169083151502179055505b5b5050508080600101915050610607565b50806000908051906020019061092c929190611308565b50610987600080548060200260200160405190810160405280929190818152602001828054801561097c57602002820191906000526020600020905b815481526020019060010190808311610968575b505050505085610f2d565b50505050565b6000600c54905090565b6060600a8054806020026020016040519081016040528092919081815260200182805480156109e557602002820191906000526020600020905b8154815260200190600101908083116109d1575b5050505050905090565b6000600b54905090565b60606006805480602002602001604051908101604052809291908181526020018280548015610a4757602002820191906000526020600020905b815481526020019060010190808311610a33575b5050505050905090565b60606007805480602002602001604051908101604052809291908181526020016000905b82821015610ae757838290600052602060002001805480602002602001604051908101604052809291908181526020018280548015610ad357602002820191906000526020600020905b815481526020019060010190808311610abf575b505050505081526020019060010190610a75565b50505050905090565b60008083600181518110610b0057fe5b60200260200101519050600084600281518110610b1957fe5b60200260200101519050600085600381518110610b3257fe5b60200260200101519050600086600481518110610b4b57fe5b60200260200101519050600087600581518110610b6457fe5b60200260200101519050600088600681518110610b7d57fe5b60200260200101519050600088600081518110610b9657fe5b60200260200101519050600089600181518110610baf57fe5b6020026020010151905060008a600281518110610bc857fe5b602002602001015190506000600190508883148015610be657508782145b15610c0757838a1180610bf857508387105b15610c0257600090505b610c5d565b888314158015610c1657508782145b15610c43578289108015610c295750838a105b1580610c3457508286105b15610c3e57600090505b610c5c565b8782111580610c5157508185105b15610c5b57600090505b5b5b809a505050505050505050505092915050565b8060049080519060200190610c86929190611355565b5050565b6060600e805480602002602001604051908101604052809291908181526020016000905b82821015610d2057838290600052602060002001805480602002602001604051908101604052809291908181526020018280548015610d0c57602002820191906000526020600020905b815481526020019060010190808311610cf8575b505050505081526020019060010190610cae565b50505050905090565b60008060019050600084600181518110610d3f57fe5b60200260200101519050600085600281518110610d5857fe5b60200260200101519050600086600381518110610d7157fe5b60200260200101519050600087600481518110610d8a57fe5b60200260200101519050600088600581518110610da357fe5b60200260200101519050600089600681518110610dbc57fe5b60200260200101519050600089600081518110610dd557fe5b6020026020010151905060008a600181518110610dee57fe5b6020026020010151905060008b600281518110610e0757fe5b6020026020010151905060008c600381518110610e2057fe5b6020026020010151905060008d600481518110610e3957fe5b6020026020010151905060008e600581518110610e5257fe5b60200260200101519050858311610e6857600080fd5b8a85148015610e7657508984145b8015610e8157508681145b15610ea257858c1180610e9357508289105b15610e9d5760009c505b610f17565b8a8514158015610eb157508984145b8015610ebc57508681145b15610ef357848b108015610ecf5750858c105b1580610eda57508488105b80610ee457508188105b15610eee5760009c505b610f16565b8984111580610f0157508387105b80610f0b57508087105b15610f155760009c505b5b5b8c9d505050505050505050505050505092915050565b8051825114610f71576040517f08c379a0000000000000000000000000000000000000000000000000000000008152600401610f6890611aaa565b60405180910390fd5b6000600e81610f8091906113b5565b506000600981610f90919061120a565b5060008090505b815181101561100e576000610fd2848381518110610fb157fe5b6020026020010151848481518110610fc557fe5b602002602001015161119a565b90506009819080600181540180825580915050906001820390600052602060002001600090919290919091505550508080600101915050610f97565b5060606009805490506040519080825280602002602001820160405280156110455781602001602082028038833980820191505090505b50905060008090505b600980549050811015611098576009818154811061106857fe5b906000526020600020015482828151811061107f57fe5b602002602001018181525050808060010191505061104e565b5060008090505b600d54811015611194576000826000815181106110b857fe5b60200260200101519050600080905060008090505b60098054905081101561111c57828582815181106110e757fe5b6020026020010151111561110f5784818151811061110157fe5b602002602001015192508091505b80806001019150506110cd565b50600e6040518060400160405280838152602001848152509080600181540180825580915050906001820390600052602060002001600090919290919091509060026111699291906113e1565b5050600084828151811061117957fe5b6020026020010181815250505050808060010191505061109f565b50505050565b6000808314156111ad5760009050611204565b60008284029050828482816111be57fe5b04146111ff576040517f08c379a00000000000000000000000000000000000000000000000000000000081526004016111f690611aca565b60405180910390fd5b809150505b92915050565b81548183558181111561123157818360005260206000209182019101611230919061142e565b5b505050565b8280548282559060005260206000209081019282156112775760005260206000209182015b8281111561127657825482559160010191906001019061125b565b5b509050611284919061142e565b5090565b828054600181600116156101000203166002900490600052602060002090601f016020900481019282601f106112c957805160ff19168380011785556112f7565b828001600101855582156112f7579182015b828111156112f65782518255916020019190600101906112db565b5b509050611304919061142e565b5090565b828054828255906000526020600020908101928215611344579160200282015b82811115611343578251825591602001919060010190611328565b5b509050611351919061142e565b5090565b8280548282559060005260206000209081019282156113a4579160200282015b828111156113a3578251829080519060200190611393929190611453565b5091602001919060010190611375565b5b5090506113b191906114a0565b5090565b8154818355818111156113dc578183600052602060002091820191016113db91906114a0565b5b505050565b82805482825590600052602060002090810192821561141d579160200282015b8281111561141c578251825591602001919060010190611401565b5b50905061142a919061142e565b5090565b61145091905b8082111561144c576000816000905550600101611434565b5090565b90565b82805482825590600052602060002090810192821561148f579160200282015b8281111561148e578251825591602001919060010190611473565b5b50905061149c919061142e565b5090565b6114c991905b808211156114c557600081816114bc91906114cc565b506001016114a6565b5090565b90565b50805460008255906000526020600020908101906114ea919061142e565b50565b600082601f8301126114fe57600080fd5b813561151161150c82611b32565b611b05565b9150818183526020840193506020810190508360005b83811015611557578135860161153d8882611561565b845260208401935060208301925050600181019050611527565b5050505092915050565b600082601f83011261157257600080fd5b813561158561158082611b5a565b611b05565b915081818352602084019350602081019050838560208402820111156115aa57600080fd5b60005b838110156115da57816115c08882611667565b8452602084019350602083019250506001810190506115ad565b5050505092915050565b600082601f8301126115f557600080fd5b813561160861160382611b82565b611b05565b9150818183526020840193506020810190508385602084028201111561162d57600080fd5b60005b8381101561165d57816116438882611667565b845260208401935060208301925050600181019050611630565b5050505092915050565b60008135905061167681611ccb565b92915050565b60006020828403121561168e57600080fd5b600082013567ffffffffffffffff8111156116a857600080fd5b6116b4848285016114ed565b91505092915050565b600080604083850312156116d057600080fd5b600083013567ffffffffffffffff8111156116ea57600080fd5b6116f6858286016115e4565b925050602083013567ffffffffffffffff81111561171357600080fd5b61171f858286016115e4565b9150509250929050565b60008060006060848603121561173e57600080fd5b600084013567ffffffffffffffff81111561175857600080fd5b611764868287016115e4565b935050602084013567ffffffffffffffff81111561178157600080fd5b61178d868287016115e4565b925050604084013567ffffffffffffffff8111156117aa57600080fd5b6117b6868287016115e4565b9150509250925092565b60006117cc83836118bf565b905092915050565b60006117e08383611a0b565b60208301905092915050565b60006117f782611bda565b6118018185611c2d565b93508360208202850161181385611baa565b8060005b8581101561184f578484038952815161183085826117c0565b945061183b83611c06565b925060208a01995050600181019050611817565b50829750879550505050505092915050565b600061186c82611bf0565b6118768185611c4f565b935061188183611bca565b8060005b838110156118b257815161189988826117d4565b97506118a483611c20565b925050600181019050611885565b5085935050505092915050565b60006118ca82611be5565b6118d48185611c3e565b93506118df83611bba565b8060005b838110156119105781516118f788826117d4565b975061190283611c13565b9250506001810190506118e3565b5085935050505092915050565b61192681611c71565b82525050565b600061193782611bfb565b6119418185611c60565b9350611951818560208601611c87565b61195a81611cba565b840191505092915050565b6000611972600f83611c60565b91507f697373756520776974682073697a6500000000000000000000000000000000006000830152602082019050919050565b60006119b2602183611c60565b91507f536166654d6174683a206d756c7469706c69636174696f6e206f766572666c6f60008301527f77000000000000000000000000000000000000000000000000000000000000006020830152604082019050919050565b611a1481611c7d565b82525050565b611a2381611c7d565b82525050565b60006020820190508181036000830152611a4381846117ec565b905092915050565b60006020820190508181036000830152611a658184611861565b905092915050565b6000602082019050611a82600083018461191d565b92915050565b60006020820190508181036000830152611aa2818461192c565b905092915050565b60006020820190508181036000830152611ac381611965565b9050919050565b60006020820190508181036000830152611ae3816119a5565b9050919050565b6000602082019050611aff6000830184611a1a565b92915050565b6000604051905081810181811067ffffffffffffffff82111715611b2857600080fd5b8060405250919050565b600067ffffffffffffffff821115611b4957600080fd5b602082029050602081019050919050565b600067ffffffffffffffff821115611b7157600080fd5b602082029050602081019050919050565b600067ffffffffffffffff821115611b9957600080fd5b602082029050602081019050919050565b6000819050602082019050919050565b6000819050602082019050919050565b6000819050602082019050919050565b600081519050919050565b600081519050919050565b600081519050919050565b600081519050919050565b6000602082019050919050565b6000602082019050919050565b6000602082019050919050565b600082825260208201905092915050565b600082825260208201905092915050565b600082825260208201905092915050565b600082825260208201905092915050565b60008115159050919050565b6000819050919050565b60005b83811015611ca5578082015181840152602081019050611c8a565b83811115611cb4576000848401525b50505050565b6000601f19601f8301169050919050565b611cd481611c7d565b8114611cdf57600080fd5b5056fea365627a7a723158202431115c762068ed186ba3aa6dd42103afd4c24a1ff6f837063259747b2f0dd06c6578706572696d656e74616cf564736f6c63430005100040",
  "source": "pragma experimental ABIEncoderV2;\n\npragma solidity ^0.5.16;\n\nimport \"./Sort.sol\";\n\nimport \"./SafeMath.sol\";\n\n\n/**\n * @title Elect\n */\n\n\ncontract Elect {\n    // list of persons with attribute values:   \n    // [[id, startDay, startMonth, startYear, endDay, endMonth, endYear, equipment1, equipment2, equipment3 //pickup, distance]]\n    // pickup and delivery: *10E7, add a 'neg element' to string? (neg1 / neg2 --> and adapt calculus accordingly)\n    \n    //uint[][] candidates =[\n    //                        [1, 12,5,21, 13,5,21, 1,1,1],\n    //                        [2, 12,5,21, 15,5,21, 1,1,1],\n    //                        [3, 12,5,21, 16,5,21, 1,1,1],\n    //                        [4, 10,5,21, 14,5,21, 1,1,1],\n    //                        [5, 11,5,21, 14,5,21, 1,1,1]\n    //                    ];     \n    //uint[] filteringAttributes = [1,1,1];    // list of filtering attributes     \n    //uint[] availability = [12,1,21];\n    \n    uint[] filteredCandidates;\n    \n    string filteredIds;\n    \n    string testState;\n\n    uint[] candidate;\n    //uint[][] candidates = [[6,12,1,21,13,1,21,1,0,0,10,3],[6,12,1,21,13,1,21,1,0,0,10,3],[6,12,1,21,13,1,21,0,0,0,10,3]];\n\n    uint[][] candidates;\n\n    bool hasCandidates = false;\n\n\n    uint[] normalized;\n    uint[][] normalizedArray;\n    uint[][] tmpNormalizedArray;\n    uint[] QoSList;\n    uint[] sortedQoSList;\n\n    uint QoS;\n    uint n;\n\n    uint K=3;\n    uint[][] bestProfileIndexes;\n\n    ///// Delegated services        \n    function getFilteredCandidates() public view returns(uint[] memory){\n        return filteredCandidates;\n    }\n\n    function existsCandidates() public view returns(bool){\n        return hasCandidates;\n    }\n\n    function setCandidates(uint[][] memory _candidates) public payable {\n        candidates = _candidates;\n    }\n\n    function getCandidates() public view returns(uint[][] memory){\n        return candidates;\n    }\n\n    function getTestState() public view returns(string memory){\n        return testState;\n    }\n\n    function getQoSList() public view returns(uint[] memory){\n        return QoSList;   \n    }\n\n    function getSortedQoS() public view returns(uint[] memory){\n        return sortedQoSList;   \n    }\n\n    function getNormalized() public view returns(uint[] memory){       \n        return normalized;\n    }\n\n    function getNormalizedArray() public view returns(uint[][] memory){\n        return normalizedArray;\n    }\n\n    function getQoS() public view returns (uint){\n        return QoS;\n    }\n\n    function getN() public view returns (uint){\n        // number of services realized\n        return n;\n    }\n\n    function getBestProfiles() public view returns (uint[][] memory){\n        return bestProfileIndexes;\n    }\n\n    // delivery update\n    //function updateQoS(uint input) public payable returns (uint){\n    //    n = n+1;\n    //    uint mulFact = 100; // avoid floating points\n\n    //    if(n==1){\n    //        QoS = input;\n    //    }\n    //    else{\n    //    uint K = div(mul(2,mulFact),n); \n    //    uint newQoS = mul(K, input) + mul(mulFact,QoS) - mul(K, QoS);\n        \n    //    QoS = div(newQoS, 100);\n    //    }\n        \n    //    return QoS;\n    //}\n\n\n    function oneDayAvailability(uint[] memory _person, uint[] memory _availability) public payable returns(bool){\n        uint avStartDay = _person[1];\n        uint avStartMonth = _person[2];\n        uint avStartYear = _person[3];\n\n        uint avEndDay = _person[4];\n        uint avEndMonth = _person[5];\n        uint avEndYear = _person[6];\n\n        uint reqDay= _availability[0];\n        uint reqMonth= _availability[1];\n        uint reqYear= _availability[2];\n                    \n        bool testOutput=true;\n        \n        if((reqMonth==avStartMonth) && (reqYear==avStartYear)){ // same month, same year\n            if((avStartDay > reqDay)||(avEndDay<reqDay)){ // person is booked\n                testOutput=false;\n                }\n            }\n        else if((reqMonth!=avStartMonth) && (reqYear==avStartYear)){ //same year, different month\n            if(!((avStartMonth < reqMonth) && (avStartDay < reqDay)) || (avEndMonth<reqMonth)){ // person is booked\n                testOutput=false;\n            }\n        }\n        else{ //different year\n            if(!(reqYear>avStartYear)||(avEndYear<reqYear)){ // person is booked\n                testOutput=false;\n            }\n        }\n        return testOutput;\n    }\n\n\n    function severalDaysAvailability(uint[] memory _person, uint[] memory _availability) public payable returns(bool){\n        bool testOutput=true;\n        \n        uint avStartDay = _person[1];\n        uint avStartMonth = _person[2];\n        uint avStartYear = _person[3];\n\n        uint avEndDay = _person[4];\n        uint avEndMonth = _person[5];\n        uint avEndYear = _person[6];\n\n        uint reqSDay=_availability[0];\n        uint reqSMonth=_availability[1];\n        uint reqSYear=_availability[2];\n                    \n        uint reqEDay=_availability[3];\n        uint reqEMonth=_availability[4];\n        uint reqEYear=_availability[5];\n                    \n\n        require(reqEDay>reqSDay);\n\n        if((reqSMonth==avStartMonth) && (reqSYear==avStartYear) && (reqEYear==avEndYear)){ // same start month, same year\n            if((avStartDay > reqSDay)||(avEndDay<reqEDay)){ // person is booked\n                testOutput=false;\n                }\n        }\n        else if((reqSMonth!=avStartMonth) && (reqSYear==avStartYear) &&  (reqEYear==avEndYear)){ //same year, different month\n            if(!((avStartMonth < reqSMonth) && (avStartDay < reqSDay)) || (avEndMonth<reqSMonth) || (avEndMonth<reqEMonth)){ // person is booked\n                testOutput=false;\n                }\n            }\n        else{ //different year\n            if(!(reqSYear>avStartYear)||(avEndYear<reqSYear)||(avEndYear<reqEYear)){ // person is booked\n                testOutput=false;\n            }\n        }\n        return testOutput;\n    }\n    \n\n    //////// QoS calculation\n\n\n    // function normalize(uint[] memory input, uint mulfactor) public payable returns(uint[] memory){\n    //    normalized.length=0; \n                \n        //get largest\n    //    uint256 largest = 0; \n    //    for(uint i = 0; i < input.length; i++){\n    //        if(input[i] > largest) {\n    //            largest = input[i]; \n    //        } \n    //    }\n                \n                \n        //get smallest            uint  = 0;\n            \n    //        if(filter[i]==1){\n    //            for (uint j=0; j<input[0].length; j++){\n    //                    _QoS = _QoS + SafeMath.mul(alphas[i], input[i][j]);\n    //                }\n    //            _QoS = SafeMath.div(_QoS,numParams);\n    //        }\n\n    //    uint256 smallest = 0; \n    //    for(uint i = 0; i < input.length; i++){\n    //        if(input[i] < smallest) {\n    //            smallest = input[i]; \n    //        } \n    //    }\n                \n        // normalize                \n    //    for (uint j=0; j<input.length;j++){\n            \n    //        normalized.push(SafeMath.div(SafeMath.mul(mulfactor,SafeMath.sub(input[j],smallest)),SafeMath.sub(largest,smallest)));\n    //    }\n                \n    //    return normalized;\n    // }\n\n\n    \n\n    function computeQoS(uint[] memory filter, uint[] memory input) public payable{\n        \n        //uint numParams = input[0].length;\n\n        //uint mulfactor = 100;\n        // normalize array by column\n        //for (uint j=startingOptimIndex; j<numParams; j++){\n        //    normalized.length=0;\n        //    for (uint i=0; i<input.length; i++){\n        //        normalized.push(input[i][j]);\n        //    }\n            \n        //    normalizedArray.push(normalize(normalized, mulfactor));\n        //}\n        \n        require(filter.length==input.length,  \"issue with size\");\n        bestProfileIndexes.length=0;\n\n        QoSList.length=0;\n        for (uint i=0;i<input.length;i++){\n            uint _QoS = SafeMath.mul(filter[i], input[i]);            \n            QoSList.push(_QoS);\n        }\n\n        // get n best ones\n        uint[] memory tmpList = new uint[](QoSList.length);\n        for (uint i=0;i<QoSList.length;i++){\n            tmpList[i] = QoSList[i];\n        }\n\n\n        for(uint j=0;j<K;j++){\n            uint _QoS = tmpList[0];        \n            uint _index = 0;\n\n            for (uint i=0;i<QoSList.length;i++){\n                if(tmpList[i]>_QoS){\n                    _QoS=tmpList[i];\n                    _index = i;\n                }\n            }\n            bestProfileIndexes.push([_index,_QoS]);\n            tmpList[_index]=0;\n        }\n\n        // emit event\n    }\n\n    //////// main\n\n    function elect(uint[] memory qosList, uint[] memory filteringAttributes, uint[] memory availability) public payable{\n        \n        // proceed to filtering\n        uint[] memory _filteredCandidates = new uint[](candidates.length);\n        // reinitialize list of candidates\n        for(uint i=0; i<candidates.length;i++){\n            _filteredCandidates[i]=0;\n        }\n\n        for(uint ind=0; ind<candidates.length; ind++){ // test all candidates\n            candidate.length = 0;\n\n            candidate = candidates[ind];\n            \n            bool testOutput = true;\n\n            // filter on  attributes\n            uint index=0;\n\n            uint filterMaxInd = 7 + filteringAttributes.length;\n\n            for(uint id_att=7; id_att<filterMaxInd; id_att++){\n                if((filteringAttributes[index]==1) && (candidate[id_att]!=1)){\n                        testOutput=false;\n                }\n                index++;\n            }\n\n            //filter on availability\n\n            if(testOutput){\n                if((availability.length==3)||\n                    ((availability[0]==availability[3])&&(availability[1]==availability[4])&&(availability[2]==availability[5]))){ // ask for a day booking\n                    testState=\"oneday\";\n                    testOutput=oneDayAvailability(candidate, availability);\n                }\n                else{ \n                    //availability.length==6, ask for a several-days booking \n                    testState=\"severaldays\";\n                    testOutput=severalDaysAvailability(candidate, availability);\n                }\n                \n                //_filteredCandidates[ind]=1;\n                //hasCandidates=true;\n\n                //update list of candidates\n                if(testOutput){\n                    _filteredCandidates[ind]=1;\n                    hasCandidates=true;\n\n                    // emit event(?)\n                }\n            }\n            \n        }\n\n       filteredCandidates = _filteredCandidates;\n       \n       computeQoS(filteredCandidates, qosList);\n       \n    \n    }\n    \n}",
  "sourcePath": "/home/vtlr2002/source/SMLogs/contracts/Elect.sol",
  "compiler": {
    "name": "solc",
    "version": "0.5.16+commit.9c3226ce.Emscripten.clang"
  },
  "schemaVersion": "3.2.4",
  "updatedAt": "2020-12-03T18:18:08.720Z",
  "networkType": "ethereum",
  "devdoc": {
    "methods": {},
    "title": "Elect"
  },
  "userdoc": {
    "methods": {
      "computeQoS(uint256[],uint256[])": {
        "notice": "///// QoS calculation"
      },
      "elect(uint256[],uint256[],uint256[])": {
        "notice": "///// main"
      },
      "getFilteredCandidates()": {
        "notice": "// Delegated services        "
      }
    }
  }
}