{
  "contractName": "Elect",
  "abi": [
    {
      "anonymous": false,
      "inputs": [
        {
          "indexed": false,
          "internalType": "string",
          "name": "ExistCandidates",
          "type": "string"
        },
        {
          "indexed": false,
          "internalType": "uint256[][]",
          "name": "profiles",
          "type": "uint256[][]"
        }
      ],
      "name": "BestCandidates",
      "type": "event"
    },
    {
      "constant": true,
      "inputs": [],
      "name": "getFilteredCandidates",
      "outputs": [
        {
          "internalType": "uint256[]",
          "name": "",
          "type": "uint256[]"
        }
      ],
      "payable": false,
      "stateMutability": "view",
      "type": "function"
    },
    {
      "constant": true,
      "inputs": [],
      "name": "existsCandidates",
      "outputs": [
        {
          "internalType": "bool",
          "name": "",
          "type": "bool"
        }
      ],
      "payable": false,
      "stateMutability": "view",
      "type": "function"
    },
    {
      "constant": false,
      "inputs": [
        {
          "internalType": "uint256[][]",
          "name": "_candidates",
          "type": "uint256[][]"
        }
      ],
      "name": "setCandidates",
      "outputs": [],
      "payable": true,
      "stateMutability": "payable",
      "type": "function"
    },
    {
      "constant": true,
      "inputs": [],
      "name": "getCandidates",
      "outputs": [
        {
          "internalType": "uint256[][]",
          "name": "",
          "type": "uint256[][]"
        }
      ],
      "payable": false,
      "stateMutability": "view",
      "type": "function"
    },
    {
      "constant": true,
      "inputs": [],
      "name": "getTestState",
      "outputs": [
        {
          "internalType": "string",
          "name": "",
          "type": "string"
        }
      ],
      "payable": false,
      "stateMutability": "view",
      "type": "function"
    },
    {
      "constant": true,
      "inputs": [],
      "name": "getQoSList",
      "outputs": [
        {
          "internalType": "uint256[]",
          "name": "",
          "type": "uint256[]"
        }
      ],
      "payable": false,
      "stateMutability": "view",
      "type": "function"
    },
    {
      "constant": true,
      "inputs": [],
      "name": "getSortedQoS",
      "outputs": [
        {
          "internalType": "uint256[]",
          "name": "",
          "type": "uint256[]"
        }
      ],
      "payable": false,
      "stateMutability": "view",
      "type": "function"
    },
    {
      "constant": true,
      "inputs": [],
      "name": "getNormalized",
      "outputs": [
        {
          "internalType": "uint256[]",
          "name": "",
          "type": "uint256[]"
        }
      ],
      "payable": false,
      "stateMutability": "view",
      "type": "function"
    },
    {
      "constant": true,
      "inputs": [],
      "name": "getNormalizedArray",
      "outputs": [
        {
          "internalType": "uint256[][]",
          "name": "",
          "type": "uint256[][]"
        }
      ],
      "payable": false,
      "stateMutability": "view",
      "type": "function"
    },
    {
      "constant": true,
      "inputs": [],
      "name": "getQoS",
      "outputs": [
        {
          "internalType": "uint256",
          "name": "",
          "type": "uint256"
        }
      ],
      "payable": false,
      "stateMutability": "view",
      "type": "function"
    },
    {
      "constant": true,
      "inputs": [],
      "name": "getN",
      "outputs": [
        {
          "internalType": "uint256",
          "name": "",
          "type": "uint256"
        }
      ],
      "payable": false,
      "stateMutability": "view",
      "type": "function"
    },
    {
      "constant": true,
      "inputs": [],
      "name": "getBestProfiles",
      "outputs": [
        {
          "internalType": "uint256[][]",
          "name": "",
          "type": "uint256[][]"
        }
      ],
      "payable": false,
      "stateMutability": "view",
      "type": "function"
    },
    {
      "constant": false,
      "inputs": [
        {
          "internalType": "uint256[]",
          "name": "_person",
          "type": "uint256[]"
        },
        {
          "internalType": "uint256[]",
          "name": "_availability",
          "type": "uint256[]"
        }
      ],
      "name": "oneDayAvailability",
      "outputs": [
        {
          "internalType": "bool",
          "name": "",
          "type": "bool"
        }
      ],
      "payable": true,
      "stateMutability": "payable",
      "type": "function"
    },
    {
      "constant": false,
      "inputs": [
        {
          "internalType": "uint256[]",
          "name": "_person",
          "type": "uint256[]"
        },
        {
          "internalType": "uint256[]",
          "name": "_availability",
          "type": "uint256[]"
        }
      ],
      "name": "severalDaysAvailability",
      "outputs": [
        {
          "internalType": "bool",
          "name": "",
          "type": "bool"
        }
      ],
      "payable": true,
      "stateMutability": "payable",
      "type": "function"
    },
    {
      "constant": false,
      "inputs": [
        {
          "internalType": "uint256[]",
          "name": "filter",
          "type": "uint256[]"
        },
        {
          "internalType": "uint256[]",
          "name": "input",
          "type": "uint256[]"
        }
      ],
      "name": "computeQoS",
      "outputs": [],
      "payable": true,
      "stateMutability": "payable",
      "type": "function"
    },
    {
      "constant": false,
      "inputs": [
        {
          "internalType": "uint256[]",
          "name": "qosList",
          "type": "uint256[]"
        },
        {
          "internalType": "uint256[]",
          "name": "filteringAttributes",
          "type": "uint256[]"
        },
        {
          "internalType": "uint256[]",
          "name": "availability",
          "type": "uint256[]"
        }
      ],
      "name": "elect",
      "outputs": [],
      "payable": true,
      "stateMutability": "payable",
      "type": "function"
    }
  ],
  "bytecode": "0x60806040526000600560006101000a81548160ff0219169083151502179055506003600d5534801561003057600080fd5b50612040806100406000396000f3fe6080604052600436106100f35760003560e01c806361c6e08b1161008a5780639ca5760e116100595780639ca5760e146102f2578063a74c2b4e1461030e578063f106b1a714610339578063f852f2f314610369576100f3565b806361c6e08b14610241578063639e79901461026c578063850b014414610297578063915a5715146102c2576100f3565b80632c9e582c116100c65780632c9e582c146101a4578063316c655d146101cf5780633e955225146101eb5780634c6fe56914610216576100f3565b806302cf21a8146100f857806306a49fce146101235780632306bdd71461014e5780632b3b1ba914610179575b600080fd5b34801561010457600080fd5b5061010d610385565b60405161011a9190611c9b565b60405180910390f35b34801561012f57600080fd5b50610138610427565b6040516101459190611c3c565b60405180910390f35b34801561015a57600080fd5b506101636104c6565b6040516101709190611c5e565b60405180910390f35b34801561018557600080fd5b5061018e61051e565b60405161019b9190611c80565b60405180910390f35b3480156101b057600080fd5b506101b9610535565b6040516101c69190611c5e565b60405180910390f35b6101e960048036036101e491908101906117cf565b61058d565b005b3480156101f757600080fd5b506102006109fb565b60405161020d9190611d67565b60405180910390f35b34801561022257600080fd5b5061022b610a05565b6040516102389190611c5e565b60405180910390f35b34801561024d57600080fd5b50610256610a5d565b6040516102639190611d67565b60405180910390f35b34801561027857600080fd5b50610281610a67565b60405161028e9190611c5e565b60405180910390f35b3480156102a357600080fd5b506102ac610abf565b6040516102b99190611c3c565b60405180910390f35b6102dc60048036036102d79190810190611763565b610b5e565b6040516102e99190611c80565b60405180910390f35b61030c60048036036103079190810190611722565b610cde565b005b34801561031a57600080fd5b50610323610cf8565b6040516103309190611c3c565b60405180910390f35b610353600480360361034e9190810190611763565b610d97565b6040516103609190611c80565b60405180910390f35b610383600480360361037e9190810190611763565b610f9b565b005b606060028054600181600116156101000203166002900480601f01602080910402602001604051908101604052809291908181526020018280546001816001161561010002031660029004801561041d5780601f106103f25761010080835404028352916020019161041d565b820191906000526020600020905b81548152906001019060200180831161040057829003601f168201915b5050505050905090565b60606004805480602002602001604051908101604052809291908181526020016000905b828210156104bd578382906000526020600020018054806020026020016040519081016040528092919081815260200182805480156104a957602002820191906000526020600020905b815481526020019060010190808311610495575b50505050508152602001906001019061044b565b50505050905090565b6060600980548060200260200160405190810160405280929190818152602001828054801561051457602002820191906000526020600020905b815481526020019060010190808311610500575b5050505050905090565b6000600560009054906101000a900460ff16905090565b6060600080548060200260200160405190810160405280929190818152602001828054801561058357602002820191906000526020600020905b81548152602001906001019080831161056f575b5050505050905090565b6000600560006101000a81548160ff02191690831515021790555060606004805490506040519080825280602002602001820160405280156105de5781602001602082028038833980820191505090505b50905060008090505b60048054905081101561061b57600082828151811061060257fe5b60200260200101818152505080806001019150506105e7565b5060008090505b60048054905081101561093057600060038161063e91906112b0565b506004818154811061064c57fe5b9060005260206000200160039080546106669291906112dc565b5060006001905060008090506000865160070190506000600790505b818110156106e457600188848151811061069857fe5b60200260200101511480156106c557506001600382815481106106b757fe5b906000526020600020015414155b156106cf57600093505b82806001019350508080600101915050610682565b5082156109205760038651148061078857508560038151811061070357fe5b60200260200101518660008151811061071857fe5b602002602001015114801561075457508560048151811061073557fe5b60200260200101518660018151811061074a57fe5b6020026020010151145b801561078757508560058151811061076857fe5b60200260200101518660028151811061077d57fe5b6020026020010151145b5b1561083a576040518060400160405280600681526020017f6f6e656461790000000000000000000000000000000000000000000000000000815250600290805190602001906107d892919061132e565b50610833600380548060200260200160405190810160405280929190818152602001828054801561082857602002820191906000526020600020905b815481526020019060010190808311610814575b505050505087610b5e565b92506108e3565b6040518060400160405280600b81526020017f7365766572616c646179730000000000000000000000000000000000000000008152506002908051906020019061088592919061132e565b506108e060038054806020026020016040519081016040528092919081815260200182805480156108d557602002820191906000526020600020905b8154815260200190600101908083116108c1575b505050505087610d97565b92505b821561091f5760018585815181106108f757fe5b6020026020010181815250506001600560006101000a81548160ff0219169083151502179055505b5b5050508080600101915050610622565b5080600090805190602001906109479291906113ae565b50600560009054906101000a900460ff16156109bc576109b760008054806020026020016040519081016040528092919081815260200182805480156109ac57602002820191906000526020600020905b815481526020019060010190808311610998575b505050505085610f9b565b6109f5565b7f0bdbb272c6ab1d56ac2bd2b18626d46c5b86c8199d58a6056abd30d1a0fc9ca6600f6040516109ec9190611cbd565b60405180910390a15b50505050565b6000600c54905090565b6060600a805480602002602001604051908101604052809291908181526020018280548015610a5357602002820191906000526020600020905b815481526020019060010190808311610a3f575b5050505050905090565b6000600b54905090565b60606006805480602002602001604051908101604052809291908181526020018280548015610ab557602002820191906000526020600020905b815481526020019060010190808311610aa1575b5050505050905090565b60606007805480602002602001604051908101604052809291908181526020016000905b82821015610b5557838290600052602060002001805480602002602001604051908101604052809291908181526020018280548015610b4157602002820191906000526020600020905b815481526020019060010190808311610b2d575b505050505081526020019060010190610ae3565b50505050905090565b60008083600181518110610b6e57fe5b60200260200101519050600084600281518110610b8757fe5b60200260200101519050600085600381518110610ba057fe5b60200260200101519050600086600481518110610bb957fe5b60200260200101519050600087600581518110610bd257fe5b60200260200101519050600088600681518110610beb57fe5b60200260200101519050600088600081518110610c0457fe5b60200260200101519050600089600181518110610c1d57fe5b6020026020010151905060008a600281518110610c3657fe5b602002602001015190506000600190508883148015610c5457508782145b15610c7557838a1180610c6657508387105b15610c7057600090505b610ccb565b888314158015610c8457508782145b15610cb1578289108015610c975750838a105b1580610ca257508286105b15610cac57600090505b610cca565b8782111580610cbf57508185105b15610cc957600090505b5b5b809a505050505050505050505092915050565b8060049080519060200190610cf49291906113fb565b5050565b6060600e805480602002602001604051908101604052809291908181526020016000905b82821015610d8e57838290600052602060002001805480602002602001604051908101604052809291908181526020018280548015610d7a57602002820191906000526020600020905b815481526020019060010190808311610d66575b505050505081526020019060010190610d1c565b50505050905090565b60008060019050600084600181518110610dad57fe5b60200260200101519050600085600281518110610dc657fe5b60200260200101519050600086600381518110610ddf57fe5b60200260200101519050600087600481518110610df857fe5b60200260200101519050600088600581518110610e1157fe5b60200260200101519050600089600681518110610e2a57fe5b60200260200101519050600089600081518110610e4357fe5b6020026020010151905060008a600181518110610e5c57fe5b6020026020010151905060008b600281518110610e7557fe5b6020026020010151905060008c600381518110610e8e57fe5b6020026020010151905060008d600481518110610ea757fe5b6020026020010151905060008e600581518110610ec057fe5b60200260200101519050858311610ed657600080fd5b8a85148015610ee457508984145b8015610eef57508681145b15610f1057858c1180610f0157508289105b15610f0b5760009c505b610f85565b8a8514158015610f1f57508984145b8015610f2a57508681145b15610f6157848b108015610f3d5750858c105b1580610f4857508488105b80610f5257508188105b15610f5c5760009c505b610f84565b8984111580610f6f57508387105b80610f7957508087105b15610f835760009c505b5b5b8c9d505050505050505050505050505092915050565b8051825114610fdf576040517f08c379a0000000000000000000000000000000000000000000000000000000008152600401610fd690611d27565b60405180910390fd5b6000600e81610fee919061145b565b506000600981610ffe91906112b0565b5060008090505b815181101561107c57600061104084838151811061101f57fe5b602002602001015184848151811061103357fe5b6020026020010151611240565b90506009819080600181540180825580915050906001820390600052602060002001600090919290919091505550508080600101915050611005565b5060606009805490506040519080825280602002602001820160405280156110b35781602001602082028038833980820191505090505b50905060008090505b60098054905081101561110657600981815481106110d657fe5b90600052602060002001548282815181106110ed57fe5b60200260200101818152505080806001019150506110bc565b5060008090505b600d548110156112025760008260008151811061112657fe5b60200260200101519050600080905060008090505b60098054905081101561118a578285828151811061115557fe5b6020026020010151111561117d5784818151811061116f57fe5b602002602001015192508091505b808060010191505061113b565b50600e6040518060400160405280838152602001848152509080600181540180825580915050906001820390600052602060002001600090919290919091509060026111d7929190611487565b505060008482815181106111e757fe5b6020026020010181815250505050808060010191505061110d565b507f0bdbb272c6ab1d56ac2bd2b18626d46c5b86c8199d58a6056abd30d1a0fc9ca6600e6040516112339190611cf2565b60405180910390a1505050565b60008083141561125357600090506112aa565b600082840290508284828161126457fe5b04146112a5576040517f08c379a000000000000000000000000000000000000000000000000000000000815260040161129c90611d47565b60405180910390fd5b809150505b92915050565b8154818355818111156112d7578183600052602060002091820191016112d691906114d4565b5b505050565b82805482825590600052602060002090810192821561131d5760005260206000209182015b8281111561131c578254825591600101919060010190611301565b5b50905061132a91906114d4565b5090565b828054600181600116156101000203166002900490600052602060002090601f016020900481019282601f1061136f57805160ff191683800117855561139d565b8280016001018555821561139d579182015b8281111561139c578251825591602001919060010190611381565b5b5090506113aa91906114d4565b5090565b8280548282559060005260206000209081019282156113ea579160200282015b828111156113e95782518255916020019190600101906113ce565b5b5090506113f791906114d4565b5090565b82805482825590600052602060002090810192821561144a579160200282015b828111156114495782518290805190602001906114399291906114f9565b509160200191906001019061141b565b5b5090506114579190611546565b5090565b815481835581811115611482578183600052602060002091820191016114819190611546565b5b505050565b8280548282559060005260206000209081019282156114c3579160200282015b828111156114c25782518255916020019190600101906114a7565b5b5090506114d091906114d4565b5090565b6114f691905b808211156114f25760008160009055506001016114da565b5090565b90565b828054828255906000526020600020908101928215611535579160200282015b82811115611534578251825591602001919060010190611519565b5b50905061154291906114d4565b5090565b61156f91905b8082111561156b57600081816115629190611572565b5060010161154c565b5090565b90565b508054600082559060005260206000209081019061159091906114d4565b50565b600082601f8301126115a457600080fd5b81356115b76115b282611daf565b611d82565b9150818183526020840193506020810190508360005b838110156115fd57813586016115e38882611607565b8452602084019350602083019250506001810190506115cd565b5050505092915050565b600082601f83011261161857600080fd5b813561162b61162682611dd7565b611d82565b9150818183526020840193506020810190508385602084028201111561165057600080fd5b60005b838110156116805781611666888261170d565b845260208401935060208301925050600181019050611653565b5050505092915050565b600082601f83011261169b57600080fd5b81356116ae6116a982611dff565b611d82565b915081818352602084019350602081019050838560208402820111156116d357600080fd5b60005b8381101561170357816116e9888261170d565b8452602084019350602083019250506001810190506116d6565b5050505092915050565b60008135905061171c81611fe6565b92915050565b60006020828403121561173457600080fd5b600082013567ffffffffffffffff81111561174e57600080fd5b61175a84828501611593565b91505092915050565b6000806040838503121561177657600080fd5b600083013567ffffffffffffffff81111561179057600080fd5b61179c8582860161168a565b925050602083013567ffffffffffffffff8111156117b957600080fd5b6117c58582860161168a565b9150509250929050565b6000806000606084860312156117e457600080fd5b600084013567ffffffffffffffff8111156117fe57600080fd5b61180a8682870161168a565b935050602084013567ffffffffffffffff81111561182757600080fd5b6118338682870161168a565b925050604084013567ffffffffffffffff81111561185057600080fd5b61185c8682870161168a565b9150509250925092565b600061187283836119ed565b905092915050565b60006118868383611a4b565b905092915050565b600061189a8383611c1e565b60208301905092915050565b60006118b182611e81565b6118bb8185611f04565b9350836020820285016118cd85611e27565b8060005b8581101561190957848403895281516118ea8582611866565b94506118f583611ec3565b925060208a019950506001810190506118d1565b50829750879550505050505092915050565b600061192682611e8c565b6119308185611f04565b93508360208202850161194285611e37565b8060005b8581101561197d5784840389528161195e858261187a565b945061196983611ed0565b925060208a01995050600181019050611946565b50829750879550505050505092915050565b600061199a82611ea2565b6119a48185611f26565b93506119af83611e5c565b8060005b838110156119e05781516119c7888261188e565b97506119d283611eea565b9250506001810190506119b3565b5085935050505092915050565b60006119f882611e97565b611a028185611f15565b9350611a0d83611e4c565b8060005b83811015611a3e578151611a25888261188e565b9750611a3083611edd565b925050600181019050611a11565b5085935050505092915050565b6000611a5682611ead565b611a608185611f15565b9350611a6b83611e6c565b8060005b83811015611aa357611a8082611fb5565b611a8a888261188e565b9750611a9583611ef7565b925050600181019050611a6f565b5085935050505092915050565b611ab981611f52565b82525050565b6000611aca82611eb8565b611ad48185611f37565b9350611ae4818560208601611f68565b611aed81611fc8565b840191505092915050565b6000611b05601183611f37565b91507f4e6f206d61746368696e6720666f756e640000000000000000000000000000006000830152602082019050919050565b6000611b45600883611f37565b91507f4d61746368696e670000000000000000000000000000000000000000000000006000830152602082019050919050565b6000611b85600f83611f37565b91507f697373756520776974682073697a6500000000000000000000000000000000006000830152602082019050919050565b6000611bc5602183611f37565b91507f536166654d6174683a206d756c7469706c69636174696f6e206f766572666c6f60008301527f77000000000000000000000000000000000000000000000000000000000000006020830152604082019050919050565b611c2781611f5e565b82525050565b611c3681611f5e565b82525050565b60006020820190508181036000830152611c5681846118a6565b905092915050565b60006020820190508181036000830152611c78818461198f565b905092915050565b6000602082019050611c956000830184611ab0565b92915050565b60006020820190508181036000830152611cb58184611abf565b905092915050565b60006040820190508181036000830152611cd681611af8565b90508181036020830152611cea818461191b565b905092915050565b60006040820190508181036000830152611d0b81611b38565b90508181036020830152611d1f818461191b565b905092915050565b60006020820190508181036000830152611d4081611b78565b9050919050565b60006020820190508181036000830152611d6081611bb8565b9050919050565b6000602082019050611d7c6000830184611c2d565b92915050565b6000604051905081810181811067ffffffffffffffff82111715611da557600080fd5b8060405250919050565b600067ffffffffffffffff821115611dc657600080fd5b602082029050602081019050919050565b600067ffffffffffffffff821115611dee57600080fd5b602082029050602081019050919050565b600067ffffffffffffffff821115611e1657600080fd5b602082029050602081019050919050565b6000819050602082019050919050565b60008190508160005260206000209050919050565b6000819050602082019050919050565b6000819050602082019050919050565b60008190508160005260206000209050919050565b600081519050919050565b600081549050919050565b600081519050919050565b600081519050919050565b600081549050919050565b600081519050919050565b6000602082019050919050565b6000600182019050919050565b6000602082019050919050565b6000602082019050919050565b6000600182019050919050565b600082825260208201905092915050565b600082825260208201905092915050565b600082825260208201905092915050565b600082825260208201905092915050565b6000819050919050565b60008115159050919050565b6000819050919050565b60005b83811015611f86578082015181840152602081019050611f6b565b83811115611f95576000848401525b50505050565b6000611fae611fa983611fd9565b611f48565b9050919050565b6000611fc18254611f9b565b9050919050565b6000601f19601f8301169050919050565b60008160001c9050919050565b611fef81611f5e565b8114611ffa57600080fd5b5056fea365627a7a723158201bf9569380fd146dbdfc285126ffdc35602ae80f3dbe58055056b3ae7a9da92f6c6578706572696d656e74616cf564736f6c63430005100040",
  "source": "pragma experimental ABIEncoderV2;\n\npragma solidity ^0.5.16;\n\nimport \"./Sort.sol\";\n\nimport \"./SafeMath.sol\";\n\n\n/**\n * @title Elect\n */\n\n\ncontract Elect {\n    // list of persons with attribute values:   \n    // [[id, startDay, startMonth, startYear, endDay, endMonth, endYear, equipment1, equipment2, equipment3 //pickup, distance]]\n    // pickup and delivery: *10E7, add a 'neg element' to string? (neg1 / neg2 --> and adapt calculus accordingly)\n    \n    //uint[][] candidates =[\n    //                        [1, 12,5,21, 13,5,21, 1,1,1],\n    //                        [2, 12,5,21, 15,5,21, 1,1,1],\n    //                        [3, 12,5,21, 16,5,21, 1,1,1],\n    //                        [4, 10,5,21, 14,5,21, 1,1,1],\n    //                        [5, 11,5,21, 14,5,21, 1,1,1]\n    //                    ];     \n    //uint[] filteringAttributes = [1,1,1];    // list of filtering attributes     \n    //uint[] availability = [12,1,21];\n    \n    uint[] filteredCandidates;\n    \n    string filteredIds;\n    \n    string testState;\n\n    uint[] candidate;\n    //uint[][] candidates = [[6,12,1,21,13,1,21,1,0,0,10,3],[6,12,1,21,13,1,21,1,0,0,10,3],[6,12,1,21,13,1,21,0,0,0,10,3]];\n\n    uint[][] candidates;\n\n    bool hasCandidates = false;\n\n\n    uint[] normalized;\n    uint[][] normalizedArray;\n    uint[][] tmpNormalizedArray;\n    uint[] QoSList;\n    uint[] sortedQoSList;\n\n    uint QoS;\n    uint n;\n\n    uint K=3;\n    uint[][] bestProfileIndexes;\n    uint[][] NoProfileIndexes;\n\n    event BestCandidates(\n        string ExistCandidates,\n        uint[][] profiles  \n    );\n\n    ///// Delegated services        \n    function getFilteredCandidates() public view returns(uint[] memory){\n        return filteredCandidates;\n    }\n\n    function existsCandidates() public view returns(bool){\n        return hasCandidates;\n    }\n\n    function setCandidates(uint[][] memory _candidates) public payable {\n        candidates = _candidates;\n    }\n\n    function getCandidates() public view returns(uint[][] memory){\n        return candidates;\n    }\n\n    function getTestState() public view returns(string memory){\n        return testState;\n    }\n\n    function getQoSList() public view returns(uint[] memory){\n        return QoSList;   \n    }\n\n    function getSortedQoS() public view returns(uint[] memory){\n        return sortedQoSList;   \n    }\n\n    function getNormalized() public view returns(uint[] memory){       \n        return normalized;\n    }\n\n    function getNormalizedArray() public view returns(uint[][] memory){\n        return normalizedArray;\n    }\n\n    function getQoS() public view returns (uint){\n        return QoS;\n    }\n\n    function getN() public view returns (uint){\n        // number of services realized\n        return n;\n    }\n\n    function getBestProfiles() public view returns (uint[][] memory){\n        return bestProfileIndexes;\n    }\n\n    // delivery update\n    //function updateQoS(uint input) public payable returns (uint){\n    //    n = n+1;\n    //    uint mulFact = 100; // avoid floating points\n\n    //    if(n==1){\n    //        QoS = input;\n    //    }\n    //    else{\n    //    uint K = div(mul(2,mulFact),n); \n    //    uint newQoS = mul(K, input) + mul(mulFact,QoS) - mul(K, QoS);\n        \n    //    QoS = div(newQoS, 100);\n    //    }\n        \n    //    return QoS;\n    //}\n\n\n    function oneDayAvailability(uint[] memory _person, uint[] memory _availability) public payable returns(bool){\n        uint avStartDay = _person[1];\n        uint avStartMonth = _person[2];\n        uint avStartYear = _person[3];\n\n        uint avEndDay = _person[4];\n        uint avEndMonth = _person[5];\n        uint avEndYear = _person[6];\n\n        uint reqDay= _availability[0];\n        uint reqMonth= _availability[1];\n        uint reqYear= _availability[2];\n                    \n        bool testOutput=true;\n        \n        if((reqMonth==avStartMonth) && (reqYear==avStartYear)){ // same month, same year\n            if((avStartDay > reqDay)||(avEndDay<reqDay)){ // person is booked\n                testOutput=false;\n                }\n            }\n        else if((reqMonth!=avStartMonth) && (reqYear==avStartYear)){ //same year, different month\n            if(!((avStartMonth < reqMonth) && (avStartDay < reqDay)) || (avEndMonth<reqMonth)){ // person is booked\n                testOutput=false;\n            }\n        }\n        else{ //different year\n            if(!(reqYear>avStartYear)||(avEndYear<reqYear)){ // person is booked\n                testOutput=false;\n            }\n        }\n        return testOutput;\n    }\n\n\n    function severalDaysAvailability(uint[] memory _person, uint[] memory _availability) public payable returns(bool){\n        bool testOutput=true;\n        \n        uint avStartDay = _person[1];\n        uint avStartMonth = _person[2];\n        uint avStartYear = _person[3];\n\n        uint avEndDay = _person[4];\n        uint avEndMonth = _person[5];\n        uint avEndYear = _person[6];\n\n        uint reqSDay=_availability[0];\n        uint reqSMonth=_availability[1];\n        uint reqSYear=_availability[2];\n                    \n        uint reqEDay=_availability[3];\n        uint reqEMonth=_availability[4];\n        uint reqEYear=_availability[5];\n                    \n\n        require(reqEDay>reqSDay);\n\n        if((reqSMonth==avStartMonth) && (reqSYear==avStartYear) && (reqEYear==avEndYear)){ // same start month, same year\n            if((avStartDay > reqSDay)||(avEndDay<reqEDay)){ // person is booked\n                testOutput=false;\n                }\n        }\n        else if((reqSMonth!=avStartMonth) && (reqSYear==avStartYear) &&  (reqEYear==avEndYear)){ //same year, different month\n            if(!((avStartMonth < reqSMonth) && (avStartDay < reqSDay)) || (avEndMonth<reqSMonth) || (avEndMonth<reqEMonth)){ // person is booked\n                testOutput=false;\n                }\n            }\n        else{ //different year\n            if(!(reqSYear>avStartYear)||(avEndYear<reqSYear)||(avEndYear<reqEYear)){ // person is booked\n                testOutput=false;\n            }\n        }\n        return testOutput;\n    }\n    \n\n    //////// QoS calculation\n\n\n    // function normalize(uint[] memory input, uint mulfactor) public payable returns(uint[] memory){\n    //    normalized.length=0; \n                \n        //get largest\n    //    uint256 largest = 0; \n    //    for(uint i = 0; i < input.length; i++){\n    //        if(input[i] > largest) {\n    //            largest = input[i]; \n    //        } \n    //    }\n                \n                \n        //get smallest            uint  = 0;\n            \n    //        if(filter[i]==1){\n    //            for (uint j=0; j<input[0].length; j++){\n    //                    _QoS = _QoS + SafeMath.mul(alphas[i], input[i][j]);\n    //                }\n    //            _QoS = SafeMath.div(_QoS,numParams);\n    //        }\n\n    //    uint256 smallest = 0; \n    //    for(uint i = 0; i < input.length; i++){\n    //        if(input[i] < smallest) {\n    //            smallest = input[i]; \n    //        } \n    //    }\n                \n        // normalize                \n    //    for (uint j=0; j<input.length;j++){\n            \n    //        normalized.push(SafeMath.div(SafeMath.mul(mulfactor,SafeMath.sub(input[j],smallest)),SafeMath.sub(largest,smallest)));\n    //    }\n                \n    //    return normalized;\n    // }\n\n\n    \n\n    function computeQoS(uint[] memory filter, uint[] memory input) public payable{\n        \n        //uint numParams = input[0].length;\n\n        //uint mulfactor = 100;\n        // normalize array by column\n        //for (uint j=startingOptimIndex; j<numParams; j++){\n        //    normalized.length=0;\n        //    for (uint i=0; i<input.length; i++){\n        //        normalized.push(input[i][j]);\n        //    }\n            \n        //    normalizedArray.push(normalize(normalized, mulfactor));\n        //}\n        \n        require(filter.length==input.length,  \"issue with size\");\n\n        \n        bestProfileIndexes.length=0;\n\n        QoSList.length=0;\n        for (uint i=0;i<input.length;i++){\n            uint _QoS = SafeMath.mul(filter[i], input[i]);            \n            QoSList.push(_QoS);\n        }\n\n        // get n best ones\n        uint[] memory tmpList = new uint[](QoSList.length);\n        for (uint i=0;i<QoSList.length;i++){\n            tmpList[i] = QoSList[i];\n        }\n\n\n        for(uint j=0;j<K;j++){\n            uint _QoS = tmpList[0];        \n            uint _index = 0;\n\n            for (uint i=0;i<QoSList.length;i++){\n                if(tmpList[i]>_QoS){\n                    _QoS=tmpList[i];\n                    _index = i;\n                }\n            }\n            bestProfileIndexes.push([_index,_QoS]);\n            tmpList[_index]=0;\n        }\n\n        // emit event\n        emit BestCandidates(\n            'Matching',\n            bestProfileIndexes  \n        );\n\n    }\n\n    //////// main\n\n    function elect(uint[] memory qosList, uint[] memory filteringAttributes, uint[] memory availability) public payable{\n        hasCandidates=false; // reset\n\n        // proceed to filtering\n        uint[] memory _filteredCandidates = new uint[](candidates.length);\n        // reinitialize list of candidates\n        for(uint i=0; i<candidates.length;i++){\n            _filteredCandidates[i]=0;\n        }\n\n        for(uint ind=0; ind<candidates.length; ind++){ // test all candidates\n            candidate.length = 0;\n\n            candidate = candidates[ind];\n            \n            bool testOutput = true;\n\n            // filter on  attributes\n            uint index=0;\n\n            uint filterMaxInd = 7 + filteringAttributes.length;\n\n            for(uint id_att=7; id_att<filterMaxInd; id_att++){\n                if((filteringAttributes[index]==1) && (candidate[id_att]!=1)){\n                        testOutput=false;\n                }\n                index++;\n            }\n\n            //filter on availability\n\n            if(testOutput){\n                if((availability.length==3)||\n                    ((availability[0]==availability[3])&&(availability[1]==availability[4])&&(availability[2]==availability[5]))){ // ask for a day booking\n                    testState=\"oneday\";\n                    testOutput=oneDayAvailability(candidate, availability);\n                }\n                else{ \n                    //availability.length==6, ask for a several-days booking \n                    testState=\"severaldays\";\n                    testOutput=severalDaysAvailability(candidate, availability);\n                }\n\n                //update list of candidates\n                if(testOutput){\n                    _filteredCandidates[ind]=1;\n                    hasCandidates=true;\n\n                }\n            }\n            \n        }\n        \n        filteredCandidates = _filteredCandidates;\n        \n        if(hasCandidates){\n            computeQoS(filteredCandidates, qosList);\n        }\n\n        else{\n            emit BestCandidates('No matching found', NoProfileIndexes);\n        }\n\n       \n    \n    }\n    \n}",
  "sourcePath": "/home/vtlr2002/source/SMLogs/contracts/Elect.sol",
  "compiler": {
    "name": "solc",
    "version": "0.5.16+commit.9c3226ce.Emscripten.clang"
  },
  "schemaVersion": "3.2.4",
  "updatedAt": "2020-12-08T10:24:24.470Z",
  "networkType": "ethereum",
  "devdoc": {
    "methods": {},
    "title": "Elect"
  },
  "userdoc": {
    "methods": {
      "computeQoS(uint256[],uint256[])": {
        "notice": "///// QoS calculation"
      },
      "elect(uint256[],uint256[],uint256[])": {
        "notice": "///// main"
      },
      "getFilteredCandidates()": {
        "notice": "// Delegated services        "
      }
    }
  }
}