{
  "contractName": "Elect",
  "abi": [
    {
      "constant": true,
      "inputs": [],
      "name": "getFilteredCandidates",
      "outputs": [
        {
          "internalType": "uint256[]",
          "name": "",
          "type": "uint256[]"
        }
      ],
      "payable": false,
      "stateMutability": "view",
      "type": "function"
    },
    {
      "constant": true,
      "inputs": [],
      "name": "existsCandidates",
      "outputs": [
        {
          "internalType": "bool",
          "name": "",
          "type": "bool"
        }
      ],
      "payable": false,
      "stateMutability": "view",
      "type": "function"
    },
    {
      "constant": false,
      "inputs": [
        {
          "internalType": "uint256[][]",
          "name": "_candidates",
          "type": "uint256[][]"
        }
      ],
      "name": "setCandidates",
      "outputs": [],
      "payable": true,
      "stateMutability": "payable",
      "type": "function"
    },
    {
      "constant": true,
      "inputs": [],
      "name": "getCandidates",
      "outputs": [
        {
          "internalType": "uint256[][]",
          "name": "",
          "type": "uint256[][]"
        }
      ],
      "payable": false,
      "stateMutability": "view",
      "type": "function"
    },
    {
      "constant": true,
      "inputs": [],
      "name": "getTestState",
      "outputs": [
        {
          "internalType": "string",
          "name": "",
          "type": "string"
        }
      ],
      "payable": false,
      "stateMutability": "view",
      "type": "function"
    },
    {
      "constant": true,
      "inputs": [],
      "name": "getSortedQoS",
      "outputs": [
        {
          "internalType": "uint256[]",
          "name": "",
          "type": "uint256[]"
        }
      ],
      "payable": false,
      "stateMutability": "view",
      "type": "function"
    },
    {
      "constant": true,
      "inputs": [],
      "name": "getNormalized",
      "outputs": [
        {
          "internalType": "uint256[]",
          "name": "",
          "type": "uint256[]"
        }
      ],
      "payable": false,
      "stateMutability": "view",
      "type": "function"
    },
    {
      "constant": true,
      "inputs": [],
      "name": "getNormalizedArray",
      "outputs": [
        {
          "internalType": "uint256[][]",
          "name": "",
          "type": "uint256[][]"
        }
      ],
      "payable": false,
      "stateMutability": "view",
      "type": "function"
    },
    {
      "constant": false,
      "inputs": [
        {
          "internalType": "uint256[]",
          "name": "_person",
          "type": "uint256[]"
        },
        {
          "internalType": "uint256[]",
          "name": "_availability",
          "type": "uint256[]"
        }
      ],
      "name": "oneDayAvailability",
      "outputs": [
        {
          "internalType": "bool",
          "name": "",
          "type": "bool"
        }
      ],
      "payable": true,
      "stateMutability": "payable",
      "type": "function"
    },
    {
      "constant": false,
      "inputs": [
        {
          "internalType": "uint256[]",
          "name": "_person",
          "type": "uint256[]"
        },
        {
          "internalType": "uint256[]",
          "name": "_availability",
          "type": "uint256[]"
        }
      ],
      "name": "severalDaysAvailability",
      "outputs": [
        {
          "internalType": "bool",
          "name": "",
          "type": "bool"
        }
      ],
      "payable": true,
      "stateMutability": "payable",
      "type": "function"
    },
    {
      "constant": false,
      "inputs": [
        {
          "internalType": "uint256[]",
          "name": "input",
          "type": "uint256[]"
        },
        {
          "internalType": "uint256",
          "name": "mulfactor",
          "type": "uint256"
        }
      ],
      "name": "normalize",
      "outputs": [
        {
          "internalType": "uint256[]",
          "name": "",
          "type": "uint256[]"
        }
      ],
      "payable": true,
      "stateMutability": "payable",
      "type": "function"
    },
    {
      "constant": false,
      "inputs": [
        {
          "internalType": "uint256[][]",
          "name": "input",
          "type": "uint256[][]"
        },
        {
          "internalType": "uint256[]",
          "name": "alphas",
          "type": "uint256[]"
        }
      ],
      "name": "sortOnQoS",
      "outputs": [],
      "payable": true,
      "stateMutability": "payable",
      "type": "function"
    },
    {
      "constant": false,
      "inputs": [
        {
          "internalType": "uint256[]",
          "name": "filteringAttributes",
          "type": "uint256[]"
        },
        {
          "internalType": "uint256[]",
          "name": "alphas",
          "type": "uint256[]"
        },
        {
          "internalType": "uint256[]",
          "name": "availability",
          "type": "uint256[]"
        }
      ],
      "name": "filter",
      "outputs": [],
      "payable": true,
      "stateMutability": "payable",
      "type": "function"
    }
  ],
  "bytecode": "0x60806040526000600460006101000a81548160ff02191690831515021790555034801561002b57600080fd5b506120508061003b6000396000f3fe6080604052600436106100c25760003560e01c8063850b01441161007f5780639ca5760e116100595780639ca5760e14610240578063b907474e1461025c578063beba7a911461028c578063f106b1a7146102a8576100c2565b8063850b0144146101c9578063915a5715146101f45780639a55658514610224576100c2565b806302cf21a8146100c757806306a49fce146100f25780632b3b1ba91461011d5780632c9e582c146101485780634c6fe56914610173578063639e79901461019e575b600080fd5b3480156100d357600080fd5b506100dc6102d8565b6040516100e99190611d6c565b60405180910390f35b3480156100fe57600080fd5b5061010761037a565b6040516101149190611ceb565b60405180910390f35b34801561012957600080fd5b50610132610419565b60405161013f9190611d51565b60405180910390f35b34801561015457600080fd5b5061015d610430565b60405161016a9190611d0d565b60405180910390f35b34801561017f57600080fd5b50610188610488565b6040516101959190611d0d565b60405180910390f35b3480156101aa57600080fd5b506101b36104e0565b6040516101c09190611d0d565b60405180910390f35b3480156101d557600080fd5b506101de610538565b6040516101eb9190611ceb565b60405180910390f35b61020e600480360361020991908101906118ee565b6105d7565b60405161021b9190611d51565b60405180910390f35b61023e60048036036102399190810190611841565b610757565b005b61025a60048036036102559190810190611800565b610a58565b005b610276600480360361027191908101906119f1565b610a72565b6040516102839190611d0d565b60405180910390f35b6102a660048036036102a1919081019061195a565b610c07565b005b6102c260048036036102bd91908101906118ee565b610ffd565b6040516102cf9190611d51565b60405180910390f35b606060028054600181600116156101000203166002900480601f0160208091040260200160405190810160405280929190818152602001828054600181600116156101000203166002900480156103705780601f1061034557610100808354040283529160200191610370565b820191906000526020600020905b81548152906001019060200180831161035357829003601f168201915b5050505050905090565b60606003805480602002602001604051908101604052809291908181526020016000905b82821015610410578382906000526020600020018054806020026020016040519081016040528092919081815260200182805480156103fc57602002820191906000526020600020905b8154815260200190600101908083116103e8575b50505050508152602001906001019061039e565b50505050905090565b6000600460009054906101000a900460ff16905090565b6060600080548060200260200160405190810160405280929190818152602001828054801561047e57602002820191906000526020600020905b81548152602001906001019080831161046a575b5050505050905090565b606060088054806020026020016040519081016040528092919081815260200182805480156104d657602002820191906000526020600020905b8154815260200190600101908083116104c2575b5050505050905090565b6060600580548060200260200160405190810160405280929190818152602001828054801561052e57602002820191906000526020600020905b81548152602001906001019080831161051a575b5050505050905090565b60606006805480602002602001604051908101604052809291908181526020016000905b828210156105ce578382906000526020600020018054806020026020016040519081016040528092919081815260200182805480156105ba57602002820191906000526020600020905b8154815260200190600101908083116105a6575b50505050508152602001906001019061055c565b50505050905090565b600080836001815181106105e757fe5b6020026020010151905060008460028151811061060057fe5b6020026020010151905060008560038151811061061957fe5b6020026020010151905060008660048151811061063257fe5b6020026020010151905060008760058151811061064b57fe5b6020026020010151905060008860068151811061066457fe5b6020026020010151905060008860008151811061067d57fe5b6020026020010151905060008960018151811061069657fe5b6020026020010151905060008a6002815181106106af57fe5b6020026020010151905060006001905088831480156106cd57508782145b156106ee57838a11806106df57508387105b156106e957600090505b610744565b8883141580156106fd57508782145b1561072a5782891080156107105750838a105b158061071b57508286105b1561072557600090505b610743565b878211158061073857508185105b1561074257600090505b5b5b809a505050505050505050505092915050565b60006064905060008360008151811061076c57fe5b602002602001015151905060008090505b818110156108cc57600060058161079491906113c1565b5060008090505b85518110156108035760058682815181106107b257fe5b602002602001015183815181106107c557fe5b60200260200101519080600181540180825580915050906001820390600052602060002001600090919290919091505550808060010191505061079b565b506060610860600580548060200260200160405190810160405280929190818152602001828054801561085557602002820191906000526020600020905b815481526020019060010190808311610841575b505050505085610a72565b905060008090505b86518110156108bd5781818151811061087d57fe5b602002602001015187828151811061089157fe5b602002602001015184815181106108a457fe5b6020026020010181815250508080600101915050610868565b5050808060010191505061077d565b5083600690805190602001906108e39291906113ed565b5060006007816108f391906113c1565b5060008090505b84518110156109ae57600080905060008090505b8381101561096a5761095986828151811061092557fe5b602002602001015188858151811061093957fe5b6020026020010151838151811061094c57fe5b6020026020010151611201565b82019150808060010191505061090e565b5060076109778285611271565b90806001815401808255809150509060018203906000526020600020016000909192909190915055505080806001019150506108fa565b5073__Sort__________________________________639ec8b02660076040518263ffffffff1660e01b81526004016109e79190611d2f565b60006040518083038186803b1580156109ff57600080fd5b505af4158015610a13573d6000803e3d6000fd5b505050506040513d6000823e3d601f19601f82011682018060405250610a3c91908101906118ad565b60089080519060200190610a5192919061144d565b5050505050565b8060039080519060200190610a6e9291906113ed565b5050565b60606000600581610a8391906113c1565b50600080905060008090505b8451811015610ad75781858281518110610aa557fe5b60200260200101511115610aca57848181518110610abf57fe5b602002602001015191505b8080600101915050610a8f565b50600080905060008090505b8551811015610b2b5781868281518110610af957fe5b60200260200101511015610b1e57858181518110610b1357fe5b602002602001015191505b8080600101915050610ae3565b5060008090505b8551811015610bab576005610b75610b6687610b618a8681518110610b5357fe5b6020026020010151876112bb565b611201565b610b7086866112bb565b611271565b90806001815401808255809150509060018203906000526020600020016000909192909190915055508080600101915050610b32565b506005805480602002602001604051908101604052809291908181526020018280548015610bf857602002820191906000526020600020905b815481526020019060010190808311610be4575b50505050509250505092915050565b6060600380549050604051908082528060200260200182016040528015610c3d5781602001602082028038833980820191505090505b50905060008090505b600380549050811015610c7a576000828281518110610c6157fe5b6020026020010181815250508080600101915050610c46565b5060008090505b600380549050811015610f1557606060038281548110610c9d57fe5b90600052602060002001805480602002602001604051908101604052809291908181526020018280548015610cf157602002820191906000526020600020905b815481526020019060010190808311610cdd575b5050505050905060006001905060008090506000600790505b8351811015610d69576001898381518110610d2157fe5b6020026020010151148015610d4a57506001848281518110610d3f57fe5b602002602001015114155b15610d5457600092505b81806001019250508080600101915050610d0a565b508115610f0557600386511480610e0d575085600381518110610d8857fe5b602002602001015186600081518110610d9d57fe5b6020026020010151148015610dd9575085600481518110610dba57fe5b602002602001015186600181518110610dcf57fe5b6020026020010151145b8015610e0c575085600581518110610ded57fe5b602002602001015186600281518110610e0257fe5b6020026020010151145b5b15610e6f576040518060400160405280600681526020017f6f6e65646179000000000000000000000000000000000000000000000000000081525060029080519060200190610e5d92919061149a565b50610e6883876105d7565b9150610ec8565b6040518060400160405280600b81526020017f7365766572616c6461797300000000000000000000000000000000000000000081525060029080519060200190610eba92919061149a565b50610ec58387610ffd565b91505b8115610f04576001858581518110610edc57fe5b6020026020010181815250506001600460006101000a81548160ff0219169083151502179055505b5b5050508080600101915050610c81565b508060009080519060200190610f2c92919061144d565b50606060008090505b600380549050811015610feb576000808281548110610f5057fe5b906000526020600020015414610fde5760038181548110610f6d57fe5b90600052602060002001805480602002602001604051908101604052809291908181526020018280548015610fc157602002820191906000526020600020905b815481526020019060010190808311610fad575b5050505050828281518110610fd257fe5b60200260200101819052505b8080600101915050610f35565b50610ff68185610757565b5050505050565b6000806001905060008460018151811061101357fe5b6020026020010151905060008560028151811061102c57fe5b6020026020010151905060008660038151811061104557fe5b6020026020010151905060008760048151811061105e57fe5b6020026020010151905060008860058151811061107757fe5b6020026020010151905060008960068151811061109057fe5b602002602001015190506000896000815181106110a957fe5b6020026020010151905060008a6001815181106110c257fe5b6020026020010151905060008b6002815181106110db57fe5b6020026020010151905060008c6003815181106110f457fe5b6020026020010151905060008d60048151811061110d57fe5b6020026020010151905060008e60058151811061112657fe5b6020026020010151905085831161113c57600080fd5b8a8514801561114a57508984145b801561115557508681145b1561117657858c118061116757508289105b156111715760009c505b6111eb565b8a851415801561118557508984145b801561119057508681145b156111c757848b1080156111a35750858c105b15806111ae57508488105b806111b857508188105b156111c25760009c505b6111ea565b89841115806111d557508387105b806111df57508087105b156111e95760009c505b5b5b8c9d505050505050505050505050505092915050565b600080831415611214576000905061126b565b600082840290508284828161122557fe5b0414611266576040517f08c379a000000000000000000000000000000000000000000000000000000000815260040161125d90611d8e565b60405180910390fd5b809150505b92915050565b60006112b383836040518060400160405280601a81526020017f536166654d6174683a206469766973696f6e206279207a65726f000000000000815250611305565b905092915050565b60006112fd83836040518060400160405280601e81526020017f536166654d6174683a207375627472616374696f6e206f766572666c6f770000815250611366565b905092915050565b6000808311829061134c576040517f08c379a00000000000000000000000000000000000000000000000000000000081526004016113439190611d6c565b60405180910390fd5b50600083858161135857fe5b049050809150509392505050565b60008383111582906113ae576040517f08c379a00000000000000000000000000000000000000000000000000000000081526004016113a59190611d6c565b60405180910390fd5b5060008385039050809150509392505050565b8154818355818111156113e8578183600052602060002091820191016113e7919061151a565b5b505050565b82805482825590600052602060002090810192821561143c579160200282015b8281111561143b57825182908051906020019061142b92919061153f565b509160200191906001019061140d565b5b509050611449919061158c565b5090565b828054828255906000526020600020908101928215611489579160200282015b8281111561148857825182559160200191906001019061146d565b5b509050611496919061151a565b5090565b828054600181600116156101000203166002900490600052602060002090601f016020900481019282601f106114db57805160ff1916838001178555611509565b82800160010185558215611509579182015b828111156115085782518255916020019190600101906114ed565b5b509050611516919061151a565b5090565b61153c91905b80821115611538576000816000905550600101611520565b5090565b90565b82805482825590600052602060002090810192821561157b579160200282015b8281111561157a57825182559160200191906001019061155f565b5b509050611588919061151a565b5090565b6115b591905b808211156115b157600081816115a891906115b8565b50600101611592565b5090565b90565b50805460008255906000526020600020908101906115d6919061151a565b50565b600082601f8301126115ea57600080fd5b81356115fd6115f882611ddb565b611dae565b9150818183526020840193506020810190508360005b838110156116435781358601611629888261164d565b845260208401935060208301925050600181019050611613565b5050505092915050565b600082601f83011261165e57600080fd5b813561167161166c82611e03565b611dae565b9150818183526020840193506020810190508385602084028201111561169657600080fd5b60005b838110156116c657816116ac88826117d6565b845260208401935060208301925050600181019050611699565b5050505092915050565b600082601f8301126116e157600080fd5b81356116f46116ef82611e2b565b611dae565b9150818183526020840193506020810190508385602084028201111561171957600080fd5b60005b83811015611749578161172f88826117d6565b84526020840193506020830192505060018101905061171c565b5050505092915050565b600082601f83011261176457600080fd5b815161177761177282611e2b565b611dae565b9150818183526020840193506020810190508385602084028201111561179c57600080fd5b60005b838110156117cc57816117b288826117eb565b84526020840193506020830192505060018101905061179f565b5050505092915050565b6000813590506117e581611ff6565b92915050565b6000815190506117fa81611ff6565b92915050565b60006020828403121561181257600080fd5b600082013567ffffffffffffffff81111561182c57600080fd5b611838848285016115d9565b91505092915050565b6000806040838503121561185457600080fd5b600083013567ffffffffffffffff81111561186e57600080fd5b61187a858286016115d9565b925050602083013567ffffffffffffffff81111561189757600080fd5b6118a3858286016116d0565b9150509250929050565b6000602082840312156118bf57600080fd5b600082015167ffffffffffffffff8111156118d957600080fd5b6118e584828501611753565b91505092915050565b6000806040838503121561190157600080fd5b600083013567ffffffffffffffff81111561191b57600080fd5b611927858286016116d0565b925050602083013567ffffffffffffffff81111561194457600080fd5b611950858286016116d0565b9150509250929050565b60008060006060848603121561196f57600080fd5b600084013567ffffffffffffffff81111561198957600080fd5b611995868287016116d0565b935050602084013567ffffffffffffffff8111156119b257600080fd5b6119be868287016116d0565b925050604084013567ffffffffffffffff8111156119db57600080fd5b6119e7868287016116d0565b9150509250925092565b60008060408385031215611a0457600080fd5b600083013567ffffffffffffffff811115611a1e57600080fd5b611a2a858286016116d0565b9250506020611a3b858286016117d6565b9150509250929050565b6000611a518383611b5c565b905092915050565b6000611a658383611ccd565b60208301905092915050565b6000611a7d8383611cdc565b60208301905092915050565b6000611a9482611e98565b611a9e8185611f03565b935083602082028501611ab085611e53565b8060005b85811015611aec5784840389528151611acd8582611a45565b9450611ad883611ecf565b925060208a01995050600181019050611ab4565b50829750879550505050505092915050565b6000611b0982611eae565b611b138185611f25565b9350611b1e83611e73565b8060005b83811015611b4f578151611b368882611a59565b9750611b4183611ee9565b925050600181019050611b22565b5085935050505092915050565b6000611b6782611ea3565b611b718185611f14565b9350611b7c83611e63565b8060005b83811015611bad578151611b948882611a59565b9750611b9f83611edc565b925050600181019050611b80565b5085935050505092915050565b6000611bc582611eb9565b611bcf8185611f36565b9350611bda83611e83565b8060005b83811015611c1257611bef82611fc5565b611bf98882611a71565b9750611c0483611ef6565b925050600181019050611bde565b5085935050505092915050565b611c2881611f62565b82525050565b6000611c3982611ec4565b611c438185611f47565b9350611c53818560208601611f78565b611c5c81611fd8565b840191505092915050565b6000611c74602183611f47565b91507f536166654d6174683a206d756c7469706c69636174696f6e206f766572666c6f60008301527f77000000000000000000000000000000000000000000000000000000000000006020830152604082019050919050565b611cd681611f6e565b82525050565b611ce581611f6e565b82525050565b60006020820190508181036000830152611d058184611a89565b905092915050565b60006020820190508181036000830152611d278184611afe565b905092915050565b60006020820190508181036000830152611d498184611bba565b905092915050565b6000602082019050611d666000830184611c1f565b92915050565b60006020820190508181036000830152611d868184611c2e565b905092915050565b60006020820190508181036000830152611da781611c67565b9050919050565b6000604051905081810181811067ffffffffffffffff82111715611dd157600080fd5b8060405250919050565b600067ffffffffffffffff821115611df257600080fd5b602082029050602081019050919050565b600067ffffffffffffffff821115611e1a57600080fd5b602082029050602081019050919050565b600067ffffffffffffffff821115611e4257600080fd5b602082029050602081019050919050565b6000819050602082019050919050565b6000819050602082019050919050565b6000819050602082019050919050565b60008190508160005260206000209050919050565b600081519050919050565b600081519050919050565b600081519050919050565b600081549050919050565b600081519050919050565b6000602082019050919050565b6000602082019050919050565b6000602082019050919050565b6000600182019050919050565b600082825260208201905092915050565b600082825260208201905092915050565b600082825260208201905092915050565b600082825260208201905092915050565b600082825260208201905092915050565b6000819050919050565b60008115159050919050565b6000819050919050565b60005b83811015611f96578082015181840152602081019050611f7b565b83811115611fa5576000848401525b50505050565b6000611fbe611fb983611fe9565b611f58565b9050919050565b6000611fd18254611fab565b9050919050565b6000601f19601f8301169050919050565b60008160001c9050919050565b611fff81611f6e565b811461200a57600080fd5b5056fea365627a7a72315820360a12d1f511effe7f32a8884611d68e6c8defcecce8c1afc1717143c2e9d5196c6578706572696d656e74616cf564736f6c63430005100040",
  "source": "pragma experimental ABIEncoderV2;\n\npragma solidity ^0.5.16;\n\nimport \"./Sort.sol\";\n\nimport \"./SafeMath.sol\";\n\n\n/**\n * @title Elect\n */\n\n\ncontract Elect {\n    // list of persons with attribute values:   \n    // [[id, startDay, startMonth, startYear, endDay, endMonth, endYear, equipment1, equipment2, equipment3 //pickup, distance]]\n    // pickup and delivery: *10E7, add a 'neg element' to string? (neg1 / neg2 --> and adapt calculus accordingly)\n    \n    //uint[][] candidates = [ [0, 12,5,21, 13,5,21, 1,1,1],[1, 12,5,21, 13,5,21, 1,1,1], [2, 12,5,21, 15,5,21, 1,1,1], [3, 12,5,21, 16,5,21, 1,1,1], [4, 10,5,21, 14,5,21, 1,1,1], [5, 11,5,21, 14,5,21, 1,1,1] ]\n    //uint[][] candidates =[\n    //                        [1, 12,5,21, 13,5,21, 1,1,1],\n    //                        [2, 12,5,21, 15,5,21, 1,1,1],\n    //                        [3, 12,5,21, 16,5,21, 1,1,1],\n    //                        [4, 10,5,21, 14,5,21, 1,1,1],\n    //                        [5, 11,5,21, 14,5,21, 1,1,1]\n    //                    ];     \n    //uint[] filteringAttributes = [1,1,1];    // list of filtering attributes     \n    //uint[] availability = [12,1,21];\n    \n    uint[] filteredCandidates;\n    \n    string filteredIds;\n    \n    string testState;\n\n    uint[][] candidates;\n\n    bool hasCandidates = false;\n\n\n    uint[] normalized;\n    uint[][] normalizedArray;\n    uint[] QoSList;\n    uint[] sortedQoSList;\n\n\n\n    ///// Delegated services        \n    function getFilteredCandidates() public view returns(uint[] memory){\n        return filteredCandidates;\n    }\n\n    function existsCandidates() public view returns(bool){\n        return hasCandidates;\n    }\n\n    function setCandidates(uint[][] memory _candidates) public payable {\n        candidates = _candidates;\n    }\n\n    function getCandidates() public view returns(uint[][] memory){\n        return candidates;\n    }\n\n    function getTestState() public view returns(string memory){\n        return testState;\n    }\n\n\n    function getSortedQoS() public view returns(uint[] memory){\n        return sortedQoSList;   \n    }\n\n    function getNormalized() public view returns(uint[] memory){       \n        return normalized;\n    }\n\n    function getNormalizedArray() public view returns(uint[][] memory){\n        return normalizedArray;\n    }\n\n\n    function oneDayAvailability(uint[] memory _person, uint[] memory _availability) public payable returns(bool){\n        uint avStartDay = _person[1];\n        uint avStartMonth = _person[2];\n        uint avStartYear = _person[3];\n\n        uint avEndDay = _person[4];\n        uint avEndMonth = _person[5];\n        uint avEndYear = _person[6];\n\n        uint reqDay= _availability[0];\n        uint reqMonth= _availability[1];\n        uint reqYear= _availability[2];\n                    \n        bool testOutput=true;\n        \n        if((reqMonth==avStartMonth) && (reqYear==avStartYear)){ // same month, same year\n            if((avStartDay > reqDay)||(avEndDay<reqDay)){ // person is booked\n                testOutput=false;\n                }\n            }\n        else if((reqMonth!=avStartMonth) && (reqYear==avStartYear)){ //same year, different month\n            if(!((avStartMonth < reqMonth) && (avStartDay < reqDay)) || (avEndMonth<reqMonth)){ // person is booked\n                testOutput=false;\n            }\n        }\n        else{ //different year\n            if(!(reqYear>avStartYear)||(avEndYear<reqYear)){ // person is booked\n                testOutput=false;\n            }\n        }\n        return testOutput;\n    }\n\n\n    function severalDaysAvailability(uint[] memory _person, uint[] memory _availability) public payable returns(bool){\n        bool testOutput=true;\n        \n        uint avStartDay = _person[1];\n        uint avStartMonth = _person[2];\n        uint avStartYear = _person[3];\n\n        uint avEndDay = _person[4];\n        uint avEndMonth = _person[5];\n        uint avEndYear = _person[6];\n\n        uint reqSDay=_availability[0];\n        uint reqSMonth=_availability[1];\n        uint reqSYear=_availability[2];\n                    \n        uint reqEDay=_availability[3];\n        uint reqEMonth=_availability[4];\n        uint reqEYear=_availability[5];\n                    \n\n        require(reqEDay>reqSDay);\n\n        if((reqSMonth==avStartMonth) && (reqSYear==avStartYear) && (reqEYear==avEndYear)){ // same start month, same year\n            if((avStartDay > reqSDay)||(avEndDay<reqEDay)){ // person is booked\n                testOutput=false;\n                }\n        }\n        else if((reqSMonth!=avStartMonth) && (reqSYear==avStartYear) &&  (reqEYear==avEndYear)){ //same year, different month\n            if(!((avStartMonth < reqSMonth) && (avStartDay < reqSDay)) || (avEndMonth<reqSMonth) || (avEndMonth<reqEMonth)){ // person is booked\n                testOutput=false;\n                }\n            }\n        else{ //different year\n            if(!(reqSYear>avStartYear)||(avEndYear<reqSYear)||(avEndYear<reqEYear)){ // person is booked\n                testOutput=false;\n            }\n        }\n        return testOutput;\n    }\n    \n\n    //////// Sorting \n\n\n     function normalize(uint[] memory input, uint mulfactor) public payable returns(uint[] memory){\n        normalized.length=0; \n                \n        //get largest\n        uint256 largest = 0; \n        for(uint i = 0; i < input.length; i++){\n            if(input[i] > largest) {\n                largest = input[i]; \n            } \n        }\n                \n                \n        //get smallest\n        uint256 smallest = 0; \n        for(uint i = 0; i < input.length; i++){\n            if(input[i] < smallest) {\n                smallest = input[i]; \n            } \n        }\n                \n        // normalize                \n        for (uint j=0; j<input.length;j++){\n            normalized.push(SafeMath.div(SafeMath.mul(mulfactor,SafeMath.sub(input[j],smallest)),SafeMath.sub(largest,smallest)));\n        }\n                \n        return normalized;\n     }\n\n\n    function sortOnQoS(uint[][] memory input, uint[] memory alphas) public payable{\n        uint mulfactor = 100;\n\n        // normalize array\n        uint numParams = input[0].length;\n\n        for (uint j=0; j<numParams; j++){\n            \n            normalized.length=0;\n            \n            for (uint i=0; i<input.length; i++){\n                normalized.push(input[i][j]);\n            }\n            \n            uint[] memory tmp = normalize(normalized, mulfactor);\n            \n            for (uint i=0; i<input.length; i++){\n                input[i][j]=tmp[i];\n            }\n        }\n        \n        normalizedArray = input;\n        \n        QoSList.length=0;\n        for (uint i=0; i<input.length; i++){\n            uint QoS = 0;\n            for (uint j=0;j<numParams;j++){\n                QoS = QoS + SafeMath.mul(alphas[j], input[i][j]);\n            }\n            \n            QoSList.push(SafeMath.div(QoS,numParams));\n        }\n\n\n        sortedQoSList = Sort.sort(QoSList);\n\n\n        // emit event\n    }\n\n\n\n\n    //////// Global Filtering\n\n    function filter(uint[] memory filteringAttributes, uint[] memory alphas, uint[] memory availability) public payable{\n        \n        uint[] memory _filteredCandidates = new uint[](candidates.length);\n        // reinitialize list of candidates\n        for(uint i=0; i<candidates.length;i++){\n            _filteredCandidates[i]=0;\n        }\n\n        for(uint ind=0; ind<candidates.length; ind++){\n            uint[] memory person=candidates[ind];\n            bool testOutput = true;\n\n            // filter on  attributes\n            uint index=0;\n            for(uint id_att=7; id_att<person.length; id_att++){\n                if((filteringAttributes[index]==1) && (person[id_att]!=1)){\n                        testOutput=false;\n                }\n                index++;\n            }\n\n            if(testOutput){\n                //filter on availability\n                if((availability.length==3)||\n                    ((availability[0]==availability[3])&&(availability[1]==availability[4])&&(availability[2]==availability[5]))){ // ask for a day booking\n                    testState=\"oneday\";\n                    testOutput=oneDayAvailability(person, availability);\n                }\n                else{ \n                    //availability.length==6, ask for a several-days booking \n                    testState=\"severaldays\";\n                    testOutput=severalDaysAvailability(person, availability);\n                }\n                \n                //_filteredCandidates[ind]=1;\n                //hasCandidates=true;\n\n                //update list of candidates\n                if(testOutput){\n                    _filteredCandidates[ind]=1;\n                    hasCandidates=true;\n\n                    // emit event(?)\n                }\n            }\n            \n        }\n\n       filteredCandidates = _filteredCandidates;\n\n       // proceed to sorting\n       uint[][] memory toSort;\n\n       for (uint i=0; i<candidates.length; i++){\n           if(filteredCandidates[i]!=0){\n               toSort[i]=candidates[i]; // !!!! copy only sorting params !  for.... in range params: copy ! --> these will be the computed elems. \n           }\n       }\n\n       sortOnQoS(toSort, alphas); // todo: avoid computation on non elected members --> create new list of candidates\n        \n    }\n    \n\n    \n    \n    // function instanciate contract \n    \n    \n\n}",
  "sourcePath": "/home/vtlr2002/source/SMLogs/contracts/Elect.sol",
  "compiler": {
    "name": "solc",
    "version": "0.5.16+commit.9c3226ce.Emscripten.clang"
  },
  "schemaVersion": "3.2.4",
  "updatedAt": "2020-11-30T18:17:03.689Z",
  "devdoc": {
    "methods": {},
    "title": "Elect"
  },
  "userdoc": {
    "methods": {
      "filter(uint256[],uint256[],uint256[])": {
        "notice": "///// Global Filtering"
      },
      "getFilteredCandidates()": {
        "notice": "// Delegated services        "
      },
      "normalize(uint256[],uint256)": {
        "notice": "///// Sorting "
      }
    }
  }
}