{
  "contractName": "Elect",
  "abi": [
    {
      "anonymous": false,
      "inputs": [
        {
          "indexed": false,
          "internalType": "string",
          "name": "ExistCandidates",
          "type": "string"
        },
        {
          "indexed": false,
          "internalType": "string",
          "name": "profiles",
          "type": "string"
        }
      ],
      "name": "BestCandidates",
      "type": "event"
    },
    {
      "anonymous": false,
      "inputs": [
        {
          "indexed": false,
          "internalType": "string",
          "name": "nextStep",
          "type": "string"
        }
      ],
      "name": "LogConstructorInitiated",
      "type": "event"
    },
    {
      "anonymous": false,
      "inputs": [
        {
          "indexed": false,
          "internalType": "string",
          "name": "description",
          "type": "string"
        }
      ],
      "name": "LogNewProvableQuery",
      "type": "event"
    },
    {
      "anonymous": false,
      "inputs": [
        {
          "indexed": false,
          "internalType": "string",
          "name": "qosList",
          "type": "string"
        }
      ],
      "name": "LogQoSCompute",
      "type": "event"
    },
    {
      "constant": true,
      "inputs": [],
      "name": "getfilter",
      "outputs": [
        {
          "internalType": "uint256[]",
          "name": "",
          "type": "uint256[]"
        }
      ],
      "payable": false,
      "stateMutability": "view",
      "type": "function"
    },
    {
      "constant": true,
      "inputs": [],
      "name": "getCandidates",
      "outputs": [
        {
          "internalType": "uint256[][]",
          "name": "",
          "type": "uint256[][]"
        }
      ],
      "payable": false,
      "stateMutability": "view",
      "type": "function"
    },
    {
      "constant": true,
      "inputs": [],
      "name": "getBestProfiles",
      "outputs": [
        {
          "internalType": "string",
          "name": "",
          "type": "string"
        }
      ],
      "payable": false,
      "stateMutability": "view",
      "type": "function"
    },
    {
      "constant": false,
      "inputs": [
        {
          "internalType": "uint256[]",
          "name": "attributes",
          "type": "uint256[]"
        },
        {
          "internalType": "uint256[]",
          "name": "availability",
          "type": "uint256[]"
        }
      ],
      "name": "filterScan",
      "outputs": [
        {
          "internalType": "uint256[]",
          "name": "",
          "type": "uint256[]"
        }
      ],
      "payable": true,
      "stateMutability": "payable",
      "type": "function"
    },
    {
      "constant": false,
      "inputs": [
        {
          "internalType": "bytes32",
          "name": "myid",
          "type": "bytes32"
        },
        {
          "internalType": "string",
          "name": "result",
          "type": "string"
        }
      ],
      "name": "__callback",
      "outputs": [],
      "payable": false,
      "stateMutability": "nonpayable",
      "type": "function"
    },
    {
      "constant": false,
      "inputs": [
        {
          "internalType": "bytes32",
          "name": "_myid",
          "type": "bytes32"
        },
        {
          "internalType": "string",
          "name": "_result",
          "type": "string"
        },
        {
          "internalType": "bytes",
          "name": "_proof",
          "type": "bytes"
        }
      ],
      "name": "__callback",
      "outputs": [],
      "payable": false,
      "stateMutability": "nonpayable",
      "type": "function"
    },
    {
      "constant": false,
      "inputs": [
        {
          "internalType": "uint256[]",
          "name": "attributes",
          "type": "uint256[]"
        },
        {
          "internalType": "uint256[]",
          "name": "availability",
          "type": "uint256[]"
        },
        {
          "internalType": "string",
          "name": "alphas",
          "type": "string"
        },
        {
          "internalType": "uint256",
          "name": "num_alphas",
          "type": "uint256"
        }
      ],
      "name": "sort",
      "outputs": [],
      "payable": true,
      "stateMutability": "payable",
      "type": "function"
    }
  ],
  "bytecode": "0x6080604052604051806101400160405280604051806103000160405280600060ff168152602001600c60ff168152602001600160ff168152602001601560ff168152602001600d60ff168152602001600160ff168152602001601560ff168152602001600160ff168152602001600160ff168152602001600a60ff168152602001600360ff168152602001600360ff168152602001600a60ff168152602001600360ff168152602001600360ff168152602001600a60ff168152602001600360ff168152602001600360ff168152602001600a60ff168152602001600360ff168152602001600a60ff168152602001600360ff168152602001600360ff168152602001600a60ff168152508152602001604051806103000160405280600160ff168152602001600c60ff168152602001600160ff168152602001601560ff168152602001600d60ff168152602001600160ff168152602001601560ff168152602001600160ff168152602001600160ff168152602001600a60ff168152602001600360ff168152602001600360ff168152602001600a60ff168152602001600360ff168152602001600360ff168152602001600a60ff168152602001600360ff168152602001600360ff168152602001600a60ff168152602001600360ff168152602001600a60ff168152602001600360ff168152602001600360ff168152602001600a60ff168152508152602001604051806103000160405280600260ff168152602001600160ff168152602001600160ff168152602001601560ff168152602001600d60ff168152602001600160ff168152602001601560ff168152602001600160ff168152602001600160ff168152602001600a60ff168152602001600360ff168152602001600360ff168152602001600a60ff168152602001600360ff168152602001600360ff168152602001600a60ff168152602001600360ff168152602001600360ff168152602001600a60ff168152602001600360ff168152602001600a60ff168152602001600360ff168152602001600360ff168152602001600a60ff168152508152602001604051806103000160405280600360ff168152602001600c60ff168152602001600160ff168152602001601560ff168152602001600d60ff168152602001600160ff168152602001601560ff168152602001600160ff168152602001600160ff168152602001600a60ff168152602001600360ff168152602001600360ff168152602001600a60ff168152602001600360ff168152602001600360ff168152602001600a60ff168152602001600360ff168152602001600360ff168152602001600a60ff168152602001600360ff168152602001600a60ff168152602001600360ff168152602001600360ff168152602001600a60ff168152508152602001604051806103000160405280600460ff168152602001600c60ff168152602001600160ff168152602001601560ff168152602001600d60ff168152602001600160ff168152602001601560ff168152602001600160ff168152602001600160ff168152602001600a60ff168152602001600360ff168152602001600360ff168152602001600a60ff168152602001600360ff168152602001600360ff168152602001600a60ff168152602001600360ff168152602001600360ff168152602001600a60ff168152602001600360ff168152602001600a60ff168152602001600360ff168152602001600360ff168152602001600a60ff168152508152602001604051806103000160405280600560ff168152602001600c60ff168152602001600160ff168152602001601560ff168152602001600d60ff168152602001600160ff168152602001601560ff168152602001600160ff168152602001600160ff168152602001600a60ff168152602001600360ff168152602001600360ff168152602001600a60ff168152602001600360ff168152602001600360ff168152602001600a60ff168152602001600360ff168152602001600360ff168152602001600a60ff168152602001600360ff168152602001600a60ff168152602001600360ff168152602001600360ff168152602001600a60ff168152508152602001604051806103000160405280600660ff168152602001600c60ff168152602001600160ff168152602001601560ff168152602001600d60ff168152602001600160ff168152602001601560ff168152602001600160ff168152602001600160ff168152602001600a60ff168152602001600360ff168152602001600360ff168152602001600a60ff168152602001600360ff168152602001600360ff168152602001600a60ff168152602001600360ff168152602001600360ff168152602001600a60ff168152602001600360ff168152602001600a60ff168152602001600360ff168152602001600360ff168152602001600a60ff168152508152602001604051806103000160405280600760ff168152602001600160ff168152602001600160ff168152602001601560ff168152602001600d60ff168152602001600160ff168152602001601560ff168152602001600160ff168152602001600160ff168152602001600a60ff168152602001600360ff168152602001600360ff168152602001600a60ff168152602001600360ff168152602001600360ff168152602001600a60ff168152602001600360ff168152602001600360ff168152602001600a60ff168152602001600360ff168152602001600a60ff168152602001600360ff168152602001600360ff168152602001600a60ff168152508152602001604051806103000160405280600860ff168152602001600c60ff168152602001600160ff168152602001601560ff168152602001600d60ff168152602001600160ff168152602001601560ff168152602001600160ff168152602001600160ff168152602001600a60ff168152602001600360ff168152602001600360ff168152602001600a60ff168152602001600360ff168152602001600360ff168152602001600a60ff168152602001600360ff168152602001600360ff168152602001600a60ff168152602001600360ff168152602001600a60ff168152602001600360ff168152602001600360ff168152602001600a60ff168152508152602001604051806103000160405280600960ff168152602001600c60ff168152602001600160ff168152602001601560ff168152602001600d60ff168152602001600160ff168152602001601560ff168152602001600160ff168152602001600160ff168152602001600a60ff168152602001600360ff168152602001600360ff168152602001600a60ff168152602001600360ff168152602001600360ff168152602001600a60ff168152602001600360ff168152602001600360ff168152602001600a60ff168152602001600360ff168152602001600a60ff168152602001600360ff168152602001600360ff168152602001600a60ff16815250815250600990600a62000a1692919062000a46565b506000600a60006101000a81548160ff02191690831515021790555034801562000a3f57600080fd5b5062000b7b565b82805482825590600052602060002090810192821562000a95579160200282015b8281111562000a945782518290601862000a8392919062000aa8565b509160200191906001019062000a67565b5b50905062000aa4919062000aff565b5090565b82805482825590600052602060002090810192821562000aec579160200282015b8281111562000aeb578251829060ff1690559160200191906001019062000ac9565b5b50905062000afb919062000b30565b5090565b62000b2d91905b8082111562000b29576000818162000b1f919062000b58565b5060010162000b06565b5090565b90565b62000b5591905b8082111562000b5157600081600090555060010162000b37565b5090565b90565b508054600082559060005260206000209081019062000b78919062000b30565b50565b612d888062000b8b6000396000f3fe6080604052600436106100705760003560e01c806363d8e6021161004e57806363d8e602146100f2578063a74c2b4e1461010e578063bca9469f14610139578063e3f95b601461016457610070565b806306a49fce1461007557806327dc297e146100a057806338bbfa50146100c9575b600080fd5b34801561008157600080fd5b5061008a610194565b6040516100979190612814565b60405180910390f35b3480156100ac57600080fd5b506100c760048036036100c29190810190611f6e565b610233565b005b3480156100d557600080fd5b506100f060048036036100eb9190810190611fc2565b6102c5565b005b61010c60048036036101079190810190611e9a565b6102e8565b005b34801561011a57600080fd5b506101236105a2565b6040516101309190612926565b60405180910390f35b34801561014557600080fd5b5061014e610644565b60405161015b9190612866565b60405180910390f35b61017e60048036036101799190810190611e2e565b61069c565b60405161018b9190612866565b60405180910390f35b60606009805480602002602001604051908101604052809291908181526020016000905b8282101561022a5783829060005260206000200180548060200260200160405190810160405280929190818152602001828054801561021657602002820191906000526020600020905b815481526020019060010190808311610202575b5050505050815260200190600101906101b8565b50505050905090565b61023b610aea565b73ffffffffffffffffffffffffffffffffffffffff163373ffffffffffffffffffffffffffffffffffffffff161461027257600080fd5b80600b9080519060200190610288929190611aad565b507f9f3fc85979cf17a36a28923dfa3b22fcb290f7e0f531b636246326126006c91d600b6040516102b9919061299b565b60405180910390a15050565b6000801b600360008060001b815260200190815260200160002081905550505050565b6102f2848461069c565b60059080519060200190610307929190611b2d565b50600a60009054906101000a900460ff1615610566574761035c6040518060400160405280600381526020017f55524c0000000000000000000000000000000000000000000000000000000000815250610dfe565b111561039c577fc4dc360d0a9c0677a3379ae0a3d81e887f761e65fdf3d7e00859d1bcd3c4738960405161038f906129d0565b60405180910390a1610561565b7fc4dc360d0a9c0677a3379ae0a3d81e887f761e65fdf3d7e00859d1bcd3c473896040516103c99061297b565b60405180910390a1606073__ElectToolbox__________________________63b49fc6a26009846040518363ffffffff1660e01b815260040161040d929190612836565b60006040518083038186803b15801561042557600080fd5b505af4158015610439573d6000803e3d6000fd5b505050506040513d6000823e3d601f19601f820116820180604052506104629190810190612041565b9050606073__ElectToolbox__________________________63114412eb60056040518263ffffffff1660e01b815260040161049e9190612888565b60006040518083038186803b1580156104b657600080fd5b505af41580156104ca573d6000803e3d6000fd5b505050506040513d6000823e3d601f19601f820116820180604052506104f39190810190612041565b9050606082858360405160200161050c939291906127b7565b604051602081830303815290604052905061055c6040518060400160405280600381526020017f55524c000000000000000000000000000000000000000000000000000000000081525082611121565b505050505b61059c565b7f9f3fc85979cf17a36a28923dfa3b22fcb290f7e0f531b636246326126006c91d60405161059390612948565b60405180910390a15b50505050565b6060600b8054600181600116156101000203166002900480601f01602080910402602001604051908101604052809291908181526020018280546001816001161561010002031660029004801561063a5780601f1061060f5761010080835404028352916020019161063a565b820191906000526020600020905b81548152906001019060200180831161061d57829003601f168201915b5050505050905090565b6060600580548060200260200160405190810160405280929190818152602001828054801561069257602002820191906000526020600020905b81548152602001906001019080831161067e575b5050505050905090565b6060806009805490506040519080825280602002602001820160405280156106d35781602001602082028038833980820191505090505b50905060008090505b6009805490508110156107105760008282815181106106f757fe5b60200260200101818152505080806001019150506106dc565b506000600a60006101000a81548160ff02191690831515021790555060008090505b600980549050811015610a7857600060088161074e9190611b7a565b506009818154811061075c57fe5b906000526020600020016008908054610776929190611ba6565b5060006001905060008090506000875160070190506000600790505b818110156107f45760018984815181106107a857fe5b60200260200101511480156107d557506001600882815481106107c757fe5b906000526020600020015414155b156107df57600093505b82806001019350508080600101915050610792565b508215610a685760038751148061089857508660038151811061081357fe5b60200260200101518760008151811061082857fe5b602002602001015114801561086457508660048151811061084557fe5b60200260200101518760018151811061085a57fe5b6020026020010151145b801561089757508660058151811061087857fe5b60200260200101518760028151811061088d57fe5b6020026020010151145b5b15610968576000600760006101000a81548160ff021916908360018111156108bc57fe5b021790555073__ElectToolbox__________________________63915a57156008896040518363ffffffff1660e01b81526004016108fb9291906128aa565b60206040518083038186803b15801561091357600080fd5b505af4158015610927573d6000803e3d6000fd5b505050506040513d601f19601f8201168201806040525061094b9190810190612082565b85858151811061095757fe5b602002602001018181525050610a2f565b6001600760006101000a81548160ff0219169083600181111561098757fe5b021790555073__ElectToolbox__________________________63f106b1a76008896040518363ffffffff1660e01b81526004016109c69291906128aa565b60206040518083038186803b1580156109de57600080fd5b505af41580156109f2573d6000803e3d6000fd5b505050506040513d601f19601f82011682018060405250610a169190810190612082565b858581518110610a2257fe5b6020026020010181815250505b6001858581518110610a3d57fe5b60200260200101511415610a67576001600a60006101000a81548160ff0219169083151502179055505b5b5050508080600101915050610732565b508060059080519060200190610a8f929190611b2d565b506005805480602002602001604051908101604052809291908181526020018280548015610adc57602002820191906000526020600020905b815481526020019060010190808311610ac8575b505050505091505092915050565b60008073ffffffffffffffffffffffffffffffffffffffff16600160009054906101000a900473ffffffffffffffffffffffffffffffffffffffff1673ffffffffffffffffffffffffffffffffffffffff161480610b7257506000610b70600160009054906101000a900473ffffffffffffffffffffffffffffffffffffffff16611520565b145b15610b8357610b81600061152b565b505b600160009054906101000a900473ffffffffffffffffffffffffffffffffffffffff1673ffffffffffffffffffffffffffffffffffffffff166338cc48316040518163ffffffff1660e01b8152600401602060405180830381600087803b158015610bed57600080fd5b505af1158015610c01573d6000803e3d6000fd5b505050506040513d601f19601f82011682018060405250610c259190810190611e05565b73ffffffffffffffffffffffffffffffffffffffff166000809054906101000a900473ffffffffffffffffffffffffffffffffffffffff1673ffffffffffffffffffffffffffffffffffffffff1614610d5a57600160009054906101000a900473ffffffffffffffffffffffffffffffffffffffff1673ffffffffffffffffffffffffffffffffffffffff166338cc48316040518163ffffffff1660e01b8152600401602060405180830381600087803b158015610ce257600080fd5b505af1158015610cf6573d6000803e3d6000fd5b505050506040513d601f19601f82011682018060405250610d1a9190810190611e05565b6000806101000a81548173ffffffffffffffffffffffffffffffffffffffff021916908373ffffffffffffffffffffffffffffffffffffffff1602179055505b6000809054906101000a900473ffffffffffffffffffffffffffffffffffffffff1673ffffffffffffffffffffffffffffffffffffffff1663c281d19e6040518163ffffffff1660e01b815260040160206040518083038186803b158015610dc157600080fd5b505afa158015610dd5573d6000803e3d6000fd5b505050506040513d601f19601f82011682018060405250610df99190810190611e05565b905090565b60008073ffffffffffffffffffffffffffffffffffffffff16600160009054906101000a900473ffffffffffffffffffffffffffffffffffffffff1673ffffffffffffffffffffffffffffffffffffffff161480610e8657506000610e84600160009054906101000a900473ffffffffffffffffffffffffffffffffffffffff16611520565b145b15610e9757610e95600061152b565b505b600160009054906101000a900473ffffffffffffffffffffffffffffffffffffffff1673ffffffffffffffffffffffffffffffffffffffff166338cc48316040518163ffffffff1660e01b8152600401602060405180830381600087803b158015610f0157600080fd5b505af1158015610f15573d6000803e3d6000fd5b505050506040513d601f19601f82011682018060405250610f399190810190611e05565b73ffffffffffffffffffffffffffffffffffffffff166000809054906101000a900473ffffffffffffffffffffffffffffffffffffffff1673ffffffffffffffffffffffffffffffffffffffff161461106e57600160009054906101000a900473ffffffffffffffffffffffffffffffffffffffff1673ffffffffffffffffffffffffffffffffffffffff166338cc48316040518163ffffffff1660e01b8152600401602060405180830381600087803b158015610ff657600080fd5b505af115801561100a573d6000803e3d6000fd5b505050506040513d601f19601f8201168201806040525061102e9190810190611e05565b6000806101000a81548173ffffffffffffffffffffffffffffffffffffffff021916908373ffffffffffffffffffffffffffffffffffffffff1602179055505b6000809054906101000a900473ffffffffffffffffffffffffffffffffffffffff1673ffffffffffffffffffffffffffffffffffffffff1663524f3889836040518263ffffffff1660e01b81526004016110c89190612926565b602060405180830381600087803b1580156110e257600080fd5b505af11580156110f6573d6000803e3d6000fd5b505050506040513d601f19601f8201168201806040525061111a9190810190612082565b9050919050565b60008073ffffffffffffffffffffffffffffffffffffffff16600160009054906101000a900473ffffffffffffffffffffffffffffffffffffffff1673ffffffffffffffffffffffffffffffffffffffff1614806111a9575060006111a7600160009054906101000a900473ffffffffffffffffffffffffffffffffffffffff16611520565b145b156111ba576111b8600061152b565b505b600160009054906101000a900473ffffffffffffffffffffffffffffffffffffffff1673ffffffffffffffffffffffffffffffffffffffff166338cc48316040518163ffffffff1660e01b8152600401602060405180830381600087803b15801561122457600080fd5b505af1158015611238573d6000803e3d6000fd5b505050506040513d601f19601f8201168201806040525061125c9190810190611e05565b73ffffffffffffffffffffffffffffffffffffffff166000809054906101000a900473ffffffffffffffffffffffffffffffffffffffff1673ffffffffffffffffffffffffffffffffffffffff161461139157600160009054906101000a900473ffffffffffffffffffffffffffffffffffffffff1673ffffffffffffffffffffffffffffffffffffffff166338cc48316040518163ffffffff1660e01b8152600401602060405180830381600087803b15801561131957600080fd5b505af115801561132d573d6000803e3d6000fd5b505050506040513d601f19601f820116820180604052506113519190810190611e05565b6000806101000a81548173ffffffffffffffffffffffffffffffffffffffff021916908373ffffffffffffffffffffffffffffffffffffffff1602179055505b60008060009054906101000a900473ffffffffffffffffffffffffffffffffffffffff1673ffffffffffffffffffffffffffffffffffffffff1663524f3889856040518263ffffffff1660e01b81526004016113ed9190612926565b602060405180830381600087803b15801561140757600080fd5b505af115801561141b573d6000803e3d6000fd5b505050506040513d601f19601f8201168201806040525061143f9190810190612082565b905062030d403a02670de0b6b3a764000001811115611464576000801b91505061151a565b6000809054906101000a900473ffffffffffffffffffffffffffffffffffffffff1673ffffffffffffffffffffffffffffffffffffffff1663adf59f9982600087876040518563ffffffff1660e01b81526004016114c4939291906128e1565b6020604051808303818588803b1580156114dd57600080fd5b505af11580156114f1573d6000803e3d6000fd5b50505050506040513d601f19601f820116820180604052506115169190810190611f45565b9150505b92915050565b6000813b9050919050565b600061153561153c565b9050919050565b60008061155c731d3b2638a7cc9f2cb3d298a3da7a90b67e5506ed611520565b11156115fe57731d3b2638a7cc9f2cb3d298a3da7a90b67e5506ed600160006101000a81548173ffffffffffffffffffffffffffffffffffffffff021916908373ffffffffffffffffffffffffffffffffffffffff1602179055506115f56040518060400160405280600b81526020017f6574685f6d61696e6e6574000000000000000000000000000000000000000000815250611a93565b60019050611a90565b600061161d73c03a2615d5efaf5f49f60b7bb6583eaec212fdf1611520565b11156116bf5773c03a2615d5efaf5f49f60b7bb6583eaec212fdf1600160006101000a81548173ffffffffffffffffffffffffffffffffffffffff021916908373ffffffffffffffffffffffffffffffffffffffff1602179055506116b66040518060400160405280600c81526020017f6574685f726f707374656e330000000000000000000000000000000000000000815250611a93565b60019050611a90565b60006116de73b7a07bcf2ba2f2703b24c0691b5278999c59ac7e611520565b11156117805773b7a07bcf2ba2f2703b24c0691b5278999c59ac7e600160006101000a81548173ffffffffffffffffffffffffffffffffffffffff021916908373ffffffffffffffffffffffffffffffffffffffff1602179055506117776040518060400160405280600981526020017f6574685f6b6f76616e0000000000000000000000000000000000000000000000815250611a93565b60019050611a90565b600061179f73146500cfd35b22e4a392fe0adc06de1a1368ed48611520565b11156118415773146500cfd35b22e4a392fe0adc06de1a1368ed48600160006101000a81548173ffffffffffffffffffffffffffffffffffffffff021916908373ffffffffffffffffffffffffffffffffffffffff1602179055506118386040518060400160405280600b81526020017f6574685f72696e6b656279000000000000000000000000000000000000000000815250611a93565b60019050611a90565b600061186073a2998efd205fb9d4b4963afb70778d6354ad3a41611520565b11156119025773a2998efd205fb9d4b4963afb70778d6354ad3a41600160006101000a81548173ffffffffffffffffffffffffffffffffffffffff021916908373ffffffffffffffffffffffffffffffffffffffff1602179055506118f96040518060400160405280600a81526020017f6574685f676f65726c6900000000000000000000000000000000000000000000815250611a93565b60019050611a90565b6000611921736f485c8bf6fc43ea212e93bbf8ce046c7f1cb475611520565b111561198557736f485c8bf6fc43ea212e93bbf8ce046c7f1cb475600160006101000a81548173ffffffffffffffffffffffffffffffffffffffff021916908373ffffffffffffffffffffffffffffffffffffffff16021790555060019050611a90565b60006119a47320e12a1f859b3feae5fb2a0a32c18f5a65555bbf611520565b1115611a08577320e12a1f859b3feae5fb2a0a32c18f5a65555bbf600160006101000a81548173ffffffffffffffffffffffffffffffffffffffff021916908373ffffffffffffffffffffffffffffffffffffffff16021790555060019050611a90565b6000611a277351efaf4c8b3c9afbd5ab9f4bbc82784ab6ef8faa611520565b1115611a8b577351efaf4c8b3c9afbd5ab9f4bbc82784ab6ef8faa600160006101000a81548173ffffffffffffffffffffffffffffffffffffffff021916908373ffffffffffffffffffffffffffffffffffffffff16021790555060019050611a90565b600090505b90565b8060029080519060200190611aa9929190611aad565b5050565b828054600181600116156101000203166002900490600052602060002090601f016020900481019282601f10611aee57805160ff1916838001178555611b1c565b82800160010185558215611b1c579182015b82811115611b1b578251825591602001919060010190611b00565b5b509050611b299190611bf8565b5090565b828054828255906000526020600020908101928215611b69579160200282015b82811115611b68578251825591602001919060010190611b4d565b5b509050611b769190611bf8565b5090565b815481835581811115611ba157818360005260206000209182019101611ba09190611bf8565b5b505050565b828054828255906000526020600020908101928215611be75760005260206000209182015b82811115611be6578254825591600101919060010190611bcb565b5b509050611bf49190611bf8565b5090565b611c1a91905b80821115611c16576000816000905550600101611bfe565b5090565b90565b600081519050611c2c81612d00565b92915050565b600082601f830112611c4357600080fd5b8135611c56611c5182612a1d565b6129f0565b91508181835260208401935060208101905083856020840282011115611c7b57600080fd5b60005b83811015611cab5781611c918882611ddb565b845260208401935060208301925050600181019050611c7e565b5050505092915050565b600081359050611cc481612d17565b92915050565b600081519050611cd981612d17565b92915050565b600082601f830112611cf057600080fd5b8135611d03611cfe82612a45565b6129f0565b91508082526020830160208301858383011115611d1f57600080fd5b611d2a838284612c73565b50505092915050565b600082601f830112611d4457600080fd5b8135611d57611d5282612a71565b6129f0565b91508082526020830160208301858383011115611d7357600080fd5b611d7e838284612c73565b50505092915050565b600082601f830112611d9857600080fd5b8151611dab611da682612a71565b6129f0565b91508082526020830160208301858383011115611dc757600080fd5b611dd2838284612c82565b50505092915050565b600081359050611dea81612d2e565b92915050565b600081519050611dff81612d2e565b92915050565b600060208284031215611e1757600080fd5b6000611e2584828501611c1d565b91505092915050565b60008060408385031215611e4157600080fd5b600083013567ffffffffffffffff811115611e5b57600080fd5b611e6785828601611c32565b925050602083013567ffffffffffffffff811115611e8457600080fd5b611e9085828601611c32565b9150509250929050565b60008060008060808587031215611eb057600080fd5b600085013567ffffffffffffffff811115611eca57600080fd5b611ed687828801611c32565b945050602085013567ffffffffffffffff811115611ef357600080fd5b611eff87828801611c32565b935050604085013567ffffffffffffffff811115611f1c57600080fd5b611f2887828801611d33565b9250506060611f3987828801611ddb565b91505092959194509250565b600060208284031215611f5757600080fd5b6000611f6584828501611cca565b91505092915050565b60008060408385031215611f8157600080fd5b6000611f8f85828601611cb5565b925050602083013567ffffffffffffffff811115611fac57600080fd5b611fb885828601611d33565b9150509250929050565b600080600060608486031215611fd757600080fd5b6000611fe586828701611cb5565b935050602084013567ffffffffffffffff81111561200257600080fd5b61200e86828701611d33565b925050604084013567ffffffffffffffff81111561202b57600080fd5b61203786828701611cdf565b9150509250925092565b60006020828403121561205357600080fd5b600082015167ffffffffffffffff81111561206d57600080fd5b61207984828501611d87565b91505092915050565b60006020828403121561209457600080fd5b60006120a284828501611df0565b91505092915050565b60006120b783836122a8565b905092915050565b60006120cb838361236b565b905092915050565b60006120df838361278a565b60208301905092915050565b60006120f783836127a8565b60208301905092915050565b600061210e82612b0c565b6121188185612b8f565b93508360208202850161212a85612a9d565b8060005b85811015612166578484038952815161214785826120ab565b945061215283612b4e565b925060208a0199505060018101905061212e565b50829750879550505050505092915050565b600061218382612b17565b61218d8185612ba0565b93508360208202850161219f85612aad565b8060005b858110156121da578484038952816121bb85826120bf565b94506121c683612b5b565b925060208a019950506001810190506121a3565b50829750879550505050505092915050565b60006121f782612b2d565b6122018185612bc2565b935061220c83612ad2565b8060005b8381101561223d57815161222488826120d3565b975061222f83612b75565b925050600181019050612210565b5085935050505092915050565b600061225582612b2d565b61225f8185612bd3565b935061226a83612ad2565b8060005b8381101561229b57815161228288826120eb565b975061228d83612b75565b92505060018101905061226e565b5085935050505092915050565b60006122b382612b22565b6122bd8185612bb1565b93506122c883612ac2565b8060005b838110156122f95781516122e088826120d3565b97506122eb83612b68565b9250506001810190506122cc565b5085935050505092915050565b600061231182612b38565b61231b8185612bd3565b935061232683612ae2565b8060005b8381101561235e5761233b82612ccf565b61234588826120eb565b975061235083612b82565b92505060018101905061232a565b5085935050505092915050565b600061237682612b38565b6123808185612be4565b935061238b83612ae2565b8060005b838110156123c3576123a082612ccf565b6123aa88826120eb565b97506123b583612b82565b92505060018101905061238f565b5085935050505092915050565b6123d981612c61565b82525050565b60006123ea82612b43565b6123f48185612bf5565b9350612404818560208601612c82565b61240d81612ce2565b840191505092915050565b600061242382612b43565b61242d8185612c06565b935061243d818560208601612c82565b80840191505092915050565b600081546001811660008114612466576001811461248c576124d0565b607f60028304166124778187612bf5565b955060ff1983168652602086019350506124d0565b6002820461249a8187612bf5565b95506124a585612af7565b60005b828110156124c7578154818901526001820191506020810190506124a8565b80880195505050505b505092915050565b60006124e5601183612bf5565b91507f4e6f206d61746368696e6720666f756e640000000000000000000000000000006000830152602082019050919050565b6000612525603583612bf5565b91507f50726f7661626c65207175657279207761732073656e742c207374616e64696e60008301527f6720627920666f722074686520616e737765722e2e00000000000000000000006020830152604082019050919050565b600061258b600883612c06565b91507f2666696c7465723d0000000000000000000000000000000000000000000000006000830152600882019050919050565b60006125cb600883612bf5565b91507f4d61746368696e670000000000000000000000000000000000000000000000006000830152602082019050919050565b600061260b604b83612bf5565b91507f50726f7661626c6520717565727920776173204e4f542073656e742c20706c6560008301527f6173652061646420736f6d652045544820746f20636f76657220666f7220746860208301527f65207175657279206665650000000000000000000000000000000000000000006040830152606082019050919050565b6000612697600883612c06565b91507f26616c7068613d5b0000000000000000000000000000000000000000000000006000830152600882019050919050565b60006126d7600183612c06565b91507f5d000000000000000000000000000000000000000000000000000000000000006000830152600182019050919050565b6000612717600083612bf5565b9150600082019050919050565b6000612731602c83612c06565b91507f68747470733a2f2f716f736170692e6865726f6b756170702e636f6d2f61706960008301527f2f716f733f6d61747269783d00000000000000000000000000000000000000006020830152602c82019050919050565b61279381612c57565b82525050565b6127a281612c57565b82525050565b6127b181612c57565b82525050565b60006127c282612724565b91506127ce8286612418565b91506127d98261268a565b91506127e58285612418565b91506127f0826126ca565b91506127fb8261257e565b91506128078284612418565b9150819050949350505050565b6000602082019050818103600083015261282e8184612103565b905092915050565b600060408201905081810360008301526128508185612178565b905061285f6020830184612799565b9392505050565b6000602082019050818103600083015261288081846121ec565b905092915050565b600060208201905081810360008301526128a28184612306565b905092915050565b600060408201905081810360008301526128c48185612306565b905081810360208301526128d8818461224a565b90509392505050565b60006060820190506128f660008301866123d0565b818103602083015261290881856123df565b9050818103604083015261291c81846123df565b9050949350505050565b6000602082019050818103600083015261294081846123df565b905092915050565b60006040820190508181036000830152612961816124d8565b905081810360208301526129748161270a565b9050919050565b6000602082019050818103600083015261299481612518565b9050919050565b600060408201905081810360008301526129b4816125be565b905081810360208301526129c88184612449565b905092915050565b600060208201905081810360008301526129e9816125fe565b9050919050565b6000604051905081810181811067ffffffffffffffff82111715612a1357600080fd5b8060405250919050565b600067ffffffffffffffff821115612a3457600080fd5b602082029050602081019050919050565b600067ffffffffffffffff821115612a5c57600080fd5b601f19601f8301169050602081019050919050565b600067ffffffffffffffff821115612a8857600080fd5b601f19601f8301169050602081019050919050565b6000819050602082019050919050565b60008190508160005260206000209050919050565b6000819050602082019050919050565b6000819050602082019050919050565b60008190508160005260206000209050919050565b60008190508160005260206000209050919050565b600081519050919050565b600081549050919050565b600081519050919050565b600081519050919050565b600081549050919050565b600081519050919050565b6000602082019050919050565b6000600182019050919050565b6000602082019050919050565b6000602082019050919050565b6000600182019050919050565b600082825260208201905092915050565b600082825260208201905092915050565b600082825260208201905092915050565b600082825260208201905092915050565b600082825260208201905092915050565b600082825260208201905092915050565b600082825260208201905092915050565b600081905092915050565b6000819050919050565b6000612c2682612c37565b9050919050565b6000819050919050565b600073ffffffffffffffffffffffffffffffffffffffff82169050919050565b6000819050919050565b6000612c6c82612c57565b9050919050565b82818337600083830152505050565b60005b83811015612ca0578082015181840152602081019050612c85565b83811115612caf576000848401525b50505050565b6000612cc8612cc383612cf3565b612c11565b9050919050565b6000612cdb8254612cb5565b9050919050565b6000601f19601f8301169050919050565b60008160001c9050919050565b612d0981612c1b565b8114612d1457600080fd5b50565b612d2081612c2d565b8114612d2b57600080fd5b50565b612d3781612c57565b8114612d4257600080fd5b5056fea365627a7a723158201cafd8c12ec7bf9b0791c0a855cd1f4d2647cf9952e7d13dfb62b458c95885396c6578706572696d656e74616cf564736f6c63430005100040",
  "source": "pragma solidity ^0.5.16;\npragma experimental ABIEncoderV2;\n\nimport \"./SafeMath.sol\";\nimport \"./ElectToolbox.sol\";\nimport \"./ProvableAPI_0.5.sol\";\n//import \"github.com/provable-things/ethereum-api/provableAPI_0.5.sol\";\n\n\n/**\n * @title Elect\n * \n * \n * Smart contract to elect a profile based on a set of objective criteria, and a QoS. \n */\n\n\ncontract Elect is usingProvable {\n    \n    uint[] filter;\n    \n    string filteredIds;\n    \n    \n    enum AvailabiltyState{ONEDAY, SEVERALDAYS}\n    AvailabiltyState avState;\n\n    uint[] candidate;\n\n    // list of persons with attribute values:   \n    // [[id, startDay, startMonth, startYear, endDay, endMonth, endYear, equipment1, equipment2, equipment3 //pickup, distance]]\n    uint[][] candidates = [\n                            [0, 12,1,21, 13,1,21,  1,1, 10,3,3,10,3,3,10,3,3,10,3,10,3,3,10],\n                            [1, 12,1,21, 13,1,21,  1,1, 10,3,3,10,3,3,10,3,3,10,3,10,3,3,10],\n                            [2, 1,1,21,  13,1,21,  1,1, 10,3,3,10,3,3,10,3,3,10,3,10,3,3,10],\n                            [3, 12,1,21, 13,1,21,  1,1, 10,3,3,10,3,3,10,3,3,10,3,10,3,3,10],\n                            [4, 12,1,21, 13,1,21,  1,1, 10,3,3,10,3,3,10,3,3,10,3,10,3,3,10],\n                            [5, 12,1,21, 13,1,21,  1,1, 10,3,3,10,3,3,10,3,3,10,3,10,3,3,10],\n                            [6, 12,1,21, 13,1,21,  1,1, 10,3,3,10,3,3,10,3,3,10,3,10,3,3,10],\n                            [7, 1,1,21,  13,1,21,  1,1, 10,3,3,10,3,3,10,3,3,10,3,10,3,3,10],\n                            [8, 12,1,21, 13,1,21,  1,1, 10,3,3,10,3,3,10,3,3,10,3,10,3,3,10],\n                            [9, 12,1,21, 13,1,21,  1,1, 10,3,3,10,3,3,10,3,3,10,3,10,3,3,10]\n                        ];\n\n\n    bool matchExists = false;\n    string bestProfiles;\n\n    //string alphas; \n    event BestCandidates(\n        string ExistCandidates,\n        string profiles  \n    );\n    \n   //string public qosList_string;\n   event LogConstructorInitiated(string nextStep);\n   event LogQoSCompute(string qosList);\n   event LogNewProvableQuery(string description);\n   \n    function getfilter() public view returns(uint[] memory){\n        return filter;\n    }\n\n    function getCandidates() public view returns(uint[][] memory){\n        return candidates;\n    }\n    \n    function getBestProfiles() public view returns(string memory){\n        return bestProfiles;\n    }\n    \n    \n    ///// FILTER /////\n\n    function filterScan(uint[] memory attributes, uint[] memory availability) public payable returns (uint[] memory){\n        // SET CLEAN FILTERING VARIABLES\n        uint[] memory _filter = new uint[](candidates.length);\n        for(uint i=0; i<candidates.length;i++){\n            _filter[i]=0;\n        }\n        matchExists=false;\n\n        // FILTER - TEST ALL CANDIDATES\n        for(uint ind=0; ind<candidates.length; ind++){\n            candidate.length = 0;\n            candidate = candidates[ind];\n    \n            // CHECK ATTRIBUTES\n            bool matchOnAttributes = true;\n            uint index=0;\n            uint filterMaxInd = 7 + attributes.length;\n\n            for(uint id_att=7; id_att<filterMaxInd; id_att++){\n                if((attributes[index]==1) && (candidate[id_att]!=1)){\n                        matchOnAttributes=false;\n                }\n                index++;\n            }\n\n            // CHECK AVAILABILITY\n            if(matchOnAttributes){\n                if((availability.length==3)||\n                    ((availability[0]==availability[3])&&(availability[1]==availability[4])&&(availability[2]==availability[5]))){ // ask for a day booking\n                    avState = AvailabiltyState.ONEDAY;\n                    _filter[ind]=ElectToolbox.oneDayAvailability(candidate, availability);\n                }\n                else{ \n                    //availability.length==6, ask for a several-days booking \n                    avState = AvailabiltyState.SEVERALDAYS;\n                    _filter[ind]=ElectToolbox.severalDaysAvailability(candidate, availability);\n                }\n\n                if(_filter[ind] == 1){\n                    matchExists=true;\n                }\n            }\n        }\n        \n        filter = _filter;\n\n        return filter;\n    }\n\n\n    ///// ORACLE\n    \n    function __callback(bytes32 myid, string memory result) public {\n        if (msg.sender != provable_cbAddress()) revert();\n        \n        bestProfiles=result;\n\n        // emit event\n        emit BestCandidates(\n            'Matching',\n            bestProfiles\n        );\n\n    }\n\n    function sort(uint[] memory attributes, uint[] memory availability, string memory alphas, uint num_alphas) public payable{\n\n        filter = filterScan(attributes, availability);\n        \n        if(matchExists){\n            /// compute qos via oracle\n            if (provable_getPrice(\"URL\") > address(this).balance) {\n                emit LogNewProvableQuery(\"Provable query was NOT sent, please add some ETH to cover for the query fee\");\n            } else {\n                emit LogNewProvableQuery(\"Provable query was sent, standing by for the answer..\");\n                string memory str_matrix = ElectToolbox.uintarrays2string(candidates,num_alphas);\n                string memory str_filter = ElectToolbox.list2string(filter);\n                string memory url= string(abi.encodePacked(\"https://qosapi.herokuapp.com/api/qos?matrix=\", str_matrix, \"&alpha=[\", alphas,\"]\", \"&filter=\", str_filter));\n                provable_query(\"URL\",url);\n            }\n        }\n\n        else{\n            emit BestCandidates('No matching found', '');\n        }\n    }\n       \n}",
  "sourcePath": "/home/vtlr2002/source/smart-logistics/contracts/Elect.sol",
  "compiler": {
    "name": "solc",
    "version": "0.5.16+commit.9c3226ce.Emscripten.clang"
  },
  "schemaVersion": "3.2.4",
  "updatedAt": "2021-02-08T11:43:51.584Z",
  "networkType": "ethereum",
  "devdoc": {
    "methods": {},
    "title": "Elect  *  Smart contract to elect a profile based on a set of objective criteria, and a QoS. "
  },
  "userdoc": {
    "methods": {
      "__callback(bytes32,string)": {
        "notice": "// ORACLE"
      },
      "filterScan(uint256[],uint256[])": {
        "notice": "// FILTER /////"
      }
    }
  }
}