{
  "contractName": "Elect",
  "abi": [
    {
      "constant": true,
      "inputs": [],
      "name": "getFilteredCandidates",
      "outputs": [
        {
          "internalType": "uint256[]",
          "name": "",
          "type": "uint256[]"
        }
      ],
      "payable": false,
      "stateMutability": "view",
      "type": "function"
    },
    {
      "constant": true,
      "inputs": [],
      "name": "existsCandidates",
      "outputs": [
        {
          "internalType": "bool",
          "name": "",
          "type": "bool"
        }
      ],
      "payable": false,
      "stateMutability": "view",
      "type": "function"
    },
    {
      "constant": false,
      "inputs": [
        {
          "internalType": "uint256[][]",
          "name": "_candidates",
          "type": "uint256[][]"
        }
      ],
      "name": "setCandidates",
      "outputs": [],
      "payable": true,
      "stateMutability": "payable",
      "type": "function"
    },
    {
      "constant": true,
      "inputs": [],
      "name": "getCandidates",
      "outputs": [
        {
          "internalType": "uint256[][]",
          "name": "",
          "type": "uint256[][]"
        }
      ],
      "payable": false,
      "stateMutability": "view",
      "type": "function"
    },
    {
      "constant": true,
      "inputs": [],
      "name": "getTestState",
      "outputs": [
        {
          "internalType": "string",
          "name": "",
          "type": "string"
        }
      ],
      "payable": false,
      "stateMutability": "view",
      "type": "function"
    },
    {
      "constant": true,
      "inputs": [],
      "name": "getSortedQoS",
      "outputs": [
        {
          "internalType": "uint256[]",
          "name": "",
          "type": "uint256[]"
        }
      ],
      "payable": false,
      "stateMutability": "view",
      "type": "function"
    },
    {
      "constant": true,
      "inputs": [],
      "name": "getNormalized",
      "outputs": [
        {
          "internalType": "uint256[]",
          "name": "",
          "type": "uint256[]"
        }
      ],
      "payable": false,
      "stateMutability": "view",
      "type": "function"
    },
    {
      "constant": true,
      "inputs": [],
      "name": "getNormalizedArray",
      "outputs": [
        {
          "internalType": "uint256[][]",
          "name": "",
          "type": "uint256[][]"
        }
      ],
      "payable": false,
      "stateMutability": "view",
      "type": "function"
    },
    {
      "constant": false,
      "inputs": [
        {
          "internalType": "uint256[]",
          "name": "_person",
          "type": "uint256[]"
        },
        {
          "internalType": "uint256[]",
          "name": "_availability",
          "type": "uint256[]"
        }
      ],
      "name": "oneDayAvailability",
      "outputs": [
        {
          "internalType": "bool",
          "name": "",
          "type": "bool"
        }
      ],
      "payable": true,
      "stateMutability": "payable",
      "type": "function"
    },
    {
      "constant": false,
      "inputs": [
        {
          "internalType": "uint256[]",
          "name": "_person",
          "type": "uint256[]"
        },
        {
          "internalType": "uint256[]",
          "name": "_availability",
          "type": "uint256[]"
        }
      ],
      "name": "severalDaysAvailability",
      "outputs": [
        {
          "internalType": "bool",
          "name": "",
          "type": "bool"
        }
      ],
      "payable": true,
      "stateMutability": "payable",
      "type": "function"
    },
    {
      "constant": false,
      "inputs": [
        {
          "internalType": "uint256[]",
          "name": "input",
          "type": "uint256[]"
        },
        {
          "internalType": "uint256",
          "name": "mulfactor",
          "type": "uint256"
        }
      ],
      "name": "normalize",
      "outputs": [
        {
          "internalType": "uint256[]",
          "name": "",
          "type": "uint256[]"
        }
      ],
      "payable": true,
      "stateMutability": "payable",
      "type": "function"
    },
    {
      "constant": false,
      "inputs": [
        {
          "internalType": "uint256[][]",
          "name": "input",
          "type": "uint256[][]"
        },
        {
          "internalType": "uint256[]",
          "name": "alphas",
          "type": "uint256[]"
        }
      ],
      "name": "sortOnQoS",
      "outputs": [],
      "payable": true,
      "stateMutability": "payable",
      "type": "function"
    },
    {
      "constant": false,
      "inputs": [
        {
          "internalType": "uint256[]",
          "name": "filteringAttributes",
          "type": "uint256[]"
        },
        {
          "internalType": "uint256[]",
          "name": "alphas",
          "type": "uint256[]"
        },
        {
          "internalType": "uint256[]",
          "name": "availability",
          "type": "uint256[]"
        },
        {
          "internalType": "uint256[]",
          "name": "distances",
          "type": "uint256[]"
        },
        {
          "internalType": "uint256[]",
          "name": "durations",
          "type": "uint256[]"
        }
      ],
      "name": "elect",
      "outputs": [],
      "payable": true,
      "stateMutability": "payable",
      "type": "function"
    }
  ],
  "bytecode": "0x60806040526000600560006101000a81548160ff02191690831515021790555034801561002b57600080fd5b506121f48061003b6000396000f3fe6080604052600436106100c25760003560e01c8063639e79901161007f5780639a556585116100595780639a556585146102405780639ca5760e1461025c578063b907474e14610278578063f106b1a7146102a8576100c2565b8063639e7990146101ba578063850b0144146101e5578063915a571514610210576100c2565b806302cf21a8146100c757806306a49fce146100f25780632131ba6f1461011d5780632b3b1ba9146101395780632c9e582c146101645780634c6fe5691461018f575b600080fd5b3480156100d357600080fd5b506100dc6102d8565b6040516100e99190611f10565b60405180910390f35b3480156100fe57600080fd5b5061010761037a565b6040516101149190611e8f565b60405180910390f35b61013760048036036101329190810190611aa6565b610419565b005b34801561014557600080fd5b5061014e610909565b60405161015b9190611ef5565b60405180910390f35b34801561017057600080fd5b50610179610920565b6040516101869190611eb1565b60405180910390f35b34801561019b57600080fd5b506101a4610978565b6040516101b19190611eb1565b60405180910390f35b3480156101c657600080fd5b506101cf6109d0565b6040516101dc9190611eb1565b60405180910390f35b3480156101f157600080fd5b506101fa610a28565b6040516102079190611e8f565b60405180910390f35b61022a60048036036102259190810190611a3a565b610ac7565b6040516102379190611ef5565b60405180910390f35b61025a6004803603610255919081019061198d565b610c47565b005b6102766004803603610271919081019061194c565b610f48565b005b610292600480360361028d9190810190611b95565b610f62565b60405161029f9190611eb1565b60405180910390f35b6102c260048036036102bd9190810190611a3a565b6110f7565b6040516102cf9190611ef5565b60405180910390f35b606060028054600181600116156101000203166002900480601f0160208091040260200160405190810160405280929190818152602001828054600181600116156101000203166002900480156103705780601f1061034557610100808354040283529160200191610370565b820191906000526020600020905b81548152906001019060200180831161035357829003601f168201915b5050505050905090565b60606004805480602002602001604051908101604052809291908181526020016000905b82821015610410578382906000526020600020018054806020026020016040519081016040528092919081815260200182805480156103fc57602002820191906000526020600020905b8154815260200190600101908083116103e8575b50505050508152602001906001019061039e565b50505050905090565b606060048054905060405190808252806020026020018201604052801561044f5781602001602082028038833980820191505090505b50905060008090505b60048054905081101561048c57600082828151811061047357fe5b6020026020010181815250508080600101915050610458565b5060008090505b60048054905081101561081f5760006003816104af91906114bb565b50600481815481106104bd57fe5b9060005260206000200160039080546104d79291906114e7565b5060038482815181106104e657fe5b60200260200101519080600181540180825580915050906001820390600052602060002001600090919290919091505550600383828151811061052557fe5b6020026020010151908060018154018082558091505090600182039060005260206000200160009091929091909150555060006001905060008090506000895160070190506000600790505b818110156105d35760018b848151811061058757fe5b60200260200101511480156105b457506001600382815481106105a657fe5b906000526020600020015414155b156105be57600093505b82806001019350508080600101915050610571565b50821561080f576003885114806106775750876003815181106105f257fe5b60200260200101518860008151811061060757fe5b602002602001015114801561064357508760048151811061062457fe5b60200260200101518860018151811061063957fe5b6020026020010151145b801561067657508760058151811061065757fe5b60200260200101518860028151811061066c57fe5b6020026020010151145b5b15610729576040518060400160405280600681526020017f6f6e656461790000000000000000000000000000000000000000000000000000815250600290805190602001906106c7929190611539565b50610722600380548060200260200160405190810160405280929190818152602001828054801561071757602002820191906000526020600020905b815481526020019060010190808311610703575b505050505089610ac7565b92506107d2565b6040518060400160405280600b81526020017f7365766572616c6461797300000000000000000000000000000000000000000081525060029080519060200190610774929190611539565b506107cf60038054806020026020016040519081016040528092919081815260200182805480156107c457602002820191906000526020600020905b8154815260200190600101908083116107b0575b5050505050896110f7565b92505b821561080e5760018585815181106107e657fe5b6020026020010181815250506001600560006101000a81548160ff0219169083151502179055505b5b5050508080600101915050610493565b5080600090805190602001906108369291906115b9565b50606060008090505b6004805490508110156108f557600080828154811061085a57fe5b9060005260206000200154146108e8576004818154811061087757fe5b906000526020600020018054806020026020016040519081016040528092919081815260200182805480156108cb57602002820191906000526020600020905b8154815260200190600101908083116108b7575b50505050508282815181106108dc57fe5b60200260200101819052505b808060010191505061083f565b506109008187610c47565b50505050505050565b6000600560009054906101000a900460ff16905090565b6060600080548060200260200160405190810160405280929190818152602001828054801561096e57602002820191906000526020600020905b81548152602001906001019080831161095a575b5050505050905090565b606060098054806020026020016040519081016040528092919081815260200182805480156109c657602002820191906000526020600020905b8154815260200190600101908083116109b2575b5050505050905090565b60606006805480602002602001604051908101604052809291908181526020018280548015610a1e57602002820191906000526020600020905b815481526020019060010190808311610a0a575b5050505050905090565b60606007805480602002602001604051908101604052809291908181526020016000905b82821015610abe57838290600052602060002001805480602002602001604051908101604052809291908181526020018280548015610aaa57602002820191906000526020600020905b815481526020019060010190808311610a96575b505050505081526020019060010190610a4c565b50505050905090565b60008083600181518110610ad757fe5b60200260200101519050600084600281518110610af057fe5b60200260200101519050600085600381518110610b0957fe5b60200260200101519050600086600481518110610b2257fe5b60200260200101519050600087600581518110610b3b57fe5b60200260200101519050600088600681518110610b5457fe5b60200260200101519050600088600081518110610b6d57fe5b60200260200101519050600089600181518110610b8657fe5b6020026020010151905060008a600281518110610b9f57fe5b602002602001015190506000600190508883148015610bbd57508782145b15610bde57838a1180610bcf57508387105b15610bd957600090505b610c34565b888314158015610bed57508782145b15610c1a578289108015610c005750838a105b1580610c0b57508286105b15610c1557600090505b610c33565b8782111580610c2857508185105b15610c3257600090505b5b5b809a505050505050505050505092915050565b600060649050600083600081518110610c5c57fe5b602002602001015151905060008090505b81811015610dbc576000600681610c8491906114bb565b5060008090505b8551811015610cf3576006868281518110610ca257fe5b60200260200101518381518110610cb557fe5b602002602001015190806001815401808255809150509060018203906000526020600020016000909192909190915055508080600101915050610c8b565b506060610d506006805480602002602001604051908101604052809291908181526020018280548015610d4557602002820191906000526020600020905b815481526020019060010190808311610d31575b505050505085610f62565b905060008090505b8651811015610dad57818181518110610d6d57fe5b6020026020010151878281518110610d8157fe5b60200260200101518481518110610d9457fe5b6020026020010181815250508080600101915050610d58565b50508080600101915050610c6d565b508360079080519060200190610dd3929190611606565b506000600881610de391906114bb565b5060008090505b8451811015610e9e57600080905060008090505b83811015610e5a57610e49868281518110610e1557fe5b6020026020010151888581518110610e2957fe5b60200260200101518381518110610e3c57fe5b60200260200101516112fb565b820191508080600101915050610dfe565b506008610e67828561136b565b9080600181540180825580915050906001820390600052602060002001600090919290919091505550508080600101915050610dea565b5073__Sort__________________________________639ec8b02660086040518263ffffffff1660e01b8152600401610ed79190611ed3565b60006040518083038186803b158015610eef57600080fd5b505af4158015610f03573d6000803e3d6000fd5b505050506040513d6000823e3d601f19601f82011682018060405250610f2c91908101906119f9565b60099080519060200190610f419291906115b9565b5050505050565b8060049080519060200190610f5e929190611606565b5050565b60606000600681610f7391906114bb565b50600080905060008090505b8451811015610fc75781858281518110610f9557fe5b60200260200101511115610fba57848181518110610faf57fe5b602002602001015191505b8080600101915050610f7f565b50600080905060008090505b855181101561101b5781868281518110610fe957fe5b6020026020010151101561100e5785818151811061100357fe5b602002602001015191505b8080600101915050610fd3565b5060008090505b855181101561109b576006611065611056876110518a868151811061104357fe5b6020026020010151876113b5565b6112fb565b61106086866113b5565b61136b565b90806001815401808255809150509060018203906000526020600020016000909192909190915055508080600101915050611022565b5060068054806020026020016040519081016040528092919081815260200182805480156110e857602002820191906000526020600020905b8154815260200190600101908083116110d4575b50505050509250505092915050565b6000806001905060008460018151811061110d57fe5b6020026020010151905060008560028151811061112657fe5b6020026020010151905060008660038151811061113f57fe5b6020026020010151905060008760048151811061115857fe5b6020026020010151905060008860058151811061117157fe5b6020026020010151905060008960068151811061118a57fe5b602002602001015190506000896000815181106111a357fe5b6020026020010151905060008a6001815181106111bc57fe5b6020026020010151905060008b6002815181106111d557fe5b6020026020010151905060008c6003815181106111ee57fe5b6020026020010151905060008d60048151811061120757fe5b6020026020010151905060008e60058151811061122057fe5b6020026020010151905085831161123657600080fd5b8a8514801561124457508984145b801561124f57508681145b1561127057858c118061126157508289105b1561126b5760009c505b6112e5565b8a851415801561127f57508984145b801561128a57508681145b156112c157848b10801561129d5750858c105b15806112a857508488105b806112b257508188105b156112bc5760009c505b6112e4565b89841115806112cf57508387105b806112d957508087105b156112e35760009c505b5b5b8c9d505050505050505050505050505092915050565b60008083141561130e5760009050611365565b600082840290508284828161131f57fe5b0414611360576040517f08c379a000000000000000000000000000000000000000000000000000000000815260040161135790611f32565b60405180910390fd5b809150505b92915050565b60006113ad83836040518060400160405280601a81526020017f536166654d6174683a206469766973696f6e206279207a65726f0000000000008152506113ff565b905092915050565b60006113f783836040518060400160405280601e81526020017f536166654d6174683a207375627472616374696f6e206f766572666c6f770000815250611460565b905092915050565b60008083118290611446576040517f08c379a000000000000000000000000000000000000000000000000000000000815260040161143d9190611f10565b60405180910390fd5b50600083858161145257fe5b049050809150509392505050565b60008383111582906114a8576040517f08c379a000000000000000000000000000000000000000000000000000000000815260040161149f9190611f10565b60405180910390fd5b5060008385039050809150509392505050565b8154818355818111156114e2578183600052602060002091820191016114e19190611666565b5b505050565b8280548282559060005260206000209081019282156115285760005260206000209182015b8281111561152757825482559160010191906001019061150c565b5b5090506115359190611666565b5090565b828054600181600116156101000203166002900490600052602060002090601f016020900481019282601f1061157a57805160ff19168380011785556115a8565b828001600101855582156115a8579182015b828111156115a757825182559160200191906001019061158c565b5b5090506115b59190611666565b5090565b8280548282559060005260206000209081019282156115f5579160200282015b828111156115f45782518255916020019190600101906115d9565b5b5090506116029190611666565b5090565b828054828255906000526020600020908101928215611655579160200282015b8281111561165457825182908051906020019061164492919061168b565b5091602001919060010190611626565b5b50905061166291906116d8565b5090565b61168891905b8082111561168457600081600090555060010161166c565b5090565b90565b8280548282559060005260206000209081019282156116c7579160200282015b828111156116c65782518255916020019190600101906116ab565b5b5090506116d49190611666565b5090565b61170191905b808211156116fd57600081816116f49190611704565b506001016116de565b5090565b90565b50805460008255906000526020600020908101906117229190611666565b50565b600082601f83011261173657600080fd5b813561174961174482611f7f565b611f52565b9150818183526020840193506020810190508360005b8381101561178f57813586016117758882611799565b84526020840193506020830192505060018101905061175f565b5050505092915050565b600082601f8301126117aa57600080fd5b81356117bd6117b882611fa7565b611f52565b915081818352602084019350602081019050838560208402820111156117e257600080fd5b60005b8381101561181257816117f88882611922565b8452602084019350602083019250506001810190506117e5565b5050505092915050565b600082601f83011261182d57600080fd5b813561184061183b82611fcf565b611f52565b9150818183526020840193506020810190508385602084028201111561186557600080fd5b60005b83811015611895578161187b8882611922565b845260208401935060208301925050600181019050611868565b5050505092915050565b600082601f8301126118b057600080fd5b81516118c36118be82611fcf565b611f52565b915081818352602084019350602081019050838560208402820111156118e857600080fd5b60005b8381101561191857816118fe8882611937565b8452602084019350602083019250506001810190506118eb565b5050505092915050565b6000813590506119318161219a565b92915050565b6000815190506119468161219a565b92915050565b60006020828403121561195e57600080fd5b600082013567ffffffffffffffff81111561197857600080fd5b61198484828501611725565b91505092915050565b600080604083850312156119a057600080fd5b600083013567ffffffffffffffff8111156119ba57600080fd5b6119c685828601611725565b925050602083013567ffffffffffffffff8111156119e357600080fd5b6119ef8582860161181c565b9150509250929050565b600060208284031215611a0b57600080fd5b600082015167ffffffffffffffff811115611a2557600080fd5b611a318482850161189f565b91505092915050565b60008060408385031215611a4d57600080fd5b600083013567ffffffffffffffff811115611a6757600080fd5b611a738582860161181c565b925050602083013567ffffffffffffffff811115611a9057600080fd5b611a9c8582860161181c565b9150509250929050565b600080600080600060a08688031215611abe57600080fd5b600086013567ffffffffffffffff811115611ad857600080fd5b611ae48882890161181c565b955050602086013567ffffffffffffffff811115611b0157600080fd5b611b0d8882890161181c565b945050604086013567ffffffffffffffff811115611b2a57600080fd5b611b368882890161181c565b935050606086013567ffffffffffffffff811115611b5357600080fd5b611b5f8882890161181c565b925050608086013567ffffffffffffffff811115611b7c57600080fd5b611b888882890161181c565b9150509295509295909350565b60008060408385031215611ba857600080fd5b600083013567ffffffffffffffff811115611bc257600080fd5b611bce8582860161181c565b9250506020611bdf85828601611922565b9150509250929050565b6000611bf58383611d00565b905092915050565b6000611c098383611e71565b60208301905092915050565b6000611c218383611e80565b60208301905092915050565b6000611c388261203c565b611c4281856120a7565b935083602082028501611c5485611ff7565b8060005b85811015611c905784840389528151611c718582611be9565b9450611c7c83612073565b925060208a01995050600181019050611c58565b50829750879550505050505092915050565b6000611cad82612052565b611cb781856120c9565b9350611cc283612017565b8060005b83811015611cf3578151611cda8882611bfd565b9750611ce58361208d565b925050600181019050611cc6565b5085935050505092915050565b6000611d0b82612047565b611d1581856120b8565b9350611d2083612007565b8060005b83811015611d51578151611d388882611bfd565b9750611d4383612080565b925050600181019050611d24565b5085935050505092915050565b6000611d698261205d565b611d7381856120da565b9350611d7e83612027565b8060005b83811015611db657611d9382612169565b611d9d8882611c15565b9750611da88361209a565b925050600181019050611d82565b5085935050505092915050565b611dcc81612106565b82525050565b6000611ddd82612068565b611de781856120eb565b9350611df781856020860161211c565b611e008161217c565b840191505092915050565b6000611e186021836120eb565b91507f536166654d6174683a206d756c7469706c69636174696f6e206f766572666c6f60008301527f77000000000000000000000000000000000000000000000000000000000000006020830152604082019050919050565b611e7a81612112565b82525050565b611e8981612112565b82525050565b60006020820190508181036000830152611ea98184611c2d565b905092915050565b60006020820190508181036000830152611ecb8184611ca2565b905092915050565b60006020820190508181036000830152611eed8184611d5e565b905092915050565b6000602082019050611f0a6000830184611dc3565b92915050565b60006020820190508181036000830152611f2a8184611dd2565b905092915050565b60006020820190508181036000830152611f4b81611e0b565b9050919050565b6000604051905081810181811067ffffffffffffffff82111715611f7557600080fd5b8060405250919050565b600067ffffffffffffffff821115611f9657600080fd5b602082029050602081019050919050565b600067ffffffffffffffff821115611fbe57600080fd5b602082029050602081019050919050565b600067ffffffffffffffff821115611fe657600080fd5b602082029050602081019050919050565b6000819050602082019050919050565b6000819050602082019050919050565b6000819050602082019050919050565b60008190508160005260206000209050919050565b600081519050919050565b600081519050919050565b600081519050919050565b600081549050919050565b600081519050919050565b6000602082019050919050565b6000602082019050919050565b6000602082019050919050565b6000600182019050919050565b600082825260208201905092915050565b600082825260208201905092915050565b600082825260208201905092915050565b600082825260208201905092915050565b600082825260208201905092915050565b6000819050919050565b60008115159050919050565b6000819050919050565b60005b8381101561213a57808201518184015260208101905061211f565b83811115612149576000848401525b50505050565b600061216261215d8361218d565b6120fc565b9050919050565b6000612175825461214f565b9050919050565b6000601f19601f8301169050919050565b60008160001c9050919050565b6121a381612112565b81146121ae57600080fd5b5056fea365627a7a72315820a22d52f4d1533a2ac0db6e8b05b13c29cc84cddecaa4f77e23248c2fbc9cfc3d6c6578706572696d656e74616cf564736f6c63430005100040",
  "source": "pragma experimental ABIEncoderV2;\n\npragma solidity ^0.5.16;\n\nimport \"./Sort.sol\";\n\nimport \"./SafeMath.sol\";\n\n\n/**\n * @title Elect\n */\n\n\ncontract Elect {\n    // list of persons with attribute values:   \n    // [[id, startDay, startMonth, startYear, endDay, endMonth, endYear, equipment1, equipment2, equipment3 //pickup, distance]]\n    // pickup and delivery: *10E7, add a 'neg element' to string? (neg1 / neg2 --> and adapt calculus accordingly)\n    \n    //uint[][] candidates = [ [0, 12,5,21, 13,5,21, 1,1,1],[1, 12,5,21, 13,5,21, 1,1,1], [2, 12,5,21, 15,5,21, 1,1,1], [3, 12,5,21, 16,5,21, 1,1,1], [4, 10,5,21, 14,5,21, 1,1,1], [5, 11,5,21, 14,5,21, 1,1,1] ]\n    //uint[][] candidates =[\n    //                        [1, 12,5,21, 13,5,21, 1,1,1],\n    //                        [2, 12,5,21, 15,5,21, 1,1,1],\n    //                        [3, 12,5,21, 16,5,21, 1,1,1],\n    //                        [4, 10,5,21, 14,5,21, 1,1,1],\n    //                        [5, 11,5,21, 14,5,21, 1,1,1]\n    //                    ];     \n    //uint[] filteringAttributes = [1,1,1];    // list of filtering attributes     \n    //uint[] availability = [12,1,21];\n    \n    uint[] filteredCandidates;\n    \n    string filteredIds;\n    \n    string testState;\n\n    uint[] candidate;\n    uint[][] candidates;\n\n    bool hasCandidates = false;\n\n\n    uint[] normalized;\n    uint[][] normalizedArray;\n    uint[] QoSList;\n    uint[] sortedQoSList;\n\n\n\n    ///// Delegated services        \n    function getFilteredCandidates() public view returns(uint[] memory){\n        return filteredCandidates;\n    }\n\n    function existsCandidates() public view returns(bool){\n        return hasCandidates;\n    }\n\n    function setCandidates(uint[][] memory _candidates) public payable {\n        candidates = _candidates;\n    }\n\n    function getCandidates() public view returns(uint[][] memory){\n        return candidates;\n    }\n\n    function getTestState() public view returns(string memory){\n        return testState;\n    }\n\n\n    function getSortedQoS() public view returns(uint[] memory){\n        return sortedQoSList;   \n    }\n\n    function getNormalized() public view returns(uint[] memory){       \n        return normalized;\n    }\n\n    function getNormalizedArray() public view returns(uint[][] memory){\n        return normalizedArray;\n    }\n\n\n    function oneDayAvailability(uint[] memory _person, uint[] memory _availability) public payable returns(bool){\n        uint avStartDay = _person[1];\n        uint avStartMonth = _person[2];\n        uint avStartYear = _person[3];\n\n        uint avEndDay = _person[4];\n        uint avEndMonth = _person[5];\n        uint avEndYear = _person[6];\n\n        uint reqDay= _availability[0];\n        uint reqMonth= _availability[1];\n        uint reqYear= _availability[2];\n                    \n        bool testOutput=true;\n        \n        if((reqMonth==avStartMonth) && (reqYear==avStartYear)){ // same month, same year\n            if((avStartDay > reqDay)||(avEndDay<reqDay)){ // person is booked\n                testOutput=false;\n                }\n            }\n        else if((reqMonth!=avStartMonth) && (reqYear==avStartYear)){ //same year, different month\n            if(!((avStartMonth < reqMonth) && (avStartDay < reqDay)) || (avEndMonth<reqMonth)){ // person is booked\n                testOutput=false;\n            }\n        }\n        else{ //different year\n            if(!(reqYear>avStartYear)||(avEndYear<reqYear)){ // person is booked\n                testOutput=false;\n            }\n        }\n        return testOutput;\n    }\n\n\n    function severalDaysAvailability(uint[] memory _person, uint[] memory _availability) public payable returns(bool){\n        bool testOutput=true;\n        \n        uint avStartDay = _person[1];\n        uint avStartMonth = _person[2];\n        uint avStartYear = _person[3];\n\n        uint avEndDay = _person[4];\n        uint avEndMonth = _person[5];\n        uint avEndYear = _person[6];\n\n        uint reqSDay=_availability[0];\n        uint reqSMonth=_availability[1];\n        uint reqSYear=_availability[2];\n                    \n        uint reqEDay=_availability[3];\n        uint reqEMonth=_availability[4];\n        uint reqEYear=_availability[5];\n                    \n\n        require(reqEDay>reqSDay);\n\n        if((reqSMonth==avStartMonth) && (reqSYear==avStartYear) && (reqEYear==avEndYear)){ // same start month, same year\n            if((avStartDay > reqSDay)||(avEndDay<reqEDay)){ // person is booked\n                testOutput=false;\n                }\n        }\n        else if((reqSMonth!=avStartMonth) && (reqSYear==avStartYear) &&  (reqEYear==avEndYear)){ //same year, different month\n            if(!((avStartMonth < reqSMonth) && (avStartDay < reqSDay)) || (avEndMonth<reqSMonth) || (avEndMonth<reqEMonth)){ // person is booked\n                testOutput=false;\n                }\n            }\n        else{ //different year\n            if(!(reqSYear>avStartYear)||(avEndYear<reqSYear)||(avEndYear<reqEYear)){ // person is booked\n                testOutput=false;\n            }\n        }\n        return testOutput;\n    }\n    \n\n    //////// Sorting \n\n\n     function normalize(uint[] memory input, uint mulfactor) public payable returns(uint[] memory){\n        normalized.length=0; \n                \n        //get largest\n        uint256 largest = 0; \n        for(uint i = 0; i < input.length; i++){\n            if(input[i] > largest) {\n                largest = input[i]; \n            } \n        }\n                \n                \n        //get smallest\n        uint256 smallest = 0; \n        for(uint i = 0; i < input.length; i++){\n            if(input[i] < smallest) {\n                smallest = input[i]; \n            } \n        }\n                \n        // normalize                \n        for (uint j=0; j<input.length;j++){\n            normalized.push(SafeMath.div(SafeMath.mul(mulfactor,SafeMath.sub(input[j],smallest)),SafeMath.sub(largest,smallest)));\n        }\n                \n        return normalized;\n     }\n\n\n    function sortOnQoS(uint[][] memory input, uint[] memory alphas) public payable{\n        uint mulfactor = 100;\n\n        // normalize array\n        uint numParams = input[0].length;\n\n        for (uint j=0; j<numParams; j++){\n            \n            normalized.length=0;\n            \n            for (uint i=0; i<input.length; i++){\n                normalized.push(input[i][j]);\n            }\n            \n            uint[] memory tmp = normalize(normalized, mulfactor);\n            \n            for (uint i=0; i<input.length; i++){\n                input[i][j]=tmp[i];\n            }\n        }\n        \n        normalizedArray = input;\n        \n        QoSList.length=0;\n        for (uint i=0; i<input.length; i++){\n            uint QoS = 0;\n            for (uint j=0;j<numParams;j++){\n                QoS = QoS + SafeMath.mul(alphas[j], input[i][j]);\n            }\n            \n            QoSList.push(SafeMath.div(QoS,numParams));\n        }\n\n\n        sortedQoSList = Sort.sort(QoSList);\n\n\n        // emit event\n    }\n\n    //////// main\n\n    function elect(uint[] memory filteringAttributes, uint[] memory alphas, uint[] memory availability, uint[] memory distances, uint[] memory durations) public payable{\n        \n\n        // proceed to filtering\n        uint[] memory _filteredCandidates = new uint[](candidates.length);\n        // reinitialize list of candidates\n        for(uint i=0; i<candidates.length;i++){\n            _filteredCandidates[i]=0;\n        }\n\n        for(uint ind=0; ind<candidates.length; ind++){ // test all candidates\n            candidate.length = 0;\n\n            candidate = candidates[ind];\n            candidate.push(distances[ind]);\n            candidate.push(durations[ind]);\n            bool testOutput = true;\n\n            // filter on  attributes\n            uint index=0;\n\n            uint filterMaxInd = 7 + filteringAttributes.length;\n\n            for(uint id_att=7; id_att<filterMaxInd; id_att++){\n                if((filteringAttributes[index]==1) && (candidate[id_att]!=1)){\n                        testOutput=false;\n                }\n                index++;\n            }\n\n            //filter on availability\n\n            if(testOutput){\n                if((availability.length==3)||\n                    ((availability[0]==availability[3])&&(availability[1]==availability[4])&&(availability[2]==availability[5]))){ // ask for a day booking\n                    testState=\"oneday\";\n                    testOutput=oneDayAvailability(candidate, availability);\n                }\n                else{ \n                    //availability.length==6, ask for a several-days booking \n                    testState=\"severaldays\";\n                    testOutput=severalDaysAvailability(candidate, availability);\n                }\n                \n                //_filteredCandidates[ind]=1;\n                //hasCandidates=true;\n\n                //update list of candidates\n                if(testOutput){\n                    _filteredCandidates[ind]=1;\n                    hasCandidates=true;\n\n                    // emit event(?)\n                }\n            }\n            \n        }\n\n       filteredCandidates = _filteredCandidates;\n\n       // proceed to sorting\n       uint[][] memory toSort;\n\n       for (uint i=0; i<candidates.length; i++){\n           if(filteredCandidates[i]!=0){\n               toSort[i]=candidates[i]; // !!!! copy only sorting params !  for.... in range params: copy ! --> these will be the computed elems. \n           }\n       }\n\n       sortOnQoS(toSort, alphas); \n        \n    }\n    \n\n    \n    \n    // function instanciate contract \n    \n    \n\n}",
  "sourcePath": "/home/vtlr2002/source/SMLogs/contracts/Elect.sol",
  "compiler": {
    "name": "solc",
    "version": "0.5.16+commit.9c3226ce.Emscripten.clang"
  },
  "schemaVersion": "3.2.4",
  "updatedAt": "2020-11-30T21:29:21.735Z",
  "networkType": "ethereum",
  "devdoc": {
    "methods": {},
    "title": "Elect"
  },
  "userdoc": {
    "methods": {
      "elect(uint256[],uint256[],uint256[],uint256[],uint256[])": {
        "notice": "///// main"
      },
      "getFilteredCandidates()": {
        "notice": "// Delegated services        "
      },
      "normalize(uint256[],uint256)": {
        "notice": "///// Sorting "
      }
    }
  }
}