{
  "contractName": "Elect",
  "abi": [
    {
      "constant": true,
      "inputs": [],
      "name": "getFilteredCandidates",
      "outputs": [
        {
          "internalType": "uint256[]",
          "name": "",
          "type": "uint256[]"
        }
      ],
      "payable": false,
      "stateMutability": "view",
      "type": "function"
    },
    {
      "constant": true,
      "inputs": [],
      "name": "existsCandidates",
      "outputs": [
        {
          "internalType": "bool",
          "name": "",
          "type": "bool"
        }
      ],
      "payable": false,
      "stateMutability": "view",
      "type": "function"
    },
    {
      "constant": false,
      "inputs": [
        {
          "internalType": "uint256[][]",
          "name": "_candidates",
          "type": "uint256[][]"
        }
      ],
      "name": "setCandidates",
      "outputs": [],
      "payable": true,
      "stateMutability": "payable",
      "type": "function"
    },
    {
      "constant": true,
      "inputs": [],
      "name": "getCandidates",
      "outputs": [
        {
          "internalType": "uint256[][]",
          "name": "",
          "type": "uint256[][]"
        }
      ],
      "payable": false,
      "stateMutability": "view",
      "type": "function"
    },
    {
      "constant": true,
      "inputs": [],
      "name": "getTestState",
      "outputs": [
        {
          "internalType": "string",
          "name": "",
          "type": "string"
        }
      ],
      "payable": false,
      "stateMutability": "view",
      "type": "function"
    },
    {
      "constant": false,
      "inputs": [
        {
          "internalType": "uint256[]",
          "name": "_person",
          "type": "uint256[]"
        },
        {
          "internalType": "uint256[]",
          "name": "_availability",
          "type": "uint256[]"
        }
      ],
      "name": "oneDayAvailability",
      "outputs": [
        {
          "internalType": "bool",
          "name": "",
          "type": "bool"
        }
      ],
      "payable": true,
      "stateMutability": "payable",
      "type": "function"
    },
    {
      "constant": false,
      "inputs": [
        {
          "internalType": "uint256[]",
          "name": "_person",
          "type": "uint256[]"
        },
        {
          "internalType": "uint256[]",
          "name": "_availability",
          "type": "uint256[]"
        }
      ],
      "name": "severalDaysAvailability",
      "outputs": [
        {
          "internalType": "bool",
          "name": "",
          "type": "bool"
        }
      ],
      "payable": true,
      "stateMutability": "payable",
      "type": "function"
    },
    {
      "constant": false,
      "inputs": [
        {
          "internalType": "uint256[]",
          "name": "filteringAttributes",
          "type": "uint256[]"
        },
        {
          "internalType": "uint256[]",
          "name": "availability",
          "type": "uint256[]"
        }
      ],
      "name": "filter",
      "outputs": [],
      "payable": true,
      "stateMutability": "payable",
      "type": "function"
    }
  ],
  "bytecode": "0x60806040526000600460006101000a81548160ff02191690831515021790555034801561002b57600080fd5b506112ba8061003b6000396000f3fe60806040526004361061007b5760003560e01c8063915a57151161004e578063915a57151461012c5780639ca5760e1461015c578063db283ab714610178578063f106b1a7146101945761007b565b806302cf21a81461008057806306a49fce146100ab5780632b3b1ba9146100d65780632c9e582c14610101575b600080fd5b34801561008c57600080fd5b506100956101c4565b6040516100a29190611078565b60405180910390f35b3480156100b757600080fd5b506100c0610266565b6040516100cd9190611019565b60405180910390f35b3480156100e257600080fd5b506100eb610305565b6040516100f8919061105d565b60405180910390f35b34801561010d57600080fd5b5061011661031c565b604051610123919061103b565b60405180910390f35b61014660048036036101419190810190610df9565b610374565b604051610153919061105d565b60405180910390f35b61017660048036036101719190810190610db8565b6104f4565b005b610192600480360361018d9190810190610df9565b61050e565b005b6101ae60048036036101a99190810190610df9565b610839565b6040516101bb919061105d565b60405180910390f35b606060028054600181600116156101000203166002900480601f01602080910402602001604051908101604052809291908181526020018280546001816001161561010002031660029004801561025c5780601f106102315761010080835404028352916020019161025c565b820191906000526020600020905b81548152906001019060200180831161023f57829003601f168201915b5050505050905090565b60606003805480602002602001604051908101604052809291908181526020016000905b828210156102fc578382906000526020600020018054806020026020016040519081016040528092919081815260200182805480156102e857602002820191906000526020600020905b8154815260200190600101908083116102d4575b50505050508152602001906001019061028a565b50505050905090565b6000600460009054906101000a900460ff16905090565b6060600080548060200260200160405190810160405280929190818152602001828054801561036a57602002820191906000526020600020905b815481526020019060010190808311610356575b5050505050905090565b6000808360018151811061038457fe5b6020026020010151905060008460028151811061039d57fe5b602002602001015190506000856003815181106103b657fe5b602002602001015190506000866004815181106103cf57fe5b602002602001015190506000876005815181106103e857fe5b6020026020010151905060008860068151811061040157fe5b6020026020010151905060008860008151811061041a57fe5b6020026020010151905060008960018151811061043357fe5b6020026020010151905060008a60028151811061044c57fe5b60200260200101519050600060019050888314801561046a57508782145b1561048b57838a118061047c57508387105b1561048657600090505b6104e1565b88831415801561049a57508782145b156104c75782891080156104ad5750838a105b15806104b857508286105b156104c257600090505b6104e0565b87821115806104d557508185105b156104df57600090505b5b5b809a505050505050505050505092915050565b806003908051906020019061050a929190610a3d565b5050565b60606003805490506040519080825280602002602001820160405280156105445781602001602082028038833980820191505090505b50905060008090505b60038054905081101561058157600082828151811061056857fe5b602002602001018181525050808060010191505061054d565b5060008090505b600380549050811015610833576060600382815481106105a457fe5b906000526020600020018054806020026020016040519081016040528092919081815260200182805480156105f857602002820191906000526020600020905b8154815260200190600101908083116105e4575b5050505050905060006001905060008090506000600790505b835181101561067057600188838151811061062857fe5b60200260200101511480156106515750600184828151811061064657fe5b602002602001015114155b1561065b57600092505b81806001019250508080600101915050610611565b50811561080c5760038651148061071457508560038151811061068f57fe5b6020026020010151866000815181106106a457fe5b60200260200101511480156106e05750856004815181106106c157fe5b6020026020010151866001815181106106d657fe5b6020026020010151145b80156107135750856005815181106106f457fe5b60200260200101518660028151811061070957fe5b6020026020010151145b5b15610776576040518060400160405280600681526020017f6f6e65646179000000000000000000000000000000000000000000000000000081525060029080519060200190610764929190610a9d565b5061076f8387610374565b91506107cf565b6040518060400160405280600b81526020017f7365766572616c64617973000000000000000000000000000000000000000000815250600290805190602001906107c1929190610a9d565b506107cc8387610839565b91505b811561080b5760018585815181106107e357fe5b6020026020010181815250506001600460006101000a81548160ff0219169083151502179055505b5b8460009080519060200190610822929190610b1d565b505050508080600101915050610588565b50505050565b6000806001905060008460018151811061084f57fe5b6020026020010151905060008560028151811061086857fe5b6020026020010151905060008660038151811061088157fe5b6020026020010151905060008760048151811061089a57fe5b602002602001015190506000886005815181106108b357fe5b602002602001015190506000896006815181106108cc57fe5b602002602001015190506000896000815181106108e557fe5b6020026020010151905060008a6001815181106108fe57fe5b6020026020010151905060008b60028151811061091757fe5b6020026020010151905060008c60038151811061093057fe5b6020026020010151905060008d60048151811061094957fe5b6020026020010151905060008e60058151811061096257fe5b6020026020010151905085831161097857600080fd5b8a8514801561098657508984145b801561099157508681145b156109b257858c11806109a357508289105b156109ad5760009c505b610a27565b8a85141580156109c157508984145b80156109cc57508681145b15610a0357848b1080156109df5750858c105b15806109ea57508488105b806109f457508188105b156109fe5760009c505b610a26565b8984111580610a1157508387105b80610a1b57508087105b15610a255760009c505b5b5b8c9d505050505050505050505050505092915050565b828054828255906000526020600020908101928215610a8c579160200282015b82811115610a8b578251829080519060200190610a7b929190610b6a565b5091602001919060010190610a5d565b5b509050610a999190610bb7565b5090565b828054600181600116156101000203166002900490600052602060002090601f016020900481019282601f10610ade57805160ff1916838001178555610b0c565b82800160010185558215610b0c579182015b82811115610b0b578251825591602001919060010190610af0565b5b509050610b199190610be3565b5090565b828054828255906000526020600020908101928215610b59579160200282015b82811115610b58578251825591602001919060010190610b3d565b5b509050610b669190610be3565b5090565b828054828255906000526020600020908101928215610ba6579160200282015b82811115610ba5578251825591602001919060010190610b8a565b5b509050610bb39190610be3565b5090565b610be091905b80821115610bdc5760008181610bd39190610c08565b50600101610bbd565b5090565b90565b610c0591905b80821115610c01576000816000905550600101610be9565b5090565b90565b5080546000825590600052602060002090810190610c269190610be3565b50565b600082601f830112610c3a57600080fd5b8135610c4d610c48826110c7565b61109a565b9150818183526020840193506020810190508360005b83811015610c935781358601610c798882610c9d565b845260208401935060208301925050600181019050610c63565b5050505092915050565b600082601f830112610cae57600080fd5b8135610cc1610cbc826110ef565b61109a565b91508181835260208401935060208101905083856020840282011115610ce657600080fd5b60005b83811015610d165781610cfc8882610da3565b845260208401935060208301925050600181019050610ce9565b5050505092915050565b600082601f830112610d3157600080fd5b8135610d44610d3f82611117565b61109a565b91508181835260208401935060208101905083856020840282011115610d6957600080fd5b60005b83811015610d995781610d7f8882610da3565b845260208401935060208301925050600181019050610d6c565b5050505092915050565b600081359050610db281611260565b92915050565b600060208284031215610dca57600080fd5b600082013567ffffffffffffffff811115610de457600080fd5b610df084828501610c29565b91505092915050565b60008060408385031215610e0c57600080fd5b600083013567ffffffffffffffff811115610e2657600080fd5b610e3285828601610d20565b925050602083013567ffffffffffffffff811115610e4f57600080fd5b610e5b85828601610d20565b9150509250929050565b6000610e718383610f64565b905092915050565b6000610e85838361100a565b60208301905092915050565b6000610e9c8261116f565b610ea681856111c2565b935083602082028501610eb88561113f565b8060005b85811015610ef45784840389528151610ed58582610e65565b9450610ee08361119b565b925060208a01995050600181019050610ebc565b50829750879550505050505092915050565b6000610f1182611185565b610f1b81856111e4565b9350610f268361115f565b8060005b83811015610f57578151610f3e8882610e79565b9750610f49836111b5565b925050600181019050610f2a565b5085935050505092915050565b6000610f6f8261117a565b610f7981856111d3565b9350610f848361114f565b8060005b83811015610fb5578151610f9c8882610e79565b9750610fa7836111a8565b925050600181019050610f88565b5085935050505092915050565b610fcb81611206565b82525050565b6000610fdc82611190565b610fe681856111f5565b9350610ff681856020860161121c565b610fff8161124f565b840191505092915050565b61101381611212565b82525050565b600060208201905081810360008301526110338184610e91565b905092915050565b600060208201905081810360008301526110558184610f06565b905092915050565b60006020820190506110726000830184610fc2565b92915050565b600060208201905081810360008301526110928184610fd1565b905092915050565b6000604051905081810181811067ffffffffffffffff821117156110bd57600080fd5b8060405250919050565b600067ffffffffffffffff8211156110de57600080fd5b602082029050602081019050919050565b600067ffffffffffffffff82111561110657600080fd5b602082029050602081019050919050565b600067ffffffffffffffff82111561112e57600080fd5b602082029050602081019050919050565b6000819050602082019050919050565b6000819050602082019050919050565b6000819050602082019050919050565b600081519050919050565b600081519050919050565b600081519050919050565b600081519050919050565b6000602082019050919050565b6000602082019050919050565b6000602082019050919050565b600082825260208201905092915050565b600082825260208201905092915050565b600082825260208201905092915050565b600082825260208201905092915050565b60008115159050919050565b6000819050919050565b60005b8381101561123a57808201518184015260208101905061121f565b83811115611249576000848401525b50505050565b6000601f19601f8301169050919050565b61126981611212565b811461127457600080fd5b5056fea365627a7a72315820ffaa234d45a18e942c6cabb224510908c6f7f30472a71a8fee8cfa0881f7d7436c6578706572696d656e74616cf564736f6c63430005100040",
  "source": "pragma experimental ABIEncoderV2;\n\npragma solidity ^0.5.16;\n/**\n * @title Elect\n */\n\n\ncontract Elect {\n    // list of persons with attribute values:   \n    // [[id, startDay, startMonth, startYear, endDay, endMonth, endYear, equipment1, equipment2, equipment3 //pickup, distance]]\n    // pickup and delivery: *10E7, add a 'neg element' to string? (neg1 / neg2 --> and adapt calculus accordingly)\n    \n    //uint[][] candidates = [ [0, 12,5,21, 13,5,21, 1,1,1],[1, 12,5,21, 13,5,21, 1,1,1], [2, 12,5,21, 15,5,21, 1,1,1], [3, 12,5,21, 16,5,21, 1,1,1], [4, 10,5,21, 14,5,21, 1,1,1], [5, 11,5,21, 14,5,21, 1,1,1] ]\n    //uint[][] candidates =[\n    //                        [1, 12,5,21, 13,5,21, 1,1,1],\n    //                        [2, 12,5,21, 15,5,21, 1,1,1],\n    //                        [3, 12,5,21, 16,5,21, 1,1,1],\n    //                        [4, 10,5,21, 14,5,21, 1,1,1],\n    //                        [5, 11,5,21, 14,5,21, 1,1,1]\n    //                    ];     \n    //uint[] filteringAttributes = [1,1,1];    // list of filtering attributes     \n    //uint[] availability = [12,1,21];\n    \n    uint[] filteredCandidates;\n    \n    string filteredIds;\n    \n    string testState;\n\n\n    uint[][] candidates;\n\n    bool hasCandidates = false;\n\n    ///// Delegated services        \n    function getFilteredCandidates() public view returns(uint[] memory){\n        return filteredCandidates;\n    }\n\n    function existsCandidates() public view returns(bool){\n        return hasCandidates;\n    }\n\n    function setCandidates(uint[][] memory _candidates) public payable {\n        candidates = _candidates;\n    }\n\n    function getCandidates() public view returns(uint[][] memory){\n        return candidates;\n    }\n\n    function getTestState() public view returns(string memory){\n        return testState;\n    }\n\n    function oneDayAvailability(uint[] memory _person, uint[] memory _availability) public payable returns(bool){\n        uint avStartDay = _person[1];\n        uint avStartMonth = _person[2];\n        uint avStartYear = _person[3];\n\n        uint avEndDay = _person[4];\n        uint avEndMonth = _person[5];\n        uint avEndYear = _person[6];\n\n        uint reqDay= _availability[0];\n        uint reqMonth= _availability[1];\n        uint reqYear= _availability[2];\n                    \n        bool testOutput=true;\n        \n        if((reqMonth==avStartMonth) && (reqYear==avStartYear)){ // same month, same year\n            if((avStartDay > reqDay)||(avEndDay<reqDay)){ // person is booked\n                testOutput=false;\n                }\n            }\n        else if((reqMonth!=avStartMonth) && (reqYear==avStartYear)){ //same year, different month\n            if(!((avStartMonth < reqMonth) && (avStartDay < reqDay)) || (avEndMonth<reqMonth)){ // person is booked\n                testOutput=false;\n            }\n        }\n        else{ //different year\n            if(!(reqYear>avStartYear)||(avEndYear<reqYear)){ // person is booked\n                testOutput=false;\n            }\n        }\n        return testOutput;\n    }\n\n\n    function severalDaysAvailability(uint[] memory _person, uint[] memory _availability) public payable returns(bool){\n        bool testOutput=true;\n        \n        uint avStartDay = _person[1];\n        uint avStartMonth = _person[2];\n        uint avStartYear = _person[3];\n\n        uint avEndDay = _person[4];\n        uint avEndMonth = _person[5];\n        uint avEndYear = _person[6];\n\n        uint reqSDay=_availability[0];\n        uint reqSMonth=_availability[1];\n        uint reqSYear=_availability[2];\n                    \n        uint reqEDay=_availability[3];\n        uint reqEMonth=_availability[4];\n        uint reqEYear=_availability[5];\n                    \n\n        require(reqEDay>reqSDay);\n\n        if((reqSMonth==avStartMonth) && (reqSYear==avStartYear) && (reqEYear==avEndYear)){ // same start month, same year\n            if((avStartDay > reqSDay)||(avEndDay<reqEDay)){ // person is booked\n                testOutput=false;\n                }\n        }\n        else if((reqSMonth!=avStartMonth) && (reqSYear==avStartYear) &&  (reqEYear==avEndYear)){ //same year, different month\n            if(!((avStartMonth < reqSMonth) && (avStartDay < reqSDay)) || (avEndMonth<reqSMonth) || (avEndMonth<reqEMonth)){ // person is booked\n                testOutput=false;\n                }\n            }\n        else{ //different year\n            if(!(reqSYear>avStartYear)||(avEndYear<reqSYear)||(avEndYear<reqEYear)){ // person is booked\n                testOutput=false;\n            }\n        }\n        return testOutput;\n    }\n    \n\n    //////// Filtering\n\n    function filter(uint[] memory filteringAttributes, uint[] memory availability) public payable{\n        //require((availability.length==3)||(availability.length==6)); // date\n        \n        uint[] memory _filteredCandidates = new uint[](candidates.length);\n        // reinitialize list of candidates\n        for(uint i=0; i<candidates.length;i++){\n            _filteredCandidates[i]=0;\n        }\n\n        for(uint ind=0; ind<candidates.length; ind++){\n            uint[] memory person=candidates[ind];\n            bool testOutput = true;\n\n            // filter on  attributes\n            uint index=0;\n            for(uint id_att=7; id_att<person.length; id_att++){\n                if((filteringAttributes[index]==1) && (person[id_att]!=1)){\n                        testOutput=false;\n                }\n                index++;\n            }\n\n            if(testOutput){\n                //filter on availability\n                if((availability.length==3)||\n                    ((availability[0]==availability[3])&&(availability[1]==availability[4])&&(availability[2]==availability[5]))){ // ask for a day booking\n                    testState=\"oneday\";\n                    testOutput=oneDayAvailability(person, availability);\n                }\n                else{ \n                    //availability.length==6, ask for a several-days booking \n                    testState=\"severaldays\";\n                    testOutput=severalDaysAvailability(person, availability);\n                }\n                \n                //_filteredCandidates[ind]=1;\n                //hasCandidates=true;\n\n                //update list of candidates\n                if(testOutput){\n                    _filteredCandidates[ind]=1;\n                    hasCandidates=true;\n                }\n            }\n            \n            filteredCandidates = _filteredCandidates;\n        }\n        \n        \n        \n    }\n    \n    // function sort \n    // function sort() - calculate ponderated mean\n\n    \n    \n    // function instanciate contract \n    \n    \n\n}",
  "sourcePath": "/home/vtlr2002/source/SMLogs/contracts/Elect.sol",
  "compiler": {
    "name": "solc",
    "version": "0.5.16+commit.9c3226ce.Emscripten.clang"
  },
  "schemaVersion": "3.2.4",
  "updatedAt": "2020-11-23T12:05:16.053Z",
  "networkType": "ethereum",
  "devdoc": {
    "methods": {},
    "title": "Elect"
  },
  "userdoc": {
    "methods": {
      "filter(uint256[],uint256[])": {
        "notice": "///// Filtering"
      },
      "getFilteredCandidates()": {
        "notice": "// Delegated services        "
      }
    }
  }
}