{
  "contractName": "Elect",
  "abi": [
    {
      "anonymous": false,
      "inputs": [
        {
          "indexed": false,
          "internalType": "string",
          "name": "ExistCandidates",
          "type": "string"
        },
        {
          "indexed": false,
          "internalType": "string",
          "name": "profiles",
          "type": "string"
        }
      ],
      "name": "BestCandidates",
      "type": "event"
    },
    {
      "anonymous": false,
      "inputs": [
        {
          "indexed": false,
          "internalType": "string",
          "name": "nextStep",
          "type": "string"
        }
      ],
      "name": "LogConstructorInitiated",
      "type": "event"
    },
    {
      "anonymous": false,
      "inputs": [
        {
          "indexed": false,
          "internalType": "string",
          "name": "description",
          "type": "string"
        }
      ],
      "name": "LogNewProvableQuery",
      "type": "event"
    },
    {
      "anonymous": false,
      "inputs": [
        {
          "indexed": false,
          "internalType": "string",
          "name": "qosList",
          "type": "string"
        }
      ],
      "name": "LogQoSCompute",
      "type": "event"
    },
    {
      "payable": true,
      "stateMutability": "payable",
      "type": "fallback"
    },
    {
      "constant": true,
      "inputs": [],
      "name": "qosList_string",
      "outputs": [
        {
          "internalType": "string",
          "name": "",
          "type": "string"
        }
      ],
      "payable": false,
      "stateMutability": "view",
      "type": "function"
    },
    {
      "constant": true,
      "inputs": [],
      "name": "getfilter",
      "outputs": [
        {
          "internalType": "uint256[]",
          "name": "",
          "type": "uint256[]"
        }
      ],
      "payable": false,
      "stateMutability": "view",
      "type": "function"
    },
    {
      "constant": true,
      "inputs": [],
      "name": "existsCandidates",
      "outputs": [
        {
          "internalType": "bool",
          "name": "",
          "type": "bool"
        }
      ],
      "payable": false,
      "stateMutability": "view",
      "type": "function"
    },
    {
      "constant": false,
      "inputs": [
        {
          "internalType": "uint256[][]",
          "name": "_candidates",
          "type": "uint256[][]"
        }
      ],
      "name": "setCandidates",
      "outputs": [],
      "payable": true,
      "stateMutability": "payable",
      "type": "function"
    },
    {
      "constant": true,
      "inputs": [],
      "name": "getCandidates",
      "outputs": [
        {
          "internalType": "uint256[][]",
          "name": "",
          "type": "uint256[][]"
        }
      ],
      "payable": false,
      "stateMutability": "view",
      "type": "function"
    },
    {
      "constant": true,
      "inputs": [],
      "name": "getAvailabiltyState",
      "outputs": [
        {
          "internalType": "enum Elect.AvailabiltyState",
          "name": "",
          "type": "uint8"
        }
      ],
      "payable": false,
      "stateMutability": "view",
      "type": "function"
    },
    {
      "constant": true,
      "inputs": [],
      "name": "getQoSList",
      "outputs": [
        {
          "internalType": "uint256[]",
          "name": "",
          "type": "uint256[]"
        }
      ],
      "payable": false,
      "stateMutability": "view",
      "type": "function"
    },
    {
      "constant": true,
      "inputs": [],
      "name": "getSortedQoS",
      "outputs": [
        {
          "internalType": "uint256[]",
          "name": "",
          "type": "uint256[]"
        }
      ],
      "payable": false,
      "stateMutability": "view",
      "type": "function"
    },
    {
      "constant": true,
      "inputs": [],
      "name": "getNormalized",
      "outputs": [
        {
          "internalType": "uint256[]",
          "name": "",
          "type": "uint256[]"
        }
      ],
      "payable": false,
      "stateMutability": "view",
      "type": "function"
    },
    {
      "constant": true,
      "inputs": [],
      "name": "getNormalizedArray",
      "outputs": [
        {
          "internalType": "uint256[][]",
          "name": "",
          "type": "uint256[][]"
        }
      ],
      "payable": false,
      "stateMutability": "view",
      "type": "function"
    },
    {
      "constant": true,
      "inputs": [],
      "name": "getQoS",
      "outputs": [
        {
          "internalType": "uint256",
          "name": "",
          "type": "uint256"
        }
      ],
      "payable": false,
      "stateMutability": "view",
      "type": "function"
    },
    {
      "constant": true,
      "inputs": [],
      "name": "getN",
      "outputs": [
        {
          "internalType": "uint256",
          "name": "",
          "type": "uint256"
        }
      ],
      "payable": false,
      "stateMutability": "view",
      "type": "function"
    },
    {
      "constant": true,
      "inputs": [],
      "name": "getBestProfiles",
      "outputs": [
        {
          "internalType": "string",
          "name": "",
          "type": "string"
        }
      ],
      "payable": false,
      "stateMutability": "view",
      "type": "function"
    },
    {
      "constant": false,
      "inputs": [
        {
          "internalType": "uint256[]",
          "name": "_person",
          "type": "uint256[]"
        },
        {
          "internalType": "uint256[]",
          "name": "_availability",
          "type": "uint256[]"
        }
      ],
      "name": "oneDayAvailability",
      "outputs": [
        {
          "internalType": "uint256",
          "name": "",
          "type": "uint256"
        }
      ],
      "payable": true,
      "stateMutability": "payable",
      "type": "function"
    },
    {
      "constant": false,
      "inputs": [
        {
          "internalType": "uint256[]",
          "name": "_person",
          "type": "uint256[]"
        },
        {
          "internalType": "uint256[]",
          "name": "_availability",
          "type": "uint256[]"
        }
      ],
      "name": "severalDaysAvailability",
      "outputs": [
        {
          "internalType": "uint256",
          "name": "",
          "type": "uint256"
        }
      ],
      "payable": true,
      "stateMutability": "payable",
      "type": "function"
    },
    {
      "constant": false,
      "inputs": [],
      "name": "ProvableContract",
      "outputs": [],
      "payable": true,
      "stateMutability": "payable",
      "type": "function"
    },
    {
      "constant": false,
      "inputs": [
        {
          "internalType": "bytes32",
          "name": "myid",
          "type": "bytes32"
        },
        {
          "internalType": "string",
          "name": "result",
          "type": "string"
        }
      ],
      "name": "__callback",
      "outputs": [],
      "payable": false,
      "stateMutability": "nonpayable",
      "type": "function"
    },
    {
      "constant": false,
      "inputs": [
        {
          "internalType": "bytes32",
          "name": "_myid",
          "type": "bytes32"
        },
        {
          "internalType": "string",
          "name": "_result",
          "type": "string"
        },
        {
          "internalType": "bytes",
          "name": "_proof",
          "type": "bytes"
        }
      ],
      "name": "__callback",
      "outputs": [],
      "payable": false,
      "stateMutability": "nonpayable",
      "type": "function"
    },
    {
      "constant": false,
      "inputs": [
        {
          "internalType": "uint256[]",
          "name": "list",
          "type": "uint256[]"
        }
      ],
      "name": "list2string",
      "outputs": [
        {
          "internalType": "string",
          "name": "",
          "type": "string"
        }
      ],
      "payable": true,
      "stateMutability": "payable",
      "type": "function"
    },
    {
      "constant": false,
      "inputs": [
        {
          "internalType": "uint256[][]",
          "name": "array",
          "type": "uint256[][]"
        },
        {
          "internalType": "uint256",
          "name": "num_param",
          "type": "uint256"
        }
      ],
      "name": "uintarrays2string",
      "outputs": [
        {
          "internalType": "string",
          "name": "",
          "type": "string"
        }
      ],
      "payable": true,
      "stateMutability": "payable",
      "type": "function"
    },
    {
      "constant": false,
      "inputs": [
        {
          "internalType": "uint256[]",
          "name": "filteringAttributes",
          "type": "uint256[]"
        },
        {
          "internalType": "uint256[]",
          "name": "availability",
          "type": "uint256[]"
        },
        {
          "internalType": "string",
          "name": "_alphas",
          "type": "string"
        },
        {
          "internalType": "uint256",
          "name": "num_alphas",
          "type": "uint256"
        }
      ],
      "name": "elect",
      "outputs": [],
      "payable": true,
      "stateMutability": "payable",
      "type": "function"
    }
  ],
  "bytecode": "0x60806040526040518060600160405280604051806101800160405280600660ff168152602001600c60ff168152602001600160ff168152602001601560ff168152602001600d60ff168152602001600160ff168152602001601560ff168152602001600160ff168152602001600060ff168152602001600060ff168152602001600a60ff168152602001600360ff168152508152602001604051806101800160405280600660ff168152602001600c60ff168152602001600160ff168152602001601560ff168152602001600d60ff168152602001600160ff168152602001601560ff168152602001600160ff168152602001600060ff168152602001600060ff168152602001600a60ff168152602001600360ff168152508152602001604051806101800160405280600660ff168152602001600c60ff168152602001600160ff168152602001601560ff168152602001600d60ff168152602001600160ff168152602001601560ff168152602001600060ff168152602001600060ff168152602001600060ff168152602001600a60ff168152602001600360ff168152508152506009906003620001b4929190620001e4565b506000600a60006101000a81548160ff021916908315150217905550348015620001dd57600080fd5b5062000319565b82805482825590600052602060002090810192821562000233579160200282015b82811115620002325782518290600c6200022192919062000246565b509160200191906001019062000205565b5b5090506200024291906200029d565b5090565b8280548282559060005260206000209081019282156200028a579160200282015b8281111562000289578251829060ff1690559160200191906001019062000267565b5b509050620002999190620002ce565b5090565b620002cb91905b80821115620002c75760008181620002bd9190620002f6565b50600101620002a4565b5090565b90565b620002f391905b80821115620002ef576000816000905550600101620002d5565b5090565b90565b5080546000825590600052602060002090810190620003169190620002ce565b50565b6140f380620003296000396000f3fe60806040526004361061012a5760003560e01c8063639e7990116100ab578063a74c2b4e1161006f578063a74c2b4e14610399578063b49fc6a2146103c4578063b6af0bc6146103f4578063bca9469f1461041f578063c9d509aa1461044a578063f106b1a7146104545761012a565b8063639e7990146102cc578063850b0144146102f7578063915a5715146103225780639ca5760e14610352578063a7130db81461036e5761012a565b80632b3b1ba9116100f25780632b3b1ba9146101f757806338bbfa50146102225780633e9552251461024b5780634c6fe5691461027657806361c6e08b146102a15761012a565b806306a49fce1461012c578063114412eb14610157578063134e3ce9146101875780632306bdd7146101a357806327dc297e146101ce575b005b34801561013857600080fd5b50610141610484565b60405161014e9190613bad565b60405180910390f35b610171600480360361016c9190810190613097565b610523565b60405161017e9190613c8e565b60405180910390f35b6101a1600480360361019c9190810190613144565b610609565b005b3480156101af57600080fd5b506101b8610c2d565b6040516101c59190613bcf565b60405180910390f35b3480156101da57600080fd5b506101f560048036036101f09190810190613218565b610c85565b005b34801561020357600080fd5b5061020c610d17565b6040516102199190613bf1565b60405180910390f35b34801561022e57600080fd5b506102496004803603610244919081019061326c565b610d2e565b005b34801561025757600080fd5b50610260610d51565b60405161026d9190613d78565b60405180910390f35b34801561028257600080fd5b5061028b610d5b565b6040516102989190613bcf565b60405180910390f35b3480156102ad57600080fd5b506102b6610db3565b6040516102c39190613d78565b60405180910390f35b3480156102d857600080fd5b506102e1610dbd565b6040516102ee9190613bcf565b60405180910390f35b34801561030357600080fd5b5061030c610e15565b6040516103199190613bad565b60405180910390f35b61033c600480360361033791908101906130d8565b610eb4565b6040516103499190613d78565b60405180910390f35b61036c60048036036103679190810190613002565b611160565b005b34801561037a57600080fd5b5061038361117a565b6040516103909190613c0c565b60405180910390f35b3480156103a557600080fd5b506103ae611191565b6040516103bb9190613c8e565b60405180910390f35b6103de60048036036103d99190810190613043565b611233565b6040516103eb9190613c8e565b60405180910390f35b34801561040057600080fd5b506104096114e5565b6040516104169190613c6c565b60405180910390f35b34801561042b57600080fd5b50610434611583565b6040516104419190613bcf565b60405180910390f35b6104526115db565b005b61046e600480360361046991908101906130d8565b611667565b60405161047b9190613d78565b60405180910390f35b60606009805480602002602001604051908101604052809291908181526020016000905b8282101561051a5783829060005260206000200180548060200260200160405190810160405280929190818152602001828054801561050657602002820191906000526020600020905b8154815260200190600101908083116104f2575b5050505050815260200190600101906104a8565b50505050905090565b6060806040518060400160405280600181526020017f5b00000000000000000000000000000000000000000000000000000000000000815250905060008090505b60018451038110156105bc578161058d85838151811061058057fe5b60200260200101516119d3565b60405160200161059e929190613af2565b60405160208183030381529060405291508080600101915050610564565b50806105de846001865103815181106105d157fe5b60200260200101516119d3565b6040516020016105ef929190613b21565b604051602081830303815290604052905080915050919050565b6000600a60006101000a81548160ff021916908315150217905550816013908051906020019061063a929190612ac3565b5060606009805490506040519080825280602002602001820160405280156106715781602001602082028038833980820191505090505b50905060008090505b6009805490508110156106ae57600082828151811061069557fe5b602002602001018181525050808060010191505061067a565b5060008090505b60098054905081101561099b5760006008816106d19190612b43565b50600981815481106106df57fe5b9060005260206000200160089080546106f9929190612b6f565b5060006001905060008090506000885160070190506000600790505b818110156107775760018a848151811061072b57fe5b6020026020010151148015610758575060016008828154811061074a57fe5b906000526020600020015414155b1561076257600093505b82806001019350508080600101915050610715565b50821561098b5760038851148061081b57508760038151811061079657fe5b6020026020010151886000815181106107ab57fe5b60200260200101511480156107e75750876004815181106107c857fe5b6020026020010151886001815181106107dd57fe5b6020026020010151145b801561081a5750876005815181106107fb57fe5b60200260200101518860028151811061081057fe5b6020026020010151145b5b156108bb576000600760006101000a81548160ff0219169083600181111561083f57fe5b021790555061089e600880548060200260200160405190810160405280929190818152602001828054801561089357602002820191906000526020600020905b81548152602001906001019080831161087f575b505050505089610eb4565b8585815181106108aa57fe5b602002602001018181525050610952565b6001600760006101000a81548160ff021916908360018111156108da57fe5b0217905550610939600880548060200260200160405190810160405280929190818152602001828054801561092e57602002820191906000526020600020905b81548152602001906001019080831161091a575b505050505089611667565b85858151811061094557fe5b6020026020010181815250505b600185858151811061096057fe5b6020026020010151141561098a576001600a60006101000a81548160ff0219169083151502179055505b5b50505080806001019150506106b5565b5080600590805190602001906109b2929190612bc1565b50600a60009054906101000a900460ff1615610bf05747610a076040518060400160405280600381526020017f55524c0000000000000000000000000000000000000000000000000000000000815250611b00565b1115610a47577fc4dc360d0a9c0677a3379ae0a3d81e887f761e65fdf3d7e00859d1bcd3c47389604051610a3a90613d38565b60405180910390a1610beb565b7fc4dc360d0a9c0677a3379ae0a3d81e887f761e65fdf3d7e00859d1bcd3c47389604051610a7490613ce3565b60405180910390a16060610b1f6009805480602002602001604051908101604052809291908181526020016000905b82821015610b1557838290600052602060002001805480602002602001604051908101604052809291908181526020018280548015610b0157602002820191906000526020600020905b815481526020019060010190808311610aed575b505050505081526020019060010190610aa3565b5050505084611233565b90506060610b7c6005805480602002602001604051908101604052809291908181526020018280548015610b7257602002820191906000526020600020905b815481526020019060010190808311610b5e575b5050505050610523565b9050606082601383604051602001610b9693929190613b50565b6040516020818303038152906040529050610be66040518060400160405280600381526020017f55524c000000000000000000000000000000000000000000000000000000000081525082611e23565b505050505b610c26565b7f9f3fc85979cf17a36a28923dfa3b22fcb290f7e0f531b636246326126006c91d604051610c1d90613cb0565b60405180910390a15b5050505050565b6060600e805480602002602001604051908101604052809291908181526020018280548015610c7b57602002820191906000526020600020905b815481526020019060010190808311610c67575b5050505050905090565b610c8d612222565b73ffffffffffffffffffffffffffffffffffffffff163373ffffffffffffffffffffffffffffffffffffffff1614610cc457600080fd5b8060129080519060200190610cda929190612ac3565b507f9f3fc85979cf17a36a28923dfa3b22fcb290f7e0f531b636246326126006c91d6012604051610d0b9190613d03565b60405180910390a15050565b6000600a60009054906101000a900460ff16905090565b6000801b600360008060001b815260200190815260200160002081905550505050565b6000601154905090565b6060600f805480602002602001604051908101604052809291908181526020018280548015610da957602002820191906000526020600020905b815481526020019060010190808311610d95575b5050505050905090565b6000601054905090565b6060600b805480602002602001604051908101604052809291908181526020018280548015610e0b57602002820191906000526020600020905b815481526020019060010190808311610df7575b5050505050905090565b6060600c805480602002602001604051908101604052809291908181526020016000905b82821015610eab57838290600052602060002001805480602002602001604051908101604052809291908181526020018280548015610e9757602002820191906000526020600020905b815481526020019060010190808311610e83575b505050505081526020019060010190610e39565b50505050905090565b6000610ebe612c0e565b604051806060016040528085600181518110610ed657fe5b6020026020010151815260200185600281518110610ef057fe5b6020026020010151815260200185600381518110610f0a57fe5b60200260200101518152509050610f1f612c0e565b604051806060016040528086600481518110610f3757fe5b6020026020010151815260200186600581518110610f5157fe5b6020026020010151815260200186600681518110610f6b57fe5b60200260200101518152509050610f80612c0e565b604051806060016040528086600081518110610f9857fe5b6020026020010151815260200186600181518110610fb257fe5b6020026020010151815260200186600281518110610fcc57fe5b602002602001015181525090506001601460006101000a81548160ff02191690836001811115610ff857fe5b02179055508260200151816020015114801561101b575082604001518160400151145b1561106c5780600001518360000151118061103d575080600001518260000151105b15611067576000601460006101000a81548160ff0219169083600181111561106157fe5b02179055505b61113a565b826020015181602001511415801561108b575082604001518160400151145b156110f057806020015183602001511080156110ae575080600001518360000151105b15806110c1575080602001518260200151105b156110eb576000601460006101000a81548160ff021916908360018111156110e557fe5b02179055505b611139565b8260400151816040015111158061110e575080604001518260400151105b15611138576000601460006101000a81548160ff0219169083600181111561113257fe5b02179055505b5b5b601460009054906101000a900460ff16600181111561115557fe5b935050505092915050565b8060099080519060200190611176929190612c2f565b5050565b6000600760009054906101000a900460ff16905090565b606060128054600181600116156101000203166002900480601f0160208091040260200160405190810160405280929190818152602001828054600181600116156101000203166002900480156112295780601f106111fe57610100808354040283529160200191611229565b820191906000526020600020905b81548152906001019060200180831161120c57829003601f168201915b5050505050905090565b6060806040518060400160405280600181526020017f5b000000000000000000000000000000000000000000000000000000000000008152509050600083855103905060008090505b60018651038110156113b557606086828151811061129657fe5b6020026020010151905060606040518060400160405280600181526020017f5b00000000000000000000000000000000000000000000000000000000000000815250905060008490505b6001896000815181106112ef57fe5b6020026020010151510381101561134c578161131d84838151811061131057fe5b60200260200101516119d3565b60405160200161132e929190613af2565b604051602081830303815290604052915080806001019150506112e0565b5084816113838460018c60008151811061136257fe5b602002602001015151038151811061137657fe5b60200260200101516119d3565b60405160200161139593929190613a7a565b60405160208183030381529060405294505050808060010191505061127c565b506060856001875103815181106113c857fe5b6020026020010151905060606040518060400160405280600181526020017f5b00000000000000000000000000000000000000000000000000000000000000815250905060008390505b60018860008151811061142157fe5b6020026020010151510381101561147e578161144f84838151811061144257fe5b60200260200101516119d3565b604051602001611460929190613af2565b60405160208183030381529060405291508080600101915050611412565b5083816114b58460018b60008151811061149457fe5b60200260200101515103815181106114a857fe5b60200260200101516119d3565b6040516020016114c793929190613ab6565b60405160208183030381529060405293508394505050505092915050565b60158054600181600116156101000203166002900480601f01602080910402602001604051908101604052809291908181526020018280546001816001161561010002031660029004801561157b5780601f106115505761010080835404028352916020019161157b565b820191906000526020600020905b81548152906001019060200180831161155e57829003601f168201915b505050505081565b606060058054806020026020016040519081016040528092919081815260200182805480156115d157602002820191906000526020600020905b8154815260200190600101908083116115bd575b5050505050905090565b736f485c8bf6fc43ea212e93bbf8ce046c7f1cb475600160006101000a81548173ffffffffffffffffffffffffffffffffffffffff021916908373ffffffffffffffffffffffffffffffffffffffff1602179055507f11a3fca63f87bd67d7f9f72b744acc8be2193705e7a734ac3a773d35d259e87b60405161165d90613d58565b60405180910390a1565b6000611671612c0e565b60405180606001604052808560018151811061168957fe5b60200260200101518152602001856002815181106116a357fe5b60200260200101518152602001856003815181106116bd57fe5b602002602001015181525090506116d2612c0e565b6040518060600160405280866004815181106116ea57fe5b602002602001015181526020018660058151811061170457fe5b602002602001015181526020018660068151811061171e57fe5b60200260200101518152509050611733612c0e565b60405180606001604052808660008151811061174b57fe5b602002602001015181526020018660018151811061176557fe5b602002602001015181526020018660028151811061177f57fe5b60200260200101518152509050611794612c0e565b6040518060600160405280876003815181106117ac57fe5b60200260200101518152602001876004815181106117c657fe5b60200260200101518152602001876005815181106117e057fe5b602002602001015181525090506001601460006101000a81548160ff0219169083600181111561180c57fe5b0217905550816000015181600001511161182557600080fd5b83602001518260200151148015611843575083604001518260400151145b8015611856575082604001518160400151145b156118a757816000015184600001511180611878575080600001518360000151105b156118a2576000601460006101000a81548160ff0219169083600181111561189c57fe5b02179055505b6119ac565b83602001518260200151141580156118c6575083604001518260400151145b80156118d9575082604001518160400151145b1561195057816020015184602001511080156118fc575081600001518460000151105b158061190f575081602001518360200151105b80611921575080602001518360200151105b1561194b576000601460006101000a81548160ff0219169083600181111561194557fe5b02179055505b6119ab565b8360400151826040015111158061196e575081604001518360400151105b80611980575080604001518360400151105b156119aa576000601460006101000a81548160ff021916908360018111156119a457fe5b02179055505b5b5b601460009054906101000a900460ff1660018111156119c757fe5b94505050505092915050565b60606000821415611a1b576040518060400160405280600181526020017f30000000000000000000000000000000000000000000000000000000000000008152509050611afb565b600082905060005b60008214611a45578080600101915050600a8281611a3d57fe5b049150611a23565b6060816040519080825280601f01601f191660200182016040528015611a7a5781602001600182028038833980820191505090505b50905060006001830390505b60008614611af357600a8681611a9857fe5b0660300160f81b82828060019003935081518110611ab257fe5b60200101907effffffffffffffffffffffffffffffffffffffffffffffffffffffffffffff1916908160001a905350600a8681611aeb57fe5b049550611a86565b819450505050505b919050565b60008073ffffffffffffffffffffffffffffffffffffffff16600160009054906101000a900473ffffffffffffffffffffffffffffffffffffffff1673ffffffffffffffffffffffffffffffffffffffff161480611b8857506000611b86600160009054906101000a900473ffffffffffffffffffffffffffffffffffffffff16612536565b145b15611b9957611b976000612541565b505b600160009054906101000a900473ffffffffffffffffffffffffffffffffffffffff1673ffffffffffffffffffffffffffffffffffffffff166338cc48316040518163ffffffff1660e01b8152600401602060405180830381600087803b158015611c0357600080fd5b505af1158015611c17573d6000803e3d6000fd5b505050506040513d601f19601f82011682018060405250611c3b9190810190612fd9565b73ffffffffffffffffffffffffffffffffffffffff166000809054906101000a900473ffffffffffffffffffffffffffffffffffffffff1673ffffffffffffffffffffffffffffffffffffffff1614611d7057600160009054906101000a900473ffffffffffffffffffffffffffffffffffffffff1673ffffffffffffffffffffffffffffffffffffffff166338cc48316040518163ffffffff1660e01b8152600401602060405180830381600087803b158015611cf857600080fd5b505af1158015611d0c573d6000803e3d6000fd5b505050506040513d601f19601f82011682018060405250611d309190810190612fd9565b6000806101000a81548173ffffffffffffffffffffffffffffffffffffffff021916908373ffffffffffffffffffffffffffffffffffffffff1602179055505b6000809054906101000a900473ffffffffffffffffffffffffffffffffffffffff1673ffffffffffffffffffffffffffffffffffffffff1663524f3889836040518263ffffffff1660e01b8152600401611dca9190613c8e565b602060405180830381600087803b158015611de457600080fd5b505af1158015611df8573d6000803e3d6000fd5b505050506040513d601f19601f82011682018060405250611e1c91908101906132eb565b9050919050565b60008073ffffffffffffffffffffffffffffffffffffffff16600160009054906101000a900473ffffffffffffffffffffffffffffffffffffffff1673ffffffffffffffffffffffffffffffffffffffff161480611eab57506000611ea9600160009054906101000a900473ffffffffffffffffffffffffffffffffffffffff16612536565b145b15611ebc57611eba6000612541565b505b600160009054906101000a900473ffffffffffffffffffffffffffffffffffffffff1673ffffffffffffffffffffffffffffffffffffffff166338cc48316040518163ffffffff1660e01b8152600401602060405180830381600087803b158015611f2657600080fd5b505af1158015611f3a573d6000803e3d6000fd5b505050506040513d601f19601f82011682018060405250611f5e9190810190612fd9565b73ffffffffffffffffffffffffffffffffffffffff166000809054906101000a900473ffffffffffffffffffffffffffffffffffffffff1673ffffffffffffffffffffffffffffffffffffffff161461209357600160009054906101000a900473ffffffffffffffffffffffffffffffffffffffff1673ffffffffffffffffffffffffffffffffffffffff166338cc48316040518163ffffffff1660e01b8152600401602060405180830381600087803b15801561201b57600080fd5b505af115801561202f573d6000803e3d6000fd5b505050506040513d601f19601f820116820180604052506120539190810190612fd9565b6000806101000a81548173ffffffffffffffffffffffffffffffffffffffff021916908373ffffffffffffffffffffffffffffffffffffffff1602179055505b60008060009054906101000a900473ffffffffffffffffffffffffffffffffffffffff1673ffffffffffffffffffffffffffffffffffffffff1663524f3889856040518263ffffffff1660e01b81526004016120ef9190613c8e565b602060405180830381600087803b15801561210957600080fd5b505af115801561211d573d6000803e3d6000fd5b505050506040513d601f19601f8201168201806040525061214191908101906132eb565b905062030d403a02670de0b6b3a764000001811115612166576000801b91505061221c565b6000809054906101000a900473ffffffffffffffffffffffffffffffffffffffff1673ffffffffffffffffffffffffffffffffffffffff1663adf59f9982600087876040518563ffffffff1660e01b81526004016121c693929190613c27565b6020604051808303818588803b1580156121df57600080fd5b505af11580156121f3573d6000803e3d6000fd5b50505050506040513d601f19601f8201168201806040525061221891908101906131ef565b9150505b92915050565b60008073ffffffffffffffffffffffffffffffffffffffff16600160009054906101000a900473ffffffffffffffffffffffffffffffffffffffff1673ffffffffffffffffffffffffffffffffffffffff1614806122aa575060006122a8600160009054906101000a900473ffffffffffffffffffffffffffffffffffffffff16612536565b145b156122bb576122b96000612541565b505b600160009054906101000a900473ffffffffffffffffffffffffffffffffffffffff1673ffffffffffffffffffffffffffffffffffffffff166338cc48316040518163ffffffff1660e01b8152600401602060405180830381600087803b15801561232557600080fd5b505af1158015612339573d6000803e3d6000fd5b505050506040513d601f19601f8201168201806040525061235d9190810190612fd9565b73ffffffffffffffffffffffffffffffffffffffff166000809054906101000a900473ffffffffffffffffffffffffffffffffffffffff1673ffffffffffffffffffffffffffffffffffffffff161461249257600160009054906101000a900473ffffffffffffffffffffffffffffffffffffffff1673ffffffffffffffffffffffffffffffffffffffff166338cc48316040518163ffffffff1660e01b8152600401602060405180830381600087803b15801561241a57600080fd5b505af115801561242e573d6000803e3d6000fd5b505050506040513d601f19601f820116820180604052506124529190810190612fd9565b6000806101000a81548173ffffffffffffffffffffffffffffffffffffffff021916908373ffffffffffffffffffffffffffffffffffffffff1602179055505b6000809054906101000a900473ffffffffffffffffffffffffffffffffffffffff1673ffffffffffffffffffffffffffffffffffffffff1663c281d19e6040518163ffffffff1660e01b815260040160206040518083038186803b1580156124f957600080fd5b505afa15801561250d573d6000803e3d6000fd5b505050506040513d601f19601f820116820180604052506125319190810190612fd9565b905090565b6000813b9050919050565b600061254b612552565b9050919050565b600080612572731d3b2638a7cc9f2cb3d298a3da7a90b67e5506ed612536565b111561261457731d3b2638a7cc9f2cb3d298a3da7a90b67e5506ed600160006101000a81548173ffffffffffffffffffffffffffffffffffffffff021916908373ffffffffffffffffffffffffffffffffffffffff16021790555061260b6040518060400160405280600b81526020017f6574685f6d61696e6e6574000000000000000000000000000000000000000000815250612aa9565b60019050612aa6565b600061263373c03a2615d5efaf5f49f60b7bb6583eaec212fdf1612536565b11156126d55773c03a2615d5efaf5f49f60b7bb6583eaec212fdf1600160006101000a81548173ffffffffffffffffffffffffffffffffffffffff021916908373ffffffffffffffffffffffffffffffffffffffff1602179055506126cc6040518060400160405280600c81526020017f6574685f726f707374656e330000000000000000000000000000000000000000815250612aa9565b60019050612aa6565b60006126f473b7a07bcf2ba2f2703b24c0691b5278999c59ac7e612536565b11156127965773b7a07bcf2ba2f2703b24c0691b5278999c59ac7e600160006101000a81548173ffffffffffffffffffffffffffffffffffffffff021916908373ffffffffffffffffffffffffffffffffffffffff16021790555061278d6040518060400160405280600981526020017f6574685f6b6f76616e0000000000000000000000000000000000000000000000815250612aa9565b60019050612aa6565b60006127b573146500cfd35b22e4a392fe0adc06de1a1368ed48612536565b11156128575773146500cfd35b22e4a392fe0adc06de1a1368ed48600160006101000a81548173ffffffffffffffffffffffffffffffffffffffff021916908373ffffffffffffffffffffffffffffffffffffffff16021790555061284e6040518060400160405280600b81526020017f6574685f72696e6b656279000000000000000000000000000000000000000000815250612aa9565b60019050612aa6565b600061287673a2998efd205fb9d4b4963afb70778d6354ad3a41612536565b11156129185773a2998efd205fb9d4b4963afb70778d6354ad3a41600160006101000a81548173ffffffffffffffffffffffffffffffffffffffff021916908373ffffffffffffffffffffffffffffffffffffffff16021790555061290f6040518060400160405280600a81526020017f6574685f676f65726c6900000000000000000000000000000000000000000000815250612aa9565b60019050612aa6565b6000612937736f485c8bf6fc43ea212e93bbf8ce046c7f1cb475612536565b111561299b57736f485c8bf6fc43ea212e93bbf8ce046c7f1cb475600160006101000a81548173ffffffffffffffffffffffffffffffffffffffff021916908373ffffffffffffffffffffffffffffffffffffffff16021790555060019050612aa6565b60006129ba7320e12a1f859b3feae5fb2a0a32c18f5a65555bbf612536565b1115612a1e577320e12a1f859b3feae5fb2a0a32c18f5a65555bbf600160006101000a81548173ffffffffffffffffffffffffffffffffffffffff021916908373ffffffffffffffffffffffffffffffffffffffff16021790555060019050612aa6565b6000612a3d7351efaf4c8b3c9afbd5ab9f4bbc82784ab6ef8faa612536565b1115612aa1577351efaf4c8b3c9afbd5ab9f4bbc82784ab6ef8faa600160006101000a81548173ffffffffffffffffffffffffffffffffffffffff021916908373ffffffffffffffffffffffffffffffffffffffff16021790555060019050612aa6565b600090505b90565b8060029080519060200190612abf929190612ac3565b5050565b828054600181600116156101000203166002900490600052602060002090601f016020900481019282601f10612b0457805160ff1916838001178555612b32565b82800160010185558215612b32579182015b82811115612b31578251825591602001919060010190612b16565b5b509050612b3f9190612c8f565b5090565b815481835581811115612b6a57818360005260206000209182019101612b699190612c8f565b5b505050565b828054828255906000526020600020908101928215612bb05760005260206000209182015b82811115612baf578254825591600101919060010190612b94565b5b509050612bbd9190612c8f565b5090565b828054828255906000526020600020908101928215612bfd579160200282015b82811115612bfc578251825591602001919060010190612be1565b5b509050612c0a9190612c8f565b5090565b60405180606001604052806000815260200160008152602001600081525090565b828054828255906000526020600020908101928215612c7e579160200282015b82811115612c7d578251829080519060200190612c6d929190612cb4565b5091602001919060010190612c4f565b5b509050612c8b9190612d01565b5090565b612cb191905b80821115612cad576000816000905550600101612c95565b5090565b90565b828054828255906000526020600020908101928215612cf0579160200282015b82811115612cef578251825591602001919060010190612cd4565b5b509050612cfd9190612c8f565b5090565b612d2a91905b80821115612d265760008181612d1d9190612d2d565b50600101612d07565b5090565b90565b5080546000825590600052602060002090810190612d4b9190612c8f565b50565b600081519050612d5d8161406b565b92915050565b600082601f830112612d7457600080fd5b8135612d87612d8282613dc0565b613d93565b9150818183526020840193506020810190508360005b83811015612dcd5781358601612db38882612dd7565b845260208401935060208301925050600181019050612d9d565b5050505092915050565b600082601f830112612de857600080fd5b8135612dfb612df682613de8565b613d93565b91508181835260208401935060208101905083856020840282011115612e2057600080fd5b60005b83811015612e505781612e368882612faf565b845260208401935060208301925050600181019050612e23565b5050505092915050565b600082601f830112612e6b57600080fd5b8135612e7e612e7982613e10565b613d93565b91508181835260208401935060208101905083856020840282011115612ea357600080fd5b60005b83811015612ed35781612eb98882612faf565b845260208401935060208301925050600181019050612ea6565b5050505092915050565b600081359050612eec81614082565b92915050565b600081519050612f0181614082565b92915050565b600082601f830112612f1857600080fd5b8135612f2b612f2682613e38565b613d93565b91508082526020830160208301858383011115612f4757600080fd5b612f5283828461400b565b50505092915050565b600082601f830112612f6c57600080fd5b8135612f7f612f7a82613e64565b613d93565b91508082526020830160208301858383011115612f9b57600080fd5b612fa683828461400b565b50505092915050565b600081359050612fbe81614099565b92915050565b600081519050612fd381614099565b92915050565b600060208284031215612feb57600080fd5b6000612ff984828501612d4e565b91505092915050565b60006020828403121561301457600080fd5b600082013567ffffffffffffffff81111561302e57600080fd5b61303a84828501612d63565b91505092915050565b6000806040838503121561305657600080fd5b600083013567ffffffffffffffff81111561307057600080fd5b61307c85828601612d63565b925050602061308d85828601612faf565b9150509250929050565b6000602082840312156130a957600080fd5b600082013567ffffffffffffffff8111156130c357600080fd5b6130cf84828501612e5a565b91505092915050565b600080604083850312156130eb57600080fd5b600083013567ffffffffffffffff81111561310557600080fd5b61311185828601612e5a565b925050602083013567ffffffffffffffff81111561312e57600080fd5b61313a85828601612e5a565b9150509250929050565b6000806000806080858703121561315a57600080fd5b600085013567ffffffffffffffff81111561317457600080fd5b61318087828801612e5a565b945050602085013567ffffffffffffffff81111561319d57600080fd5b6131a987828801612e5a565b935050604085013567ffffffffffffffff8111156131c657600080fd5b6131d287828801612f5b565b92505060606131e387828801612faf565b91505092959194509250565b60006020828403121561320157600080fd5b600061320f84828501612ef2565b91505092915050565b6000806040838503121561322b57600080fd5b600061323985828601612edd565b925050602083013567ffffffffffffffff81111561325657600080fd5b61326285828601612f5b565b9150509250929050565b60008060006060848603121561328157600080fd5b600061328f86828701612edd565b935050602084013567ffffffffffffffff8111156132ac57600080fd5b6132b886828701612f5b565b925050604084013567ffffffffffffffff8111156132d557600080fd5b6132e186828701612f07565b9150509250925092565b6000602082840312156132fd57600080fd5b600061330b84828501612fc4565b91505092915050565b60006133208383613413565b905092915050565b60006133348383613a5c565b60208301905092915050565b600061334b82613ed5565b6133558185613f33565b93508360208202850161336785613e90565b8060005b858110156133a357848403895281516133848582613314565b945061338f83613f0c565b925060208a0199505060018101905061336b565b50829750879550505050505092915050565b60006133c082613eeb565b6133ca8185613f55565b93506133d583613eb0565b8060005b838110156134065781516133ed8882613328565b97506133f883613f26565b9250506001810190506133d9565b5085935050505092915050565b600061341e82613ee0565b6134288185613f44565b935061343383613ea0565b8060005b8381101561346457815161344b8882613328565b975061345683613f19565b925050600181019050613437565b5085935050505092915050565b61347a81613f94565b82525050565b61348981613fe7565b82525050565b61349881613ff9565b82525050565b60006134a982613f01565b6134b38185613f66565b93506134c381856020860161401a565b6134cc8161404d565b840191505092915050565b60006134e282613f01565b6134ec8185613f77565b93506134fc81856020860161401a565b80840191505092915050565b600061351382613ef6565b61351d8185613f66565b935061352d81856020860161401a565b6135368161404d565b840191505092915050565b60008154600181166000811461355e5760018114613584576135c8565b607f600283041661356f8187613f66565b955060ff1983168652602086019350506135c8565b600282046135928187613f66565b955061359d85613ec0565b60005b828110156135bf578154818901526001820191506020810190506135a0565b80880195505050505b505092915050565b6000815460018116600081146135ed576001811461361257613656565b607f60028304166135fe8187613f77565b955060ff1983168652808601935050613656565b600282046136208187613f77565b955061362b85613ec0565b60005b8281101561364d5781548189015260018201915060208101905061362e565b82880195505050505b505092915050565b600061366b601183613f66565b91507f4e6f206d61746368696e6720666f756e640000000000000000000000000000006000830152602082019050919050565b60006136ab603583613f66565b91507f50726f7661626c65207175657279207761732073656e742c207374616e64696e60008301527f6720627920666f722074686520616e737765722e2e00000000000000000000006020830152604082019050919050565b6000613711600883613f77565b91507f2666696c7465723d0000000000000000000000000000000000000000000000006000830152600882019050919050565b6000613751600883613f66565b91507f4d61746368696e670000000000000000000000000000000000000000000000006000830152602082019050919050565b6000613791604b83613f66565b91507f50726f7661626c6520717565727920776173204e4f542073656e742c20706c6560008301527f6173652061646420736f6d652045544820746f20636f76657220666f7220746860208301527f65207175657279206665650000000000000000000000000000000000000000006040830152606082019050919050565b600061381d600183613f77565b91507f2c000000000000000000000000000000000000000000000000000000000000006000830152600182019050919050565b600061385d600283613f77565b91507f5d2c0000000000000000000000000000000000000000000000000000000000006000830152600282019050919050565b600061389d600883613f77565b91507f26616c7068613d5b0000000000000000000000000000000000000000000000006000830152600882019050919050565b60006138dd600183613f77565b91507f5d000000000000000000000000000000000000000000000000000000000000006000830152600182019050919050565b600061391d604983613f66565b91507f436f6e7374727563746f722077617320696e697469617465642e2043616c6c2060008301527f27516f534f7261636c6528292720746f2073656e64207468652050726f76616260208301527f6c652051756572792e00000000000000000000000000000000000000000000006040830152606082019050919050565b60006139a9600083613f66565b9150600082019050919050565b60006139c3600283613f77565b91507f5d5d0000000000000000000000000000000000000000000000000000000000006000830152600282019050919050565b6000613a03602c83613f77565b91507f68747470733a2f2f716f736170692e6865726f6b756170702e636f6d2f61706960008301527f2f716f733f6d61747269783d00000000000000000000000000000000000000006020830152602c82019050919050565b613a6581613fdd565b82525050565b613a7481613fdd565b82525050565b6000613a8682866134d7565b9150613a9282856134d7565b9150613a9e82846134d7565b9150613aa982613850565b9150819050949350505050565b6000613ac282866134d7565b9150613ace82856134d7565b9150613ada82846134d7565b9150613ae5826139b6565b9150819050949350505050565b6000613afe82856134d7565b9150613b0a82846134d7565b9150613b1582613810565b91508190509392505050565b6000613b2d82856134d7565b9150613b3982846134d7565b9150613b44826138d0565b91508190509392505050565b6000613b5b826139f6565b9150613b6782866134d7565b9150613b7282613890565b9150613b7e82856135d0565b9150613b89826138d0565b9150613b9482613704565b9150613ba082846134d7565b9150819050949350505050565b60006020820190508181036000830152613bc78184613340565b905092915050565b60006020820190508181036000830152613be981846133b5565b905092915050565b6000602082019050613c066000830184613471565b92915050565b6000602082019050613c216000830184613480565b92915050565b6000606082019050613c3c600083018661348f565b8181036020830152613c4e818561349e565b90508181036040830152613c62818461349e565b9050949350505050565b60006020820190508181036000830152613c868184613508565b905092915050565b60006020820190508181036000830152613ca8818461349e565b905092915050565b60006040820190508181036000830152613cc98161365e565b90508181036020830152613cdc8161399c565b9050919050565b60006020820190508181036000830152613cfc8161369e565b9050919050565b60006040820190508181036000830152613d1c81613744565b90508181036020830152613d308184613541565b905092915050565b60006020820190508181036000830152613d5181613784565b9050919050565b60006020820190508181036000830152613d7181613910565b9050919050565b6000602082019050613d8d6000830184613a6b565b92915050565b6000604051905081810181811067ffffffffffffffff82111715613db657600080fd5b8060405250919050565b600067ffffffffffffffff821115613dd757600080fd5b602082029050602081019050919050565b600067ffffffffffffffff821115613dff57600080fd5b602082029050602081019050919050565b600067ffffffffffffffff821115613e2757600080fd5b602082029050602081019050919050565b600067ffffffffffffffff821115613e4f57600080fd5b601f19601f8301169050602081019050919050565b600067ffffffffffffffff821115613e7b57600080fd5b601f19601f8301169050602081019050919050565b6000819050602082019050919050565b6000819050602082019050919050565b6000819050602082019050919050565b60008190508160005260206000209050919050565b600081519050919050565b600081519050919050565b600081519050919050565b600081519050919050565b600081519050919050565b6000602082019050919050565b6000602082019050919050565b6000602082019050919050565b600082825260208201905092915050565b600082825260208201905092915050565b600082825260208201905092915050565b600082825260208201905092915050565b600081905092915050565b6000613f8d82613fbd565b9050919050565b60008115159050919050565b6000819050919050565b6000819050613fb88261405e565b919050565b600073ffffffffffffffffffffffffffffffffffffffff82169050919050565b6000819050919050565b6000613ff282613faa565b9050919050565b600061400482613fdd565b9050919050565b82818337600083830152505050565b60005b8381101561403857808201518184015260208101905061401d565b83811115614047576000848401525b50505050565b6000601f19601f8301169050919050565b6002811061406857fe5b50565b61407481613f82565b811461407f57600080fd5b50565b61408b81613fa0565b811461409657600080fd5b50565b6140a281613fdd565b81146140ad57600080fd5b5056fea365627a7a723158201b62ed02004bea7f5c66237eae87d3dbee578b98643cff7cb10a7294a7cd5c916c6578706572696d656e74616cf564736f6c63430005100040",
  "source": "pragma experimental ABIEncoderV2;\n\npragma solidity ^0.5.16;\n\n//import \"./Sort.sol\";\n\nimport \"./SafeMath.sol\";\n\n\nimport \"./ProvableAPI_0.5.sol\";\n\n//import \"github.com/provable-things/ethereum-api/provableAPI_0.5.sol\";\n\n\n/**\n * @title Elect\n * \n * \n * Smart contract to elect a profile based on a set of objective criteria, and a QoS. \n */\n\n\ncontract Elect is usingProvable {\n    // list of persons with attribute values:   \n    // [[id, startDay, startMonth, startYear, endDay, endMonth, endYear, equipment1, equipment2, equipment3 //pickup, distance]]\n    // pickup and delivery: *10E7, add a 'neg element' to string? (neg1 / neg2 --> and adapt calculus accordingly)\n    \n    //uint[][] candidates =[\n    //                        [1, 12,5,21, 13,5,21, 1,1,1],\n    //                        [2, 12,5,21, 15,5,21, 1,1,1],\n    //                        [3, 12,5,21, 16,5,21, 1,1,1],\n    //                        [4, 10,5,21, 14,5,21, 1,1,1],\n    //                        [5, 11,5,21, 14,5,21, 1,1,1]\n    //                    ];     \n    //uint[] filteringAttributes = [1,1,1];    // list of filtering attributes     \n    //uint[] availability = [12,1,21];\n    \n\n    uint[] filter;\n    \n    string filteredIds;\n    \n    enum AvailabiltyState{ONEDAY, SEVERALDAYS}\n    AvailabiltyState avState;\n\n    uint[] candidate;\n    uint[][] candidates = [[6,12,1,21,13,1,21,1,0,0,10,3],[6,12,1,21,13,1,21,1,0,0,10,3],[6,12,1,21,13,1,21,0,0,0,10,3]];\n\n    //uint[][] candidates;\n\n    bool hasCandidates = false;\n\n\n    uint[] normalized;\n    uint[][] normalizedArray;\n    uint[][] tmpNormalizedArray;\n    uint[] QoSList;\n    uint[] sortedQoSList;\n\n    uint QoS;\n    uint n;\n\n    //uint K=3; num params\n    string bestProfiles;\n\n    string alphas; \n\n    event BestCandidates(\n        string ExistCandidates,\n        string profiles  \n    );\n    \n    enum TestOutput{NO,YES}\n    TestOutput output;\n\n    struct Date { \n      uint day;\n      uint month;\n      uint year;\n   }\n\n   string public qosList_string;\n   event LogConstructorInitiated(string nextStep);\n   event LogQoSCompute(string qosList);\n   event LogNewProvableQuery(string description);\n\n    function () external payable {}\n\n    ///// Delegated services        \n    function getfilter() public view returns(uint[] memory){\n        return filter;\n    }\n\n    function existsCandidates() public view returns(bool){\n        return hasCandidates;\n    }\n\n    function setCandidates(uint[][] memory _candidates) public payable {\n        candidates = _candidates;\n    }\n\n    function getCandidates() public view returns(uint[][] memory){\n        return candidates;\n    }\n\n    function getAvailabiltyState() public view returns(AvailabiltyState){\n        return avState;\n    }\n\n    function getQoSList() public view returns(uint[] memory){\n        return QoSList;   \n    }\n\n    function getSortedQoS() public view returns(uint[] memory){\n        return sortedQoSList;   \n    }\n\n    function getNormalized() public view returns(uint[] memory){       \n        return normalized;\n    }\n\n    function getNormalizedArray() public view returns(uint[][] memory){\n        return normalizedArray;\n    }\n\n    function getQoS() public view returns (uint){\n        return QoS;\n    }\n\n    function getN() public view returns (uint){\n        // number of services realized\n        return n;\n    }\n\n    function getBestProfiles() public view returns (string memory){\n        return bestProfiles;\n    }\n\n\n\n    function oneDayAvailability(uint[] memory _person, uint[] memory _availability) public payable returns(uint){\n        \n        \n        Date memory ASDate = Date(_person[1],_person[2],_person[3]);  // available start\n        Date memory AEDate = Date(_person[4],_person[5],_person[6]); //available end\n\n        Date memory RSDate = Date(_availability[0],_availability[1],_availability[2]); // required start\n\n        output = TestOutput.YES;\n\n\n        if((RSDate.month==ASDate.month) && (RSDate.year==ASDate.year)){ // same month, same year\n            if((ASDate.day > RSDate.day)||(AEDate.day<RSDate.day)){ // person is booked\n                output = TestOutput.NO;\n                }\n            }\n        else if((RSDate.month!=ASDate.month) && (RSDate.year==ASDate.year)){ //same year, different month\n            if(!((ASDate.month < RSDate.month) && (ASDate.day < RSDate.day)) || (AEDate.month<RSDate.month)){ // person is booked\n                output = TestOutput.NO;\n            }\n        }\n        else{ //different year\n            if(!(RSDate.year>ASDate.year)||(AEDate.year<RSDate.year)){ // person is booked\n                output = TestOutput.NO;\n            }\n        }\n        return uint(output);\n    }\n\n\n    function severalDaysAvailability(uint[] memory _person, uint[] memory _availability) public payable returns(uint){\n        \n        Date memory ASDate = Date(_person[1],_person[2],_person[3]);  // available start\n        Date memory AEDate = Date(_person[4],_person[5],_person[6]); //available end\n\n        Date memory RSDate = Date(_availability[0],_availability[1],_availability[2]); // required start\n        Date memory REDate = Date(_availability[3],_availability[4],_availability[5]); // required end\n\n        output = TestOutput.YES;\n        \n        require(REDate.day>RSDate.day);\n\n        if((RSDate.month==ASDate.month) && (RSDate.year==ASDate.year) && (REDate.year==AEDate.year)){ // same start month, same year\n            if((ASDate.day > RSDate.day)||(AEDate.day<REDate.day)){ // person is booked\n                output = TestOutput.NO;\n                }\n        }\n        else if((RSDate.month!=ASDate.month) && (RSDate.year==ASDate.year) &&  (REDate.year==AEDate.year)){ //same year, different month\n            if(!((ASDate.month < RSDate.month) && (ASDate.day < RSDate.day)) || (AEDate.month<RSDate.month) || (AEDate.month<REDate.month)){ // person is booked\n                output = TestOutput.NO;                }\n            }\n        else{ //different year\n            if(!(RSDate.year>ASDate.year)||(AEDate.year<RSDate.year)||(AEDate.year<REDate.year)){ // person is booked\n                output = TestOutput.NO;            }\n        }\n        \n        return uint(output);\n    }\n    \n    ///// Provable test\n\n    function ProvableContract() public payable {\n        OAR = OracleAddrResolverI(0x6f485C8BF6fc43eA212E93BBF8ce046C7f1cb475);\n        emit LogConstructorInitiated(\"Constructor was initiated. Call 'QoSOracle()' to send the Provable Query.\");\n    }\n\n    function __callback(bytes32 myid, string memory result) public {\n        if (msg.sender != provable_cbAddress()) revert();\n        \n        bestProfiles=result;\n\n        //emit LogQoSCompute(result);\n\n        //// get best profiles        \n        //bestProfileIndexes.length=0;\n\n        //QoSList.length=0;\n        //for (uint i=0;i<input.length;i++){\n        //    uint _QoS = SafeMath.mul(filter[i], input[i]);            \n        //    QoSList.push(_QoS);\n        //}\n\n        // get n best ones\n        //uint[] memory tmpList = new uint[](QoSList.length);\n        //for (uint i=0;i<QoSList.length;i++){\n        //    tmpList[i] = QoSList[i];\n        //}\n\n        //for(uint j=0;j<K;j++){\n        //    uint _QoS = tmpList[0];        \n        //    uint _index = 0;\n\n        //    for (uint i=0;i<QoSList.length;i++){\n        //        if(tmpList[i]>_QoS){\n        //            _QoS=tmpList[i];\n        //            _index = i;\n        //        }\n        //    }\n        //    bestProfileIndexes.push([_index,_QoS]);\n        //    tmpList[_index]=0;\n        //}\n\n        // emit event\n        emit BestCandidates(\n            'Matching',\n            bestProfiles\n        );\n\n\n    }\n\n    //event ToString(string result);\n\n\n    function list2string(uint[] memory list) public payable returns(string memory) {\n             \n                string memory str_list = \"[\";\n                for(uint j=0;j<list.length-1;j++){    \n                    str_list = string(abi.encodePacked(str_list, uint2str(list[j]), \",\"));\n                }\n                str_list = string(abi.encodePacked(str_list,uint2str(list[list.length-1]), \"]\"));\n                //emit ToString(str_list);\n                return str_list;\n    }\n\n\n    function uintarrays2string(uint[][] memory array, uint num_param) public payable returns(string memory) {\n                string memory str_matrix = \"[\";\n\n                uint ind_param = array.length - num_param;\n\n                for(uint i=0;i<array.length-1;i++){ // for each candidate, compute str \n\n                    uint[] memory cdd = array[i];\n                    string memory str_cdd = \"[\";\n\n                    for(uint j=ind_param;j<array[0].length-1;j++){    \n                        str_cdd = string(abi.encodePacked(str_cdd, uint2str(cdd[j]), \",\"));\n                    }\n                    str_matrix = string(abi.encodePacked(str_matrix, str_cdd, uint2str(cdd[array[0].length-1]), \"],\"));\n\n                }\n\n                uint[] memory cdd = array[array.length-1];\n                string memory str_cdd = \"[\";\n                for(uint j=ind_param;j<array[0].length-1;j++){    \n                    str_cdd = string(abi.encodePacked(str_cdd, uint2str(cdd[j]), \",\"));\n                }\n                str_matrix = string(abi.encodePacked(str_matrix, str_cdd, uint2str(cdd[array[0].length-1]), \"]]\"));\n            \n                //emit ToString(str_matrix);\n                \n                return str_matrix;\n\n    }\n\n    //////// main\n\n    function elect(uint[] memory filteringAttributes, uint[] memory availability, string memory _alphas, uint num_alphas) public payable{\n        hasCandidates=false; // reset\n\n        alphas =_alphas;\n\n        // proceed to filtering\n        uint[] memory _filter = new uint[](candidates.length);\n        // reinitialize list of candidates\n        for(uint i=0; i<candidates.length;i++){\n            _filter[i]=0;\n        }\n\n        for(uint ind=0; ind<candidates.length; ind++){ // test all candidates\n            candidate.length = 0;\n\n            candidate = candidates[ind];\n            \n            bool testOutput = true;\n\n            // filter on  attributes\n            uint index=0;\n\n            uint filterMaxInd = 7 + filteringAttributes.length;\n\n            for(uint id_att=7; id_att<filterMaxInd; id_att++){\n                if((filteringAttributes[index]==1) && (candidate[id_att]!=1)){\n                        testOutput=false;\n                }\n                index++;\n            }\n\n            //filter on availability\n\n            if(testOutput){\n                if((availability.length==3)||\n                    ((availability[0]==availability[3])&&(availability[1]==availability[4])&&(availability[2]==availability[5]))){ // ask for a day booking\n                    avState = AvailabiltyState.ONEDAY;\n                    _filter[ind]=oneDayAvailability(candidate, availability);\n                }\n                else{ \n                    //availability.length==6, ask for a several-days booking \n                    avState = AvailabiltyState.SEVERALDAYS;\n                    _filter[ind]=severalDaysAvailability(candidate, availability);\n                }\n\n                if(_filter[ind] == 1){\n                    hasCandidates=true;\n                }\n            }\n        }\n        \n        filter = _filter;\n        \n        if(hasCandidates){\n            /// compute qos via oracle\n            if (provable_getPrice(\"URL\") > address(this).balance) {\n                emit LogNewProvableQuery(\"Provable query was NOT sent, please add some ETH to cover for the query fee\");\n            } else {\n                emit LogNewProvableQuery(\"Provable query was sent, standing by for the answer..\");\n                string memory str_matrix = uintarrays2string(candidates,num_alphas);\n                string memory str_filter = list2string(filter);\n                string memory url= string(abi.encodePacked(\"https://qosapi.herokuapp.com/api/qos?matrix=\", str_matrix, \"&alpha=[\", alphas,\"]\", \"&filter=\", str_filter));\n                provable_query(\"URL\",url);\n            }\n        }\n\n        else{\n            emit BestCandidates('No matching found', '');\n        }\n    }\n    \n    // delivery update\n    //function updateQoS(uint input) public payable returns (uint){\n    //    n = n+1;\n    //    uint mulFact = 100; // avoid floating points\n\n    //    if(n==1){\n    //        QoS = input;\n    //    }\n    //    else{\n    //    uint K = div(mul(2,mulFact),n); \n    //    uint newQoS = mul(K, input) + mul(mulFact,QoS) - mul(K, QoS);\n        \n    //    QoS = div(newQoS, 100);\n    //    }\n        \n    //    return QoS;\n    //}\n    //////// QoS calculation\n\n\n    // function normalize(uint[] memory input, uint mulfactor) public payable returns(uint[] memory){\n    //    normalized.length=0; \n                \n        //get largest\n    //    uint256 largest = 0; \n    //    for(uint i = 0; i < input.length; i++){\n    //        if(input[i] > largest) {\n    //            largest = input[i]; \n    //        } \n    //    }\n                \n                \n        //get smallest            uint  = 0;\n            \n    //        if(filter[i]==1){\n    //            for (uint j=0; j<input[0].length; j++){\n    //                    _QoS = _QoS + SafeMath.mul(alphas[i], input[i][j]);\n    //                }\n    //            _QoS = SafeMath.div(_QoS,numParams);\n    //        }\n\n    //    uint256 smallest = 0; \n    //    for(uint i = 0; i < input.length; i++){\n    //        if(input[i] < smallest) {\n    //            smallest = input[i]; \n    //        } \n    //    }\n                \n        // normalize                \n    //    for (uint j=0; j<input.length;j++){\n            \n    //        normalized.push(SafeMath.div(SafeMath.mul(mulfactor,SafeMath.sub(input[j],smallest)),SafeMath.sub(largest,smallest)));\n    //    }\n                \n    //    return normalized;\n    // }\n\n    \n    \n}",
  "sourcePath": "/home/vtlr2002/source/smart-logistics/contracts/Elect.sol",
  "compiler": {
    "name": "solc",
    "version": "0.5.16+commit.9c3226ce.Emscripten.clang"
  },
  "schemaVersion": "3.2.4",
  "updatedAt": "2021-01-08T11:40:42.427Z",
  "networkType": "ethereum",
  "devdoc": {
    "methods": {},
    "title": "Elect  *  Smart contract to elect a profile based on a set of objective criteria, and a QoS. "
  },
  "userdoc": {
    "methods": {
      "ProvableContract()": {
        "notice": "// Provable test"
      },
      "elect(uint256[],uint256[],string,uint256)": {
        "notice": "///// main"
      },
      "getfilter()": {
        "notice": "// Delegated services        "
      }
    }
  }
}