{
  "contractName": "ElectOptim",
  "abi": [
    {
      "anonymous": false,
      "inputs": [
        {
          "indexed": false,
          "internalType": "string",
          "name": "ExistCandidates",
          "type": "string"
        },
        {
          "indexed": false,
          "internalType": "string",
          "name": "profiles",
          "type": "string"
        }
      ],
      "name": "BestCandidates",
      "type": "event"
    },
    {
      "anonymous": false,
      "inputs": [
        {
          "indexed": false,
          "internalType": "string",
          "name": "nextStep",
          "type": "string"
        }
      ],
      "name": "LogConstructorInitiated",
      "type": "event"
    },
    {
      "anonymous": false,
      "inputs": [
        {
          "indexed": false,
          "internalType": "string",
          "name": "description",
          "type": "string"
        }
      ],
      "name": "LogNewProvableQuery",
      "type": "event"
    },
    {
      "anonymous": false,
      "inputs": [
        {
          "indexed": false,
          "internalType": "string",
          "name": "qosList",
          "type": "string"
        }
      ],
      "name": "LogQoSCompute",
      "type": "event"
    },
    {
      "constant": false,
      "inputs": [],
      "name": "test",
      "outputs": [],
      "payable": false,
      "stateMutability": "nonpayable",
      "type": "function"
    },
    {
      "constant": true,
      "inputs": [],
      "name": "getfilter",
      "outputs": [
        {
          "internalType": "uint256[]",
          "name": "",
          "type": "uint256[]"
        }
      ],
      "payable": false,
      "stateMutability": "view",
      "type": "function"
    },
    {
      "constant": false,
      "inputs": [
        {
          "components": [
            {
              "internalType": "uint256",
              "name": "day",
              "type": "uint256"
            },
            {
              "internalType": "uint256",
              "name": "month",
              "type": "uint256"
            },
            {
              "internalType": "uint256",
              "name": "year",
              "type": "uint256"
            }
          ],
          "internalType": "struct ElectOptim.Date",
          "name": "ASDate",
          "type": "tuple"
        },
        {
          "components": [
            {
              "internalType": "uint256",
              "name": "day",
              "type": "uint256"
            },
            {
              "internalType": "uint256",
              "name": "month",
              "type": "uint256"
            },
            {
              "internalType": "uint256",
              "name": "year",
              "type": "uint256"
            }
          ],
          "internalType": "struct ElectOptim.Date",
          "name": "AEDate",
          "type": "tuple"
        },
        {
          "internalType": "uint256[]",
          "name": "_availability",
          "type": "uint256[]"
        }
      ],
      "name": "oneDayAvailability",
      "outputs": [
        {
          "internalType": "uint256",
          "name": "",
          "type": "uint256"
        }
      ],
      "payable": true,
      "stateMutability": "payable",
      "type": "function"
    },
    {
      "constant": false,
      "inputs": [
        {
          "components": [
            {
              "internalType": "uint256",
              "name": "day",
              "type": "uint256"
            },
            {
              "internalType": "uint256",
              "name": "month",
              "type": "uint256"
            },
            {
              "internalType": "uint256",
              "name": "year",
              "type": "uint256"
            }
          ],
          "internalType": "struct ElectOptim.Date",
          "name": "ASDate",
          "type": "tuple"
        },
        {
          "components": [
            {
              "internalType": "uint256",
              "name": "day",
              "type": "uint256"
            },
            {
              "internalType": "uint256",
              "name": "month",
              "type": "uint256"
            },
            {
              "internalType": "uint256",
              "name": "year",
              "type": "uint256"
            }
          ],
          "internalType": "struct ElectOptim.Date",
          "name": "AEDate",
          "type": "tuple"
        },
        {
          "internalType": "uint256[]",
          "name": "_availability",
          "type": "uint256[]"
        }
      ],
      "name": "severalDaysAvailability",
      "outputs": [
        {
          "internalType": "uint256",
          "name": "",
          "type": "uint256"
        }
      ],
      "payable": true,
      "stateMutability": "payable",
      "type": "function"
    },
    {
      "constant": false,
      "inputs": [
        {
          "internalType": "uint256[]",
          "name": "attributes",
          "type": "uint256[]"
        },
        {
          "internalType": "uint256[]",
          "name": "availability",
          "type": "uint256[]"
        }
      ],
      "name": "filterScan",
      "outputs": [
        {
          "internalType": "uint256[]",
          "name": "",
          "type": "uint256[]"
        }
      ],
      "payable": true,
      "stateMutability": "payable",
      "type": "function"
    },
    {
      "constant": false,
      "inputs": [
        {
          "internalType": "uint256[]",
          "name": "list",
          "type": "uint256[]"
        }
      ],
      "name": "list2string",
      "outputs": [
        {
          "internalType": "string",
          "name": "",
          "type": "string"
        }
      ],
      "payable": true,
      "stateMutability": "payable",
      "type": "function"
    },
    {
      "constant": false,
      "inputs": [
        {
          "internalType": "uint256",
          "name": "num_param",
          "type": "uint256"
        }
      ],
      "name": "computeOptim2Str",
      "outputs": [
        {
          "internalType": "string",
          "name": "",
          "type": "string"
        }
      ],
      "payable": true,
      "stateMutability": "payable",
      "type": "function"
    },
    {
      "constant": false,
      "inputs": [
        {
          "internalType": "bytes32",
          "name": "myid",
          "type": "bytes32"
        },
        {
          "internalType": "string",
          "name": "result",
          "type": "string"
        }
      ],
      "name": "__callback",
      "outputs": [],
      "payable": false,
      "stateMutability": "nonpayable",
      "type": "function"
    },
    {
      "constant": false,
      "inputs": [
        {
          "internalType": "uint256[]",
          "name": "attributes",
          "type": "uint256[]"
        },
        {
          "internalType": "uint256[]",
          "name": "availability",
          "type": "uint256[]"
        },
        {
          "internalType": "string",
          "name": "alphas",
          "type": "string"
        },
        {
          "internalType": "uint256",
          "name": "num_alphas",
          "type": "uint256"
        }
      ],
      "name": "sort",
      "outputs": [],
      "payable": true,
      "stateMutability": "payable",
      "type": "function"
    }
  ],
  "bytecode": "0x60806040526000600260016101000a81548160ff0219169083151502179055506040518060600160405280600c8152602001600681526020016015815250600560008201518160000155602082015181600101556040820151816002015550506040518060600160405280600d8152602001600681526020016015815250600860008201518160000155602082015181600101556040820151816002015550506040518060600160405280600c8152602001600881526020016015815250600b60008201518160000155602082015181600101556040820151816002015550506040518060600160405280600060ff168152602001600060ff168152602001600060ff16815250600e90600362000118929190620018d7565b506040518060600160405280600060ff168152602001600060ff168152602001600160ff16815250600f90600362000152929190620018d7565b506040518060600160405280600060ff168152602001600160ff168152602001600160ff1681525060109060036200018c929190620018d7565b506040518060600160405280600160ff168152602001600160ff168152602001600160ff168152506011906003620001c6929190620018d7565b506040518060600160405280600160ff168152602001600060ff168152602001600060ff16815250601290600362000200929190620018d7565b506040518060600160405280600160ff168152602001600160ff168152602001600060ff1681525060139060036200023a929190620018d7565b506040518060400160405280600a60ff168152602001600560ff1681525060149060026200026a9291906200192e565b506040518060400160405280600260ff168152602001600860ff1681525060159060026200029a9291906200192e565b506040518060400160405280600060ff168152602001600160ff168152506016906002620002ca9291906200192e565b506040518060400160405280600a60ff168152602001600960ff168152506017906002620002fa9291906200192e565b506040518060400160405280600860ff168152602001600960ff1681525060189060026200032a9291906200192e565b506040518060400160405280600660ff168152602001600460ff1681525060199060026200035a9291906200192e565b506040518060a00160405280731ed034135e576a6c1bf3ee8e05aadeef24d4a81973ffffffffffffffffffffffffffffffffffffffff168152602001600560405180606001604052908160008201548152602001600182015481526020016002820154815250508152602001600560405180606001604052908160008201548152602001600182015481526020016002820154815250508152602001600e8054806020026020016040519081016040528092919081815260200182805480156200044457602002820191906000526020600020905b8154815260200190600101908083116200042f575b5050505050815260200160148054806020026020016040519081016040528092919081815260200182805480156200049c57602002820191906000526020600020905b81548152602001906001019080831162000487575b5050505050815250601a60008201518160000160006101000a81548173ffffffffffffffffffffffffffffffffffffffff021916908373ffffffffffffffffffffffffffffffffffffffff1602179055506020820151816001016000820151816000015560208201518160010155604082015181600201555050604082015181600401600082015181600001556020820151816001015560408201518160020155505060608201518160070190805190602001906200055d92919062001985565b5060808201518160080190805190602001906200057c92919062001985565b5050506040518060a00160405280735afbdd0e5de3315a96504c06ac49bf34b5ecacb573ffffffffffffffffffffffffffffffffffffffff168152602001600560405180606001604052908160008201548152602001600182015481526020016002820154815250508152602001600b60405180606001604052908160008201548152602001600182015481526020016002820154815250508152602001600f8054806020026020016040519081016040528092919081815260200182805480156200066857602002820191906000526020600020905b81548152602001906001019080831162000653575b505050505081526020016015805480602002602001604051908101604052809291908181526020018280548015620006c057602002820191906000526020600020905b815481526020019060010190808311620006ab575b5050505050815250602360008201518160000160006101000a81548173ffffffffffffffffffffffffffffffffffffffff021916908373ffffffffffffffffffffffffffffffffffffffff1602179055506020820151816001016000820151816000015560208201518160010155604082015181600201555050604082015181600401600082015181600001556020820151816001015560408201518160020155505060608201518160070190805190602001906200078192919062001985565b506080820151816008019080519060200190620007a092919062001985565b5050506040518060a0016040528073c9f167b5056b03eb29963ab8e6f78bb12cf5ba1773ffffffffffffffffffffffffffffffffffffffff16815260200160056040518060600160405290816000820154815260200160018201548152602001600282015481525050815260200160086040518060600160405290816000820154815260200160018201548152602001600282015481525050815260200160108054806020026020016040519081016040528092919081815260200182805480156200088c57602002820191906000526020600020905b81548152602001906001019080831162000877575b505050505081526020016016805480602002602001604051908101604052809291908181526020018280548015620008e457602002820191906000526020600020905b815481526020019060010190808311620008cf575b5050505050815250602c60008201518160000160006101000a81548173ffffffffffffffffffffffffffffffffffffffff021916908373ffffffffffffffffffffffffffffffffffffffff160217905550602082015181600101600082015181600001556020820151816001015560408201518160020155505060408201518160040160008201518160000155602082015181600101556040820151816002015550506060820151816007019080519060200190620009a592919062001985565b506080820151816008019080519060200190620009c492919062001985565b5050506040518060a00160405280732a706c6006e33610d92ea2a440cc99d5b58353e173ffffffffffffffffffffffffffffffffffffffff168152602001600560405180606001604052908160008201548152602001600182015481526020016002820154815250508152602001600560405180606001604052908160008201548152602001600182015481526020016002820154815250508152602001601180548060200260200160405190810160405280929190818152602001828054801562000ab057602002820191906000526020600020905b81548152602001906001019080831162000a9b575b50505050508152602001601780548060200260200160405190810160405280929190818152602001828054801562000b0857602002820191906000526020600020905b81548152602001906001019080831162000af3575b5050505050815250603560008201518160000160006101000a81548173ffffffffffffffffffffffffffffffffffffffff021916908373ffffffffffffffffffffffffffffffffffffffff16021790555060208201518160010160008201518160000155602082015181600101556040820151816002015550506040820151816004016000820151816000015560208201518160010155604082015181600201555050606082015181600701908051906020019062000bc992919062001985565b50608082015181600801908051906020019062000be892919062001985565b5050506040518060a0016040528073bb4599dfee75ad4aea70048b8b1023543b5293f073ffffffffffffffffffffffffffffffffffffffff168152602001600860405180606001604052908160008201548152602001600182015481526020016002820154815250508152602001600860405180606001604052908160008201548152602001600182015481526020016002820154815250508152602001601280548060200260200160405190810160405280929190818152602001828054801562000cd457602002820191906000526020600020905b81548152602001906001019080831162000cbf575b50505050508152602001601880548060200260200160405190810160405280929190818152602001828054801562000d2c57602002820191906000526020600020905b81548152602001906001019080831162000d17575b5050505050815250603e60008201518160000160006101000a81548173ffffffffffffffffffffffffffffffffffffffff021916908373ffffffffffffffffffffffffffffffffffffffff16021790555060208201518160010160008201518160000155602082015181600101556040820151816002015550506040820151816004016000820151816000015560208201518160010155604082015181600201555050606082015181600701908051906020019062000ded92919062001985565b50608082015181600801908051906020019062000e0c92919062001985565b5050506040518060a0016040528073c8f9bfa65b300f7fe952d1f690c1a77900103ccf73ffffffffffffffffffffffffffffffffffffffff168152602001600560405180606001604052908160008201548152602001600182015481526020016002820154815250508152602001600860405180606001604052908160008201548152602001600182015481526020016002820154815250508152602001601380548060200260200160405190810160405280929190818152602001828054801562000ef857602002820191906000526020600020905b81548152602001906001019080831162000ee3575b50505050508152602001601980548060200260200160405190810160405280929190818152602001828054801562000f5057602002820191906000526020600020905b81548152602001906001019080831162000f3b575b5050505050815250604760008201518160000160006101000a81548173ffffffffffffffffffffffffffffffffffffffff021916908373ffffffffffffffffffffffffffffffffffffffff1602179055506020820151816001016000820151816000015560208201518160010155604082015181600201555050604082015181600401600082015181600001556020820151816001015560408201518160020155505060608201518160070190805190602001906200101192919062001985565b5060808201518160080190805190602001906200103092919062001985565b5050506040518060a00160405280737eb6c31971392503f3e6cdb21deab903216a408c73ffffffffffffffffffffffffffffffffffffffff168152602001600b60405180606001604052908160008201548152602001600182015481526020016002820154815250508152602001600b6040518060600160405290816000820154815260200160018201548152602001600282015481525050815260200160128054806020026020016040519081016040528092919081815260200182805480156200111c57602002820191906000526020600020905b81548152602001906001019080831162001107575b5050505050815260200160188054806020026020016040519081016040528092919081815260200182805480156200117457602002820191906000526020600020905b8154815260200190600101908083116200115f575b5050505050815250605060008201518160000160006101000a81548173ffffffffffffffffffffffffffffffffffffffff021916908373ffffffffffffffffffffffffffffffffffffffff1602179055506020820151816001016000820151816000015560208201518160010155604082015181600201555050604082015181600401600082015181600001556020820151816001015560408201518160020155505060608201518160070190805190602001906200123592919062001985565b5060808201518160080190805190602001906200125492919062001985565b5050506040518060a0016040528073414ad21d20cac5940c6a59f422a237247a0e095f73ffffffffffffffffffffffffffffffffffffffff16815260200160056040518060600160405290816000820154815260200160018201548152602001600282015481525050815260200160086040518060600160405290816000820154815260200160018201548152602001600282015481525050815260200160118054806020026020016040519081016040528092919081815260200182805480156200134057602002820191906000526020600020905b8154815260200190600101908083116200132b575b5050505050815260200160178054806020026020016040519081016040528092919081815260200182805480156200139857602002820191906000526020600020905b81548152602001906001019080831162001383575b5050505050815250605960008201518160000160006101000a81548173ffffffffffffffffffffffffffffffffffffffff021916908373ffffffffffffffffffffffffffffffffffffffff1602179055506020820151816001016000820151816000015560208201518160010155604082015181600201555050604082015181600401600082015181600001556020820151816001015560408201518160020155505060608201518160070190805190602001906200145992919062001985565b5060808201518160080190805190602001906200147892919062001985565b5050506040518060a001604052807306730390c9f64b01e92e4653617671ec060eca2473ffffffffffffffffffffffffffffffffffffffff16815260200160056040518060600160405290816000820154815260200160018201548152602001600282015481525050815260200160086040518060600160405290816000820154815260200160018201548152602001600282015481525050815260200160108054806020026020016040519081016040528092919081815260200182805480156200156457602002820191906000526020600020905b8154815260200190600101908083116200154f575b505050505081526020016016805480602002602001604051908101604052809291908181526020018280548015620015bc57602002820191906000526020600020905b815481526020019060010190808311620015a7575b5050505050815250606260008201518160000160006101000a81548173ffffffffffffffffffffffffffffffffffffffff021916908373ffffffffffffffffffffffffffffffffffffffff1602179055506020820151816001016000820151816000015560208201518160010155604082015181600201555050604082015181600401600082015181600001556020820151816001015560408201518160020155505060608201518160070190805190602001906200167d92919062001985565b5060808201518160080190805190602001906200169c92919062001985565b5050506040518060a001604052807381c4ddfc31001aefae5cc1ea396fa5138cbaa42b73ffffffffffffffffffffffffffffffffffffffff168152602001600560405180606001604052908160008201548152602001600182015481526020016002820154815250508152602001600b60405180606001604052908160008201548152602001600182015481526020016002820154815250508152602001600f8054806020026020016040519081016040528092919081815260200182805480156200178857602002820191906000526020600020905b81548152602001906001019080831162001773575b505050505081526020016015805480602002602001604051908101604052809291908181526020018280548015620017e057602002820191906000526020600020905b815481526020019060010190808311620017cb575b5050505050815250606b60008201518160000160006101000a81548173ffffffffffffffffffffffffffffffffffffffff021916908373ffffffffffffffffffffffffffffffffffffffff160217905550602082015181600101600082015181600001556020820151816001015560408201518160020155505060408201518160040160008201518160000155602082015181600101556040820151816002015550506060820151816007019080519060200190620018a192919062001985565b506080820151816008019080519060200190620018c092919062001985565b505050348015620018d057600080fd5b50620019ff565b8280548282559060005260206000209081019282156200191b579160200282015b828111156200191a578251829060ff16905591602001919060010190620018f8565b5b5090506200192a9190620019d7565b5090565b82805482825590600052602060002090810192821562001972579160200282015b8281111562001971578251829060ff169055916020019190600101906200194f565b5b509050620019819190620019d7565b5090565b828054828255906000526020600020908101928215620019c4579160200282015b82811115620019c3578251825591602001919060010190620019a6565b5b509050620019d39190620019d7565b5090565b620019fc91905b80821115620019f8576000816000905550600101620019de565b5090565b90565b611d888062001a0f6000396000f3fe6080604052600436106100855760003560e01c806363d8e6021161005957806363d8e60214610143578063bca9469f1461015f578063dd0a8d801461018a578063e3f95b60146101ba578063f8a8fd6d146101ea57610085565b80626a9dc51461008a578063114412eb146100ba57806327dc297e146100ea5780633e30bc3a14610113575b600080fd5b6100a4600480360361009f91908101906115fc565b610201565b6040516100b19190611af5565b60405180910390f35b6100d460048036036100cf91908101906113e9565b6103c9565b6040516100e19190611af5565b60405180910390f35b3480156100f657600080fd5b50610111600480360361010c9190810190611541565b6104af565b005b61012d60048036036101289190810190611595565b610502565b60405161013a9190611b9f565b60405180910390f35b61015d60048036036101589190810190611496565b6106eb565b005b34801561016b57600080fd5b5061017461082b565b6040516101819190611ad3565b60405180910390f35b6101a4600480360361019f9190810190611595565b610883565b6040516101b19190611b9f565b60405180910390f35b6101d460048036036101cf919081019061142a565b610b2c565b6040516101e19190611ad3565b60405180910390f35b3480156101f657600080fd5b506101ff610f12565b005b6060806040518060400160405280600181526020017f5b0000000000000000000000000000000000000000000000000000000000000081525090506000607460008154811061024c57fe5b906000526020600020906009020160080180549050905060008090505b60016074805490500381101561031e57826102ef6074838154811061028a57fe5b90600052602060002090600902016008018054806020026020016040519081016040528092919081815260200182805480156102e557602002820191906000526020600020905b8154815260200190600101908083116102d1575b50505050506103c9565b604051602001610300929190611a18565b60405160208183030381529060405292508080600101915050610269565b508161039d60746001607480549050038154811061033857fe5b906000526020600020906009020160080180548060200260200160405190810160405280929190818152602001828054801561039357602002820191906000526020600020905b81548152602001906001019080831161037f575b50505050506103c9565b6040516020016103ae929190611a47565b60405160208183030381529060405291508192505050919050565b6060806040518060400160405280600181526020017f5b00000000000000000000000000000000000000000000000000000000000000815250905060008090505b6001845103811015610462578161043385838151811061042657fe5b6020026020010151610f51565b604051602001610444929190611a18565b6040516020818303038152906040529150808060010191505061040a565b50806104848460018651038151811061047757fe5b6020026020010151610f51565b604051602001610495929190611a47565b604051602081830303815290604052905080915050919050565b80600390805190602001906104c592919061107e565b507f9f3fc85979cf17a36a28923dfa3b22fcb290f7e0f531b636246326126006c91d60036040516104f69190611b6a565b60405180910390a15050565b600061050c6110fe565b60405180606001604052808460008151811061052457fe5b602002602001015181526020018460018151811061053e57fe5b602002602001015181526020018460028151811061055857fe5b602002602001015181525090506001600460006101000a81548160ff0219169083600181111561058457fe5b0217905550846020015181602001511480156105a7575084604001518160400151145b156105f8578060000151856000015111806105c9575080600001518460000151105b156105f3576000600460006101000a81548160ff021916908360018111156105ed57fe5b02179055505b6106c6565b8460200151816020015114158015610617575084604001518160400151145b1561067c578060200151856020015110801561063a575080600001518560000151105b158061064d575080602001518460200151105b15610677576000600460006101000a81548160ff0219169083600181111561067157fe5b02179055505b6106c5565b8460400151816040015111158061069a575080604001518460400151105b156106c4576000600460006101000a81548160ff021916908360018111156106be57fe5b02179055505b5b5b600460009054906101000a900460ff1660018111156106e157fe5b9150509392505050565b6106f58484610b2c565b6000908051906020019061070a92919061111f565b50600260019054906101000a900460ff16156107ef577fc4dc360d0a9c0677a3379ae0a3d81e887f761e65fdf3d7e00859d1bcd3c4738960405161074d90611b4a565b60405180910390a1606061076082610201565b905060606107bd60008054806020026020016040519081016040528092919081815260200182805480156107b357602002820191906000526020600020905b81548152602001906001019080831161079f575b50505050506103c9565b905060608285836040516020016107d693929190611a76565b6040516020818303038152906040529050505050610825565b7f9f3fc85979cf17a36a28923dfa3b22fcb290f7e0f531b636246326126006c91d60405161081c90611b17565b60405180910390a15b50505050565b6060600080548060200260200160405190810160405280929190818152602001828054801561087957602002820191906000526020600020905b815481526020019060010190808311610865575b5050505050905090565b600061088d6110fe565b6040518060600160405280846000815181106108a557fe5b60200260200101518152602001846001815181106108bf57fe5b60200260200101518152602001846002815181106108d957fe5b602002602001015181525090506108ee6110fe565b60405180606001604052808560038151811061090657fe5b602002602001015181526020018560048151811061092057fe5b602002602001015181526020018560058151811061093a57fe5b602002602001015181525090506001600460006101000a81548160ff0219169083600181111561096657fe5b0217905550816000015181600001511161097f57600080fd5b8560200151826020015114801561099d575085604001518260400151145b80156109b0575084604001518160400151145b15610a01578160000151866000015111806109d2575080600001518560000151105b156109fc576000600460006101000a81548160ff021916908360018111156109f657fe5b02179055505b610b06565b8560200151826020015114158015610a20575085604001518260400151145b8015610a33575084604001518160400151145b15610aaa5781602001518660200151108015610a56575081600001518660000151105b1580610a69575081602001518560200151105b80610a7b575080602001518560200151105b15610aa5576000600460006101000a81548160ff02191690836001811115610a9f57fe5b02179055505b610b05565b85604001518260400151111580610ac8575081604001518560400151105b80610ada575080604001518560400151105b15610b04576000600460006101000a81548160ff02191690836001811115610afe57fe5b02179055505b5b5b600460009054906101000a900460ff166001811115610b2157fe5b925050509392505050565b606080607480549050604051908082528060200260200182016040528015610b635781602001602082028038833980820191505090505b50905060008090505b607480549050811015610ba0576000828281518110610b8757fe5b6020026020010181815250508080600101915050610b6c565b506000600260016101000a81548160ff02191690831515021790555060008090505b607480549050811015610ea057600060748281548110610bde57fe5b90600052602060002090600902019050600060019050600080905060008851905060008090505b81811015610c695760018a8481518110610c1b57fe5b6020026020010151148015610c4a57506001856007018281548110610c3c57fe5b906000526020600020015414155b15610c5457600093505b82806001019350508080600101915050610c05565b508215610e8f57600388511480610d0d575087600381518110610c8857fe5b602002602001015188600081518110610c9d57fe5b6020026020010151148015610cd9575087600481518110610cba57fe5b602002602001015188600181518110610ccf57fe5b6020026020010151145b8015610d0c575087600581518110610ced57fe5b602002602001015188600281518110610d0257fe5b6020026020010151145b5b15610db6576000600260006101000a81548160ff02191690836001811115610d3157fe5b0217905550610d998460010160405180606001604052908160008201548152602001600182015481526020016002820154815250508560040160405180606001604052908160008201548152602001600182015481526020016002820154815250508a610502565b868681518110610da557fe5b602002602001018181525050610e56565b6001600260006101000a81548160ff02191690836001811115610dd557fe5b0217905550610e3d8460010160405180606001604052908160008201548152602001600182015481526020016002820154815250508560040160405180606001604052908160008201548152602001600182015481526020016002820154815250508a610883565b868681518110610e4957fe5b6020026020010181815250505b6001868681518110610e6457fe5b60200260200101511415610e8e576001600260016101000a81548160ff0219169083151502179055505b5b505050508080600101915050610bc2565b508060009080519060200190610eb792919061111f565b506000805480602002602001604051908101604052809291908181526020018280548015610f0457602002820191906000526020600020905b815481526020019060010190808311610ef0575b505050505091505092915050565b60748054809190600101610f26919061116c565b506000607460016074805490500381548110610f3e57fe5b9060005260206000209060090201905050565b60606000821415610f99576040518060400160405280600181526020017f30000000000000000000000000000000000000000000000000000000000000008152509050611079565b600082905060005b60008214610fc3578080600101915050600a8281610fbb57fe5b049150610fa1565b6060816040519080825280601f01601f191660200182016040528015610ff85781602001600182028038833980820191505090505b50905060006001830390505b6000861461107157600a868161101657fe5b0660300160f81b8282806001900393508151811061103057fe5b60200101907effffffffffffffffffffffffffffffffffffffffffffffffffffffffffffff1916908160001a905350600a868161106957fe5b049550611004565b819450505050505b919050565b828054600181600116156101000203166002900490600052602060002090601f016020900481019282601f106110bf57805160ff19168380011785556110ed565b828001600101855582156110ed579182015b828111156110ec5782518255916020019190600101906110d1565b5b5090506110fa919061119e565b5090565b60405180606001604052806000815260200160008152602001600081525090565b82805482825590600052602060002090810192821561115b579160200282015b8281111561115a57825182559160200191906001019061113f565b5b509050611168919061119e565b5090565b8154818355818111156111995760090281600902836000526020600020918201910161119891906111c3565b5b505050565b6111c091905b808211156111bc5760008160009055506001016111a4565b5090565b90565b61126491905b8082111561126057600080820160006101000a81549073ffffffffffffffffffffffffffffffffffffffff021916905560018201600080820160009055600182016000905560028201600090555050600482016000808201600090556001820160009055600282016000905550506007820160006112479190611267565b6008820160006112579190611267565b506009016111c9565b5090565b90565b5080546000825590600052602060002090810190611285919061119e565b50565b600082601f83011261129957600080fd5b81356112ac6112a782611be7565b611bba565b915081818352602084019350602081019050838560208402820111156112d157600080fd5b60005b8381101561130157816112e788826113d4565b8452602084019350602083019250506001810190506112d4565b5050505092915050565b60008135905061131a81611d17565b92915050565b600082601f83011261133157600080fd5b813561134461133f82611c0f565b611bba565b9150808252602083016020830185838301111561136057600080fd5b61136b838284611cc4565b50505092915050565b60006060828403121561138657600080fd5b6113906060611bba565b905060006113a0848285016113d4565b60008301525060206113b4848285016113d4565b60208301525060406113c8848285016113d4565b60408301525092915050565b6000813590506113e381611d2e565b92915050565b6000602082840312156113fb57600080fd5b600082013567ffffffffffffffff81111561141557600080fd5b61142184828501611288565b91505092915050565b6000806040838503121561143d57600080fd5b600083013567ffffffffffffffff81111561145757600080fd5b61146385828601611288565b925050602083013567ffffffffffffffff81111561148057600080fd5b61148c85828601611288565b9150509250929050565b600080600080608085870312156114ac57600080fd5b600085013567ffffffffffffffff8111156114c657600080fd5b6114d287828801611288565b945050602085013567ffffffffffffffff8111156114ef57600080fd5b6114fb87828801611288565b935050604085013567ffffffffffffffff81111561151857600080fd5b61152487828801611320565b9250506060611535878288016113d4565b91505092959194509250565b6000806040838503121561155457600080fd5b60006115628582860161130b565b925050602083013567ffffffffffffffff81111561157f57600080fd5b61158b85828601611320565b9150509250929050565b600080600060e084860312156115aa57600080fd5b60006115b886828701611374565b93505060606115c986828701611374565b92505060c084013567ffffffffffffffff8111156115e657600080fd5b6115f286828701611288565b9150509250925092565b60006020828403121561160e57600080fd5b600061161c848285016113d4565b91505092915050565b600061163183836119fa565b60208301905092915050565b600061164882611c60565b6116528185611c83565b935061165d83611c3b565b8060005b8381101561168e5781516116758882611625565b975061168083611c76565b925050600181019050611661565b5085935050505092915050565b60006116a682611c6b565b6116b08185611c94565b93506116c0818560208601611cd3565b6116c981611d06565b840191505092915050565b60006116df82611c6b565b6116e98185611ca5565b93506116f9818560208601611cd3565b80840191505092915050565b60008154600181166000811461172257600181146117485761178c565b607f60028304166117338187611c94565b955060ff19831686526020860193505061178c565b600282046117568187611c94565b955061176185611c4b565b60005b8281101561178357815481890152600182019150602081019050611764565b80880195505050505b505092915050565b60006117a1601183611c94565b91507f4e6f206d61746368696e6720666f756e640000000000000000000000000000006000830152602082019050919050565b60006117e1603583611c94565b91507f50726f7661626c65207175657279207761732073656e742c207374616e64696e60008301527f6720627920666f722074686520616e737765722e2e00000000000000000000006020830152604082019050919050565b6000611847600883611ca5565b91507f2666696c7465723d0000000000000000000000000000000000000000000000006000830152600882019050919050565b6000611887600883611c94565b91507f4d61746368696e670000000000000000000000000000000000000000000000006000830152602082019050919050565b60006118c7600183611ca5565b91507f2c000000000000000000000000000000000000000000000000000000000000006000830152600182019050919050565b6000611907600883611ca5565b91507f26616c7068613d5b0000000000000000000000000000000000000000000000006000830152600882019050919050565b6000611947600183611ca5565b91507f5d000000000000000000000000000000000000000000000000000000000000006000830152600182019050919050565b6000611987600083611c94565b9150600082019050919050565b60006119a1602c83611ca5565b91507f68747470733a2f2f716f736170692e6865726f6b756170702e636f6d2f61706960008301527f2f716f733f6d61747269783d00000000000000000000000000000000000000006020830152602c82019050919050565b611a0381611cba565b82525050565b611a1281611cba565b82525050565b6000611a2482856116d4565b9150611a3082846116d4565b9150611a3b826118ba565b91508190509392505050565b6000611a5382856116d4565b9150611a5f82846116d4565b9150611a6a8261193a565b91508190509392505050565b6000611a8182611994565b9150611a8d82866116d4565b9150611a98826118fa565b9150611aa482856116d4565b9150611aaf8261193a565b9150611aba8261183a565b9150611ac682846116d4565b9150819050949350505050565b60006020820190508181036000830152611aed818461163d565b905092915050565b60006020820190508181036000830152611b0f818461169b565b905092915050565b60006040820190508181036000830152611b3081611794565b90508181036020830152611b438161197a565b9050919050565b60006020820190508181036000830152611b63816117d4565b9050919050565b60006040820190508181036000830152611b838161187a565b90508181036020830152611b978184611705565b905092915050565b6000602082019050611bb46000830184611a09565b92915050565b6000604051905081810181811067ffffffffffffffff82111715611bdd57600080fd5b8060405250919050565b600067ffffffffffffffff821115611bfe57600080fd5b602082029050602081019050919050565b600067ffffffffffffffff821115611c2657600080fd5b601f19601f8301169050602081019050919050565b6000819050602082019050919050565b60008190508160005260206000209050919050565b600081519050919050565b600081519050919050565b6000602082019050919050565b600082825260208201905092915050565b600082825260208201905092915050565b600081905092915050565b6000819050919050565b6000819050919050565b82818337600083830152505050565b60005b83811015611cf1578082015181840152602081019050611cd6565b83811115611d00576000848401525b50505050565b6000601f19601f8301169050919050565b611d2081611cb0565b8114611d2b57600080fd5b50565b611d3781611cba565b8114611d4257600080fd5b5056fea365627a7a72315820169b335b30c1f957f087628657b6accec76eca6198044b1d158d2feccbc54a9e6c6578706572696d656e74616cf564736f6c63430005100040",
  "source": "pragma solidity ^0.5.16;\npragma experimental ABIEncoderV2;\n\n\n//import \"./Sort.sol\";\n//import \"./ProvableAPI_0.5.sol\";\n\n//import \"github.com/provable-things/ethereum-api/provableAPI_0.5.sol\";\n\n\n/**\n * @title Elect\n * \n * \n * Smart contract to elect a profile based on a set of objective criteria, and a QoS. \n */\n\n\ncontract ElectOptim {\n    \n    uint[] filter;\n    \n    string filteredIds;\n    \n    enum AvailabiltyState{ONEDAY, SEVERALDAYS}\n    AvailabiltyState avState;\n\n    struct Date { \n      uint day;\n      uint month;\n      uint year;\n   }\n\n    \n    struct Candidate{\n        address delegate;\n        Date startAvailability;\n        Date endAvailability;\n        uint[] filterAttributes;\n        uint[] optimAttributes;\n    }\n        bool matchExists = false;\n    string bestProfiles;\n\n    //string alphas; \n    event BestCandidates(\n        string ExistCandidates,\n        string profiles  \n    );\n    \n    enum TestOutput{NO,YES}\n    TestOutput output;\n\n\n   //string public qosList_string;\n   event LogConstructorInitiated(string nextStep);\n   event LogQoSCompute(string qosList);\n   event LogNewProvableQuery(string description);\n   \n\n    \n    //// resource database initialisation\n    Date av1 = Date(12,6,21);\n    Date av2 = Date(13,6,21);\n    Date av3 = Date(12,8,21);\n    \n    uint[] f1 = [0,0,0];\n    uint[] f2 = [0,0,1];\n    uint[] f3 = [0,1,1];\n    uint[] f4 = [1,1,1];\n    uint[] f5 = [1,0,0];\n    uint[] f6 = [1,1,0];\n\n    uint[] o1 = [10,5];\n    uint[] o2 = [2,8];\n    uint[] o3 = [0,1];\n    uint[] o4 = [10,9];\n    uint[] o5 = [8,9];\n    uint[] o6 = [6,4];\n\n\n    Candidate cd1 = Candidate(0x1ED034135e576A6c1bf3ee8E05aaDEEF24D4A819, av1, av1, f1, o1);\n    Candidate cd2 = Candidate(0x5AfBDd0e5DE3315a96504C06ac49bF34B5ECACB5, av1, av3, f2, o2);\n    Candidate cd3 = Candidate(0xC9f167B5056B03eB29963aB8e6F78bB12Cf5BA17, av1, av2, f3, o3);\n    Candidate cd4 = Candidate(0x2a706c6006e33610D92ea2a440Cc99d5b58353E1, av1, av1, f4, o4);\n    Candidate cd5 = Candidate(0xbb4599DfEe75aD4aEA70048B8b1023543b5293f0, av2, av2, f5, o5);\n    Candidate cd6 = Candidate(0xc8F9bFA65B300F7FE952d1F690C1A77900103Ccf, av1, av2, f6, o6);\n    Candidate cd7 = Candidate(0x7eb6C31971392503F3e6CdB21DEaB903216A408c, av3, av3, f5, o5);\n    Candidate cd8 = Candidate(0x414Ad21d20CaC5940c6A59F422a237247a0E095f, av1, av2, f4, o4);\n    Candidate cd9 = Candidate(0x06730390c9f64b01e92e4653617671ec060EcA24, av1, av2, f3, o3);\n    Candidate cd10 = Candidate(0x81C4ddfC31001AEfAe5cc1Ea396fa5138CbAA42b, av1, av3, f2, o2);\n    \n    \n    Candidate[] candidates;\n\n    function test() public {\n        candidates.length++;\n        Candidate storage p = candidates[candidates.length - 1];\n\n        //p.push(cd1);\n    }\n\n\n\n    // = [cd1,cd2,cd3,cd4,cd5,cd6,cd7,cd8,cd9,cd10]; \n    \n    function getfilter() public view returns(uint[] memory){\n        return filter;\n    }\n\n    //function getCandidates() public view returns(uint[][] memory){\n    //    return candidates;\n    //}\n    \n    \n    ///// FILTER /////\n\n    function oneDayAvailability(Date memory ASDate, Date memory AEDate, uint[] memory _availability) public payable returns(uint){\n        Date memory RSDate = Date(_availability[0],_availability[1],_availability[2]); // required start\n\n        output = TestOutput.YES;\n\n\n        if((RSDate.month==ASDate.month) && (RSDate.year==ASDate.year)){ // same month, same year\n            if((ASDate.day > RSDate.day)||(AEDate.day<RSDate.day)){ // person is booked\n                output = TestOutput.NO;\n                }\n            }\n        else if((RSDate.month!=ASDate.month) && (RSDate.year==ASDate.year)){ //same year, different month\n            if(!((ASDate.month < RSDate.month) && (ASDate.day < RSDate.day)) || (AEDate.month<RSDate.month)){ // person is booked\n                output = TestOutput.NO;\n            }\n        }\n        else{ //different year\n            if(!(RSDate.year>ASDate.year)||(AEDate.year<RSDate.year)){ // person is booked\n                output = TestOutput.NO;\n            }\n        }\n        return uint(output);\n    }\n\n\n    function severalDaysAvailability(Date memory ASDate, Date memory AEDate, uint[] memory _availability) public payable returns(uint){\n        \n        Date memory RSDate = Date(_availability[0],_availability[1],_availability[2]); // required start\n        Date memory REDate = Date(_availability[3],_availability[4],_availability[5]); // required end\n\n        output = TestOutput.YES;\n        \n        require(REDate.day>RSDate.day);\n\n        if((RSDate.month==ASDate.month) && (RSDate.year==ASDate.year) && (REDate.year==AEDate.year)){ // same start month, same year\n            if((ASDate.day > RSDate.day)||(AEDate.day<REDate.day)){ // person is booked\n                output = TestOutput.NO;\n                }\n        }\n        else if((RSDate.month!=ASDate.month) && (RSDate.year==ASDate.year) &&  (REDate.year==AEDate.year)){ //same year, different month\n            if(!((ASDate.month < RSDate.month) && (ASDate.day < RSDate.day)) || (AEDate.month<RSDate.month) || (AEDate.month<REDate.month)){ // person is booked\n                output = TestOutput.NO;                }\n            }\n        else{ //different year\n            if(!(RSDate.year>ASDate.year)||(AEDate.year<RSDate.year)||(AEDate.year<REDate.year)){ // person is booked\n                output = TestOutput.NO;            }\n        }\n        \n        return uint(output);\n    }\n    \n    \n        function filterScan(uint[] memory attributes, uint[] memory availability) public payable returns (uint[] memory){\n        // SET CLEAN FILTERING VARIABLES\n        uint[] memory _filter = new uint[](candidates.length);\n        for(uint i=0; i<candidates.length;i++){\n            _filter[i]=0;\n        }\n        matchExists=false;\n\n        // FILTER - TEST ALL CANDIDATES\n        for(uint ind=0; ind<candidates.length; ind++){\n            Candidate storage candidate = candidates[ind];\n    \n            // CHECK ATTRIBUTES\n            bool matchOnAttributes = true;\n            uint index=0;\n            uint filterMaxInd = attributes.length;\n\n            for(uint id_att=0; id_att<filterMaxInd; id_att++){\n                if((attributes[index]==1) && (candidate.filterAttributes[id_att]!=1)){\n                        matchOnAttributes=false;\n                }\n                index++;\n            }\n\n            // CHECK AVAILABILITY\n            if(matchOnAttributes){\n                if((availability.length==3)||\n                    ((availability[0]==availability[3])&&(availability[1]==availability[4])&&(availability[2]==availability[5]))){ // ask for a day booking\n                    avState = AvailabiltyState.ONEDAY;\n                    _filter[ind]=oneDayAvailability(candidate.startAvailability,candidate.endAvailability, availability);\n                }\n                else{ \n                    //availability.length==6, ask for a several-days booking \n                    avState = AvailabiltyState.SEVERALDAYS;\n                    _filter[ind]=severalDaysAvailability(candidate.startAvailability,candidate.endAvailability, availability);\n                }\n\n                if(_filter[ind] == 1){\n                    matchExists=true;\n                }\n            }\n        }\n        \n        filter = _filter;\n\n        return filter;\n    }\n\n\n    ///// Provable test\n    \n    function uint2str(uint _i) internal pure returns (string memory _uintAsString) {\n        if (_i == 0) {\n            return \"0\";\n        }\n        uint j = _i;\n        uint len;\n        while (j != 0) {\n            len++;\n            j /= 10;\n        }\n        bytes memory bstr = new bytes(len);\n        uint k = len - 1;\n        while (_i != 0) {\n            bstr[k--] = byte(uint8(48 + _i % 10));\n            _i /= 10;\n        }\n        return string(bstr);\n    }\n\n    function list2string(uint[] memory list) public payable returns(string memory) {\n             \n                string memory str_list = \"[\";\n                for(uint j=0;j<list.length-1;j++){    \n                    str_list = string(abi.encodePacked(str_list, uint2str(list[j]), \",\"));\n                }\n                str_list = string(abi.encodePacked(str_list,uint2str(list[list.length-1]), \"]\"));\n                return str_list;\n    }\n\n\n    function computeOptim2Str(uint num_param) public payable returns(string memory) {\n                string memory str_matrix = \"[\";\n                uint ind_param = candidates[0].optimAttributes.length;\n                \n                for(uint i=0;i<candidates.length-1;i++){ // for each candidate, compute str \n                    str_matrix = string(abi.encodePacked(str_matrix, list2string(candidates[i].optimAttributes), \",\"));\n                }\n\n                str_matrix = string(abi.encodePacked(str_matrix, list2string(candidates[candidates.length-1].optimAttributes), \"]\"));\n                            \n                return str_matrix;\n\n    }\n\n\n    //    function ProvableContract() public payable {\n    //        OAR = OracleAddrResolverI(0x6f485C8BF6fc43eA212E93BBF8ce046C7f1cb475);\n    //        emit LogConstructorInitiated(\"Constructor was initiated. Call 'QoSOracle()' to send the Provable Query.\");\n    //    }\n    \n\n    function __callback(bytes32 myid, string memory result) public {\n    //    if (msg.sender != provable_cbAddress()) revert();\n        \n        bestProfiles=result;\n\n        // emit event\n        emit BestCandidates(\n            'Matching',\n            bestProfiles\n        );\n\n    }\n\n\n    function sort(uint[] memory attributes, uint[] memory availability, string memory alphas, uint num_alphas) public payable{\n\n        filter = filterScan(attributes, availability);\n        \n        if(matchExists){\n            /// compute qos via oracle\n           // if (provable_getPrice(\"URL\") > address(this).balance) {\n            //    emit LogNewProvableQuery(\"Provable query was NOT sent, please add some ETH to cover for the query fee\");\n            //} else {\n                emit LogNewProvableQuery(\"Provable query was sent, standing by for the answer..\");\n                string memory str_optim = computeOptim2Str(num_alphas);\n                string memory str_filter = list2string(filter);\n                string memory url= string(abi.encodePacked(\"https://qosapi.herokuapp.com/api/qos?matrix=\", str_optim, \"&alpha=[\", alphas,\"]\", \"&filter=\", str_filter));\n                //provable_query(\"URL\",url);\n            //}\n        }\n\n        else{\n            emit BestCandidates('No matching found', '');\n        }\n    }\n    \n    \n    // delivery update\n    //function updateQoS(uint input) public payable returns (uint){\n    //    n = n+1;\n    //    uint mulFact = 100; // avoid floating points\n\n    //    if(n==1){\n    //        QoS = input;\n    //    }\n    //    else{\n    //    uint K = div(mul(2,mulFact),n); \n    //    uint newQoS = mul(K, input) + mul(mulFact,QoS) - mul(K, QoS);\n        \n    //    QoS = div(newQoS, 100);\n    //    }\n        \n    //    return QoS;\n    //}\n    \n}",
  "sourcePath": "/home/vtlr2002/source/smart-logistics/contracts/ElectOptim.sol",
  "compiler": {
    "name": "solc",
    "version": "0.5.16+commit.9c3226ce.Emscripten.clang"
  },
  "schemaVersion": "3.2.4",
  "updatedAt": "2021-02-08T11:43:51.956Z",
  "networkType": "ethereum",
  "devdoc": {
    "methods": {},
    "title": "Elect  *  Smart contract to elect a profile based on a set of objective criteria, and a QoS. "
  },
  "userdoc": {
    "methods": {
      "oneDayAvailability((uint256,uint256,uint256),(uint256,uint256,uint256),uint256[])": {
        "notice": "// FILTER /////"
      }
    }
  }
}