{
  "contractName": "ElectToolbox",
  "abi": [
    {
      "constant": true,
      "inputs": [
        {
          "internalType": "uint256[]",
          "name": "_person",
          "type": "uint256[]"
        },
        {
          "internalType": "uint256[]",
          "name": "_availability",
          "type": "uint256[]"
        }
      ],
      "name": "oneDayAvailability",
      "outputs": [
        {
          "internalType": "uint256",
          "name": "",
          "type": "uint256"
        }
      ],
      "payable": false,
      "stateMutability": "pure",
      "type": "function"
    },
    {
      "constant": true,
      "inputs": [
        {
          "internalType": "uint256[]",
          "name": "_person",
          "type": "uint256[]"
        },
        {
          "internalType": "uint256[]",
          "name": "_availability",
          "type": "uint256[]"
        }
      ],
      "name": "severalDaysAvailability",
      "outputs": [
        {
          "internalType": "uint256",
          "name": "",
          "type": "uint256"
        }
      ],
      "payable": false,
      "stateMutability": "pure",
      "type": "function"
    },
    {
      "constant": true,
      "inputs": [
        {
          "internalType": "uint256[]",
          "name": "list",
          "type": "uint256[]"
        }
      ],
      "name": "list2string",
      "outputs": [
        {
          "internalType": "string",
          "name": "",
          "type": "string"
        }
      ],
      "payable": false,
      "stateMutability": "pure",
      "type": "function"
    },
    {
      "constant": true,
      "inputs": [
        {
          "internalType": "uint256[][]",
          "name": "array",
          "type": "uint256[][]"
        },
        {
          "internalType": "uint256",
          "name": "num_param",
          "type": "uint256"
        }
      ],
      "name": "uintarrays2string",
      "outputs": [
        {
          "internalType": "string",
          "name": "",
          "type": "string"
        }
      ],
      "payable": false,
      "stateMutability": "pure",
      "type": "function"
    }
  ],
  "bytecode": "0x6111a5610026600b82828239805160001a60731461001957fe5b30600052607381538281f3fe73000000000000000000000000000000000000000030146080604052600436106100565760003560e01c8063114412eb1461005b578063915a57151461008b578063b49fc6a2146100bb578063f106b1a7146100eb575b600080fd5b61007560048036036100709190810190610cf8565b61011b565b6040516100829190610ff4565b60405180910390f35b6100a560048036036100a09190810190610d39565b610201565b6040516100b29190611016565b60405180910390f35b6100d560048036036100d09190810190610ca4565b610421565b6040516100e29190610ff4565b60405180910390f35b61010560048036036101009190810190610d39565b6106e7565b6040516101129190611016565b60405180910390f35b6060806040518060400160405280600181526020017f5b00000000000000000000000000000000000000000000000000000000000000815250905060008090505b60018451038110156101b4578161018585838151811061017857fe5b60200260200101516109c7565b604051602001610196929190610f96565b6040516020818303038152906040529150808060010191505061015c565b50806101d6846001865103815181106101c957fe5b60200260200101516109c7565b6040516020016101e7929190610fc5565b604051602081830303815290604052905080915050919050565b600061020b610af4565b60405180606001604052808560018151811061022357fe5b602002602001015181526020018560028151811061023d57fe5b602002602001015181526020018560038151811061025757fe5b6020026020010151815250905061026c610af4565b60405180606001604052808660048151811061028457fe5b602002602001015181526020018660058151811061029e57fe5b60200260200101518152602001866006815181106102b857fe5b602002602001015181525090506102cd610af4565b6040518060600160405280866000815181106102e557fe5b60200260200101518152602001866001815181106102ff57fe5b602002602001015181526020018660028151811061031957fe5b602002602001015181525090506000600190508360200151826020015114801561034a575083604001518260400151145b1561037b5781600001518460000151118061036c575081600001518360000151105b1561037657600090505b610409565b836020015182602001511415801561039a575083604001518260400151145b156103df57816020015184602001511080156103bd575081600001518460000151105b15806103d0575081602001518360200151105b156103da57600090505b610408565b836040015182604001511115806103fd575081604001518360400151105b1561040757600090505b5b5b80600181111561041557fe5b94505050505092915050565b6060806040518060400160405280600181526020017f5b0000000000000000000000000000000000000000000000000000000000000081525090506000838560008151811061046c57fe5b60200260200101515103905060008090505b60018651038110156105b757606086828151811061049857fe5b6020026020010151905060606040518060400160405280600181526020017f5b00000000000000000000000000000000000000000000000000000000000000815250905060008490505b6001896000815181106104f157fe5b6020026020010151510381101561054e578161051f84838151811061051257fe5b60200260200101516109c7565b604051602001610530929190610f96565b604051602081830303815290604052915080806001019150506104e2565b5084816105858460018c60008151811061056457fe5b602002602001015151038151811061057857fe5b60200260200101516109c7565b60405160200161059793929190610f1e565b60405160208183030381529060405294505050808060010191505061047e565b506060856001875103815181106105ca57fe5b6020026020010151905060606040518060400160405280600181526020017f5b00000000000000000000000000000000000000000000000000000000000000815250905060008390505b60018860008151811061062357fe5b60200260200101515103811015610680578161065184838151811061064457fe5b60200260200101516109c7565b604051602001610662929190610f96565b60405160208183030381529060405291508080600101915050610614565b5083816106b78460018b60008151811061069657fe5b60200260200101515103815181106106aa57fe5b60200260200101516109c7565b6040516020016106c993929190610f5a565b60405160208183030381529060405293508394505050505092915050565b60006106f1610af4565b60405180606001604052808560018151811061070957fe5b602002602001015181526020018560028151811061072357fe5b602002602001015181526020018560038151811061073d57fe5b60200260200101518152509050610752610af4565b60405180606001604052808660048151811061076a57fe5b602002602001015181526020018660058151811061078457fe5b602002602001015181526020018660068151811061079e57fe5b602002602001015181525090506107b3610af4565b6040518060600160405280866000815181106107cb57fe5b60200260200101518152602001866001815181106107e557fe5b60200260200101518152602001866002815181106107ff57fe5b60200260200101518152509050610814610af4565b60405180606001604052808760038151811061082c57fe5b602002602001015181526020018760048151811061084657fe5b602002602001015181526020018760058151811061086057fe5b60200260200101518152509050600060019050826000015182600001511161088757600080fd5b846020015183602001511480156108a5575084604001518360400151145b80156108b8575083604001518260400151145b156108e9578260000151856000015111806108da575081600001518460000151105b156108e457600090505b6109ae565b8460200151836020015114158015610908575084604001518360400151145b801561091b575083604001518260400151145b15610972578260200151856020015110801561093e575082600001518560000151105b1580610951575082602001518460200151105b80610963575081602001518460200151105b1561096d57600090505b6109ad565b84604001518360400151111580610990575082604001518460400151105b806109a2575081604001518460400151105b156109ac57600090505b5b5b8060018111156109ba57fe5b9550505050505092915050565b60606000821415610a0f576040518060400160405280600181526020017f30000000000000000000000000000000000000000000000000000000000000008152509050610aef565b600082905060005b60008214610a39578080600101915050600a8281610a3157fe5b049150610a17565b6060816040519080825280601f01601f191660200182016040528015610a6e5781602001600182028038833980820191505090505b50905060006001830390505b60008614610ae757600a8681610a8c57fe5b0660300160f81b82828060019003935081518110610aa657fe5b60200101907effffffffffffffffffffffffffffffffffffffffffffffffffffffffffffff1916908160001a905350600a8681610adf57fe5b049550610a7a565b819450505050505b919050565b60405180606001604052806000815260200160008152602001600081525090565b600082601f830112610b2657600080fd5b8135610b39610b348261105e565b611031565b9150818183526020840193506020810190508360005b83811015610b7f5781358601610b658882610b89565b845260208401935060208301925050600181019050610b4f565b5050505092915050565b600082601f830112610b9a57600080fd5b8135610bad610ba882611086565b611031565b91508181835260208401935060208101905083856020840282011115610bd257600080fd5b60005b83811015610c025781610be88882610c8f565b845260208401935060208301925050600181019050610bd5565b5050505092915050565b600082601f830112610c1d57600080fd5b8135610c30610c2b826110ae565b611031565b91508181835260208401935060208101905083856020840282011115610c5557600080fd5b60005b83811015610c855781610c6b8882610c8f565b845260208401935060208301925050600181019050610c58565b5050505092915050565b600081359050610c9e8161114b565b92915050565b60008060408385031215610cb757600080fd5b600083013567ffffffffffffffff811115610cd157600080fd5b610cdd85828601610b15565b9250506020610cee85828601610c8f565b9150509250929050565b600060208284031215610d0a57600080fd5b600082013567ffffffffffffffff811115610d2457600080fd5b610d3084828501610c0c565b91505092915050565b60008060408385031215610d4c57600080fd5b600083013567ffffffffffffffff811115610d6657600080fd5b610d7285828601610c0c565b925050602083013567ffffffffffffffff811115610d8f57600080fd5b610d9b85828601610c0c565b9150509250929050565b6000610db0826110d6565b610dba81856110e1565b9350610dca818560208601611107565b610dd38161113a565b840191505092915050565b6000610de9826110d6565b610df381856110f2565b9350610e03818560208601611107565b80840191505092915050565b6000610e1c6001836110f2565b91507f2c000000000000000000000000000000000000000000000000000000000000006000830152600182019050919050565b6000610e5c6002836110f2565b91507f5d2c0000000000000000000000000000000000000000000000000000000000006000830152600282019050919050565b6000610e9c6001836110f2565b91507f5d000000000000000000000000000000000000000000000000000000000000006000830152600182019050919050565b6000610edc6002836110f2565b91507f5d5d0000000000000000000000000000000000000000000000000000000000006000830152600282019050919050565b610f18816110fd565b82525050565b6000610f2a8286610dde565b9150610f368285610dde565b9150610f428284610dde565b9150610f4d82610e4f565b9150819050949350505050565b6000610f668286610dde565b9150610f728285610dde565b9150610f7e8284610dde565b9150610f8982610ecf565b9150819050949350505050565b6000610fa28285610dde565b9150610fae8284610dde565b9150610fb982610e0f565b91508190509392505050565b6000610fd18285610dde565b9150610fdd8284610dde565b9150610fe882610e8f565b91508190509392505050565b6000602082019050818103600083015261100e8184610da5565b905092915050565b600060208201905061102b6000830184610f0f565b92915050565b6000604051905081810181811067ffffffffffffffff8211171561105457600080fd5b8060405250919050565b600067ffffffffffffffff82111561107557600080fd5b602082029050602081019050919050565b600067ffffffffffffffff82111561109d57600080fd5b602082029050602081019050919050565b600067ffffffffffffffff8211156110c557600080fd5b602082029050602081019050919050565b600081519050919050565b600082825260208201905092915050565b600081905092915050565b6000819050919050565b60005b8381101561112557808201518184015260208101905061110a565b83811115611134576000848401525b50505050565b6000601f19601f8301169050919050565b611154816110fd565b811461115f57600080fd5b5056fea365627a7a72315820ad236dc92386b017be4997a25aec57ca0e32adea87285e3286de99bb1207f5be6c6578706572696d656e74616cf564736f6c63430005100040",
  "source": "pragma solidity ^0.5.16;\npragma experimental ABIEncoderV2;\n\n/**\n * @title  A toolbox to filter a set of candidates based on a set of filtering criteria. \n */\nlibrary ElectToolbox {\n\n    struct Date { \n      uint day;\n      uint month;\n      uint year;\n   }\n\n    enum TestOutput{NO,YES}\n\n\n    /// @notice checks whether a person is available for a given day\n    /// @param _person The person availability date\n    /// @param _availability The availability date required \n    /// @return 1 if person is available, 0 otherwise.\n    function oneDayAvailability(uint[] memory _person, uint[] memory _availability) public pure returns(uint){\n        \n        \n        Date memory ASDate = Date(_person[1],_person[2],_person[3]);  // available start\n        Date memory AEDate = Date(_person[4],_person[5],_person[6]); //available end\n\n        Date memory RSDate = Date(_availability[0],_availability[1],_availability[2]); // required start\n\n        TestOutput output;\n        output = TestOutput.YES;\n\n\n        if((RSDate.month==ASDate.month) && (RSDate.year==ASDate.year)){ // same month, same year\n            if((ASDate.day > RSDate.day)||(AEDate.day<RSDate.day)){ // person is booked\n                output = TestOutput.NO;\n                }\n            }\n        else if((RSDate.month!=ASDate.month) && (RSDate.year==ASDate.year)){ //same year, different month\n            if(!((ASDate.month < RSDate.month) && (ASDate.day < RSDate.day)) || (AEDate.month<RSDate.month)){ // person is booked\n                output = TestOutput.NO;\n            }\n        }\n        else{ //different year\n            if(!(RSDate.year>ASDate.year)||(AEDate.year<RSDate.year)){ // person is booked\n                output = TestOutput.NO;\n            }\n        }\n        return uint(output);\n    }\n\n    /// @notice checks whether a person is available for a set of days\n    /// @param _person The person availability dates\n    /// @param _availability The availability date required \n    /// @return 1 if person is available, 0 otherwise.\n    function severalDaysAvailability(uint[] memory _person, uint[] memory _availability) public pure returns(uint){\n        \n        Date memory ASDate = Date(_person[1],_person[2],_person[3]);  // available start\n        Date memory AEDate = Date(_person[4],_person[5],_person[6]); //available end\n\n        Date memory RSDate = Date(_availability[0],_availability[1],_availability[2]); // required start\n        Date memory REDate = Date(_availability[3],_availability[4],_availability[5]); // required end\n\n        TestOutput output;\n        output = TestOutput.YES;\n        \n        require(REDate.day>RSDate.day);\n\n        if((RSDate.month==ASDate.month) && (RSDate.year==ASDate.year) && (REDate.year==AEDate.year)){ // same start month, same year\n            if((ASDate.day > RSDate.day)||(AEDate.day<REDate.day)){ // person is booked\n                output = TestOutput.NO;\n                }\n        }\n        else if((RSDate.month!=ASDate.month) && (RSDate.year==ASDate.year) &&  (REDate.year==AEDate.year)){ //same year, different month\n            if(!((ASDate.month < RSDate.month) && (ASDate.day < RSDate.day)) || (AEDate.month<RSDate.month) || (AEDate.month<REDate.month)){ // person is booked\n                output = TestOutput.NO;                }\n            }\n        else{ //different year\n            if(!(RSDate.year>ASDate.year)||(AEDate.year<RSDate.year)||(AEDate.year<REDate.year)){ // person is booked\n                output = TestOutput.NO;            }\n        }\n        \n        return uint(output);\n    }\n\n    /// @notice converts a uint into a str\n    /// @param _i The uint to convert\n    /// @return the string conversion.\n    function uint2str(uint _i) internal pure returns (string memory _uintAsString) {\n        if (_i == 0) {\n            return \"0\";\n        }\n        uint j = _i;\n        uint len;\n        while (j != 0) {\n            len++;\n            j /= 10;\n        }\n        bytes memory bstr = new bytes(len);\n        uint k = len - 1;\n        while (_i != 0) {\n            bstr[k--] = byte(uint8(48 + _i % 10));\n            _i /= 10;\n        }\n        return string(bstr);\n    }\n\n    /// @notice converts a list into a str\n    /// @param list The list to convert\n    /// @return the string conversion.\n    function list2string(uint[] memory list) public pure returns(string memory) {\n             \n                string memory str_list = \"[\";\n                for(uint j=0;j<list.length-1;j++){    \n                    str_list = string(abi.encodePacked(str_list, uint2str(list[j]), \",\"));\n                }\n                str_list = string(abi.encodePacked(str_list,uint2str(list[list.length-1]), \"]\"));\n                return str_list;\n    }\n\n    /// @notice converts a chunk of an array into a str (used to extract the QoS criteria of the candidates matrix)\n    /// @param array The array to convert\n    /// @param num_param The number of columns to extract\n    /// @return the string conversion.\n    function uintarrays2string(uint[][] memory array, uint num_param) public pure returns(string memory) {\n                string memory str_matrix = \"[\";\n                uint ind_param = array[0].length - num_param;\n                \n                for(uint i=0;i<array.length-1;i++){ // for each candidate, compute str \n\n                    uint[] memory cdd = array[i];\n                    string memory str_cdd = \"[\";\n\n                    for(uint j=ind_param;j<array[0].length-1;j++){    \n                        str_cdd = string(abi.encodePacked(str_cdd, uint2str(cdd[j]), \",\"));\n                    }\n                    str_matrix = string(abi.encodePacked(str_matrix, str_cdd, uint2str(cdd[array[0].length-1]), \"],\"));\n\n                }\n\n                uint[] memory cdd = array[array.length-1];\n                string memory str_cdd = \"[\";\n                for(uint j=ind_param;j<array[0].length-1;j++){    \n                    str_cdd = string(abi.encodePacked(str_cdd, uint2str(cdd[j]), \",\"));\n                }\n                str_matrix = string(abi.encodePacked(str_matrix, str_cdd, uint2str(cdd[array[0].length-1]), \"]]\"));\n                            \n                return str_matrix;\n\n    }    \n\n}",
  "sourcePath": "/home/vtlr2002/source/smart-logistics/contracts/ElectToolbox.sol",
  "compiler": {
    "name": "solc",
    "version": "0.5.16+commit.9c3226ce.Emscripten.clang"
  },
  "schemaVersion": "3.2.4",
  "updatedAt": "2022-02-10T17:59:01.583Z",
  "networkType": "ethereum",
  "devdoc": {
    "methods": {
      "list2string(uint256[])": {
        "params": {
          "list": "The list to convert"
        },
        "return": "the string conversion."
      },
      "oneDayAvailability(uint256[],uint256[])": {
        "params": {
          "_availability": "The availability date required ",
          "_person": "The person availability date"
        },
        "return": "1 if person is available, 0 otherwise."
      },
      "severalDaysAvailability(uint256[],uint256[])": {
        "params": {
          "_availability": "The availability date required ",
          "_person": "The person availability dates"
        },
        "return": "1 if person is available, 0 otherwise."
      },
      "uintarrays2string(uint256[][],uint256)": {
        "params": {
          "array": "The array to convert",
          "num_param": "The number of columns to extract"
        },
        "return": "the string conversion."
      }
    },
    "title": "A toolbox to filter a set of candidates based on a set of filtering criteria. "
  },
  "userdoc": {
    "methods": {
      "list2string(uint256[])": {
        "notice": "converts a list into a str"
      },
      "oneDayAvailability(uint256[],uint256[])": {
        "notice": "checks whether a person is available for a given day"
      },
      "severalDaysAvailability(uint256[],uint256[])": {
        "notice": "checks whether a person is available for a set of days"
      },
      "uintarrays2string(uint256[][],uint256)": {
        "notice": "converts a chunk of an array into a str (used to extract the QoS criteria of the candidates matrix)"
      }
    }
  }
}