{
  "contractName": "Elect",
  "abi": [
    {
      "anonymous": false,
      "inputs": [
        {
          "indexed": false,
          "internalType": "string",
          "name": "ExistCandidates",
          "type": "string"
        },
        {
          "indexed": false,
          "internalType": "string",
          "name": "profiles",
          "type": "string"
        }
      ],
      "name": "BestCandidates",
      "type": "event"
    },
    {
      "anonymous": false,
      "inputs": [
        {
          "indexed": false,
          "internalType": "string",
          "name": "nextStep",
          "type": "string"
        }
      ],
      "name": "LogConstructorInitiated",
      "type": "event"
    },
    {
      "anonymous": false,
      "inputs": [
        {
          "indexed": false,
          "internalType": "string",
          "name": "description",
          "type": "string"
        }
      ],
      "name": "LogNewProvableQuery",
      "type": "event"
    },
    {
      "anonymous": false,
      "inputs": [
        {
          "indexed": false,
          "internalType": "string",
          "name": "qosList",
          "type": "string"
        }
      ],
      "name": "LogQoSCompute",
      "type": "event"
    },
    {
      "anonymous": false,
      "inputs": [
        {
          "indexed": false,
          "internalType": "string",
          "name": "result",
          "type": "string"
        }
      ],
      "name": "ToString",
      "type": "event"
    },
    {
      "payable": true,
      "stateMutability": "payable",
      "type": "fallback"
    },
    {
      "constant": true,
      "inputs": [],
      "name": "qosList_string",
      "outputs": [
        {
          "internalType": "string",
          "name": "",
          "type": "string"
        }
      ],
      "payable": false,
      "stateMutability": "view",
      "type": "function"
    },
    {
      "constant": true,
      "inputs": [],
      "name": "getfilter",
      "outputs": [
        {
          "internalType": "uint256[]",
          "name": "",
          "type": "uint256[]"
        }
      ],
      "payable": false,
      "stateMutability": "view",
      "type": "function"
    },
    {
      "constant": true,
      "inputs": [],
      "name": "existsCandidates",
      "outputs": [
        {
          "internalType": "bool",
          "name": "",
          "type": "bool"
        }
      ],
      "payable": false,
      "stateMutability": "view",
      "type": "function"
    },
    {
      "constant": false,
      "inputs": [
        {
          "internalType": "uint256[][]",
          "name": "_candidates",
          "type": "uint256[][]"
        }
      ],
      "name": "setCandidates",
      "outputs": [],
      "payable": true,
      "stateMutability": "payable",
      "type": "function"
    },
    {
      "constant": true,
      "inputs": [],
      "name": "getCandidates",
      "outputs": [
        {
          "internalType": "uint256[][]",
          "name": "",
          "type": "uint256[][]"
        }
      ],
      "payable": false,
      "stateMutability": "view",
      "type": "function"
    },
    {
      "constant": true,
      "inputs": [],
      "name": "getAvailabiltyState",
      "outputs": [
        {
          "internalType": "enum Elect.AvailabiltyState",
          "name": "",
          "type": "uint8"
        }
      ],
      "payable": false,
      "stateMutability": "view",
      "type": "function"
    },
    {
      "constant": true,
      "inputs": [],
      "name": "getQoSList",
      "outputs": [
        {
          "internalType": "uint256[]",
          "name": "",
          "type": "uint256[]"
        }
      ],
      "payable": false,
      "stateMutability": "view",
      "type": "function"
    },
    {
      "constant": true,
      "inputs": [],
      "name": "getSortedQoS",
      "outputs": [
        {
          "internalType": "uint256[]",
          "name": "",
          "type": "uint256[]"
        }
      ],
      "payable": false,
      "stateMutability": "view",
      "type": "function"
    },
    {
      "constant": true,
      "inputs": [],
      "name": "getNormalized",
      "outputs": [
        {
          "internalType": "uint256[]",
          "name": "",
          "type": "uint256[]"
        }
      ],
      "payable": false,
      "stateMutability": "view",
      "type": "function"
    },
    {
      "constant": true,
      "inputs": [],
      "name": "getNormalizedArray",
      "outputs": [
        {
          "internalType": "uint256[][]",
          "name": "",
          "type": "uint256[][]"
        }
      ],
      "payable": false,
      "stateMutability": "view",
      "type": "function"
    },
    {
      "constant": true,
      "inputs": [],
      "name": "getQoS",
      "outputs": [
        {
          "internalType": "uint256",
          "name": "",
          "type": "uint256"
        }
      ],
      "payable": false,
      "stateMutability": "view",
      "type": "function"
    },
    {
      "constant": true,
      "inputs": [],
      "name": "getN",
      "outputs": [
        {
          "internalType": "uint256",
          "name": "",
          "type": "uint256"
        }
      ],
      "payable": false,
      "stateMutability": "view",
      "type": "function"
    },
    {
      "constant": true,
      "inputs": [],
      "name": "getBestProfiles",
      "outputs": [
        {
          "internalType": "string",
          "name": "",
          "type": "string"
        }
      ],
      "payable": false,
      "stateMutability": "view",
      "type": "function"
    },
    {
      "constant": false,
      "inputs": [
        {
          "internalType": "uint256[]",
          "name": "_person",
          "type": "uint256[]"
        },
        {
          "internalType": "uint256[]",
          "name": "_availability",
          "type": "uint256[]"
        }
      ],
      "name": "oneDayAvailability",
      "outputs": [
        {
          "internalType": "uint256",
          "name": "",
          "type": "uint256"
        }
      ],
      "payable": true,
      "stateMutability": "payable",
      "type": "function"
    },
    {
      "constant": false,
      "inputs": [
        {
          "internalType": "uint256[]",
          "name": "_person",
          "type": "uint256[]"
        },
        {
          "internalType": "uint256[]",
          "name": "_availability",
          "type": "uint256[]"
        }
      ],
      "name": "severalDaysAvailability",
      "outputs": [
        {
          "internalType": "uint256",
          "name": "",
          "type": "uint256"
        }
      ],
      "payable": true,
      "stateMutability": "payable",
      "type": "function"
    },
    {
      "constant": false,
      "inputs": [],
      "name": "ProvableContract",
      "outputs": [],
      "payable": true,
      "stateMutability": "payable",
      "type": "function"
    },
    {
      "constant": false,
      "inputs": [
        {
          "internalType": "bytes32",
          "name": "myid",
          "type": "bytes32"
        },
        {
          "internalType": "string",
          "name": "result",
          "type": "string"
        }
      ],
      "name": "__callback",
      "outputs": [],
      "payable": false,
      "stateMutability": "nonpayable",
      "type": "function"
    },
    {
      "constant": false,
      "inputs": [
        {
          "internalType": "bytes32",
          "name": "_myid",
          "type": "bytes32"
        },
        {
          "internalType": "string",
          "name": "_result",
          "type": "string"
        },
        {
          "internalType": "bytes",
          "name": "_proof",
          "type": "bytes"
        }
      ],
      "name": "__callback",
      "outputs": [],
      "payable": false,
      "stateMutability": "nonpayable",
      "type": "function"
    },
    {
      "constant": false,
      "inputs": [
        {
          "internalType": "uint256[]",
          "name": "list",
          "type": "uint256[]"
        }
      ],
      "name": "list2string",
      "outputs": [
        {
          "internalType": "string",
          "name": "",
          "type": "string"
        }
      ],
      "payable": true,
      "stateMutability": "payable",
      "type": "function"
    },
    {
      "constant": false,
      "inputs": [
        {
          "internalType": "uint256[][]",
          "name": "array",
          "type": "uint256[][]"
        },
        {
          "internalType": "uint256",
          "name": "num_param",
          "type": "uint256"
        }
      ],
      "name": "uintarrays2string",
      "outputs": [
        {
          "internalType": "string",
          "name": "",
          "type": "string"
        }
      ],
      "payable": true,
      "stateMutability": "payable",
      "type": "function"
    },
    {
      "constant": false,
      "inputs": [
        {
          "internalType": "uint256[]",
          "name": "filteringAttributes",
          "type": "uint256[]"
        },
        {
          "internalType": "uint256[]",
          "name": "availability",
          "type": "uint256[]"
        },
        {
          "internalType": "string",
          "name": "_alphas",
          "type": "string"
        },
        {
          "internalType": "uint256",
          "name": "num_alphas",
          "type": "uint256"
        }
      ],
      "name": "elect",
      "outputs": [],
      "payable": true,
      "stateMutability": "payable",
      "type": "function"
    }
  ],
  "bytecode": "0x60806040526040518060600160405280604051806101800160405280600660ff168152602001600c60ff168152602001600160ff168152602001601560ff168152602001600d60ff168152602001600160ff168152602001601560ff168152602001600160ff168152602001600060ff168152602001600060ff168152602001600a60ff168152602001600360ff168152508152602001604051806101800160405280600660ff168152602001600c60ff168152602001600160ff168152602001601560ff168152602001600d60ff168152602001600160ff168152602001601560ff168152602001600160ff168152602001600060ff168152602001600060ff168152602001600a60ff168152602001600360ff168152508152602001604051806101800160405280600660ff168152602001600c60ff168152602001600160ff168152602001601560ff168152602001600d60ff168152602001600160ff168152602001601560ff168152602001600060ff168152602001600060ff168152602001600060ff168152602001600a60ff168152602001600360ff168152508152506009906003620001b4929190620001e4565b506000600a60006101000a81548160ff021916908315150217905550348015620001dd57600080fd5b5062000319565b82805482825590600052602060002090810192821562000233579160200282015b82811115620002325782518290600c6200022192919062000246565b509160200191906001019062000205565b5b5090506200024291906200029d565b5090565b8280548282559060005260206000209081019282156200028a579160200282015b8281111562000289578251829060ff1690559160200191906001019062000267565b5b509050620002999190620002ce565b5090565b620002cb91905b80821115620002c75760008181620002bd9190620002f6565b50600101620002a4565b5090565b90565b620002f391905b80821115620002ef576000816000905550600101620002d5565b5090565b90565b5080546000825590600052602060002090810190620003169190620002ce565b50565b61416180620003296000396000f3fe60806040526004361061012a5760003560e01c8063639e7990116100ab578063a74c2b4e1161006f578063a74c2b4e14610399578063b49fc6a2146103c4578063b6af0bc6146103f4578063bca9469f1461041f578063c9d509aa1461044a578063f106b1a7146104545761012a565b8063639e7990146102cc578063850b0144146102f7578063915a5715146103225780639ca5760e14610352578063a7130db81461036e5761012a565b80632b3b1ba9116100f25780632b3b1ba9146101f757806338bbfa50146102225780633e9552251461024b5780634c6fe5691461027657806361c6e08b146102a15761012a565b806306a49fce1461012c578063114412eb14610157578063134e3ce9146101875780632306bdd7146101a357806327dc297e146101ce575b005b34801561013857600080fd5b50610141610484565b60405161014e9190613c1b565b60405180910390f35b610171600480360361016c9190810190613105565b610523565b60405161017e9190613cfc565b60405180910390f35b6101a1600480360361019c91908101906131b2565b610640565b005b3480156101af57600080fd5b506101b8610c64565b6040516101c59190613c3d565b60405180910390f35b3480156101da57600080fd5b506101f560048036036101f09190810190613286565b610cbc565b005b34801561020357600080fd5b5061020c610d4e565b6040516102199190613c5f565b60405180910390f35b34801561022e57600080fd5b50610249600480360361024491908101906132da565b610d65565b005b34801561025757600080fd5b50610260610d88565b60405161026d9190613de6565b60405180910390f35b34801561028257600080fd5b5061028b610d92565b6040516102989190613c3d565b60405180910390f35b3480156102ad57600080fd5b506102b6610dea565b6040516102c39190613de6565b60405180910390f35b3480156102d857600080fd5b506102e1610df4565b6040516102ee9190613c3d565b60405180910390f35b34801561030357600080fd5b5061030c610e4c565b6040516103199190613c1b565b60405180910390f35b61033c60048036036103379190810190613146565b610eeb565b6040516103499190613de6565b60405180910390f35b61036c60048036036103679190810190613070565b611197565b005b34801561037a57600080fd5b506103836111b1565b6040516103909190613c7a565b60405180910390f35b3480156103a557600080fd5b506103ae6111c8565b6040516103bb9190613cfc565b60405180910390f35b6103de60048036036103d991908101906130b1565b61126a565b6040516103eb9190613cfc565b60405180910390f35b34801561040057600080fd5b50610409611553565b6040516104169190613cda565b60405180910390f35b34801561042b57600080fd5b506104346115f1565b6040516104419190613c3d565b60405180910390f35b610452611649565b005b61046e60048036036104699190810190613146565b6116d5565b60405161047b9190613de6565b60405180910390f35b60606009805480602002602001604051908101604052809291908181526020016000905b8282101561051a5783829060005260206000200180548060200260200160405190810160405280929190818152602001828054801561050657602002820191906000526020600020905b8154815260200190600101908083116104f2575b5050505050815260200190600101906104a8565b50505050905090565b6060806040518060400160405280600181526020017f5b00000000000000000000000000000000000000000000000000000000000000815250905060008090505b60018451038110156105bc578161058d85838151811061058057fe5b6020026020010151611a41565b60405160200161059e929190613b60565b60405160208183030381529060405291508080600101915050610564565b50806105de846001865103815181106105d157fe5b6020026020010151611a41565b6040516020016105ef929190613b8f565b60405160208183030381529060405290507fd98861eb3806c20d62ecbbd3c77c813c41146acfc1998c3fb80c874eeb29b2238160405161062f9190613cfc565b60405180910390a180915050919050565b6000600a60006101000a81548160ff0219169083151502179055508160139080519060200190610671929190612b31565b5060606009805490506040519080825280602002602001820160405280156106a85781602001602082028038833980820191505090505b50905060008090505b6009805490508110156106e55760008282815181106106cc57fe5b60200260200101818152505080806001019150506106b1565b5060008090505b6009805490508110156109d25760006008816107089190612bb1565b506009818154811061071657fe5b906000526020600020016008908054610730929190612bdd565b5060006001905060008090506000885160070190506000600790505b818110156107ae5760018a848151811061076257fe5b602002602001015114801561078f575060016008828154811061078157fe5b906000526020600020015414155b1561079957600093505b8280600101935050808060010191505061074c565b5082156109c2576003885114806108525750876003815181106107cd57fe5b6020026020010151886000815181106107e257fe5b602002602001015114801561081e5750876004815181106107ff57fe5b60200260200101518860018151811061081457fe5b6020026020010151145b801561085157508760058151811061083257fe5b60200260200101518860028151811061084757fe5b6020026020010151145b5b156108f2576000600760006101000a81548160ff0219169083600181111561087657fe5b02179055506108d560088054806020026020016040519081016040528092919081815260200182805480156108ca57602002820191906000526020600020905b8154815260200190600101908083116108b6575b505050505089610eeb565b8585815181106108e157fe5b602002602001018181525050610989565b6001600760006101000a81548160ff0219169083600181111561091157fe5b0217905550610970600880548060200260200160405190810160405280929190818152602001828054801561096557602002820191906000526020600020905b815481526020019060010190808311610951575b5050505050896116d5565b85858151811061097c57fe5b6020026020010181815250505b600185858151811061099757fe5b602002602001015114156109c1576001600a60006101000a81548160ff0219169083151502179055505b5b50505080806001019150506106ec565b5080600590805190602001906109e9929190612c2f565b50600a60009054906101000a900460ff1615610c275747610a3e6040518060400160405280600381526020017f55524c0000000000000000000000000000000000000000000000000000000000815250611b6e565b1115610a7e577fc4dc360d0a9c0677a3379ae0a3d81e887f761e65fdf3d7e00859d1bcd3c47389604051610a7190613da6565b60405180910390a1610c22565b7fc4dc360d0a9c0677a3379ae0a3d81e887f761e65fdf3d7e00859d1bcd3c47389604051610aab90613d51565b60405180910390a16060610b566009805480602002602001604051908101604052809291908181526020016000905b82821015610b4c57838290600052602060002001805480602002602001604051908101604052809291908181526020018280548015610b3857602002820191906000526020600020905b815481526020019060010190808311610b24575b505050505081526020019060010190610ada565b505050508461126a565b90506060610bb36005805480602002602001604051908101604052809291908181526020018280548015610ba957602002820191906000526020600020905b815481526020019060010190808311610b95575b5050505050610523565b9050606082601383604051602001610bcd93929190613bbe565b6040516020818303038152906040529050610c1d6040518060400160405280600381526020017f55524c000000000000000000000000000000000000000000000000000000000081525082611e91565b505050505b610c5d565b7f9f3fc85979cf17a36a28923dfa3b22fcb290f7e0f531b636246326126006c91d604051610c5490613d1e565b60405180910390a15b5050505050565b6060600e805480602002602001604051908101604052809291908181526020018280548015610cb257602002820191906000526020600020905b815481526020019060010190808311610c9e575b5050505050905090565b610cc4612290565b73ffffffffffffffffffffffffffffffffffffffff163373ffffffffffffffffffffffffffffffffffffffff1614610cfb57600080fd5b8060129080519060200190610d11929190612b31565b507f9f3fc85979cf17a36a28923dfa3b22fcb290f7e0f531b636246326126006c91d6012604051610d429190613d71565b60405180910390a15050565b6000600a60009054906101000a900460ff16905090565b6000801b600360008060001b815260200190815260200160002081905550505050565b6000601154905090565b6060600f805480602002602001604051908101604052809291908181526020018280548015610de057602002820191906000526020600020905b815481526020019060010190808311610dcc575b5050505050905090565b6000601054905090565b6060600b805480602002602001604051908101604052809291908181526020018280548015610e4257602002820191906000526020600020905b815481526020019060010190808311610e2e575b5050505050905090565b6060600c805480602002602001604051908101604052809291908181526020016000905b82821015610ee257838290600052602060002001805480602002602001604051908101604052809291908181526020018280548015610ece57602002820191906000526020600020905b815481526020019060010190808311610eba575b505050505081526020019060010190610e70565b50505050905090565b6000610ef5612c7c565b604051806060016040528085600181518110610f0d57fe5b6020026020010151815260200185600281518110610f2757fe5b6020026020010151815260200185600381518110610f4157fe5b60200260200101518152509050610f56612c7c565b604051806060016040528086600481518110610f6e57fe5b6020026020010151815260200186600581518110610f8857fe5b6020026020010151815260200186600681518110610fa257fe5b60200260200101518152509050610fb7612c7c565b604051806060016040528086600081518110610fcf57fe5b6020026020010151815260200186600181518110610fe957fe5b602002602001015181526020018660028151811061100357fe5b602002602001015181525090506001601460006101000a81548160ff0219169083600181111561102f57fe5b021790555082602001518160200151148015611052575082604001518160400151145b156110a357806000015183600001511180611074575080600001518260000151105b1561109e576000601460006101000a81548160ff0219169083600181111561109857fe5b02179055505b611171565b82602001518160200151141580156110c2575082604001518160400151145b1561112757806020015183602001511080156110e5575080600001518360000151105b15806110f8575080602001518260200151105b15611122576000601460006101000a81548160ff0219169083600181111561111c57fe5b02179055505b611170565b82604001518160400151111580611145575080604001518260400151105b1561116f576000601460006101000a81548160ff0219169083600181111561116957fe5b02179055505b5b5b601460009054906101000a900460ff16600181111561118c57fe5b935050505092915050565b80600990805190602001906111ad929190612c9d565b5050565b6000600760009054906101000a900460ff16905090565b606060128054600181600116156101000203166002900480601f0160208091040260200160405190810160405280929190818152602001828054600181600116156101000203166002900480156112605780601f1061123557610100808354040283529160200191611260565b820191906000526020600020905b81548152906001019060200180831161124357829003601f168201915b5050505050905090565b6060806040518060400160405280600181526020017f5b000000000000000000000000000000000000000000000000000000000000008152509050600083855103905060008090505b60018651038110156113ec5760608682815181106112cd57fe5b6020026020010151905060606040518060400160405280600181526020017f5b00000000000000000000000000000000000000000000000000000000000000815250905060008490505b60018960008151811061132657fe5b60200260200101515103811015611383578161135484838151811061134757fe5b6020026020010151611a41565b604051602001611365929190613b60565b60405160208183030381529060405291508080600101915050611317565b5084816113ba8460018c60008151811061139957fe5b60200260200101515103815181106113ad57fe5b6020026020010151611a41565b6040516020016113cc93929190613ae8565b6040516020818303038152906040529450505080806001019150506112b3565b506060856001875103815181106113ff57fe5b6020026020010151905060606040518060400160405280600181526020017f5b00000000000000000000000000000000000000000000000000000000000000815250905060008390505b60018860008151811061145857fe5b602002602001015151038110156114b5578161148684838151811061147957fe5b6020026020010151611a41565b604051602001611497929190613b60565b60405160208183030381529060405291508080600101915050611449565b5083816114ec8460018b6000815181106114cb57fe5b60200260200101515103815181106114df57fe5b6020026020010151611a41565b6040516020016114fe93929190613b24565b60405160208183030381529060405293507fd98861eb3806c20d62ecbbd3c77c813c41146acfc1998c3fb80c874eeb29b2238460405161153e9190613cfc565b60405180910390a18394505050505092915050565b60158054600181600116156101000203166002900480601f0160208091040260200160405190810160405280929190818152602001828054600181600116156101000203166002900480156115e95780601f106115be576101008083540402835291602001916115e9565b820191906000526020600020905b8154815290600101906020018083116115cc57829003601f168201915b505050505081565b6060600580548060200260200160405190810160405280929190818152602001828054801561163f57602002820191906000526020600020905b81548152602001906001019080831161162b575b5050505050905090565b736f485c8bf6fc43ea212e93bbf8ce046c7f1cb475600160006101000a81548173ffffffffffffffffffffffffffffffffffffffff021916908373ffffffffffffffffffffffffffffffffffffffff1602179055507f11a3fca63f87bd67d7f9f72b744acc8be2193705e7a734ac3a773d35d259e87b6040516116cb90613dc6565b60405180910390a1565b60006116df612c7c565b6040518060600160405280856001815181106116f757fe5b602002602001015181526020018560028151811061171157fe5b602002602001015181526020018560038151811061172b57fe5b60200260200101518152509050611740612c7c565b60405180606001604052808660048151811061175857fe5b602002602001015181526020018660058151811061177257fe5b602002602001015181526020018660068151811061178c57fe5b602002602001015181525090506117a1612c7c565b6040518060600160405280866000815181106117b957fe5b60200260200101518152602001866001815181106117d357fe5b60200260200101518152602001866002815181106117ed57fe5b60200260200101518152509050611802612c7c565b60405180606001604052808760038151811061181a57fe5b602002602001015181526020018760048151811061183457fe5b602002602001015181526020018760058151811061184e57fe5b602002602001015181525090506001601460006101000a81548160ff0219169083600181111561187a57fe5b0217905550816000015181600001511161189357600080fd5b836020015182602001511480156118b1575083604001518260400151145b80156118c4575082604001518160400151145b15611915578160000151846000015111806118e6575080600001518360000151105b15611910576000601460006101000a81548160ff0219169083600181111561190a57fe5b02179055505b611a1a565b8360200151826020015114158015611934575083604001518260400151145b8015611947575082604001518160400151145b156119be578160200151846020015110801561196a575081600001518460000151105b158061197d575081602001518360200151105b8061198f575080602001518360200151105b156119b9576000601460006101000a81548160ff021916908360018111156119b357fe5b02179055505b611a19565b836040015182604001511115806119dc575081604001518360400151105b806119ee575080604001518360400151105b15611a18576000601460006101000a81548160ff02191690836001811115611a1257fe5b02179055505b5b5b601460009054906101000a900460ff166001811115611a3557fe5b94505050505092915050565b60606000821415611a89576040518060400160405280600181526020017f30000000000000000000000000000000000000000000000000000000000000008152509050611b69565b600082905060005b60008214611ab3578080600101915050600a8281611aab57fe5b049150611a91565b6060816040519080825280601f01601f191660200182016040528015611ae85781602001600182028038833980820191505090505b50905060006001830390505b60008614611b6157600a8681611b0657fe5b0660300160f81b82828060019003935081518110611b2057fe5b60200101907effffffffffffffffffffffffffffffffffffffffffffffffffffffffffffff1916908160001a905350600a8681611b5957fe5b049550611af4565b819450505050505b919050565b60008073ffffffffffffffffffffffffffffffffffffffff16600160009054906101000a900473ffffffffffffffffffffffffffffffffffffffff1673ffffffffffffffffffffffffffffffffffffffff161480611bf657506000611bf4600160009054906101000a900473ffffffffffffffffffffffffffffffffffffffff166125a4565b145b15611c0757611c0560006125af565b505b600160009054906101000a900473ffffffffffffffffffffffffffffffffffffffff1673ffffffffffffffffffffffffffffffffffffffff166338cc48316040518163ffffffff1660e01b8152600401602060405180830381600087803b158015611c7157600080fd5b505af1158015611c85573d6000803e3d6000fd5b505050506040513d601f19601f82011682018060405250611ca99190810190613047565b73ffffffffffffffffffffffffffffffffffffffff166000809054906101000a900473ffffffffffffffffffffffffffffffffffffffff1673ffffffffffffffffffffffffffffffffffffffff1614611dde57600160009054906101000a900473ffffffffffffffffffffffffffffffffffffffff1673ffffffffffffffffffffffffffffffffffffffff166338cc48316040518163ffffffff1660e01b8152600401602060405180830381600087803b158015611d6657600080fd5b505af1158015611d7a573d6000803e3d6000fd5b505050506040513d601f19601f82011682018060405250611d9e9190810190613047565b6000806101000a81548173ffffffffffffffffffffffffffffffffffffffff021916908373ffffffffffffffffffffffffffffffffffffffff1602179055505b6000809054906101000a900473ffffffffffffffffffffffffffffffffffffffff1673ffffffffffffffffffffffffffffffffffffffff1663524f3889836040518263ffffffff1660e01b8152600401611e389190613cfc565b602060405180830381600087803b158015611e5257600080fd5b505af1158015611e66573d6000803e3d6000fd5b505050506040513d601f19601f82011682018060405250611e8a9190810190613359565b9050919050565b60008073ffffffffffffffffffffffffffffffffffffffff16600160009054906101000a900473ffffffffffffffffffffffffffffffffffffffff1673ffffffffffffffffffffffffffffffffffffffff161480611f1957506000611f17600160009054906101000a900473ffffffffffffffffffffffffffffffffffffffff166125a4565b145b15611f2a57611f2860006125af565b505b600160009054906101000a900473ffffffffffffffffffffffffffffffffffffffff1673ffffffffffffffffffffffffffffffffffffffff166338cc48316040518163ffffffff1660e01b8152600401602060405180830381600087803b158015611f9457600080fd5b505af1158015611fa8573d6000803e3d6000fd5b505050506040513d601f19601f82011682018060405250611fcc9190810190613047565b73ffffffffffffffffffffffffffffffffffffffff166000809054906101000a900473ffffffffffffffffffffffffffffffffffffffff1673ffffffffffffffffffffffffffffffffffffffff161461210157600160009054906101000a900473ffffffffffffffffffffffffffffffffffffffff1673ffffffffffffffffffffffffffffffffffffffff166338cc48316040518163ffffffff1660e01b8152600401602060405180830381600087803b15801561208957600080fd5b505af115801561209d573d6000803e3d6000fd5b505050506040513d601f19601f820116820180604052506120c19190810190613047565b6000806101000a81548173ffffffffffffffffffffffffffffffffffffffff021916908373ffffffffffffffffffffffffffffffffffffffff1602179055505b60008060009054906101000a900473ffffffffffffffffffffffffffffffffffffffff1673ffffffffffffffffffffffffffffffffffffffff1663524f3889856040518263ffffffff1660e01b815260040161215d9190613cfc565b602060405180830381600087803b15801561217757600080fd5b505af115801561218b573d6000803e3d6000fd5b505050506040513d601f19601f820116820180604052506121af9190810190613359565b905062030d403a02670de0b6b3a7640000018111156121d4576000801b91505061228a565b6000809054906101000a900473ffffffffffffffffffffffffffffffffffffffff1673ffffffffffffffffffffffffffffffffffffffff1663adf59f9982600087876040518563ffffffff1660e01b815260040161223493929190613c95565b6020604051808303818588803b15801561224d57600080fd5b505af1158015612261573d6000803e3d6000fd5b50505050506040513d601f19601f82011682018060405250612286919081019061325d565b9150505b92915050565b60008073ffffffffffffffffffffffffffffffffffffffff16600160009054906101000a900473ffffffffffffffffffffffffffffffffffffffff1673ffffffffffffffffffffffffffffffffffffffff16148061231857506000612316600160009054906101000a900473ffffffffffffffffffffffffffffffffffffffff166125a4565b145b156123295761232760006125af565b505b600160009054906101000a900473ffffffffffffffffffffffffffffffffffffffff1673ffffffffffffffffffffffffffffffffffffffff166338cc48316040518163ffffffff1660e01b8152600401602060405180830381600087803b15801561239357600080fd5b505af11580156123a7573d6000803e3d6000fd5b505050506040513d601f19601f820116820180604052506123cb9190810190613047565b73ffffffffffffffffffffffffffffffffffffffff166000809054906101000a900473ffffffffffffffffffffffffffffffffffffffff1673ffffffffffffffffffffffffffffffffffffffff161461250057600160009054906101000a900473ffffffffffffffffffffffffffffffffffffffff1673ffffffffffffffffffffffffffffffffffffffff166338cc48316040518163ffffffff1660e01b8152600401602060405180830381600087803b15801561248857600080fd5b505af115801561249c573d6000803e3d6000fd5b505050506040513d601f19601f820116820180604052506124c09190810190613047565b6000806101000a81548173ffffffffffffffffffffffffffffffffffffffff021916908373ffffffffffffffffffffffffffffffffffffffff1602179055505b6000809054906101000a900473ffffffffffffffffffffffffffffffffffffffff1673ffffffffffffffffffffffffffffffffffffffff1663c281d19e6040518163ffffffff1660e01b815260040160206040518083038186803b15801561256757600080fd5b505afa15801561257b573d6000803e3d6000fd5b505050506040513d601f19601f8201168201806040525061259f9190810190613047565b905090565b6000813b9050919050565b60006125b96125c0565b9050919050565b6000806125e0731d3b2638a7cc9f2cb3d298a3da7a90b67e5506ed6125a4565b111561268257731d3b2638a7cc9f2cb3d298a3da7a90b67e5506ed600160006101000a81548173ffffffffffffffffffffffffffffffffffffffff021916908373ffffffffffffffffffffffffffffffffffffffff1602179055506126796040518060400160405280600b81526020017f6574685f6d61696e6e6574000000000000000000000000000000000000000000815250612b17565b60019050612b14565b60006126a173c03a2615d5efaf5f49f60b7bb6583eaec212fdf16125a4565b11156127435773c03a2615d5efaf5f49f60b7bb6583eaec212fdf1600160006101000a81548173ffffffffffffffffffffffffffffffffffffffff021916908373ffffffffffffffffffffffffffffffffffffffff16021790555061273a6040518060400160405280600c81526020017f6574685f726f707374656e330000000000000000000000000000000000000000815250612b17565b60019050612b14565b600061276273b7a07bcf2ba2f2703b24c0691b5278999c59ac7e6125a4565b11156128045773b7a07bcf2ba2f2703b24c0691b5278999c59ac7e600160006101000a81548173ffffffffffffffffffffffffffffffffffffffff021916908373ffffffffffffffffffffffffffffffffffffffff1602179055506127fb6040518060400160405280600981526020017f6574685f6b6f76616e0000000000000000000000000000000000000000000000815250612b17565b60019050612b14565b600061282373146500cfd35b22e4a392fe0adc06de1a1368ed486125a4565b11156128c55773146500cfd35b22e4a392fe0adc06de1a1368ed48600160006101000a81548173ffffffffffffffffffffffffffffffffffffffff021916908373ffffffffffffffffffffffffffffffffffffffff1602179055506128bc6040518060400160405280600b81526020017f6574685f72696e6b656279000000000000000000000000000000000000000000815250612b17565b60019050612b14565b60006128e473a2998efd205fb9d4b4963afb70778d6354ad3a416125a4565b11156129865773a2998efd205fb9d4b4963afb70778d6354ad3a41600160006101000a81548173ffffffffffffffffffffffffffffffffffffffff021916908373ffffffffffffffffffffffffffffffffffffffff16021790555061297d6040518060400160405280600a81526020017f6574685f676f65726c6900000000000000000000000000000000000000000000815250612b17565b60019050612b14565b60006129a5736f485c8bf6fc43ea212e93bbf8ce046c7f1cb4756125a4565b1115612a0957736f485c8bf6fc43ea212e93bbf8ce046c7f1cb475600160006101000a81548173ffffffffffffffffffffffffffffffffffffffff021916908373ffffffffffffffffffffffffffffffffffffffff16021790555060019050612b14565b6000612a287320e12a1f859b3feae5fb2a0a32c18f5a65555bbf6125a4565b1115612a8c577320e12a1f859b3feae5fb2a0a32c18f5a65555bbf600160006101000a81548173ffffffffffffffffffffffffffffffffffffffff021916908373ffffffffffffffffffffffffffffffffffffffff16021790555060019050612b14565b6000612aab7351efaf4c8b3c9afbd5ab9f4bbc82784ab6ef8faa6125a4565b1115612b0f577351efaf4c8b3c9afbd5ab9f4bbc82784ab6ef8faa600160006101000a81548173ffffffffffffffffffffffffffffffffffffffff021916908373ffffffffffffffffffffffffffffffffffffffff16021790555060019050612b14565b600090505b90565b8060029080519060200190612b2d929190612b31565b5050565b828054600181600116156101000203166002900490600052602060002090601f016020900481019282601f10612b7257805160ff1916838001178555612ba0565b82800160010185558215612ba0579182015b82811115612b9f578251825591602001919060010190612b84565b5b509050612bad9190612cfd565b5090565b815481835581811115612bd857818360005260206000209182019101612bd79190612cfd565b5b505050565b828054828255906000526020600020908101928215612c1e5760005260206000209182015b82811115612c1d578254825591600101919060010190612c02565b5b509050612c2b9190612cfd565b5090565b828054828255906000526020600020908101928215612c6b579160200282015b82811115612c6a578251825591602001919060010190612c4f565b5b509050612c789190612cfd565b5090565b60405180606001604052806000815260200160008152602001600081525090565b828054828255906000526020600020908101928215612cec579160200282015b82811115612ceb578251829080519060200190612cdb929190612d22565b5091602001919060010190612cbd565b5b509050612cf99190612d6f565b5090565b612d1f91905b80821115612d1b576000816000905550600101612d03565b5090565b90565b828054828255906000526020600020908101928215612d5e579160200282015b82811115612d5d578251825591602001919060010190612d42565b5b509050612d6b9190612cfd565b5090565b612d9891905b80821115612d945760008181612d8b9190612d9b565b50600101612d75565b5090565b90565b5080546000825590600052602060002090810190612db99190612cfd565b50565b600081519050612dcb816140d9565b92915050565b600082601f830112612de257600080fd5b8135612df5612df082613e2e565b613e01565b9150818183526020840193506020810190508360005b83811015612e3b5781358601612e218882612e45565b845260208401935060208301925050600181019050612e0b565b5050505092915050565b600082601f830112612e5657600080fd5b8135612e69612e6482613e56565b613e01565b91508181835260208401935060208101905083856020840282011115612e8e57600080fd5b60005b83811015612ebe5781612ea4888261301d565b845260208401935060208301925050600181019050612e91565b5050505092915050565b600082601f830112612ed957600080fd5b8135612eec612ee782613e7e565b613e01565b91508181835260208401935060208101905083856020840282011115612f1157600080fd5b60005b83811015612f415781612f27888261301d565b845260208401935060208301925050600181019050612f14565b5050505092915050565b600081359050612f5a816140f0565b92915050565b600081519050612f6f816140f0565b92915050565b600082601f830112612f8657600080fd5b8135612f99612f9482613ea6565b613e01565b91508082526020830160208301858383011115612fb557600080fd5b612fc0838284614079565b50505092915050565b600082601f830112612fda57600080fd5b8135612fed612fe882613ed2565b613e01565b9150808252602083016020830185838301111561300957600080fd5b613014838284614079565b50505092915050565b60008135905061302c81614107565b92915050565b60008151905061304181614107565b92915050565b60006020828403121561305957600080fd5b600061306784828501612dbc565b91505092915050565b60006020828403121561308257600080fd5b600082013567ffffffffffffffff81111561309c57600080fd5b6130a884828501612dd1565b91505092915050565b600080604083850312156130c457600080fd5b600083013567ffffffffffffffff8111156130de57600080fd5b6130ea85828601612dd1565b92505060206130fb8582860161301d565b9150509250929050565b60006020828403121561311757600080fd5b600082013567ffffffffffffffff81111561313157600080fd5b61313d84828501612ec8565b91505092915050565b6000806040838503121561315957600080fd5b600083013567ffffffffffffffff81111561317357600080fd5b61317f85828601612ec8565b925050602083013567ffffffffffffffff81111561319c57600080fd5b6131a885828601612ec8565b9150509250929050565b600080600080608085870312156131c857600080fd5b600085013567ffffffffffffffff8111156131e257600080fd5b6131ee87828801612ec8565b945050602085013567ffffffffffffffff81111561320b57600080fd5b61321787828801612ec8565b935050604085013567ffffffffffffffff81111561323457600080fd5b61324087828801612fc9565b92505060606132518782880161301d565b91505092959194509250565b60006020828403121561326f57600080fd5b600061327d84828501612f60565b91505092915050565b6000806040838503121561329957600080fd5b60006132a785828601612f4b565b925050602083013567ffffffffffffffff8111156132c457600080fd5b6132d085828601612fc9565b9150509250929050565b6000806000606084860312156132ef57600080fd5b60006132fd86828701612f4b565b935050602084013567ffffffffffffffff81111561331a57600080fd5b61332686828701612fc9565b925050604084013567ffffffffffffffff81111561334357600080fd5b61334f86828701612f75565b9150509250925092565b60006020828403121561336b57600080fd5b600061337984828501613032565b91505092915050565b600061338e8383613481565b905092915050565b60006133a28383613aca565b60208301905092915050565b60006133b982613f43565b6133c38185613fa1565b9350836020820285016133d585613efe565b8060005b8581101561341157848403895281516133f28582613382565b94506133fd83613f7a565b925060208a019950506001810190506133d9565b50829750879550505050505092915050565b600061342e82613f59565b6134388185613fc3565b935061344383613f1e565b8060005b8381101561347457815161345b8882613396565b975061346683613f94565b925050600181019050613447565b5085935050505092915050565b600061348c82613f4e565b6134968185613fb2565b93506134a183613f0e565b8060005b838110156134d25781516134b98882613396565b97506134c483613f87565b9250506001810190506134a5565b5085935050505092915050565b6134e881614002565b82525050565b6134f781614055565b82525050565b61350681614067565b82525050565b600061351782613f6f565b6135218185613fd4565b9350613531818560208601614088565b61353a816140bb565b840191505092915050565b600061355082613f6f565b61355a8185613fe5565b935061356a818560208601614088565b80840191505092915050565b600061358182613f64565b61358b8185613fd4565b935061359b818560208601614088565b6135a4816140bb565b840191505092915050565b6000815460018116600081146135cc57600181146135f257613636565b607f60028304166135dd8187613fd4565b955060ff198316865260208601935050613636565b600282046136008187613fd4565b955061360b85613f2e565b60005b8281101561362d5781548189015260018201915060208101905061360e565b80880195505050505b505092915050565b60008154600181166000811461365b5760018114613680576136c4565b607f600283041661366c8187613fe5565b955060ff19831686528086019350506136c4565b6002820461368e8187613fe5565b955061369985613f2e565b60005b828110156136bb5781548189015260018201915060208101905061369c565b82880195505050505b505092915050565b60006136d9601183613fd4565b91507f4e6f206d61746368696e6720666f756e640000000000000000000000000000006000830152602082019050919050565b6000613719603583613fd4565b91507f50726f7661626c65207175657279207761732073656e742c207374616e64696e60008301527f6720627920666f722074686520616e737765722e2e00000000000000000000006020830152604082019050919050565b600061377f600883613fe5565b91507f2666696c7465723d0000000000000000000000000000000000000000000000006000830152600882019050919050565b60006137bf600883613fd4565b91507f4d61746368696e670000000000000000000000000000000000000000000000006000830152602082019050919050565b60006137ff604b83613fd4565b91507f50726f7661626c6520717565727920776173204e4f542073656e742c20706c6560008301527f6173652061646420736f6d652045544820746f20636f76657220666f7220746860208301527f65207175657279206665650000000000000000000000000000000000000000006040830152606082019050919050565b600061388b600183613fe5565b91507f2c000000000000000000000000000000000000000000000000000000000000006000830152600182019050919050565b60006138cb600283613fe5565b91507f5d2c0000000000000000000000000000000000000000000000000000000000006000830152600282019050919050565b600061390b600883613fe5565b91507f26616c7068613d5b0000000000000000000000000000000000000000000000006000830152600882019050919050565b600061394b600183613fe5565b91507f5d000000000000000000000000000000000000000000000000000000000000006000830152600182019050919050565b600061398b604983613fd4565b91507f436f6e7374727563746f722077617320696e697469617465642e2043616c6c2060008301527f27516f534f7261636c6528292720746f2073656e64207468652050726f76616260208301527f6c652051756572792e00000000000000000000000000000000000000000000006040830152606082019050919050565b6000613a17600083613fd4565b9150600082019050919050565b6000613a31600283613fe5565b91507f5d5d0000000000000000000000000000000000000000000000000000000000006000830152600282019050919050565b6000613a71602c83613fe5565b91507f68747470733a2f2f716f736170692e6865726f6b756170702e636f6d2f61706960008301527f2f716f733f6d61747269783d00000000000000000000000000000000000000006020830152602c82019050919050565b613ad38161404b565b82525050565b613ae28161404b565b82525050565b6000613af48286613545565b9150613b008285613545565b9150613b0c8284613545565b9150613b17826138be565b9150819050949350505050565b6000613b308286613545565b9150613b3c8285613545565b9150613b488284613545565b9150613b5382613a24565b9150819050949350505050565b6000613b6c8285613545565b9150613b788284613545565b9150613b838261387e565b91508190509392505050565b6000613b9b8285613545565b9150613ba78284613545565b9150613bb28261393e565b91508190509392505050565b6000613bc982613a64565b9150613bd58286613545565b9150613be0826138fe565b9150613bec828561363e565b9150613bf78261393e565b9150613c0282613772565b9150613c0e8284613545565b9150819050949350505050565b60006020820190508181036000830152613c3581846133ae565b905092915050565b60006020820190508181036000830152613c578184613423565b905092915050565b6000602082019050613c7460008301846134df565b92915050565b6000602082019050613c8f60008301846134ee565b92915050565b6000606082019050613caa60008301866134fd565b8181036020830152613cbc818561350c565b90508181036040830152613cd0818461350c565b9050949350505050565b60006020820190508181036000830152613cf48184613576565b905092915050565b60006020820190508181036000830152613d16818461350c565b905092915050565b60006040820190508181036000830152613d37816136cc565b90508181036020830152613d4a81613a0a565b9050919050565b60006020820190508181036000830152613d6a8161370c565b9050919050565b60006040820190508181036000830152613d8a816137b2565b90508181036020830152613d9e81846135af565b905092915050565b60006020820190508181036000830152613dbf816137f2565b9050919050565b60006020820190508181036000830152613ddf8161397e565b9050919050565b6000602082019050613dfb6000830184613ad9565b92915050565b6000604051905081810181811067ffffffffffffffff82111715613e2457600080fd5b8060405250919050565b600067ffffffffffffffff821115613e4557600080fd5b602082029050602081019050919050565b600067ffffffffffffffff821115613e6d57600080fd5b602082029050602081019050919050565b600067ffffffffffffffff821115613e9557600080fd5b602082029050602081019050919050565b600067ffffffffffffffff821115613ebd57600080fd5b601f19601f8301169050602081019050919050565b600067ffffffffffffffff821115613ee957600080fd5b601f19601f8301169050602081019050919050565b6000819050602082019050919050565b6000819050602082019050919050565b6000819050602082019050919050565b60008190508160005260206000209050919050565b600081519050919050565b600081519050919050565b600081519050919050565b600081519050919050565b600081519050919050565b6000602082019050919050565b6000602082019050919050565b6000602082019050919050565b600082825260208201905092915050565b600082825260208201905092915050565b600082825260208201905092915050565b600082825260208201905092915050565b600081905092915050565b6000613ffb8261402b565b9050919050565b60008115159050919050565b6000819050919050565b6000819050614026826140cc565b919050565b600073ffffffffffffffffffffffffffffffffffffffff82169050919050565b6000819050919050565b600061406082614018565b9050919050565b60006140728261404b565b9050919050565b82818337600083830152505050565b60005b838110156140a657808201518184015260208101905061408b565b838111156140b5576000848401525b50505050565b6000601f19601f8301169050919050565b600281106140d657fe5b50565b6140e281613ff0565b81146140ed57600080fd5b50565b6140f98161400e565b811461410457600080fd5b50565b6141108161404b565b811461411b57600080fd5b5056fea365627a7a72315820b31e557fe4c60cc9d4c521f6181fbb460ec083a763e258bf323dd94d8d9cf6f86c6578706572696d656e74616cf564736f6c63430005100040",
  "source": "pragma experimental ABIEncoderV2;\n\npragma solidity ^0.5.16;\n\n//import \"./Sort.sol\";\n\nimport \"./SafeMath.sol\";\n\n\nimport \"./ProvableAPI_0.5.sol\";\n\n//import \"github.com/provable-things/ethereum-api/provableAPI_0.5.sol\";\n\n\n/**\n * @title Elect\n * \n * \n * Smart contract to elect a profile based on a set of objective criteria, and a QoS. \n */\n\n\ncontract Elect is usingProvable {\n    // list of persons with attribute values:   \n    // [[id, startDay, startMonth, startYear, endDay, endMonth, endYear, equipment1, equipment2, equipment3 //pickup, distance]]\n    // pickup and delivery: *10E7, add a 'neg element' to string? (neg1 / neg2 --> and adapt calculus accordingly)\n    \n    //uint[][] candidates =[\n    //                        [1, 12,5,21, 13,5,21, 1,1,1],\n    //                        [2, 12,5,21, 15,5,21, 1,1,1],\n    //                        [3, 12,5,21, 16,5,21, 1,1,1],\n    //                        [4, 10,5,21, 14,5,21, 1,1,1],\n    //                        [5, 11,5,21, 14,5,21, 1,1,1]\n    //                    ];     \n    //uint[] filteringAttributes = [1,1,1];    // list of filtering attributes     \n    //uint[] availability = [12,1,21];\n    \n\n    uint[] filter;\n    \n    string filteredIds;\n    \n    enum AvailabiltyState{ONEDAY, SEVERALDAYS}\n    AvailabiltyState avState;\n\n    uint[] candidate;\n    uint[][] candidates = [[6,12,1,21,13,1,21,1,0,0,10,3],[6,12,1,21,13,1,21,1,0,0,10,3],[6,12,1,21,13,1,21,0,0,0,10,3]];\n\n    //uint[][] candidates;\n\n    bool hasCandidates = false;\n\n\n    uint[] normalized;\n    uint[][] normalizedArray;\n    uint[][] tmpNormalizedArray;\n    uint[] QoSList;\n    uint[] sortedQoSList;\n\n    uint QoS;\n    uint n;\n\n    //uint K=3; num params\n    string bestProfiles;\n\n    string alphas; \n\n    event BestCandidates(\n        string ExistCandidates,\n        string profiles  \n    );\n    \n    enum TestOutput{NO,YES}\n    TestOutput output;\n\n    struct Date { \n      uint day;\n      uint month;\n      uint year;\n   }\n\n   string public qosList_string;\n   event LogConstructorInitiated(string nextStep);\n   event LogQoSCompute(string qosList);\n   event LogNewProvableQuery(string description);\n\n    function () external payable {}\n\n    ///// Delegated services        \n    function getfilter() public view returns(uint[] memory){\n        return filter;\n    }\n\n    function existsCandidates() public view returns(bool){\n        return hasCandidates;\n    }\n\n    function setCandidates(uint[][] memory _candidates) public payable {\n        candidates = _candidates;\n    }\n\n    function getCandidates() public view returns(uint[][] memory){\n        return candidates;\n    }\n\n    function getAvailabiltyState() public view returns(AvailabiltyState){\n        return avState;\n    }\n\n    function getQoSList() public view returns(uint[] memory){\n        return QoSList;   \n    }\n\n    function getSortedQoS() public view returns(uint[] memory){\n        return sortedQoSList;   \n    }\n\n    function getNormalized() public view returns(uint[] memory){       \n        return normalized;\n    }\n\n    function getNormalizedArray() public view returns(uint[][] memory){\n        return normalizedArray;\n    }\n\n    function getQoS() public view returns (uint){\n        return QoS;\n    }\n\n    function getN() public view returns (uint){\n        // number of services realized\n        return n;\n    }\n\n    function getBestProfiles() public view returns (string memory){\n        return bestProfiles;\n    }\n\n\n\n    function oneDayAvailability(uint[] memory _person, uint[] memory _availability) public payable returns(uint){\n        \n        \n        Date memory ASDate = Date(_person[1],_person[2],_person[3]);  // available start\n        Date memory AEDate = Date(_person[4],_person[5],_person[6]); //available end\n\n        Date memory RSDate = Date(_availability[0],_availability[1],_availability[2]); // required start\n\n        output = TestOutput.YES;\n\n\n        if((RSDate.month==ASDate.month) && (RSDate.year==ASDate.year)){ // same month, same year\n            if((ASDate.day > RSDate.day)||(AEDate.day<RSDate.day)){ // person is booked\n                output = TestOutput.NO;\n                }\n            }\n        else if((RSDate.month!=ASDate.month) && (RSDate.year==ASDate.year)){ //same year, different month\n            if(!((ASDate.month < RSDate.month) && (ASDate.day < RSDate.day)) || (AEDate.month<RSDate.month)){ // person is booked\n                output = TestOutput.NO;\n            }\n        }\n        else{ //different year\n            if(!(RSDate.year>ASDate.year)||(AEDate.year<RSDate.year)){ // person is booked\n                output = TestOutput.NO;\n            }\n        }\n        return uint(output);\n    }\n\n\n    function severalDaysAvailability(uint[] memory _person, uint[] memory _availability) public payable returns(uint){\n        \n        \n        Date memory ASDate = Date(_person[1],_person[2],_person[3]);  // available start\n        Date memory AEDate = Date(_person[4],_person[5],_person[6]); //available end\n\n        Date memory RSDate = Date(_availability[0],_availability[1],_availability[2]); // required start\n        Date memory REDate = Date(_availability[3],_availability[4],_availability[5]); // required end\n\n        output = TestOutput.YES;\n        \n        require(REDate.day>RSDate.day);\n\n        if((RSDate.month==ASDate.month) && (RSDate.year==ASDate.year) && (REDate.year==AEDate.year)){ // same start month, same year\n            if((ASDate.day > RSDate.day)||(AEDate.day<REDate.day)){ // person is booked\n                output = TestOutput.NO;\n                }\n        }\n        else if((RSDate.month!=ASDate.month) && (RSDate.year==ASDate.year) &&  (REDate.year==AEDate.year)){ //same year, different month\n            if(!((ASDate.month < RSDate.month) && (ASDate.day < RSDate.day)) || (AEDate.month<RSDate.month) || (AEDate.month<REDate.month)){ // person is booked\n                output = TestOutput.NO;                }\n            }\n        else{ //different year\n            if(!(RSDate.year>ASDate.year)||(AEDate.year<RSDate.year)||(AEDate.year<REDate.year)){ // person is booked\n                output = TestOutput.NO;            }\n        }\n        \n        return uint(output);\n    }\n    \n    ///// Provable test\n\n    function ProvableContract() public payable {\n        OAR = OracleAddrResolverI(0x6f485C8BF6fc43eA212E93BBF8ce046C7f1cb475);\n        emit LogConstructorInitiated(\"Constructor was initiated. Call 'QoSOracle()' to send the Provable Query.\");\n    }\n\n    function __callback(bytes32 myid, string memory result) public {\n        if (msg.sender != provable_cbAddress()) revert();\n        \n        bestProfiles=result;\n\n        //emit LogQoSCompute(result);\n\n        //// get best profiles        \n        //bestProfileIndexes.length=0;\n\n        //QoSList.length=0;\n        //for (uint i=0;i<input.length;i++){\n        //    uint _QoS = SafeMath.mul(filter[i], input[i]);            \n        //    QoSList.push(_QoS);\n        //}\n\n        // get n best ones\n        //uint[] memory tmpList = new uint[](QoSList.length);\n        //for (uint i=0;i<QoSList.length;i++){\n        //    tmpList[i] = QoSList[i];\n        //}\n\n        //for(uint j=0;j<K;j++){\n        //    uint _QoS = tmpList[0];        \n        //    uint _index = 0;\n\n        //    for (uint i=0;i<QoSList.length;i++){\n        //        if(tmpList[i]>_QoS){\n        //            _QoS=tmpList[i];\n        //            _index = i;\n        //        }\n        //    }\n        //    bestProfileIndexes.push([_index,_QoS]);\n        //    tmpList[_index]=0;\n        //}\n\n        // emit event\n        emit BestCandidates(\n            'Matching',\n            bestProfiles\n        );\n\n\n    }\n\n    event ToString(string result);\n\n\n    function list2string(uint[] memory list) public payable returns(string memory) {\n             \n                string memory str_list = \"[\";\n                for(uint j=0;j<list.length-1;j++){    \n                    str_list = string(abi.encodePacked(str_list, uint2str(list[j]), \",\"));\n                }\n                str_list = string(abi.encodePacked(str_list,uint2str(list[list.length-1]), \"]\"));\n                emit ToString(str_list);\n                return str_list;\n    }\n\n\n    function uintarrays2string(uint[][] memory array, uint num_param) public payable returns(string memory) {\n                string memory str_matrix = \"[\";\n\n                uint ind_param = array.length - num_param;\n\n                for(uint i=0;i<array.length-1;i++){ // for each candidate, compute str \n\n                    uint[] memory cdd = array[i];\n                    string memory str_cdd = \"[\";\n\n                    for(uint j=ind_param;j<array[0].length-1;j++){    \n                        str_cdd = string(abi.encodePacked(str_cdd, uint2str(cdd[j]), \",\"));\n                    }\n                    str_matrix = string(abi.encodePacked(str_matrix, str_cdd, uint2str(cdd[array[0].length-1]), \"],\"));\n\n                }\n\n                uint[] memory cdd = array[array.length-1];\n                string memory str_cdd = \"[\";\n                for(uint j=ind_param;j<array[0].length-1;j++){    \n                    str_cdd = string(abi.encodePacked(str_cdd, uint2str(cdd[j]), \",\"));\n                }\n                str_matrix = string(abi.encodePacked(str_matrix, str_cdd, uint2str(cdd[array[0].length-1]), \"]]\"));\n            \n                emit ToString(str_matrix);\n                \n                return str_matrix;\n\n    }\n\n    //////// main\n\n    function elect(uint[] memory filteringAttributes, uint[] memory availability, string memory _alphas, uint num_alphas) public payable{\n        hasCandidates=false; // reset\n\n        alphas =_alphas;\n\n        // proceed to filtering\n        uint[] memory _filter = new uint[](candidates.length);\n        // reinitialize list of candidates\n        for(uint i=0; i<candidates.length;i++){\n            _filter[i]=0;\n        }\n\n        for(uint ind=0; ind<candidates.length; ind++){ // test all candidates\n            candidate.length = 0;\n\n            candidate = candidates[ind];\n            \n            bool testOutput = true;\n\n            // filter on  attributes\n            uint index=0;\n\n            uint filterMaxInd = 7 + filteringAttributes.length;\n\n            for(uint id_att=7; id_att<filterMaxInd; id_att++){\n                if((filteringAttributes[index]==1) && (candidate[id_att]!=1)){\n                        testOutput=false;\n                }\n                index++;\n            }\n\n            //filter on availability\n\n            if(testOutput){\n                if((availability.length==3)||\n                    ((availability[0]==availability[3])&&(availability[1]==availability[4])&&(availability[2]==availability[5]))){ // ask for a day booking\n                    avState = AvailabiltyState.ONEDAY;\n                    _filter[ind]=oneDayAvailability(candidate, availability);\n                }\n                else{ \n                    //availability.length==6, ask for a several-days booking \n                    avState = AvailabiltyState.SEVERALDAYS;\n                    _filter[ind]=severalDaysAvailability(candidate, availability);\n                }\n\n                if(_filter[ind] == 1){\n                    hasCandidates=true;\n                }\n            }\n        }\n        \n        filter = _filter;\n        \n        if(hasCandidates){\n            /// compute qos via oracle\n            if (provable_getPrice(\"URL\") > address(this).balance) {\n                emit LogNewProvableQuery(\"Provable query was NOT sent, please add some ETH to cover for the query fee\");\n            } else {\n                emit LogNewProvableQuery(\"Provable query was sent, standing by for the answer..\");\n                string memory str_matrix = uintarrays2string(candidates,num_alphas);\n                string memory str_filter = list2string(filter);\n                string memory url= string(abi.encodePacked(\"https://qosapi.herokuapp.com/api/qos?matrix=\", str_matrix, \"&alpha=[\", alphas,\"]\", \"&filter=\", str_filter));\n                provable_query(\"URL\",url);\n            }\n        }\n\n        else{\n            emit BestCandidates('No matching found', '');\n        }\n    }\n    \n    \n    \n    // delivery update\n    //function updateQoS(uint input) public payable returns (uint){\n    //    n = n+1;\n    //    uint mulFact = 100; // avoid floating points\n\n    //    if(n==1){\n    //        QoS = input;\n    //    }\n    //    else{\n    //    uint K = div(mul(2,mulFact),n); \n    //    uint newQoS = mul(K, input) + mul(mulFact,QoS) - mul(K, QoS);\n        \n    //    QoS = div(newQoS, 100);\n    //    }\n        \n    //    return QoS;\n    //}\n    //////// QoS calculation\n\n\n    // function normalize(uint[] memory input, uint mulfactor) public payable returns(uint[] memory){\n    //    normalized.length=0; \n                \n        //get largest\n    //    uint256 largest = 0; \n    //    for(uint i = 0; i < input.length; i++){\n    //        if(input[i] > largest) {\n    //            largest = input[i]; \n    //        } \n    //    }\n                \n                \n        //get smallest            uint  = 0;\n            \n    //        if(filter[i]==1){\n    //            for (uint j=0; j<input[0].length; j++){\n    //                    _QoS = _QoS + SafeMath.mul(alphas[i], input[i][j]);\n    //                }\n    //            _QoS = SafeMath.div(_QoS,numParams);\n    //        }\n\n    //    uint256 smallest = 0; \n    //    for(uint i = 0; i < input.length; i++){\n    //        if(input[i] < smallest) {\n    //            smallest = input[i]; \n    //        } \n    //    }\n                \n        // normalize                \n    //    for (uint j=0; j<input.length;j++){\n            \n    //        normalized.push(SafeMath.div(SafeMath.mul(mulfactor,SafeMath.sub(input[j],smallest)),SafeMath.sub(largest,smallest)));\n    //    }\n                \n    //    return normalized;\n    // }\n\n    \n    \n}",
  "sourcePath": "/home/vtlr2002/source/SMLogs/contracts/Elect.sol",
  "compiler": {
    "name": "solc",
    "version": "0.5.16+commit.9c3226ce.Emscripten.clang"
  },
  "schemaVersion": "3.2.4",
  "updatedAt": "2020-12-15T21:27:31.066Z",
  "networkType": "ethereum",
  "devdoc": {
    "methods": {},
    "title": "Elect  *  Smart contract to elect a profile based on a set of objective criteria, and a QoS. "
  },
  "userdoc": {
    "methods": {
      "ProvableContract()": {
        "notice": "// Provable test"
      },
      "elect(uint256[],uint256[],string,uint256)": {
        "notice": "///// main"
      },
      "getfilter()": {
        "notice": "// Delegated services        "
      }
    }
  }
}