{
  "contractName": "Elect",
  "abi": [
    {
      "constant": true,
      "inputs": [],
      "name": "getFilteredCandidates",
      "outputs": [
        {
          "internalType": "uint256[]",
          "name": "",
          "type": "uint256[]"
        }
      ],
      "payable": false,
      "stateMutability": "view",
      "type": "function"
    },
    {
      "constant": true,
      "inputs": [],
      "name": "existsCandidates",
      "outputs": [
        {
          "internalType": "bool",
          "name": "",
          "type": "bool"
        }
      ],
      "payable": false,
      "stateMutability": "view",
      "type": "function"
    },
    {
      "constant": false,
      "inputs": [
        {
          "internalType": "uint256[][]",
          "name": "_candidates",
          "type": "uint256[][]"
        }
      ],
      "name": "setCandidates",
      "outputs": [],
      "payable": true,
      "stateMutability": "payable",
      "type": "function"
    },
    {
      "constant": true,
      "inputs": [],
      "name": "getCandidates",
      "outputs": [
        {
          "internalType": "uint256[][]",
          "name": "",
          "type": "uint256[][]"
        }
      ],
      "payable": false,
      "stateMutability": "view",
      "type": "function"
    },
    {
      "constant": true,
      "inputs": [],
      "name": "getTestState",
      "outputs": [
        {
          "internalType": "string",
          "name": "",
          "type": "string"
        }
      ],
      "payable": false,
      "stateMutability": "view",
      "type": "function"
    },
    {
      "constant": false,
      "inputs": [
        {
          "internalType": "uint256[]",
          "name": "_person",
          "type": "uint256[]"
        },
        {
          "internalType": "uint256[]",
          "name": "_availability",
          "type": "uint256[]"
        }
      ],
      "name": "oneDayAvailability",
      "outputs": [
        {
          "internalType": "bool",
          "name": "",
          "type": "bool"
        }
      ],
      "payable": true,
      "stateMutability": "payable",
      "type": "function"
    },
    {
      "constant": false,
      "inputs": [
        {
          "internalType": "uint256[]",
          "name": "_person",
          "type": "uint256[]"
        },
        {
          "internalType": "uint256[]",
          "name": "_availability",
          "type": "uint256[]"
        }
      ],
      "name": "severalDaysAvailability",
      "outputs": [
        {
          "internalType": "bool",
          "name": "",
          "type": "bool"
        }
      ],
      "payable": true,
      "stateMutability": "payable",
      "type": "function"
    },
    {
      "constant": false,
      "inputs": [
        {
          "internalType": "uint256[]",
          "name": "input",
          "type": "uint256[]"
        },
        {
          "internalType": "uint256",
          "name": "mulfactor",
          "type": "uint256"
        }
      ],
      "name": "normalize",
      "outputs": [
        {
          "internalType": "uint256[]",
          "name": "",
          "type": "uint256[]"
        }
      ],
      "payable": true,
      "stateMutability": "payable",
      "type": "function"
    },
    {
      "constant": false,
      "inputs": [
        {
          "internalType": "uint256[][]",
          "name": "input",
          "type": "uint256[][]"
        },
        {
          "internalType": "uint256[]",
          "name": "alphas",
          "type": "uint256[]"
        }
      ],
      "name": "sortOnQoS",
      "outputs": [],
      "payable": true,
      "stateMutability": "payable",
      "type": "function"
    },
    {
      "constant": true,
      "inputs": [],
      "name": "getQoS",
      "outputs": [
        {
          "internalType": "uint256[]",
          "name": "",
          "type": "uint256[]"
        }
      ],
      "payable": false,
      "stateMutability": "view",
      "type": "function"
    },
    {
      "constant": true,
      "inputs": [],
      "name": "getSortedQoS",
      "outputs": [
        {
          "internalType": "uint256[]",
          "name": "",
          "type": "uint256[]"
        }
      ],
      "payable": false,
      "stateMutability": "view",
      "type": "function"
    },
    {
      "constant": true,
      "inputs": [],
      "name": "getNormalized",
      "outputs": [
        {
          "internalType": "uint256[]",
          "name": "",
          "type": "uint256[]"
        }
      ],
      "payable": false,
      "stateMutability": "view",
      "type": "function"
    },
    {
      "constant": true,
      "inputs": [],
      "name": "getNormalizedArray",
      "outputs": [
        {
          "internalType": "uint256[][]",
          "name": "",
          "type": "uint256[][]"
        }
      ],
      "payable": false,
      "stateMutability": "view",
      "type": "function"
    },
    {
      "constant": false,
      "inputs": [
        {
          "internalType": "uint256[]",
          "name": "filteringAttributes",
          "type": "uint256[]"
        },
        {
          "internalType": "uint256[]",
          "name": "alphas",
          "type": "uint256[]"
        },
        {
          "internalType": "uint256[]",
          "name": "availability",
          "type": "uint256[]"
        }
      ],
      "name": "filter",
      "outputs": [],
      "payable": true,
      "stateMutability": "payable",
      "type": "function"
    }
  ],
  "bytecode": "0x60806040526000600460006101000a81548160ff02191690831515021790555034801561002b57600080fd5b506120c58061003b6000396000f3fe6080604052600436106100dd5760003560e01c8063850b01441161007f5780639ca5760e116100595780639ca5760e14610286578063b907474e146102a2578063beba7a91146102d2578063f106b1a7146102ee576100dd565b8063850b01441461020f578063915a57151461023a5780639a5565851461026a576100dd565b80632c9e582c116100bb5780632c9e582c146101635780634c6fe5691461018e57806361c6e08b146101b9578063639e7990146101e4576100dd565b806302cf21a8146100e257806306a49fce1461010d5780632b3b1ba914610138575b600080fd5b3480156100ee57600080fd5b506100f761031e565b6040516101049190611de1565b60405180910390f35b34801561011957600080fd5b506101226103c0565b60405161012f9190611d60565b60405180910390f35b34801561014457600080fd5b5061014d61045f565b60405161015a9190611dc6565b60405180910390f35b34801561016f57600080fd5b50610178610476565b6040516101859190611d82565b60405180910390f35b34801561019a57600080fd5b506101a36104ce565b6040516101b09190611d82565b60405180910390f35b3480156101c557600080fd5b506101ce610526565b6040516101db9190611d82565b60405180910390f35b3480156101f057600080fd5b506101f961057e565b6040516102069190611d82565b60405180910390f35b34801561021b57600080fd5b506102246105d6565b6040516102319190611d60565b60405180910390f35b610254600480360361024f9190810190611963565b610675565b6040516102619190611dc6565b60405180910390f35b610284600480360361027f91908101906118b6565b6107f5565b005b6102a0600480360361029b9190810190611875565b610af6565b005b6102bc60048036036102b79190810190611a66565b610b10565b6040516102c99190611d82565b60405180910390f35b6102ec60048036036102e791908101906119cf565b610ca5565b005b61030860048036036103039190810190611963565b611072565b6040516103159190611dc6565b60405180910390f35b606060028054600181600116156101000203166002900480601f0160208091040260200160405190810160405280929190818152602001828054600181600116156101000203166002900480156103b65780601f1061038b576101008083540402835291602001916103b6565b820191906000526020600020905b81548152906001019060200180831161039957829003601f168201915b5050505050905090565b60606003805480602002602001604051908101604052809291908181526020016000905b828210156104565783829060005260206000200180548060200260200160405190810160405280929190818152602001828054801561044257602002820191906000526020600020905b81548152602001906001019080831161042e575b5050505050815260200190600101906103e4565b50505050905090565b6000600460009054906101000a900460ff16905090565b606060008054806020026020016040519081016040528092919081815260200182805480156104c457602002820191906000526020600020905b8154815260200190600101908083116104b0575b5050505050905090565b6060600880548060200260200160405190810160405280929190818152602001828054801561051c57602002820191906000526020600020905b815481526020019060010190808311610508575b5050505050905090565b6060600780548060200260200160405190810160405280929190818152602001828054801561057457602002820191906000526020600020905b815481526020019060010190808311610560575b5050505050905090565b606060058054806020026020016040519081016040528092919081815260200182805480156105cc57602002820191906000526020600020905b8154815260200190600101908083116105b8575b5050505050905090565b60606006805480602002602001604051908101604052809291908181526020016000905b8282101561066c5783829060005260206000200180548060200260200160405190810160405280929190818152602001828054801561065857602002820191906000526020600020905b815481526020019060010190808311610644575b5050505050815260200190600101906105fa565b50505050905090565b6000808360018151811061068557fe5b6020026020010151905060008460028151811061069e57fe5b602002602001015190506000856003815181106106b757fe5b602002602001015190506000866004815181106106d057fe5b602002602001015190506000876005815181106106e957fe5b6020026020010151905060008860068151811061070257fe5b6020026020010151905060008860008151811061071b57fe5b6020026020010151905060008960018151811061073457fe5b6020026020010151905060008a60028151811061074d57fe5b60200260200101519050600060019050888314801561076b57508782145b1561078c57838a118061077d57508387105b1561078757600090505b6107e2565b88831415801561079b57508782145b156107c85782891080156107ae5750838a105b15806107b957508286105b156107c357600090505b6107e1565b87821115806107d657508185105b156107e057600090505b5b5b809a505050505050505050505092915050565b60006064905060008360008151811061080a57fe5b602002602001015151905060008090505b8181101561096a5760006005816108329190611436565b5060008090505b85518110156108a157600586828151811061085057fe5b6020026020010151838151811061086357fe5b602002602001015190806001815401808255809150509060018203906000526020600020016000909192909190915055508080600101915050610839565b5060606108fe60058054806020026020016040519081016040528092919081815260200182805480156108f357602002820191906000526020600020905b8154815260200190600101908083116108df575b505050505085610b10565b905060008090505b865181101561095b5781818151811061091b57fe5b602002602001015187828151811061092f57fe5b6020026020010151848151811061094257fe5b6020026020010181815250508080600101915050610906565b5050808060010191505061081b565b508360069080519060200190610981929190611462565b5060006007816109919190611436565b5060008090505b8451811015610a4c57600080905060008090505b83811015610a08576109f78682815181106109c357fe5b60200260200101518885815181106109d757fe5b602002602001015183815181106109ea57fe5b6020026020010151611276565b8201915080806001019150506109ac565b506007610a1582856112e6565b9080600181540180825580915050906001820390600052602060002001600090919290919091505550508080600101915050610998565b5073__Sort__________________________________639ec8b02660076040518263ffffffff1660e01b8152600401610a859190611da4565b60006040518083038186803b158015610a9d57600080fd5b505af4158015610ab1573d6000803e3d6000fd5b505050506040513d6000823e3d601f19601f82011682018060405250610ada9190810190611922565b60089080519060200190610aef9291906114c2565b5050505050565b8060039080519060200190610b0c929190611462565b5050565b60606000600581610b219190611436565b50600080905060008090505b8451811015610b755781858281518110610b4357fe5b60200260200101511115610b6857848181518110610b5d57fe5b602002602001015191505b8080600101915050610b2d565b50600080905060008090505b8551811015610bc95781868281518110610b9757fe5b60200260200101511015610bbc57858181518110610bb157fe5b602002602001015191505b8080600101915050610b81565b5060008090505b8551811015610c49576005610c13610c0487610bff8a8681518110610bf157fe5b602002602001015187611330565b611276565b610c0e8686611330565b6112e6565b90806001815401808255809150509060018203906000526020600020016000909192909190915055508080600101915050610bd0565b506005805480602002602001604051908101604052809291908181526020018280548015610c9657602002820191906000526020600020905b815481526020019060010190808311610c82575b50505050509250505092915050565b6060600380549050604051908082528060200260200182016040528015610cdb5781602001602082028038833980820191505090505b50905060008090505b600380549050811015610d18576000828281518110610cff57fe5b6020026020010181815250508080600101915050610ce4565b5060008090505b600380549050811015610fca57606060038281548110610d3b57fe5b90600052602060002001805480602002602001604051908101604052809291908181526020018280548015610d8f57602002820191906000526020600020905b815481526020019060010190808311610d7b575b5050505050905060006001905060008090506000600790505b8351811015610e07576001898381518110610dbf57fe5b6020026020010151148015610de857506001848281518110610ddd57fe5b602002602001015114155b15610df257600092505b81806001019250508080600101915050610da8565b508115610fa357600386511480610eab575085600381518110610e2657fe5b602002602001015186600081518110610e3b57fe5b6020026020010151148015610e77575085600481518110610e5857fe5b602002602001015186600181518110610e6d57fe5b6020026020010151145b8015610eaa575085600581518110610e8b57fe5b602002602001015186600281518110610ea057fe5b6020026020010151145b5b15610f0d576040518060400160405280600681526020017f6f6e65646179000000000000000000000000000000000000000000000000000081525060029080519060200190610efb92919061150f565b50610f068387610675565b9150610f66565b6040518060400160405280600b81526020017f7365766572616c6461797300000000000000000000000000000000000000000081525060029080519060200190610f5892919061150f565b50610f638387611072565b91505b8115610fa2576001858581518110610f7a57fe5b6020026020010181815250506001600460006101000a81548160ff0219169083151502179055505b5b8460009080519060200190610fb99291906114c2565b505050508080600101915050610d1f565b5061106c6003805480602002602001604051908101604052809291908181526020016000905b828210156110625783829060005260206000200180548060200260200160405190810160405280929190818152602001828054801561104e57602002820191906000526020600020905b81548152602001906001019080831161103a575b505050505081526020019060010190610ff0565b50505050846107f5565b50505050565b6000806001905060008460018151811061108857fe5b602002602001015190506000856002815181106110a157fe5b602002602001015190506000866003815181106110ba57fe5b602002602001015190506000876004815181106110d357fe5b602002602001015190506000886005815181106110ec57fe5b6020026020010151905060008960068151811061110557fe5b6020026020010151905060008960008151811061111e57fe5b6020026020010151905060008a60018151811061113757fe5b6020026020010151905060008b60028151811061115057fe5b6020026020010151905060008c60038151811061116957fe5b6020026020010151905060008d60048151811061118257fe5b6020026020010151905060008e60058151811061119b57fe5b602002602001015190508583116111b157600080fd5b8a851480156111bf57508984145b80156111ca57508681145b156111eb57858c11806111dc57508289105b156111e65760009c505b611260565b8a85141580156111fa57508984145b801561120557508681145b1561123c57848b1080156112185750858c105b158061122357508488105b8061122d57508188105b156112375760009c505b61125f565b898411158061124a57508387105b8061125457508087105b1561125e5760009c505b5b5b8c9d505050505050505050505050505092915050565b60008083141561128957600090506112e0565b600082840290508284828161129a57fe5b04146112db576040517f08c379a00000000000000000000000000000000000000000000000000000000081526004016112d290611e03565b60405180910390fd5b809150505b92915050565b600061132883836040518060400160405280601a81526020017f536166654d6174683a206469766973696f6e206279207a65726f00000000000081525061137a565b905092915050565b600061137283836040518060400160405280601e81526020017f536166654d6174683a207375627472616374696f6e206f766572666c6f7700008152506113db565b905092915050565b600080831182906113c1576040517f08c379a00000000000000000000000000000000000000000000000000000000081526004016113b89190611de1565b60405180910390fd5b5060008385816113cd57fe5b049050809150509392505050565b6000838311158290611423576040517f08c379a000000000000000000000000000000000000000000000000000000000815260040161141a9190611de1565b60405180910390fd5b5060008385039050809150509392505050565b81548183558181111561145d5781836000526020600020918201910161145c919061158f565b5b505050565b8280548282559060005260206000209081019282156114b1579160200282015b828111156114b05782518290805190602001906114a09291906115b4565b5091602001919060010190611482565b5b5090506114be9190611601565b5090565b8280548282559060005260206000209081019282156114fe579160200282015b828111156114fd5782518255916020019190600101906114e2565b5b50905061150b919061158f565b5090565b828054600181600116156101000203166002900490600052602060002090601f016020900481019282601f1061155057805160ff191683800117855561157e565b8280016001018555821561157e579182015b8281111561157d578251825591602001919060010190611562565b5b50905061158b919061158f565b5090565b6115b191905b808211156115ad576000816000905550600101611595565b5090565b90565b8280548282559060005260206000209081019282156115f0579160200282015b828111156115ef5782518255916020019190600101906115d4565b5b5090506115fd919061158f565b5090565b61162a91905b80821115611626576000818161161d919061162d565b50600101611607565b5090565b90565b508054600082559060005260206000209081019061164b919061158f565b50565b600082601f83011261165f57600080fd5b813561167261166d82611e50565b611e23565b9150818183526020840193506020810190508360005b838110156116b8578135860161169e88826116c2565b845260208401935060208301925050600181019050611688565b5050505092915050565b600082601f8301126116d357600080fd5b81356116e66116e182611e78565b611e23565b9150818183526020840193506020810190508385602084028201111561170b57600080fd5b60005b8381101561173b5781611721888261184b565b84526020840193506020830192505060018101905061170e565b5050505092915050565b600082601f83011261175657600080fd5b813561176961176482611ea0565b611e23565b9150818183526020840193506020810190508385602084028201111561178e57600080fd5b60005b838110156117be57816117a4888261184b565b845260208401935060208301925050600181019050611791565b5050505092915050565b600082601f8301126117d957600080fd5b81516117ec6117e782611ea0565b611e23565b9150818183526020840193506020810190508385602084028201111561181157600080fd5b60005b8381101561184157816118278882611860565b845260208401935060208301925050600181019050611814565b5050505092915050565b60008135905061185a8161206b565b92915050565b60008151905061186f8161206b565b92915050565b60006020828403121561188757600080fd5b600082013567ffffffffffffffff8111156118a157600080fd5b6118ad8482850161164e565b91505092915050565b600080604083850312156118c957600080fd5b600083013567ffffffffffffffff8111156118e357600080fd5b6118ef8582860161164e565b925050602083013567ffffffffffffffff81111561190c57600080fd5b61191885828601611745565b9150509250929050565b60006020828403121561193457600080fd5b600082015167ffffffffffffffff81111561194e57600080fd5b61195a848285016117c8565b91505092915050565b6000806040838503121561197657600080fd5b600083013567ffffffffffffffff81111561199057600080fd5b61199c85828601611745565b925050602083013567ffffffffffffffff8111156119b957600080fd5b6119c585828601611745565b9150509250929050565b6000806000606084860312156119e457600080fd5b600084013567ffffffffffffffff8111156119fe57600080fd5b611a0a86828701611745565b935050602084013567ffffffffffffffff811115611a2757600080fd5b611a3386828701611745565b925050604084013567ffffffffffffffff811115611a5057600080fd5b611a5c86828701611745565b9150509250925092565b60008060408385031215611a7957600080fd5b600083013567ffffffffffffffff811115611a9357600080fd5b611a9f85828601611745565b9250506020611ab08582860161184b565b9150509250929050565b6000611ac68383611bd1565b905092915050565b6000611ada8383611d42565b60208301905092915050565b6000611af28383611d51565b60208301905092915050565b6000611b0982611f0d565b611b138185611f78565b935083602082028501611b2585611ec8565b8060005b85811015611b615784840389528151611b428582611aba565b9450611b4d83611f44565b925060208a01995050600181019050611b29565b50829750879550505050505092915050565b6000611b7e82611f23565b611b888185611f9a565b9350611b9383611ee8565b8060005b83811015611bc4578151611bab8882611ace565b9750611bb683611f5e565b925050600181019050611b97565b5085935050505092915050565b6000611bdc82611f18565b611be68185611f89565b9350611bf183611ed8565b8060005b83811015611c22578151611c098882611ace565b9750611c1483611f51565b925050600181019050611bf5565b5085935050505092915050565b6000611c3a82611f2e565b611c448185611fab565b9350611c4f83611ef8565b8060005b83811015611c8757611c648261203a565b611c6e8882611ae6565b9750611c7983611f6b565b925050600181019050611c53565b5085935050505092915050565b611c9d81611fd7565b82525050565b6000611cae82611f39565b611cb88185611fbc565b9350611cc8818560208601611fed565b611cd18161204d565b840191505092915050565b6000611ce9602183611fbc565b91507f536166654d6174683a206d756c7469706c69636174696f6e206f766572666c6f60008301527f77000000000000000000000000000000000000000000000000000000000000006020830152604082019050919050565b611d4b81611fe3565b82525050565b611d5a81611fe3565b82525050565b60006020820190508181036000830152611d7a8184611afe565b905092915050565b60006020820190508181036000830152611d9c8184611b73565b905092915050565b60006020820190508181036000830152611dbe8184611c2f565b905092915050565b6000602082019050611ddb6000830184611c94565b92915050565b60006020820190508181036000830152611dfb8184611ca3565b905092915050565b60006020820190508181036000830152611e1c81611cdc565b9050919050565b6000604051905081810181811067ffffffffffffffff82111715611e4657600080fd5b8060405250919050565b600067ffffffffffffffff821115611e6757600080fd5b602082029050602081019050919050565b600067ffffffffffffffff821115611e8f57600080fd5b602082029050602081019050919050565b600067ffffffffffffffff821115611eb757600080fd5b602082029050602081019050919050565b6000819050602082019050919050565b6000819050602082019050919050565b6000819050602082019050919050565b60008190508160005260206000209050919050565b600081519050919050565b600081519050919050565b600081519050919050565b600081549050919050565b600081519050919050565b6000602082019050919050565b6000602082019050919050565b6000602082019050919050565b6000600182019050919050565b600082825260208201905092915050565b600082825260208201905092915050565b600082825260208201905092915050565b600082825260208201905092915050565b600082825260208201905092915050565b6000819050919050565b60008115159050919050565b6000819050919050565b60005b8381101561200b578082015181840152602081019050611ff0565b8381111561201a576000848401525b50505050565b600061203361202e8361205e565b611fcd565b9050919050565b60006120468254612020565b9050919050565b6000601f19601f8301169050919050565b60008160001c9050919050565b61207481611fe3565b811461207f57600080fd5b5056fea365627a7a72315820fd8a99c61ab1e1157060829e9bd8b78282aedcbbc6fae4d39c2b4e63ababc59e6c6578706572696d656e74616cf564736f6c63430005100040",
  "source": "pragma experimental ABIEncoderV2;\n\npragma solidity ^0.5.16;\n\nimport \"./Sort.sol\";\n\nimport \"./SafeMath.sol\";\n\n\n/**\n * @title Elect\n */\n\n\ncontract Elect {\n    // list of persons with attribute values:   \n    // [[id, startDay, startMonth, startYear, endDay, endMonth, endYear, equipment1, equipment2, equipment3 //pickup, distance]]\n    // pickup and delivery: *10E7, add a 'neg element' to string? (neg1 / neg2 --> and adapt calculus accordingly)\n    \n    //uint[][] candidates = [ [0, 12,5,21, 13,5,21, 1,1,1],[1, 12,5,21, 13,5,21, 1,1,1], [2, 12,5,21, 15,5,21, 1,1,1], [3, 12,5,21, 16,5,21, 1,1,1], [4, 10,5,21, 14,5,21, 1,1,1], [5, 11,5,21, 14,5,21, 1,1,1] ]\n    //uint[][] candidates =[\n    //                        [1, 12,5,21, 13,5,21, 1,1,1],\n    //                        [2, 12,5,21, 15,5,21, 1,1,1],\n    //                        [3, 12,5,21, 16,5,21, 1,1,1],\n    //                        [4, 10,5,21, 14,5,21, 1,1,1],\n    //                        [5, 11,5,21, 14,5,21, 1,1,1]\n    //                    ];     \n    //uint[] filteringAttributes = [1,1,1];    // list of filtering attributes     \n    //uint[] availability = [12,1,21];\n    \n    uint[] filteredCandidates;\n    \n    string filteredIds;\n    \n    string testState;\n\n    uint[][] candidates;\n\n    bool hasCandidates = false;\n\n\n    uint[] normalized;\n    uint[][] normalizedArray;\n    uint[] QoSList;\n    uint[] sortedQoSList;\n\n\n\n    ///// Delegated services        \n    function getFilteredCandidates() public view returns(uint[] memory){\n        return filteredCandidates;\n    }\n\n    function existsCandidates() public view returns(bool){\n        return hasCandidates;\n    }\n\n    function setCandidates(uint[][] memory _candidates) public payable {\n        candidates = _candidates;\n    }\n\n    function getCandidates() public view returns(uint[][] memory){\n        return candidates;\n    }\n\n    function getTestState() public view returns(string memory){\n        return testState;\n    }\n\n    function oneDayAvailability(uint[] memory _person, uint[] memory _availability) public payable returns(bool){\n        uint avStartDay = _person[1];\n        uint avStartMonth = _person[2];\n        uint avStartYear = _person[3];\n\n        uint avEndDay = _person[4];\n        uint avEndMonth = _person[5];\n        uint avEndYear = _person[6];\n\n        uint reqDay= _availability[0];\n        uint reqMonth= _availability[1];\n        uint reqYear= _availability[2];\n                    \n        bool testOutput=true;\n        \n        if((reqMonth==avStartMonth) && (reqYear==avStartYear)){ // same month, same year\n            if((avStartDay > reqDay)||(avEndDay<reqDay)){ // person is booked\n                testOutput=false;\n                }\n            }\n        else if((reqMonth!=avStartMonth) && (reqYear==avStartYear)){ //same year, different month\n            if(!((avStartMonth < reqMonth) && (avStartDay < reqDay)) || (avEndMonth<reqMonth)){ // person is booked\n                testOutput=false;\n            }\n        }\n        else{ //different year\n            if(!(reqYear>avStartYear)||(avEndYear<reqYear)){ // person is booked\n                testOutput=false;\n            }\n        }\n        return testOutput;\n    }\n\n\n    function severalDaysAvailability(uint[] memory _person, uint[] memory _availability) public payable returns(bool){\n        bool testOutput=true;\n        \n        uint avStartDay = _person[1];\n        uint avStartMonth = _person[2];\n        uint avStartYear = _person[3];\n\n        uint avEndDay = _person[4];\n        uint avEndMonth = _person[5];\n        uint avEndYear = _person[6];\n\n        uint reqSDay=_availability[0];\n        uint reqSMonth=_availability[1];\n        uint reqSYear=_availability[2];\n                    \n        uint reqEDay=_availability[3];\n        uint reqEMonth=_availability[4];\n        uint reqEYear=_availability[5];\n                    \n\n        require(reqEDay>reqSDay);\n\n        if((reqSMonth==avStartMonth) && (reqSYear==avStartYear) && (reqEYear==avEndYear)){ // same start month, same year\n            if((avStartDay > reqSDay)||(avEndDay<reqEDay)){ // person is booked\n                testOutput=false;\n                }\n        }\n        else if((reqSMonth!=avStartMonth) && (reqSYear==avStartYear) &&  (reqEYear==avEndYear)){ //same year, different month\n            if(!((avStartMonth < reqSMonth) && (avStartDay < reqSDay)) || (avEndMonth<reqSMonth) || (avEndMonth<reqEMonth)){ // person is booked\n                testOutput=false;\n                }\n            }\n        else{ //different year\n            if(!(reqSYear>avStartYear)||(avEndYear<reqSYear)||(avEndYear<reqEYear)){ // person is booked\n                testOutput=false;\n            }\n        }\n        return testOutput;\n    }\n    \n\n    //////// Sorting \n\n\n     function normalize(uint[] memory input, uint mulfactor) public payable returns(uint[] memory){\n        normalized.length=0; \n                \n        //get largest\n        uint256 largest = 0; \n        for(uint i = 0; i < input.length; i++){\n            if(input[i] > largest) {\n                largest = input[i]; \n            } \n        }\n                \n                \n        //get smallest\n        uint256 smallest = 0; \n        for(uint i = 0; i < input.length; i++){\n            if(input[i] < smallest) {\n                smallest = input[i]; \n            } \n        }\n                \n        // normalize                \n        for (uint j=0; j<input.length;j++){\n            normalized.push(SafeMath.div(SafeMath.mul(mulfactor,SafeMath.sub(input[j],smallest)),SafeMath.sub(largest,smallest)));\n        }\n                \n        return normalized;\n     }\n\n\n\n\n    function sortOnQoS(uint[][] memory input, uint[] memory alphas) public payable{\n        uint mulfactor = 100;\n\n        // normalize array\n        uint numParams = input[0].length;\n\n        for (uint j=0; j<numParams; j++){\n            \n            normalized.length=0;\n            \n            for (uint i=0; i<input.length; i++){\n                normalized.push(input[i][j]);\n            }\n            \n            uint[] memory tmp = normalize(normalized, mulfactor);\n            \n            for (uint i=0; i<input.length; i++){\n                input[i][j]=tmp[i];\n            }\n        }\n        \n        normalizedArray = input;\n        \n        QoSList.length=0;\n        for (uint i=0; i<input.length; i++){\n            uint QoS = 0;\n            for (uint j=0;j<numParams;j++){\n                QoS = QoS + SafeMath.mul(alphas[j], input[i][j]);\n            }\n            \n            QoSList.push(SafeMath.div(QoS,numParams));\n        }\n        sortedQoSList = Sort.sort(QoSList);\n    }\n\n    function getQoS() public view returns(uint[] memory){\n        return QoSList;\n    }\n\n    function getSortedQoS() public view returns(uint[] memory){\n        return sortedQoSList;   \n    }\n\n    function getNormalized() public view returns(uint[] memory){       \n        return normalized;\n    }\n\n    function getNormalizedArray() public view returns(uint[][] memory){\n        return normalizedArray;\n    }\n\n\n    //////// Global Filtering\n\n    function filter(uint[] memory filteringAttributes, uint[] memory alphas, uint[] memory availability) public payable{\n        \n        uint[] memory _filteredCandidates = new uint[](candidates.length);\n        // reinitialize list of candidates\n        for(uint i=0; i<candidates.length;i++){\n            _filteredCandidates[i]=0;\n        }\n\n        for(uint ind=0; ind<candidates.length; ind++){\n            uint[] memory person=candidates[ind];\n            bool testOutput = true;\n\n            // filter on  attributes\n            uint index=0;\n            for(uint id_att=7; id_att<person.length; id_att++){\n                if((filteringAttributes[index]==1) && (person[id_att]!=1)){\n                        testOutput=false;\n                }\n                index++;\n            }\n\n            if(testOutput){\n                //filter on availability\n                if((availability.length==3)||\n                    ((availability[0]==availability[3])&&(availability[1]==availability[4])&&(availability[2]==availability[5]))){ // ask for a day booking\n                    testState=\"oneday\";\n                    testOutput=oneDayAvailability(person, availability);\n                }\n                else{ \n                    //availability.length==6, ask for a several-days booking \n                    testState=\"severaldays\";\n                    testOutput=severalDaysAvailability(person, availability);\n                }\n                \n                //_filteredCandidates[ind]=1;\n                //hasCandidates=true;\n\n                //update list of candidates\n                if(testOutput){\n                    _filteredCandidates[ind]=1;\n                    hasCandidates=true;\n                }\n            }\n            \n            filteredCandidates = _filteredCandidates;\n        }\n\n\n\n        sortOnQoS(candidates, alphas); // todo: avoid computation on non elected members --> create new list of candidates\n        \n    }\n    \n\n    \n    \n    // function instanciate contract \n    \n    \n\n}",
  "sourcePath": "/home/vtlr2002/source/SMLogs/contracts/Elect.sol",
  "compiler": {
    "name": "solc",
    "version": "0.5.16+commit.9c3226ce.Emscripten.clang"
  },
  "schemaVersion": "3.2.4",
  "updatedAt": "2020-11-30T17:54:01.160Z",
  "devdoc": {
    "methods": {},
    "title": "Elect"
  },
  "userdoc": {
    "methods": {
      "filter(uint256[],uint256[],uint256[])": {
        "notice": "///// Global Filtering"
      },
      "getFilteredCandidates()": {
        "notice": "// Delegated services        "
      },
      "normalize(uint256[],uint256)": {
        "notice": "///// Sorting "
      }
    }
  }
}