{
  "contractName": "Hire",
  "abi": [
    {
      "anonymous": false,
      "inputs": [
        {
          "indexed": false,
          "internalType": "string",
          "name": "message",
          "type": "string"
        }
      ],
      "name": "NewAggreement",
      "type": "event"
    },
    {
      "constant": true,
      "inputs": [
        {
          "internalType": "uint256",
          "name": "",
          "type": "uint256"
        }
      ],
      "name": "aggreements",
      "outputs": [
        {
          "internalType": "string",
          "name": "issuance",
          "type": "string"
        },
        {
          "components": [
            {
              "internalType": "address",
              "name": "consignee",
              "type": "address"
            },
            {
              "internalType": "address",
              "name": "consignor",
              "type": "address"
            }
          ],
          "internalType": "struct Hire.Tenants",
          "name": "ppl",
          "type": "tuple"
        },
        {
          "components": [
            {
              "internalType": "string",
              "name": "shipFrom",
              "type": "string"
            },
            {
              "internalType": "string",
              "name": "shipTo",
              "type": "string"
            },
            {
              "internalType": "string",
              "name": "takeoverDate",
              "type": "string"
            }
          ],
          "internalType": "struct Hire.Service",
          "name": "srv",
          "type": "tuple"
        },
        {
          "components": [
            {
              "internalType": "string",
              "name": "nature",
              "type": "string"
            },
            {
              "internalType": "uint256",
              "name": "quantity",
              "type": "uint256"
            },
            {
              "internalType": "uint256",
              "name": "grossWeight",
              "type": "uint256"
            },
            {
              "internalType": "uint256",
              "name": "grossVolume",
              "type": "uint256"
            }
          ],
          "internalType": "struct Hire.Merchandise",
          "name": "mrch",
          "type": "tuple"
        },
        {
          "internalType": "string",
          "name": "status",
          "type": "string"
        }
      ],
      "payable": false,
      "stateMutability": "view",
      "type": "function"
    },
    {
      "constant": false,
      "inputs": [
        {
          "internalType": "address[2]",
          "name": "_ppl",
          "type": "address[2]"
        },
        {
          "internalType": "string",
          "name": "_issuanceDate",
          "type": "string"
        },
        {
          "internalType": "string[3]",
          "name": "_shipInfo",
          "type": "string[3]"
        },
        {
          "internalType": "string",
          "name": "_nature",
          "type": "string"
        },
        {
          "internalType": "uint256[3]",
          "name": "_details",
          "type": "uint256[3]"
        }
      ],
      "name": "addAggreement",
      "outputs": [],
      "payable": true,
      "stateMutability": "payable",
      "type": "function"
    },
    {
      "constant": true,
      "inputs": [],
      "name": "totalAggreements",
      "outputs": [
        {
          "internalType": "uint256",
          "name": "",
          "type": "uint256"
        }
      ],
      "payable": false,
      "stateMutability": "view",
      "type": "function"
    },
    {
      "constant": true,
      "inputs": [
        {
          "internalType": "uint256",
          "name": "i",
          "type": "uint256"
        }
      ],
      "name": "seeAggreement",
      "outputs": [
        {
          "components": [
            {
              "internalType": "string",
              "name": "issuance",
              "type": "string"
            },
            {
              "components": [
                {
                  "internalType": "address",
                  "name": "consignee",
                  "type": "address"
                },
                {
                  "internalType": "address",
                  "name": "consignor",
                  "type": "address"
                }
              ],
              "internalType": "struct Hire.Tenants",
              "name": "ppl",
              "type": "tuple"
            },
            {
              "components": [
                {
                  "internalType": "string",
                  "name": "shipFrom",
                  "type": "string"
                },
                {
                  "internalType": "string",
                  "name": "shipTo",
                  "type": "string"
                },
                {
                  "internalType": "string",
                  "name": "takeoverDate",
                  "type": "string"
                }
              ],
              "internalType": "struct Hire.Service",
              "name": "srv",
              "type": "tuple"
            },
            {
              "components": [
                {
                  "internalType": "string",
                  "name": "nature",
                  "type": "string"
                },
                {
                  "internalType": "uint256",
                  "name": "quantity",
                  "type": "uint256"
                },
                {
                  "internalType": "uint256",
                  "name": "grossWeight",
                  "type": "uint256"
                },
                {
                  "internalType": "uint256",
                  "name": "grossVolume",
                  "type": "uint256"
                }
              ],
              "internalType": "struct Hire.Merchandise",
              "name": "mrch",
              "type": "tuple"
            },
            {
              "internalType": "string[]",
              "name": "cmmts",
              "type": "string[]"
            },
            {
              "internalType": "string",
              "name": "status",
              "type": "string"
            }
          ],
          "internalType": "struct Hire.Aggreement",
          "name": "",
          "type": "tuple"
        }
      ],
      "payable": false,
      "stateMutability": "view",
      "type": "function"
    }
  ],
  "bytecode": "0x608060405234801561001057600080fd5b5061224b806100206000396000f3fe60806040526004361061003f5760003560e01c80632d1015e7146100445780634e15179314610060578063d19348311461009d578063f62f9653146100de575b600080fd5b61005e60048036036100599190810190611a58565b610109565b005b34801561006c57600080fd5b5061008760048036036100829190810190611b18565b610a89565b6040516100949190611fbd565b60405180910390f35b3480156100a957600080fd5b506100c460048036036100bf9190810190611b18565b611079565b6040516100d5959493929190611f2e565b60405180910390f35b3480156100ea57600080fd5b506100f361155c565b6040516101009190611fdf565b60405180910390f35b8460006002811061011657fe5b6020020151600360000160006101000a81548173ffffffffffffffffffffffffffffffffffffffff021916908373ffffffffffffffffffffffffffffffffffffffff1602179055508460016002811061016b57fe5b6020020151600360010160006101000a81548173ffffffffffffffffffffffffffffffffffffffff021916908373ffffffffffffffffffffffffffffffffffffffff16021790555083600090805190602001906101c9929190611569565b50826000600381106101d757fe5b6020020151600560000190805190602001906101f4929190611569565b508260016003811061020257fe5b60200201516005600101908051906020019061021f929190611569565b508260026003811061022d57fe5b60200201516005600201908051906020019061024a929190611569565b508160086000019080519060200190610264929190611569565b508060006003811061027257fe5b60200201516008600101819055508060016003811061028d57fe5b6020020151600860020181905550806002600381106102a857fe5b602002015160086003018190555060028060018154018082558091505090600182039060005260206000200160006040518060400160405280600a81526020017f736574436f6d6d616e640000000000000000000000000000000000000000000081525090919091509080519060200190610324929190611569565b505061032e6115e9565b6040518060c0016040528060008054600181600116156101000203166002900480601f0160208091040260200160405190810160405280929190818152602001828054600181600116156101000203166002900480156103cf5780601f106103a4576101008083540402835291602001916103cf565b820191906000526020600020905b8154815290600101906020018083116103b257829003601f168201915b5050505050815260200160036040518060400160405290816000820160009054906101000a900473ffffffffffffffffffffffffffffffffffffffff1673ffffffffffffffffffffffffffffffffffffffff1673ffffffffffffffffffffffffffffffffffffffff1681526020016001820160009054906101000a900473ffffffffffffffffffffffffffffffffffffffff1673ffffffffffffffffffffffffffffffffffffffff1673ffffffffffffffffffffffffffffffffffffffff168152505081526020016005604051806060016040529081600082018054600181600116156101000203166002900480601f01602080910402602001604051908101604052809291908181526020018280546001816001161561010002031660029004801561053d5780601f106105125761010080835404028352916020019161053d565b820191906000526020600020905b81548152906001019060200180831161052057829003601f168201915b50505050508152602001600182018054600181600116156101000203166002900480601f0160208091040260200160405190810160405280929190818152602001828054600181600116156101000203166002900480156105df5780601f106105b4576101008083540402835291602001916105df565b820191906000526020600020905b8154815290600101906020018083116105c257829003601f168201915b50505050508152602001600282018054600181600116156101000203166002900480601f0160208091040260200160405190810160405280929190818152602001828054600181600116156101000203166002900480156106815780601f1061065657610100808354040283529160200191610681565b820191906000526020600020905b81548152906001019060200180831161066457829003601f168201915b50505050508152505081526020016008604051806080016040529081600082018054600181600116156101000203166002900480601f0160208091040260200160405190810160405280929190818152602001828054600181600116156101000203166002900480156107355780601f1061070a57610100808354040283529160200191610735565b820191906000526020600020905b81548152906001019060200180831161071857829003601f168201915b50505050508152602001600182015481526020016002820154815260200160038201548152505081526020016001805480602002602001604051908101604052809291908181526020016000905b8282101561083f578382906000526020600020018054600181600116156101000203166002900480601f01602080910402602001604051908101604052809291908181526020018280546001816001161561010002031660029004801561082b5780601f106108005761010080835404028352916020019161082b565b820191906000526020600020905b81548152906001019060200180831161080e57829003601f168201915b505050505081526020019060010190610783565b5050505081526020016040518060400160405280600e81526020017f4167677265656d656e74207365740000000000000000000000000000000000008152508152509050600c819080600181540180825580915050906001820390600052602060002090600c02016000909192909190915060008201518160000190805190602001906108cd929190611631565b5060208201518160010160008201518160000160006101000a81548173ffffffffffffffffffffffffffffffffffffffff021916908373ffffffffffffffffffffffffffffffffffffffff16021790555060208201518160010160006101000a81548173ffffffffffffffffffffffffffffffffffffffff021916908373ffffffffffffffffffffffffffffffffffffffff1602179055505050604082015181600301600082015181600001908051906020019061098c929190611631565b5060208201518160010190805190602001906109a9929190611631565b5060408201518160020190805190602001906109c6929190611631565b50505060608201518160060160008201518160000190805190602001906109ee929190611631565b506020820151816001015560408201518160020155606082015181600301555050608082015181600a019080519060200190610a2b9291906116b1565b5060a082015181600b019080519060200190610a48929190611631565b505050507f7c8b1648a35fc8af6f9f12f1b5d49f57c0084c66fb76bf3c65ff6f38b4995b11604051610a7990611f9d565b60405180910390a1505050505050565b610a916115e9565b600c8281548110610a9e57fe5b90600052602060002090600c02016040518060c0016040529081600082018054600181600116156101000203166002900480601f016020809104026020016040519081016040528092919081815260200182805460018160011615610100020316600290048015610b505780601f10610b2557610100808354040283529160200191610b50565b820191906000526020600020905b815481529060010190602001808311610b3357829003601f168201915b50505050508152602001600182016040518060400160405290816000820160009054906101000a900473ffffffffffffffffffffffffffffffffffffffff1673ffffffffffffffffffffffffffffffffffffffff1673ffffffffffffffffffffffffffffffffffffffff1681526020016001820160009054906101000a900473ffffffffffffffffffffffffffffffffffffffff1673ffffffffffffffffffffffffffffffffffffffff1673ffffffffffffffffffffffffffffffffffffffff1681525050815260200160038201604051806060016040529081600082018054600181600116156101000203166002900480601f016020809104026020016040519081016040528092919081815260200182805460018160011615610100020316600290048015610cc25780601f10610c9757610100808354040283529160200191610cc2565b820191906000526020600020905b815481529060010190602001808311610ca557829003601f168201915b50505050508152602001600182018054600181600116156101000203166002900480601f016020809104026020016040519081016040528092919081815260200182805460018160011615610100020316600290048015610d645780601f10610d3957610100808354040283529160200191610d64565b820191906000526020600020905b815481529060010190602001808311610d4757829003601f168201915b50505050508152602001600282018054600181600116156101000203166002900480601f016020809104026020016040519081016040528092919081815260200182805460018160011615610100020316600290048015610e065780601f10610ddb57610100808354040283529160200191610e06565b820191906000526020600020905b815481529060010190602001808311610de957829003601f168201915b505050505081525050815260200160068201604051806080016040529081600082018054600181600116156101000203166002900480601f016020809104026020016040519081016040528092919081815260200182805460018160011615610100020316600290048015610ebc5780601f10610e9157610100808354040283529160200191610ebc565b820191906000526020600020905b815481529060010190602001808311610e9f57829003601f168201915b5050505050815260200160018201548152602001600282015481526020016003820154815250508152602001600a8201805480602002602001604051908101604052809291908181526020016000905b82821015610fc8578382906000526020600020018054600181600116156101000203166002900480601f016020809104026020016040519081016040528092919081815260200182805460018160011615610100020316600290048015610fb45780601f10610f8957610100808354040283529160200191610fb4565b820191906000526020600020905b815481529060010190602001808311610f9757829003601f168201915b505050505081526020019060010190610f0c565b505050508152602001600b82018054600181600116156101000203166002900480601f0160208091040260200160405190810160405280929190818152602001828054600181600116156101000203166002900480156110695780601f1061103e57610100808354040283529160200191611069565b820191906000526020600020905b81548152906001019060200180831161104c57829003601f168201915b5050505050815250509050919050565b600c818154811061108657fe5b90600052602060002090600c0201600091509050806000018054600181600116156101000203166002900480601f0160208091040260200160405190810160405280929190818152602001828054600181600116156101000203166002900480156111325780601f1061110757610100808354040283529160200191611132565b820191906000526020600020905b81548152906001019060200180831161111557829003601f168201915b505050505090806001016040518060400160405290816000820160009054906101000a900473ffffffffffffffffffffffffffffffffffffffff1673ffffffffffffffffffffffffffffffffffffffff1673ffffffffffffffffffffffffffffffffffffffff1681526020016001820160009054906101000a900473ffffffffffffffffffffffffffffffffffffffff1673ffffffffffffffffffffffffffffffffffffffff1673ffffffffffffffffffffffffffffffffffffffff16815250509080600301604051806060016040529081600082018054600181600116156101000203166002900480601f01602080910402602001604051908101604052809291908181526020018280546001816001161561010002031660029004801561129c5780601f106112715761010080835404028352916020019161129c565b820191906000526020600020905b81548152906001019060200180831161127f57829003601f168201915b50505050508152602001600182018054600181600116156101000203166002900480601f01602080910402602001604051908101604052809291908181526020018280546001816001161561010002031660029004801561133e5780601f106113135761010080835404028352916020019161133e565b820191906000526020600020905b81548152906001019060200180831161132157829003601f168201915b50505050508152602001600282018054600181600116156101000203166002900480601f0160208091040260200160405190810160405280929190818152602001828054600181600116156101000203166002900480156113e05780601f106113b5576101008083540402835291602001916113e0565b820191906000526020600020905b8154815290600101906020018083116113c357829003601f168201915b5050505050815250509080600601604051806080016040529081600082018054600181600116156101000203166002900480601f0160208091040260200160405190810160405280929190818152602001828054600181600116156101000203166002900480156114925780601f1061146757610100808354040283529160200191611492565b820191906000526020600020905b81548152906001019060200180831161147557829003601f168201915b5050505050815260200160018201548152602001600282015481526020016003820154815250509080600b018054600181600116156101000203166002900480601f0160208091040260200160405190810160405280929190818152602001828054600181600116156101000203166002900480156115525780601f1061152757610100808354040283529160200191611552565b820191906000526020600020905b81548152906001019060200180831161153557829003601f168201915b5050505050905085565b6000600c80549050905090565b828054600181600116156101000203166002900490600052602060002090601f016020900481019282601f106115aa57805160ff19168380011785556115d8565b828001600101855582156115d8579182015b828111156115d75782518255916020019190600101906115bc565b5b5090506115e59190611711565b5090565b6040518060c0016040528060608152602001611603611736565b815260200161161061177c565b815260200161161d61179d565b815260200160608152602001606081525090565b828054600181600116156101000203166002900490600052602060002090601f016020900481019282601f1061167257805160ff19168380011785556116a0565b828001600101855582156116a0579182015b8281111561169f578251825591602001919060010190611684565b5b5090506116ad9190611711565b5090565b828054828255906000526020600020908101928215611700579160200282015b828111156116ff5782518290805190602001906116ef929190611631565b50916020019190600101906116d1565b5b50905061170d91906117c5565b5090565b61173391905b8082111561172f576000816000905550600101611717565b5090565b90565b6040518060400160405280600073ffffffffffffffffffffffffffffffffffffffff168152602001600073ffffffffffffffffffffffffffffffffffffffff1681525090565b60405180606001604052806060815260200160608152602001606081525090565b6040518060800160405280606081526020016000815260200160008152602001600081525090565b6117ee91905b808211156117ea57600081816117e191906117f1565b506001016117cb565b5090565b90565b50805460018160011615610100020316600290046000825580601f106118175750611836565b601f0160209004906000526020600020908101906118359190611711565b5b50565b600081359050611848816121da565b92915050565b600082601f83011261185f57600080fd5b600261187261186d82612027565b611ffa565b9150818385602084028201111561188857600080fd5b60005b838110156118b8578161189e8882611839565b84526020840193506020830192505060018101905061188b565b5050505092915050565b600082601f8301126118d357600080fd5b60036118e66118e182612049565b611ffa565b9150818360005b8381101561191d5781358601611903888261199b565b8452602084019350602083019250506001810190506118ed565b5050505092915050565b600082601f83011261193857600080fd5b600361194b6119468261206b565b611ffa565b9150818385602084028201111561196157600080fd5b60005b8381101561199157816119778882611a43565b845260208401935060208301925050600181019050611964565b5050505092915050565b600082601f8301126119ac57600080fd5b81356119bf6119ba8261208d565b611ffa565b915080825260208301602083018583830111156119db57600080fd5b6119e6838284612187565b50505092915050565b600082601f830112611a0057600080fd5b8135611a13611a0e826120b9565b611ffa565b91508082526020830160208301858383011115611a2f57600080fd5b611a3a838284612187565b50505092915050565b600081359050611a52816121f1565b92915050565b60008060008060006101008688031215611a7157600080fd5b6000611a7f8882890161184e565b955050604086013567ffffffffffffffff811115611a9c57600080fd5b611aa8888289016119ef565b945050606086013567ffffffffffffffff811115611ac557600080fd5b611ad1888289016118c2565b935050608086013567ffffffffffffffff811115611aee57600080fd5b611afa888289016119ef565b92505060a0611b0b88828901611927565b9150509295509295909350565b600060208284031215611b2a57600080fd5b6000611b3884828501611a43565b91505092915050565b6000611b4d8383611bd9565b905092915050565b611b5e8161214b565b82525050565b6000611b6f826120f5565b611b798185612118565b935083602082028501611b8b856120e5565b8060005b85811015611bc75784840389528151611ba88582611b41565b9450611bb38361210b565b925060208a01995050600181019050611b8f565b50829750879550505050505092915050565b6000611be482612100565b611bee8185612129565b9350611bfe818560208601612196565b611c07816121c9565b840191505092915050565b6000611c1d82612100565b611c27818561213a565b9350611c37818560208601612196565b611c40816121c9565b840191505092915050565b6000611c5860188361213a565b91507f6e6577206167677265656d656e74207075626c697368656400000000000000006000830152602082019050919050565b600060e0830160008301518482036000860152611ca88282611bd9565b9150506020830151611cbd6020860182611eb2565b5060408301518482036060860152611cd58282611df6565b91505060608301518482036080860152611cef8282611d30565b915050608083015184820360a0860152611d098282611b64565b91505060a083015184820360c0860152611d238282611bd9565b9150508091505092915050565b60006080830160008301518482036000860152611d4d8282611bd9565b9150506020830151611d626020860182611f10565b506040830151611d756040860182611f10565b506060830151611d886060860182611f10565b508091505092915050565b60006080830160008301518482036000860152611db08282611bd9565b9150506020830151611dc56020860182611f10565b506040830151611dd86040860182611f10565b506060830151611deb6060860182611f10565b508091505092915050565b60006060830160008301518482036000860152611e138282611bd9565b91505060208301518482036020860152611e2d8282611bd9565b91505060408301518482036040860152611e478282611bd9565b9150508091505092915050565b60006060830160008301518482036000860152611e718282611bd9565b91505060208301518482036020860152611e8b8282611bd9565b91505060408301518482036040860152611ea58282611bd9565b9150508091505092915050565b604082016000820151611ec86000850182611b55565b506020820151611edb6020850182611b55565b50505050565b604082016000820151611ef76000850182611b55565b506020820151611f0a6020850182611b55565b50505050565b611f198161217d565b82525050565b611f288161217d565b82525050565b600060c0820190508181036000830152611f488188611c12565b9050611f576020830187611ee1565b8181036060830152611f698186611e54565b90508181036080830152611f7d8185611d93565b905081810360a0830152611f918184611c12565b90509695505050505050565b60006020820190508181036000830152611fb681611c4b565b9050919050565b60006020820190508181036000830152611fd78184611c8b565b905092915050565b6000602082019050611ff46000830184611f1f565b92915050565b6000604051905081810181811067ffffffffffffffff8211171561201d57600080fd5b8060405250919050565b600067ffffffffffffffff82111561203e57600080fd5b602082029050919050565b600067ffffffffffffffff82111561206057600080fd5b602082029050919050565b600067ffffffffffffffff82111561208257600080fd5b602082029050919050565b600067ffffffffffffffff8211156120a457600080fd5b601f19601f8301169050602081019050919050565b600067ffffffffffffffff8211156120d057600080fd5b601f19601f8301169050602081019050919050565b6000819050602082019050919050565b600081519050919050565b600081519050919050565b6000602082019050919050565b600082825260208201905092915050565b600082825260208201905092915050565b600082825260208201905092915050565b60006121568261215d565b9050919050565b600073ffffffffffffffffffffffffffffffffffffffff82169050919050565b6000819050919050565b82818337600083830152505050565b60005b838110156121b4578082015181840152602081019050612199565b838111156121c3576000848401525b50505050565b6000601f19601f8301169050919050565b6121e38161214b565b81146121ee57600080fd5b50565b6121fa8161217d565b811461220557600080fd5b5056fea365627a7a72315820451f15b4830fa70f3f219bbd065d3aa8808c9b3221e207fe2385650d800433766c6578706572696d656e74616cf564736f6c63430005100040",
  "source": "pragma solidity ^0.5.16;\npragma experimental ABIEncoderV2;\n\n\ncontract Hire {\n\n    // initialization of the ECMR \n\n    struct Tenants {\n        address consignee;\n        address consignor;\n    }\n\n    struct Service {\n        string shipFrom;\n        string shipTo;\n        \n        string  takeoverDate;\n    }\n    \n    struct Merchandise {\n        string nature;\n        uint  quantity;\n        uint  grossWeight;\n        uint  grossVolume;\n    }\n\n    string  issuanceDate;\n    string[] comments;\n    string[] status;\n    \n    Tenants tenants;\n    Service service;\n    Merchandise merchandise;\n\n    struct Aggreement {\n        string issuance;\n        Tenants ppl;\n        Service srv;\n        Merchandise mrch;\n        string[] cmmts;\n        string status;\n    }\n\n    Aggreement[] public aggreements;\n    \n    \n    event NewAggreement(string message);\n\n\n    //////// DB Manager\n\n    function addAggreement (address[2] memory _ppl, string memory _issuanceDate, string[3] memory _shipInfo, string memory _nature, uint[3] memory _details) public payable{\n        tenants.consignee = _ppl[0];\n        tenants.consignor = _ppl[1];\n        \n        issuanceDate = _issuanceDate;\n        \n\n        service.shipFrom = _shipInfo[0];\n        service.shipTo = _shipInfo[1]; \n        service.takeoverDate = _shipInfo[2];\n        \n        merchandise.nature =_nature;\n        merchandise.quantity = _details[0];\n        merchandise.grossWeight =_details[1];\n        merchandise.grossVolume = _details[2];\n\n        status.push('setCommand');\n\n\n        Aggreement memory newAggreement = Aggreement(issuanceDate, tenants, service, merchandise, comments, 'Aggreement set');\n        aggreements.push(newAggreement);\n        \n\n        emit NewAggreement('new aggreement published');\n        \n    }\n     \n    function totalAggreements() public view returns (uint)  {\n        return aggreements.length;\n    }\n     \n    function seeAggreement(uint i) public view returns (Aggreement memory)  {\n        return aggreements[i];\n    }\n\n    \n    \n    ///// Misc\n    \n    /////function uint2str(uint _i) internal pure returns (string memory _uintAsString) {\n    /////    if (_i == 0) {\n    /////        return \"0\";\n    /////    }\n    /////    uint j = _i;\n    /////    uint len;\n    /////    while (j != 0) {\n    /////        len++;\n    /////        j /= 10;\n    /////    }\n    /////    bytes memory bstr = new bytes(len);\n    /////    uint k = len - 1;\n    /////    while (_i != 0) {\n    /////        bstr[k--] = byte(uint8(48 + _i % 10));\n    /////        _i /= 10;\n    /////    }\n    /////    return string(bstr);\n    /////}\n    \n    /////function append(string memory a, string memory b, string memory c, string memory d, string memory e) internal pure returns (string memory) {\n    /////    return string(abi.encodePacked(a, b, c, d, e));\n    /////}\n\n\n    \n    ///// getters\n    \n    /////function getTenants() public view returns (Tenants memory){\n    /////    return tenants;\n    /////}\n    \n    /////function getMerchandise() public view returns (Merchandise memory){\n    /////    return merchandise;\n    /////}\n\n    /////function getService() public view returns (Service memory){\n    /////    return service;\n    /////}\n\n\n    ///// setters\n\n    /////function setTenants(address[3] memory _ppl, string memory _issuanceDate) public payable {\n        \n    /////    tenants.consignee = _ppl[0];\n    /////    tenants.consignor = _ppl[1];\n    /////    tenants.carrier = _ppl[2];\n        \n    /////    issuanceDate = _issuanceDate;\n                                    \n    /////    status.push('setTenants');\n        \n    /////}\n\n    /////function setService(string[3] memory _shipInfo) public payable {\n                                    \n    /////    service.shipFrom = _shipInfo[0];\n    /////    service.shipTo = _shipInfo[1]; \n    /////    service.takeoverDate = _shipInfo[2];\n        \n    /////    status.push('setService');\n\n    /////}\n    \n    /////function setMerchandise( string memory _nature, uint[3] memory _details) public payable {\n                                    \n    /////    merchandise.nature =_nature;\n    /////    merchandise.quantity = _details[0];\n    /////    merchandise.grossWeight =_details[1];\n    /////    merchandise.grossVolume = _details[2];\n\n    /////    status.push('setCommand');\n\n    /////}\n    \n\n    /////function addComment(string memory _newComment) public payable {\n    /////    comments.push(_newComment);\n    /////}\n    \n    /////function getStatus() public view returns (string[] memory) {\n    /////    return status;   \n    /////}\n\n\n}",
  "sourcePath": "/home/vtlr2002/source/SMLogs/contracts/Hire.sol",
  "compiler": {
    "name": "solc",
    "version": "0.5.16+commit.9c3226ce.Emscripten.clang"
  },
  "schemaVersion": "3.2.4",
  "updatedAt": "2020-12-18T09:15:12.825Z",
  "networkType": "ethereum",
  "devdoc": {
    "methods": {}
  },
  "userdoc": {
    "methods": {
      "addAggreement(address[2],string,string[3],string,uint256[3])": {
        "notice": "///// DB Manager"
      }
    }
  }
}