{
  "contractName": "Hire",
  "abi": [
    {
      "anonymous": false,
      "inputs": [
        {
          "indexed": false,
          "internalType": "string",
          "name": "message",
          "type": "string"
        }
      ],
      "name": "NewAggreement",
      "type": "event"
    },
    {
      "anonymous": false,
      "inputs": [
        {
          "indexed": false,
          "internalType": "address",
          "name": "sender",
          "type": "address"
        },
        {
          "indexed": false,
          "internalType": "address",
          "name": "consignee",
          "type": "address"
        },
        {
          "indexed": false,
          "internalType": "address",
          "name": "consignor",
          "type": "address"
        }
      ],
      "name": "Request",
      "type": "event"
    },
    {
      "constant": true,
      "inputs": [
        {
          "internalType": "uint256",
          "name": "",
          "type": "uint256"
        }
      ],
      "name": "aggreements",
      "outputs": [
        {
          "internalType": "string",
          "name": "issuance",
          "type": "string"
        },
        {
          "components": [
            {
              "internalType": "address",
              "name": "consignee",
              "type": "address"
            },
            {
              "internalType": "address",
              "name": "consignor",
              "type": "address"
            }
          ],
          "internalType": "struct Hire.Tenants",
          "name": "ppl",
          "type": "tuple"
        },
        {
          "components": [
            {
              "internalType": "string",
              "name": "shipFrom",
              "type": "string"
            },
            {
              "internalType": "string",
              "name": "shipTo",
              "type": "string"
            },
            {
              "internalType": "string",
              "name": "takeoverDate",
              "type": "string"
            }
          ],
          "internalType": "struct Hire.Service",
          "name": "srv",
          "type": "tuple"
        },
        {
          "components": [
            {
              "internalType": "string",
              "name": "nature",
              "type": "string"
            },
            {
              "internalType": "uint256",
              "name": "quantity",
              "type": "uint256"
            },
            {
              "internalType": "uint256",
              "name": "grossWeight",
              "type": "uint256"
            },
            {
              "internalType": "uint256",
              "name": "grossVolume",
              "type": "uint256"
            }
          ],
          "internalType": "struct Hire.Merchandise",
          "name": "mrch",
          "type": "tuple"
        },
        {
          "internalType": "string",
          "name": "status",
          "type": "string"
        }
      ],
      "payable": false,
      "stateMutability": "view",
      "type": "function"
    },
    {
      "constant": false,
      "inputs": [
        {
          "internalType": "address[2]",
          "name": "_ppl",
          "type": "address[2]"
        },
        {
          "internalType": "string",
          "name": "_issuanceDate",
          "type": "string"
        },
        {
          "internalType": "string[3]",
          "name": "_shipInfo",
          "type": "string[3]"
        },
        {
          "internalType": "string",
          "name": "_nature",
          "type": "string"
        },
        {
          "internalType": "uint256[3]",
          "name": "_details",
          "type": "uint256[3]"
        }
      ],
      "name": "addAggreement",
      "outputs": [],
      "payable": true,
      "stateMutability": "payable",
      "type": "function"
    },
    {
      "constant": true,
      "inputs": [],
      "name": "totalAggreements",
      "outputs": [
        {
          "internalType": "uint256",
          "name": "",
          "type": "uint256"
        }
      ],
      "payable": false,
      "stateMutability": "view",
      "type": "function"
    },
    {
      "constant": false,
      "inputs": [
        {
          "internalType": "uint256",
          "name": "i",
          "type": "uint256"
        }
      ],
      "name": "seeAggreement",
      "outputs": [
        {
          "components": [
            {
              "internalType": "string",
              "name": "issuance",
              "type": "string"
            },
            {
              "components": [
                {
                  "internalType": "address",
                  "name": "consignee",
                  "type": "address"
                },
                {
                  "internalType": "address",
                  "name": "consignor",
                  "type": "address"
                }
              ],
              "internalType": "struct Hire.Tenants",
              "name": "ppl",
              "type": "tuple"
            },
            {
              "components": [
                {
                  "internalType": "string",
                  "name": "shipFrom",
                  "type": "string"
                },
                {
                  "internalType": "string",
                  "name": "shipTo",
                  "type": "string"
                },
                {
                  "internalType": "string",
                  "name": "takeoverDate",
                  "type": "string"
                }
              ],
              "internalType": "struct Hire.Service",
              "name": "srv",
              "type": "tuple"
            },
            {
              "components": [
                {
                  "internalType": "string",
                  "name": "nature",
                  "type": "string"
                },
                {
                  "internalType": "uint256",
                  "name": "quantity",
                  "type": "uint256"
                },
                {
                  "internalType": "uint256",
                  "name": "grossWeight",
                  "type": "uint256"
                },
                {
                  "internalType": "uint256",
                  "name": "grossVolume",
                  "type": "uint256"
                }
              ],
              "internalType": "struct Hire.Merchandise",
              "name": "mrch",
              "type": "tuple"
            },
            {
              "internalType": "string[]",
              "name": "cmmts",
              "type": "string[]"
            },
            {
              "internalType": "string",
              "name": "status",
              "type": "string"
            }
          ],
          "internalType": "struct Hire.Aggreement",
          "name": "",
          "type": "tuple"
        }
      ],
      "payable": true,
      "stateMutability": "payable",
      "type": "function"
    }
  ],
  "bytecode": "0x608060405234801561001057600080fd5b50612c28806100206000396000f3fe60806040526004361061003f5760003560e01c80632d1015e7146100445780634e15179314610060578063d193483114610090578063f62f9653146100d1575b600080fd5b61005e600480360361005991908101906123aa565b6100fc565b005b61007a6004803603610075919081019061246a565b610a7c565b6040516100879190612964565b60405180910390f35b34801561009c57600080fd5b506100b760048036036100b2919081019061246a565b61193c565b6040516100c89594939291906128d5565b60405180910390f35b3480156100dd57600080fd5b506100e6611e1f565b6040516100f39190612986565b60405180910390f35b8460006002811061010957fe5b6020020151600360000160006101000a81548173ffffffffffffffffffffffffffffffffffffffff021916908373ffffffffffffffffffffffffffffffffffffffff1602179055508460016002811061015e57fe5b6020020151600360010160006101000a81548173ffffffffffffffffffffffffffffffffffffffff021916908373ffffffffffffffffffffffffffffffffffffffff16021790555083600090805190602001906101bc929190611e2c565b50826000600381106101ca57fe5b6020020151600560000190805190602001906101e7929190611e2c565b50826001600381106101f557fe5b602002015160056001019080519060200190610212929190611e2c565b508260026003811061022057fe5b60200201516005600201908051906020019061023d929190611e2c565b508160086000019080519060200190610257929190611e2c565b508060006003811061026557fe5b60200201516008600101819055508060016003811061028057fe5b60200201516008600201819055508060026003811061029b57fe5b602002015160086003018190555060028060018154018082558091505090600182039060005260206000200160006040518060400160405280600a81526020017f736574436f6d6d616e640000000000000000000000000000000000000000000081525090919091509080519060200190610317929190611e2c565b5050610321611eac565b6040518060c0016040528060008054600181600116156101000203166002900480601f0160208091040260200160405190810160405280929190818152602001828054600181600116156101000203166002900480156103c25780601f10610397576101008083540402835291602001916103c2565b820191906000526020600020905b8154815290600101906020018083116103a557829003601f168201915b5050505050815260200160036040518060400160405290816000820160009054906101000a900473ffffffffffffffffffffffffffffffffffffffff1673ffffffffffffffffffffffffffffffffffffffff1673ffffffffffffffffffffffffffffffffffffffff1681526020016001820160009054906101000a900473ffffffffffffffffffffffffffffffffffffffff1673ffffffffffffffffffffffffffffffffffffffff1673ffffffffffffffffffffffffffffffffffffffff168152505081526020016005604051806060016040529081600082018054600181600116156101000203166002900480601f0160208091040260200160405190810160405280929190818152602001828054600181600116156101000203166002900480156105305780601f1061050557610100808354040283529160200191610530565b820191906000526020600020905b81548152906001019060200180831161051357829003601f168201915b50505050508152602001600182018054600181600116156101000203166002900480601f0160208091040260200160405190810160405280929190818152602001828054600181600116156101000203166002900480156105d25780601f106105a7576101008083540402835291602001916105d2565b820191906000526020600020905b8154815290600101906020018083116105b557829003601f168201915b50505050508152602001600282018054600181600116156101000203166002900480601f0160208091040260200160405190810160405280929190818152602001828054600181600116156101000203166002900480156106745780601f1061064957610100808354040283529160200191610674565b820191906000526020600020905b81548152906001019060200180831161065757829003601f168201915b50505050508152505081526020016008604051806080016040529081600082018054600181600116156101000203166002900480601f0160208091040260200160405190810160405280929190818152602001828054600181600116156101000203166002900480156107285780601f106106fd57610100808354040283529160200191610728565b820191906000526020600020905b81548152906001019060200180831161070b57829003601f168201915b50505050508152602001600182015481526020016002820154815260200160038201548152505081526020016001805480602002602001604051908101604052809291908181526020016000905b82821015610832578382906000526020600020018054600181600116156101000203166002900480601f01602080910402602001604051908101604052809291908181526020018280546001816001161561010002031660029004801561081e5780601f106107f35761010080835404028352916020019161081e565b820191906000526020600020905b81548152906001019060200180831161080157829003601f168201915b505050505081526020019060010190610776565b5050505081526020016040518060400160405280600e81526020017f4167677265656d656e74207365740000000000000000000000000000000000008152508152509050600c819080600181540180825580915050906001820390600052602060002090600c02016000909192909190915060008201518160000190805190602001906108c0929190611ef4565b5060208201518160010160008201518160000160006101000a81548173ffffffffffffffffffffffffffffffffffffffff021916908373ffffffffffffffffffffffffffffffffffffffff16021790555060208201518160010160006101000a81548173ffffffffffffffffffffffffffffffffffffffff021916908373ffffffffffffffffffffffffffffffffffffffff1602179055505050604082015181600301600082015181600001908051906020019061097f929190611ef4565b50602082015181600101908051906020019061099c929190611ef4565b5060408201518160020190805190602001906109b9929190611ef4565b50505060608201518160060160008201518160000190805190602001906109e1929190611ef4565b506020820151816001015560408201518160020155606082015181600301555050608082015181600a019080519060200190610a1e929190611f74565b5060a082015181600b019080519060200190610a3b929190611ef4565b505050507f7c8b1648a35fc8af6f9f12f1b5d49f57c0084c66fb76bf3c65ff6f38b4995b11604051610a6c90612944565b60405180910390a1505050505050565b610a84611eac565b7f748ab010e834f6026f43074efec29fdb60a155d402bc5b8cd5908b43c8c6076d33600c8481548110610ab357fe5b90600052602060002090600c020160010160000160009054906101000a900473ffffffffffffffffffffffffffffffffffffffff16600c8581548110610af557fe5b90600052602060002090600c020160010160010160009054906101000a900473ffffffffffffffffffffffffffffffffffffffff16604051610b399392919061289e565b60405180910390a13373ffffffffffffffffffffffffffffffffffffffff16600c8381548110610b6557fe5b90600052602060002090600c020160010160000160009054906101000a900473ffffffffffffffffffffffffffffffffffffffff1673ffffffffffffffffffffffffffffffffffffffff16141561119e57600c8281548110610bc357fe5b90600052602060002090600c02016040518060c0016040529081600082018054600181600116156101000203166002900480601f016020809104026020016040519081016040528092919081815260200182805460018160011615610100020316600290048015610c755780601f10610c4a57610100808354040283529160200191610c75565b820191906000526020600020905b815481529060010190602001808311610c5857829003601f168201915b50505050508152602001600182016040518060400160405290816000820160009054906101000a900473ffffffffffffffffffffffffffffffffffffffff1673ffffffffffffffffffffffffffffffffffffffff1673ffffffffffffffffffffffffffffffffffffffff1681526020016001820160009054906101000a900473ffffffffffffffffffffffffffffffffffffffff1673ffffffffffffffffffffffffffffffffffffffff1673ffffffffffffffffffffffffffffffffffffffff1681525050815260200160038201604051806060016040529081600082018054600181600116156101000203166002900480601f016020809104026020016040519081016040528092919081815260200182805460018160011615610100020316600290048015610de75780601f10610dbc57610100808354040283529160200191610de7565b820191906000526020600020905b815481529060010190602001808311610dca57829003601f168201915b50505050508152602001600182018054600181600116156101000203166002900480601f016020809104026020016040519081016040528092919081815260200182805460018160011615610100020316600290048015610e895780601f10610e5e57610100808354040283529160200191610e89565b820191906000526020600020905b815481529060010190602001808311610e6c57829003601f168201915b50505050508152602001600282018054600181600116156101000203166002900480601f016020809104026020016040519081016040528092919081815260200182805460018160011615610100020316600290048015610f2b5780601f10610f0057610100808354040283529160200191610f2b565b820191906000526020600020905b815481529060010190602001808311610f0e57829003601f168201915b505050505081525050815260200160068201604051806080016040529081600082018054600181600116156101000203166002900480601f016020809104026020016040519081016040528092919081815260200182805460018160011615610100020316600290048015610fe15780601f10610fb657610100808354040283529160200191610fe1565b820191906000526020600020905b815481529060010190602001808311610fc457829003601f168201915b5050505050815260200160018201548152602001600282015481526020016003820154815250508152602001600a8201805480602002602001604051908101604052809291908181526020016000905b828210156110ed578382906000526020600020018054600181600116156101000203166002900480601f0160208091040260200160405190810160405280929190818152602001828054600181600116156101000203166002900480156110d95780601f106110ae576101008083540402835291602001916110d9565b820191906000526020600020905b8154815290600101906020018083116110bc57829003601f168201915b505050505081526020019060010190611031565b505050508152602001600b82018054600181600116156101000203166002900480601f01602080910402602001604051908101604052809291908181526020018280546001816001161561010002031660029004801561118e5780601f106111635761010080835404028352916020019161118e565b820191906000526020600020905b81548152906001019060200180831161117157829003601f168201915b5050505050815250509050611937565b3373ffffffffffffffffffffffffffffffffffffffff16600c83815481106111c257fe5b90600052602060002090600c020160010160010160009054906101000a900473ffffffffffffffffffffffffffffffffffffffff1673ffffffffffffffffffffffffffffffffffffffff1614156117fb57600c828154811061122057fe5b90600052602060002090600c02016040518060c0016040529081600082018054600181600116156101000203166002900480601f0160208091040260200160405190810160405280929190818152602001828054600181600116156101000203166002900480156112d25780601f106112a7576101008083540402835291602001916112d2565b820191906000526020600020905b8154815290600101906020018083116112b557829003601f168201915b50505050508152602001600182016040518060400160405290816000820160009054906101000a900473ffffffffffffffffffffffffffffffffffffffff1673ffffffffffffffffffffffffffffffffffffffff1673ffffffffffffffffffffffffffffffffffffffff1681526020016001820160009054906101000a900473ffffffffffffffffffffffffffffffffffffffff1673ffffffffffffffffffffffffffffffffffffffff1673ffffffffffffffffffffffffffffffffffffffff1681525050815260200160038201604051806060016040529081600082018054600181600116156101000203166002900480601f0160208091040260200160405190810160405280929190818152602001828054600181600116156101000203166002900480156114445780601f1061141957610100808354040283529160200191611444565b820191906000526020600020905b81548152906001019060200180831161142757829003601f168201915b50505050508152602001600182018054600181600116156101000203166002900480601f0160208091040260200160405190810160405280929190818152602001828054600181600116156101000203166002900480156114e65780601f106114bb576101008083540402835291602001916114e6565b820191906000526020600020905b8154815290600101906020018083116114c957829003601f168201915b50505050508152602001600282018054600181600116156101000203166002900480601f0160208091040260200160405190810160405280929190818152602001828054600181600116156101000203166002900480156115885780601f1061155d57610100808354040283529160200191611588565b820191906000526020600020905b81548152906001019060200180831161156b57829003601f168201915b505050505081525050815260200160068201604051806080016040529081600082018054600181600116156101000203166002900480601f01602080910402602001604051908101604052809291908181526020018280546001816001161561010002031660029004801561163e5780601f106116135761010080835404028352916020019161163e565b820191906000526020600020905b81548152906001019060200180831161162157829003601f168201915b5050505050815260200160018201548152602001600282015481526020016003820154815250508152602001600a8201805480602002602001604051908101604052809291908181526020016000905b8282101561174a578382906000526020600020018054600181600116156101000203166002900480601f0160208091040260200160405190810160405280929190818152602001828054600181600116156101000203166002900480156117365780601f1061170b57610100808354040283529160200191611736565b820191906000526020600020905b81548152906001019060200180831161171957829003601f168201915b50505050508152602001906001019061168e565b505050508152602001600b82018054600181600116156101000203166002900480601f0160208091040260200160405190810160405280929190818152602001828054600181600116156101000203166002900480156117eb5780601f106117c0576101008083540402835291602001916117eb565b820191906000526020600020905b8154815290600101906020018083116117ce57829003601f168201915b5050505050815250509050611937565b611803611fd4565b6040518060400160405280600073ffffffffffffffffffffffffffffffffffffffff168152602001600073ffffffffffffffffffffffffffffffffffffffff16815250905061185061201a565b60405180606001604052806040518060200160405280600081525081526020016040518060200160405280600081525081526020016040518060200160405280600081525081525090506118a261203b565b604051806080016040528060405180602001604052806000815250815260200160008152602001600081526020016000815250905060606118e1611eac565b6040518060c0016040528060405180602001604052806000815250815260200186815260200185815260200184815260200183815260200160405180602001604052806000815250815250905080955050505050505b919050565b600c818154811061194957fe5b90600052602060002090600c0201600091509050806000018054600181600116156101000203166002900480601f0160208091040260200160405190810160405280929190818152602001828054600181600116156101000203166002900480156119f55780601f106119ca576101008083540402835291602001916119f5565b820191906000526020600020905b8154815290600101906020018083116119d857829003601f168201915b505050505090806001016040518060400160405290816000820160009054906101000a900473ffffffffffffffffffffffffffffffffffffffff1673ffffffffffffffffffffffffffffffffffffffff1673ffffffffffffffffffffffffffffffffffffffff1681526020016001820160009054906101000a900473ffffffffffffffffffffffffffffffffffffffff1673ffffffffffffffffffffffffffffffffffffffff1673ffffffffffffffffffffffffffffffffffffffff16815250509080600301604051806060016040529081600082018054600181600116156101000203166002900480601f016020809104026020016040519081016040528092919081815260200182805460018160011615610100020316600290048015611b5f5780601f10611b3457610100808354040283529160200191611b5f565b820191906000526020600020905b815481529060010190602001808311611b4257829003601f168201915b50505050508152602001600182018054600181600116156101000203166002900480601f016020809104026020016040519081016040528092919081815260200182805460018160011615610100020316600290048015611c015780601f10611bd657610100808354040283529160200191611c01565b820191906000526020600020905b815481529060010190602001808311611be457829003601f168201915b50505050508152602001600282018054600181600116156101000203166002900480601f016020809104026020016040519081016040528092919081815260200182805460018160011615610100020316600290048015611ca35780601f10611c7857610100808354040283529160200191611ca3565b820191906000526020600020905b815481529060010190602001808311611c8657829003601f168201915b5050505050815250509080600601604051806080016040529081600082018054600181600116156101000203166002900480601f016020809104026020016040519081016040528092919081815260200182805460018160011615610100020316600290048015611d555780601f10611d2a57610100808354040283529160200191611d55565b820191906000526020600020905b815481529060010190602001808311611d3857829003601f168201915b5050505050815260200160018201548152602001600282015481526020016003820154815250509080600b018054600181600116156101000203166002900480601f016020809104026020016040519081016040528092919081815260200182805460018160011615610100020316600290048015611e155780601f10611dea57610100808354040283529160200191611e15565b820191906000526020600020905b815481529060010190602001808311611df857829003601f168201915b5050505050905085565b6000600c80549050905090565b828054600181600116156101000203166002900490600052602060002090601f016020900481019282601f10611e6d57805160ff1916838001178555611e9b565b82800160010185558215611e9b579182015b82811115611e9a578251825591602001919060010190611e7f565b5b509050611ea89190612063565b5090565b6040518060c0016040528060608152602001611ec6612088565b8152602001611ed36120ce565b8152602001611ee06120ef565b815260200160608152602001606081525090565b828054600181600116156101000203166002900490600052602060002090601f016020900481019282601f10611f3557805160ff1916838001178555611f63565b82800160010185558215611f63579182015b82811115611f62578251825591602001919060010190611f47565b5b509050611f709190612063565b5090565b828054828255906000526020600020908101928215611fc3579160200282015b82811115611fc2578251829080519060200190611fb2929190611ef4565b5091602001919060010190611f94565b5b509050611fd09190612117565b5090565b6040518060400160405280600073ffffffffffffffffffffffffffffffffffffffff168152602001600073ffffffffffffffffffffffffffffffffffffffff1681525090565b60405180606001604052806060815260200160608152602001606081525090565b6040518060800160405280606081526020016000815260200160008152602001600081525090565b61208591905b80821115612081576000816000905550600101612069565b5090565b90565b6040518060400160405280600073ffffffffffffffffffffffffffffffffffffffff168152602001600073ffffffffffffffffffffffffffffffffffffffff1681525090565b60405180606001604052806060815260200160608152602001606081525090565b6040518060800160405280606081526020016000815260200160008152602001600081525090565b61214091905b8082111561213c57600081816121339190612143565b5060010161211d565b5090565b90565b50805460018160011615610100020316600290046000825580601f106121695750612188565b601f0160209004906000526020600020908101906121879190612063565b5b50565b60008135905061219a81612bb7565b92915050565b600082601f8301126121b157600080fd5b60026121c46121bf826129ce565b6129a1565b915081838560208402820111156121da57600080fd5b60005b8381101561220a57816121f0888261218b565b8452602084019350602083019250506001810190506121dd565b5050505092915050565b600082601f83011261222557600080fd5b6003612238612233826129f0565b6129a1565b9150818360005b8381101561226f578135860161225588826122ed565b84526020840193506020830192505060018101905061223f565b5050505092915050565b600082601f83011261228a57600080fd5b600361229d61229882612a12565b6129a1565b915081838560208402820111156122b357600080fd5b60005b838110156122e357816122c98882612395565b8452602084019350602083019250506001810190506122b6565b5050505092915050565b600082601f8301126122fe57600080fd5b813561231161230c82612a34565b6129a1565b9150808252602083016020830185838301111561232d57600080fd5b612338838284612b64565b50505092915050565b600082601f83011261235257600080fd5b813561236561236082612a60565b6129a1565b9150808252602083016020830185838301111561238157600080fd5b61238c838284612b64565b50505092915050565b6000813590506123a481612bce565b92915050565b600080600080600061010086880312156123c357600080fd5b60006123d1888289016121a0565b955050604086013567ffffffffffffffff8111156123ee57600080fd5b6123fa88828901612341565b945050606086013567ffffffffffffffff81111561241757600080fd5b61242388828901612214565b935050608086013567ffffffffffffffff81111561244057600080fd5b61244c88828901612341565b92505060a061245d88828901612279565b9150509295509295909350565b60006020828403121561247c57600080fd5b600061248a84828501612395565b91505092915050565b600061249f8383612549565b905092915050565b6124b081612b2e565b82525050565b6124bf81612af2565b82525050565b6124ce81612af2565b82525050565b60006124df82612a9c565b6124e98185612abf565b9350836020820285016124fb85612a8c565b8060005b8581101561253757848403895281516125188582612493565b945061252383612ab2565b925060208a019950506001810190506124ff565b50829750879550505050505092915050565b600061255482612aa7565b61255e8185612ad0565b935061256e818560208601612b73565b61257781612ba6565b840191505092915050565b600061258d82612aa7565b6125978185612ae1565b93506125a7818560208601612b73565b6125b081612ba6565b840191505092915050565b60006125c8601883612ae1565b91507f6e6577206167677265656d656e74207075626c697368656400000000000000006000830152602082019050919050565b600060e08301600083015184820360008601526126188282612549565b915050602083015161262d6020860182612822565b50604083015184820360608601526126458282612766565b9150506060830151848203608086015261265f82826126a0565b915050608083015184820360a086015261267982826124d4565b91505060a083015184820360c08601526126938282612549565b9150508091505092915050565b600060808301600083015184820360008601526126bd8282612549565b91505060208301516126d26020860182612880565b5060408301516126e56040860182612880565b5060608301516126f86060860182612880565b508091505092915050565b600060808301600083015184820360008601526127208282612549565b91505060208301516127356020860182612880565b5060408301516127486040860182612880565b50606083015161275b6060860182612880565b508091505092915050565b600060608301600083015184820360008601526127838282612549565b9150506020830151848203602086015261279d8282612549565b915050604083015184820360408601526127b78282612549565b9150508091505092915050565b600060608301600083015184820360008601526127e18282612549565b915050602083015184820360208601526127fb8282612549565b915050604083015184820360408601526128158282612549565b9150508091505092915050565b60408201600082015161283860008501826124b6565b50602082015161284b60208501826124b6565b50505050565b60408201600082015161286760008501826124b6565b50602082015161287a60208501826124b6565b50505050565b61288981612b24565b82525050565b61289881612b24565b82525050565b60006060820190506128b360008301866124a7565b6128c060208301856124c5565b6128cd60408301846124c5565b949350505050565b600060c08201905081810360008301526128ef8188612582565b90506128fe6020830187612851565b818103606083015261291081866127c4565b905081810360808301526129248185612703565b905081810360a08301526129388184612582565b90509695505050505050565b6000602082019050818103600083015261295d816125bb565b9050919050565b6000602082019050818103600083015261297e81846125fb565b905092915050565b600060208201905061299b600083018461288f565b92915050565b6000604051905081810181811067ffffffffffffffff821117156129c457600080fd5b8060405250919050565b600067ffffffffffffffff8211156129e557600080fd5b602082029050919050565b600067ffffffffffffffff821115612a0757600080fd5b602082029050919050565b600067ffffffffffffffff821115612a2957600080fd5b602082029050919050565b600067ffffffffffffffff821115612a4b57600080fd5b601f19601f8301169050602081019050919050565b600067ffffffffffffffff821115612a7757600080fd5b601f19601f8301169050602081019050919050565b6000819050602082019050919050565b600081519050919050565b600081519050919050565b6000602082019050919050565b600082825260208201905092915050565b600082825260208201905092915050565b600082825260208201905092915050565b6000612afd82612b04565b9050919050565b600073ffffffffffffffffffffffffffffffffffffffff82169050919050565b6000819050919050565b6000612b3982612b40565b9050919050565b6000612b4b82612b52565b9050919050565b6000612b5d82612b04565b9050919050565b82818337600083830152505050565b60005b83811015612b91578082015181840152602081019050612b76565b83811115612ba0576000848401525b50505050565b6000601f19601f8301169050919050565b612bc081612af2565b8114612bcb57600080fd5b50565b612bd781612b24565b8114612be257600080fd5b5056fea365627a7a7231582095b44aa7979045e8e28be8d98942fcab4e7934324b0f3ead58d7355414dade8a6c6578706572696d656e74616cf564736f6c63430005100040",
  "source": "pragma solidity ^0.5.16;\npragma experimental ABIEncoderV2;\n\n\ncontract Hire {\n\n    // initialization of the ECMR \n\n    struct Tenants {\n        address consignee;\n        address consignor;\n    }\n\n    struct Service {\n        string shipFrom;\n        string shipTo;\n        \n        string  takeoverDate;\n    }\n    \n    struct Merchandise {\n        string nature;\n        uint  quantity;\n        uint  grossWeight;\n        uint  grossVolume;\n    }\n\n    string  issuanceDate;\n    string[] comments;\n    string[] status;\n    \n    Tenants tenants;\n    Service service;\n    Merchandise merchandise;\n\n    struct Aggreement {\n        string issuance;\n        Tenants ppl;\n        Service srv;\n        Merchandise mrch;\n        string[] cmmts;\n        string status;\n    }\n\n    Aggreement[] public aggreements;\n    \n    \n    event NewAggreement(string message);\n    event Request(address sender, address consignee, address consignor);\n    \n\n    //////// DB Manager\n\n    function addAggreement (address[2] memory _ppl, string memory _issuanceDate, string[3] memory _shipInfo, string memory _nature, uint[3] memory _details) public payable{\n        tenants.consignee = _ppl[0];\n        tenants.consignor = _ppl[1];\n        \n        issuanceDate = _issuanceDate;\n\n        service.shipFrom = _shipInfo[0];\n        service.shipTo = _shipInfo[1]; \n        service.takeoverDate = _shipInfo[2];\n        \n        merchandise.nature =_nature;\n        merchandise.quantity = _details[0];\n        merchandise.grossWeight =_details[1];\n        merchandise.grossVolume = _details[2];\n\n        status.push('setCommand');\n\n\n        Aggreement memory newAggreement = Aggreement(issuanceDate, tenants, service, merchandise, comments, 'Aggreement set');\n        aggreements.push(newAggreement);\n        \n\n        emit NewAggreement('new aggreement published');\n        \n    }\n     \n    function totalAggreements() public view returns (uint)  {\n        return aggreements.length;\n    }\n     \n    function seeAggreement(uint i) public payable returns (Aggreement memory)  {\n\n        emit Request(msg.sender, aggreements[i].ppl.consignee, aggreements[i].ppl.consignor);\n\n        if(aggreements[i].ppl.consignee == msg.sender){\n            return aggreements[i];\n        } \n        else if(aggreements[i].ppl.consignor == msg.sender){\n            return aggreements[i];\n        }\n        else{\n            Tenants memory fakeTenants = Tenants(address(0),address(0));\n            Service memory fakeService = Service('','','');\n            Merchandise memory fakeMerchandise = Merchandise('',0,0,0);\n            string[] memory fakeComment;\n\n            Aggreement memory fakeAggreement = Aggreement('', fakeTenants, fakeService, fakeMerchandise, fakeComment, '');\n\n            return fakeAggreement;\n\n        }\n    }\n\n    \n    \n    ///// Misc\n    \n    /////function uint2str(uint _i) internal pure returns (string memory _uintAsString) {\n    /////    if (_i == 0) {\n    /////        return \"0\";\n    /////    }\n    /////    uint j = _i;\n    /////    uint len;\n    /////    while (j != 0) {\n    /////        len++;\n    /////        j /= 10;\n    /////    }\n    /////    bytes memory bstr = new bytes(len);\n    /////    uint k = len - 1;\n    /////    while (_i != 0) {\n    /////        bstr[k--] = byte(uint8(48 + _i % 10));\n    /////        _i /= 10;\n    /////    }\n    /////    return string(bstr);\n    /////}\n    \n    /////function append(string memory a, string memory b, string memory c, string memory d, string memory e) internal pure returns (string memory) {\n    /////    return string(abi.encodePacked(a, b, c, d, e));\n    /////}\n\n\n    \n    ///// getters\n    \n    /////function getTenants() public view returns (Tenants memory){\n    /////    return tenants;\n    /////}\n    \n    /////function getMerchandise() public view returns (Merchandise memory){\n    /////    return merchandise;\n    /////}\n\n    /////function getService() public view returns (Service memory){\n    /////    return service;\n    /////}\n\n\n    ///// setters\n\n    /////function setTenants(address[3] memory _ppl, string memory _issuanceDate) public payable {\n        \n    /////    tenants.consignee = _ppl[0];\n    /////    tenants.consignor = _ppl[1];\n    /////    tenants.carrier = _ppl[2];\n        \n    /////    issuanceDate = _issuanceDate;\n                                    \n    /////    status.push('setTenants');\n        \n    /////}\n\n    /////function setService(string[3] memory _shipInfo) public payable {\n                                    \n    /////    service.shipFrom = _shipInfo[0];\n    /////    service.shipTo = _shipInfo[1]; \n    /////    service.takeoverDate = _shipInfo[2];\n        \n    /////    status.push('setService');\n\n    /////}\n    \n    /////function setMerchandise( string memory _nature, uint[3] memory _details) public payable {\n                                    \n    /////    merchandise.nature =_nature;\n    /////    merchandise.quantity = _details[0];\n    /////    merchandise.grossWeight =_details[1];\n    /////    merchandise.grossVolume = _details[2];\n\n    /////    status.push('setCommand');\n\n    /////}\n    \n\n    /////function addComment(string memory _newComment) public payable {\n    /////    comments.push(_newComment);\n    /////}\n    \n    /////function getStatus() public view returns (string[] memory) {\n    /////    return status;   \n    /////}\n\n\n}",
  "sourcePath": "/home/vtlr2002/source/smart-logistics/contracts/Hire.sol",
  "compiler": {
    "name": "solc",
    "version": "0.5.16+commit.9c3226ce.Emscripten.clang"
  },
  "schemaVersion": "3.2.4",
  "updatedAt": "2021-01-07T09:37:39.301Z",
  "devdoc": {
    "methods": {}
  },
  "userdoc": {
    "methods": {
      "addAggreement(address[2],string,string[3],string,uint256[3])": {
        "notice": "///// DB Manager"
      }
    }
  }
}