{
  "contractName": "Hire",
  "abi": [
    {
      "anonymous": false,
      "inputs": [
        {
          "indexed": false,
          "internalType": "string",
          "name": "message",
          "type": "string"
        }
      ],
      "name": "NewAggreement",
      "type": "event"
    },
    {
      "anonymous": false,
      "inputs": [
        {
          "indexed": false,
          "internalType": "address",
          "name": "sender",
          "type": "address"
        },
        {
          "indexed": false,
          "internalType": "address",
          "name": "consignee",
          "type": "address"
        },
        {
          "indexed": false,
          "internalType": "address",
          "name": "consignor",
          "type": "address"
        }
      ],
      "name": "Request",
      "type": "event"
    },
    {
      "constant": false,
      "inputs": [
        {
          "internalType": "address[2]",
          "name": "_ppl",
          "type": "address[2]"
        },
        {
          "internalType": "string",
          "name": "_issuanceDate",
          "type": "string"
        },
        {
          "internalType": "string[3]",
          "name": "_shipInfo",
          "type": "string[3]"
        },
        {
          "internalType": "string",
          "name": "_nature",
          "type": "string"
        },
        {
          "internalType": "uint256[3]",
          "name": "_details",
          "type": "uint256[3]"
        }
      ],
      "name": "addAggreement",
      "outputs": [],
      "payable": true,
      "stateMutability": "payable",
      "type": "function"
    },
    {
      "constant": true,
      "inputs": [],
      "name": "totalAggreements",
      "outputs": [
        {
          "internalType": "uint256",
          "name": "",
          "type": "uint256"
        }
      ],
      "payable": false,
      "stateMutability": "view",
      "type": "function"
    },
    {
      "constant": true,
      "inputs": [],
      "name": "getSender",
      "outputs": [
        {
          "internalType": "address",
          "name": "",
          "type": "address"
        }
      ],
      "payable": false,
      "stateMutability": "view",
      "type": "function"
    },
    {
      "constant": true,
      "inputs": [
        {
          "internalType": "uint256",
          "name": "i",
          "type": "uint256"
        },
        {
          "internalType": "address",
          "name": "sender",
          "type": "address"
        }
      ],
      "name": "seeAggreement",
      "outputs": [
        {
          "internalType": "address[2]",
          "name": "_ppl",
          "type": "address[2]"
        },
        {
          "internalType": "string",
          "name": "_issuanceDate",
          "type": "string"
        },
        {
          "internalType": "string[3]",
          "name": "_shipInfo",
          "type": "string[3]"
        },
        {
          "internalType": "string",
          "name": "_nature",
          "type": "string"
        },
        {
          "internalType": "uint256[3]",
          "name": "_details",
          "type": "uint256[3]"
        },
        {
          "internalType": "string",
          "name": "_status",
          "type": "string"
        }
      ],
      "payable": false,
      "stateMutability": "view",
      "type": "function"
    }
  ],
  "bytecode": "0x608060405234801561001057600080fd5b506124ab806100206000396000f3fe60806040526004361061003f5760003560e01c80632d1015e71461004457806353b8cf00146100605780635e01eb5a146100a2578063f62f9653146100cd575b600080fd5b61005e60048036036100599190810190611ddb565b6100f8565b005b34801561006c57600080fd5b5061008760048036036100829190810190611e9b565b610a78565b60405161009996959493929190612147565b60405180910390f35b3480156100ae57600080fd5b506100b76117dd565b6040516100c4919061212c565b60405180910390f35b3480156100d957600080fd5b506100e26117e5565b6040516100ef91906121e6565b60405180910390f35b8460006002811061010557fe5b6020020151600360000160006101000a81548173ffffffffffffffffffffffffffffffffffffffff021916908373ffffffffffffffffffffffffffffffffffffffff1602179055508460016002811061015a57fe5b6020020151600360010160006101000a81548173ffffffffffffffffffffffffffffffffffffffff021916908373ffffffffffffffffffffffffffffffffffffffff16021790555083600090805190602001906101b89291906117f2565b50826000600381106101c657fe5b6020020151600560000190805190602001906101e39291906117f2565b50826001600381106101f157fe5b60200201516005600101908051906020019061020e9291906117f2565b508260026003811061021c57fe5b6020020151600560020190805190602001906102399291906117f2565b5081600860000190805190602001906102539291906117f2565b508060006003811061026157fe5b60200201516008600101819055508060016003811061027c57fe5b60200201516008600201819055508060026003811061029757fe5b602002015160086003018190555060028060018154018082558091505090600182039060005260206000200160006040518060400160405280600a81526020017f736574436f6d6d616e6400000000000000000000000000000000000000000000815250909190915090805190602001906103139291906117f2565b505061031d611872565b6040518060c0016040528060008054600181600116156101000203166002900480601f0160208091040260200160405190810160405280929190818152602001828054600181600116156101000203166002900480156103be5780601f10610393576101008083540402835291602001916103be565b820191906000526020600020905b8154815290600101906020018083116103a157829003601f168201915b5050505050815260200160036040518060400160405290816000820160009054906101000a900473ffffffffffffffffffffffffffffffffffffffff1673ffffffffffffffffffffffffffffffffffffffff1673ffffffffffffffffffffffffffffffffffffffff1681526020016001820160009054906101000a900473ffffffffffffffffffffffffffffffffffffffff1673ffffffffffffffffffffffffffffffffffffffff1673ffffffffffffffffffffffffffffffffffffffff168152505081526020016005604051806060016040529081600082018054600181600116156101000203166002900480601f01602080910402602001604051908101604052809291908181526020018280546001816001161561010002031660029004801561052c5780601f106105015761010080835404028352916020019161052c565b820191906000526020600020905b81548152906001019060200180831161050f57829003601f168201915b50505050508152602001600182018054600181600116156101000203166002900480601f0160208091040260200160405190810160405280929190818152602001828054600181600116156101000203166002900480156105ce5780601f106105a3576101008083540402835291602001916105ce565b820191906000526020600020905b8154815290600101906020018083116105b157829003601f168201915b50505050508152602001600282018054600181600116156101000203166002900480601f0160208091040260200160405190810160405280929190818152602001828054600181600116156101000203166002900480156106705780601f1061064557610100808354040283529160200191610670565b820191906000526020600020905b81548152906001019060200180831161065357829003601f168201915b50505050508152505081526020016008604051806080016040529081600082018054600181600116156101000203166002900480601f0160208091040260200160405190810160405280929190818152602001828054600181600116156101000203166002900480156107245780601f106106f957610100808354040283529160200191610724565b820191906000526020600020905b81548152906001019060200180831161070757829003601f168201915b50505050508152602001600182015481526020016002820154815260200160038201548152505081526020016001805480602002602001604051908101604052809291908181526020016000905b8282101561082e578382906000526020600020018054600181600116156101000203166002900480601f01602080910402602001604051908101604052809291908181526020018280546001816001161561010002031660029004801561081a5780601f106107ef5761010080835404028352916020019161081a565b820191906000526020600020905b8154815290600101906020018083116107fd57829003601f168201915b505050505081526020019060010190610772565b5050505081526020016040518060400160405280600e81526020017f4167677265656d656e74207365740000000000000000000000000000000000008152508152509050600c819080600181540180825580915050906001820390600052602060002090600c02016000909192909190915060008201518160000190805190602001906108bc9291906118ba565b5060208201518160010160008201518160000160006101000a81548173ffffffffffffffffffffffffffffffffffffffff021916908373ffffffffffffffffffffffffffffffffffffffff16021790555060208201518160010160006101000a81548173ffffffffffffffffffffffffffffffffffffffff021916908373ffffffffffffffffffffffffffffffffffffffff1602179055505050604082015181600301600082015181600001908051906020019061097b9291906118ba565b5060208201518160010190805190602001906109989291906118ba565b5060408201518160020190805190602001906109b59291906118ba565b50505060608201518160060160008201518160000190805190602001906109dd9291906118ba565b506020820151816001015560408201518160020155606082015181600301555050608082015181600a019080519060200190610a1a92919061193a565b5060a082015181600b019080519060200190610a379291906118ba565b505050507f7c8b1648a35fc8af6f9f12f1b5d49f57c0084c66fb76bf3c65ff6f38b4995b11604051610a68906121c6565b60405180910390a1505050505050565b610a8061199a565b6060610a8a6119bc565b6060610a946119e3565b60608673ffffffffffffffffffffffffffffffffffffffff16600c8981548110610aba57fe5b90600052602060002090600c020160010160000160009054906101000a900473ffffffffffffffffffffffffffffffffffffffff1673ffffffffffffffffffffffffffffffffffffffff161415611100576040518060400160405280600c8a81548110610b2357fe5b90600052602060002090600c020160010160000160009054906101000a900473ffffffffffffffffffffffffffffffffffffffff1673ffffffffffffffffffffffffffffffffffffffff1673ffffffffffffffffffffffffffffffffffffffff168152602001600c8a81548110610b9657fe5b90600052602060002090600c020160010160010160009054906101000a900473ffffffffffffffffffffffffffffffffffffffff1673ffffffffffffffffffffffffffffffffffffffff1673ffffffffffffffffffffffffffffffffffffffff16815250600c8981548110610c0757fe5b90600052602060002090600c02016000016040518060600160405280600c8c81548110610c3057fe5b90600052602060002090600c02016003016000018054600181600116156101000203166002900480601f016020809104026020016040519081016040528092919081815260200182805460018160011615610100020316600290048015610cd85780601f10610cad57610100808354040283529160200191610cd8565b820191906000526020600020905b815481529060010190602001808311610cbb57829003601f168201915b50505050508152602001600c8c81548110610cef57fe5b90600052602060002090600c02016003016001018054600181600116156101000203166002900480601f016020809104026020016040519081016040528092919081815260200182805460018160011615610100020316600290048015610d975780601f10610d6c57610100808354040283529160200191610d97565b820191906000526020600020905b815481529060010190602001808311610d7a57829003601f168201915b50505050508152602001600c8c81548110610dae57fe5b90600052602060002090600c02016003016002018054600181600116156101000203166002900480601f016020809104026020016040519081016040528092919081815260200182805460018160011615610100020316600290048015610e565780601f10610e2b57610100808354040283529160200191610e56565b820191906000526020600020905b815481529060010190602001808311610e3957829003601f168201915b5050505050815250600c8b81548110610e6b57fe5b90600052602060002090600c02016006016000016040518060600160405280600c8e81548110610e9757fe5b90600052602060002090600c0201600601600101548152602001600c8e81548110610ebe57fe5b90600052602060002090600c0201600601600201548152602001600c8e81548110610ee557fe5b90600052602060002090600c020160060160030154815250600c8d81548110610f0a57fe5b90600052602060002090600c0201600b01848054600181600116156101000203166002900480601f016020809104026020016040519081016040528092919081815260200182805460018160011615610100020316600290048015610fb05780601f10610f8557610100808354040283529160200191610fb0565b820191906000526020600020905b815481529060010190602001808311610f9357829003601f168201915b50505050509450828054600181600116156101000203166002900480601f01602080910402602001604051908101604052809291908181526020018280546001816001161561010002031660029004801561104c5780601f106110215761010080835404028352916020019161104c565b820191906000526020600020905b81548152906001019060200180831161102f57829003601f168201915b50505050509250808054600181600116156101000203166002900480601f0160208091040260200160405190810160405280929190818152602001828054600181600116156101000203166002900480156110e85780601f106110bd576101008083540402835291602001916110e8565b820191906000526020600020905b8154815290600101906020018083116110cb57829003601f168201915b505050505090509550955095509550955095506117d3565b8673ffffffffffffffffffffffffffffffffffffffff16600c898154811061112457fe5b90600052602060002090600c020160010160010160009054906101000a900473ffffffffffffffffffffffffffffffffffffffff1673ffffffffffffffffffffffffffffffffffffffff16141561158a576040518060400160405280600c8a8154811061118d57fe5b90600052602060002090600c020160010160000160009054906101000a900473ffffffffffffffffffffffffffffffffffffffff1673ffffffffffffffffffffffffffffffffffffffff1673ffffffffffffffffffffffffffffffffffffffff168152602001600c8a8154811061120057fe5b90600052602060002090600c020160010160010160009054906101000a900473ffffffffffffffffffffffffffffffffffffffff1673ffffffffffffffffffffffffffffffffffffffff1673ffffffffffffffffffffffffffffffffffffffff16815250600c898154811061127157fe5b90600052602060002090600c02016000016040518060600160405280600c8c8154811061129a57fe5b90600052602060002090600c02016003016000018054600181600116156101000203166002900480601f0160208091040260200160405190810160405280929190818152602001828054600181600116156101000203166002900480156113425780601f1061131757610100808354040283529160200191611342565b820191906000526020600020905b81548152906001019060200180831161132557829003601f168201915b50505050508152602001600c8c8154811061135957fe5b90600052602060002090600c02016003016001018054600181600116156101000203166002900480601f0160208091040260200160405190810160405280929190818152602001828054600181600116156101000203166002900480156114015780601f106113d657610100808354040283529160200191611401565b820191906000526020600020905b8154815290600101906020018083116113e457829003601f168201915b50505050508152602001600c8c8154811061141857fe5b90600052602060002090600c02016003016002018054600181600116156101000203166002900480601f0160208091040260200160405190810160405280929190818152602001828054600181600116156101000203166002900480156114c05780601f10611495576101008083540402835291602001916114c0565b820191906000526020600020905b8154815290600101906020018083116114a357829003601f168201915b5050505050815250600c8b815481106114d557fe5b90600052602060002090600c02016006016000016040518060600160405280600c8e8154811061150157fe5b90600052602060002090600c0201600601600101548152602001600c8e8154811061152857fe5b90600052602060002090600c0201600601600201548152602001600c8e8154811061154f57fe5b90600052602060002090600c020160060160030154815250600c8d8154811061157457fe5b90600052602060002090505050505050506117d2565b611592611a05565b6040518060400160405280600073ffffffffffffffffffffffffffffffffffffffff168152602001600073ffffffffffffffffffffffffffffffffffffffff1681525090506115df611a4b565b6040518060600160405280604051806020016040528060008152508152602001604051806020016040528060008152508152602001604051806020016040528060008152508152509050611631611a6c565b60405180608001604052806040518060200160405280600081525081526020016000815260200160008152602001600081525090506060611670611872565b6040518060c00160405280604051806020016040528060008152508152602001868152602001858152602001848152602001838152602001604051806020016040528060008152508152509050604051806040016040528082602001516000015173ffffffffffffffffffffffffffffffffffffffff1673ffffffffffffffffffffffffffffffffffffffff16815260200182602001516020015173ffffffffffffffffffffffffffffffffffffffff1673ffffffffffffffffffffffffffffffffffffffff1681525081600001516040518060600160405280846040015160000151815260200184604001516020015181526020018460400151604001518152508360600151600001516040518060600160405280866060015160200151815260200186606001516040015181526020018660600151606001518152508560a001518494508292508090509a509a509a509a509a509a5050505050506117d3565b5b9295509295509295565b600033905090565b6000600c80549050905090565b828054600181600116156101000203166002900490600052602060002090601f016020900481019282601f1061183357805160ff1916838001178555611861565b82800160010185558215611861579182015b82811115611860578251825591602001919060010190611845565b5b50905061186e9190611a94565b5090565b6040518060c001604052806060815260200161188c611ab9565b8152602001611899611aff565b81526020016118a6611b20565b815260200160608152602001606081525090565b828054600181600116156101000203166002900490600052602060002090601f016020900481019282601f106118fb57805160ff1916838001178555611929565b82800160010185558215611929579182015b8281111561192857825182559160200191906001019061190d565b5b5090506119369190611a94565b5090565b828054828255906000526020600020908101928215611989579160200282015b828111156119885782518290805190602001906119789291906118ba565b509160200191906001019061195a565b5b5090506119969190611b48565b5090565b6040518060400160405280600290602082028038833980820191505090505090565b60405180606001604052806003905b60608152602001906001900390816119cb5790505090565b6040518060600160405280600390602082028038833980820191505090505090565b6040518060400160405280600073ffffffffffffffffffffffffffffffffffffffff168152602001600073ffffffffffffffffffffffffffffffffffffffff1681525090565b60405180606001604052806060815260200160608152602001606081525090565b6040518060800160405280606081526020016000815260200160008152602001600081525090565b611ab691905b80821115611ab2576000816000905550600101611a9a565b5090565b90565b6040518060400160405280600073ffffffffffffffffffffffffffffffffffffffff168152602001600073ffffffffffffffffffffffffffffffffffffffff1681525090565b60405180606001604052806060815260200160608152602001606081525090565b6040518060800160405280606081526020016000815260200160008152602001600081525090565b611b7191905b80821115611b6d5760008181611b649190611b74565b50600101611b4e565b5090565b90565b50805460018160011615610100020316600290046000825580601f10611b9a5750611bb9565b601f016020900490600052602060002090810190611bb89190611a94565b5b50565b600081359050611bcb8161243a565b92915050565b600082601f830112611be257600080fd5b6002611bf5611bf08261222e565b612201565b91508183856020840282011115611c0b57600080fd5b60005b83811015611c3b5781611c218882611bbc565b845260208401935060208301925050600181019050611c0e565b5050505092915050565b600082601f830112611c5657600080fd5b6003611c69611c6482612250565b612201565b9150818360005b83811015611ca05781358601611c868882611d1e565b845260208401935060208301925050600181019050611c70565b5050505092915050565b600082601f830112611cbb57600080fd5b6003611cce611cc982612272565b612201565b91508183856020840282011115611ce457600080fd5b60005b83811015611d145781611cfa8882611dc6565b845260208401935060208301925050600181019050611ce7565b5050505092915050565b600082601f830112611d2f57600080fd5b8135611d42611d3d82612294565b612201565b91508082526020830160208301858383011115611d5e57600080fd5b611d698382846123e7565b50505092915050565b600082601f830112611d8357600080fd5b8135611d96611d91826122c0565b612201565b91508082526020830160208301858383011115611db257600080fd5b611dbd8382846123e7565b50505092915050565b600081359050611dd581612451565b92915050565b60008060008060006101008688031215611df457600080fd5b6000611e0288828901611bd1565b955050604086013567ffffffffffffffff811115611e1f57600080fd5b611e2b88828901611d72565b945050606086013567ffffffffffffffff811115611e4857600080fd5b611e5488828901611c45565b935050608086013567ffffffffffffffff811115611e7157600080fd5b611e7d88828901611d72565b92505060a0611e8e88828901611caa565b9150509295509295909350565b60008060408385031215611eae57600080fd5b6000611ebc85828601611dc6565b9250506020611ecd85828601611bbc565b9150509250929050565b6000611ee38383611f1b565b60208301905092915050565b6000611efb8383612095565b905092915050565b6000611f0f838361210e565b60208301905092915050565b611f24816123ab565b82525050565b611f33816123ab565b82525050565b611f428161230a565b611f4c8184612368565b9250611f57826122ec565b8060005b83811015611f88578151611f6f8782611ed7565b9650611f7a83612341565b925050600181019050611f5b565b505050505050565b6000611f9b82612315565b611fa58185612373565b935083602082028501611fb7856122f6565b8060005b85811015611ff35784840389528151611fd48582611eef565b9450611fdf8361234e565b925060208a01995050600181019050611fbb565b50829750879550505050505092915050565b61200e81612320565b612018818461237e565b925061202382612300565b8060005b8381101561205457815161203b8782611f03565b96506120468361235b565b925050600181019050612027565b505050505050565b600061206782612336565b612071818561239a565b93506120818185602086016123f6565b61208a81612429565b840191505092915050565b60006120a08261232b565b6120aa8185612389565b93506120ba8185602086016123f6565b6120c381612429565b840191505092915050565b60006120db60188361239a565b91507f6e6577206167677265656d656e74207075626c697368656400000000000000006000830152602082019050919050565b612117816123dd565b82525050565b612126816123dd565b82525050565b60006020820190506121416000830184611f2a565b92915050565b60006101208201905061215d6000830189611f39565b818103604083015261216f818861205c565b905081810360608301526121838187611f90565b90508181036080830152612197818661205c565b90506121a660a0830185612005565b8181036101008301526121b9818461205c565b9050979650505050505050565b600060208201905081810360008301526121df816120ce565b9050919050565b60006020820190506121fb600083018461211d565b92915050565b6000604051905081810181811067ffffffffffffffff8211171561222457600080fd5b8060405250919050565b600067ffffffffffffffff82111561224557600080fd5b602082029050919050565b600067ffffffffffffffff82111561226757600080fd5b602082029050919050565b600067ffffffffffffffff82111561228957600080fd5b602082029050919050565b600067ffffffffffffffff8211156122ab57600080fd5b601f19601f8301169050602081019050919050565b600067ffffffffffffffff8211156122d757600080fd5b601f19601f8301169050602081019050919050565b6000819050919050565b6000819050919050565b6000819050919050565b600060029050919050565b600060039050919050565b600060039050919050565b600081519050919050565b600081519050919050565b6000602082019050919050565b6000602082019050919050565b6000602082019050919050565b600081905092915050565b600081905092915050565b600081905092915050565b600082825260208201905092915050565b600082825260208201905092915050565b60006123b6826123bd565b9050919050565b600073ffffffffffffffffffffffffffffffffffffffff82169050919050565b6000819050919050565b82818337600083830152505050565b60005b838110156124145780820151818401526020810190506123f9565b83811115612423576000848401525b50505050565b6000601f19601f8301169050919050565b612443816123ab565b811461244e57600080fd5b50565b61245a816123dd565b811461246557600080fd5b5056fea365627a7a72315820a0ff68218f8b5b748e626a1be9b8a34c2ee84a5e8d534f25109508606fd2a7fe6c6578706572696d656e74616cf564736f6c63430005100040",
  "source": "pragma solidity ^0.5.16;\npragma experimental ABIEncoderV2;\n\n/**\n * @title  A smart contract to generate and record a set of binding agreements\n */\ncontract Hire {\n    event NewAggreement(string message);\n    event Request(address sender, address consignee, address consignor);\n\n    struct Tenants {\n        address consignee;\n        address consignor;\n    }\n\n    struct Service {\n        string shipFrom;\n        string shipTo;\n        string takeoverDate;\n    }\n\n    struct Merchandise {\n        string nature;\n        uint256 quantity;\n        uint256 grossWeight;\n        uint256 grossVolume;\n    }\n\n    string issuanceDate;\n    string[] comments;\n    string[] status;\n\n    /// Aggreement struct containing the issuance date, tenant information, service agreement, and merchandise details.\n    /// Additional comments and process status can also be added.\n    struct Aggreement {\n        string issuance;\n        Tenants ppl;\n        Service srv;\n        Merchandise mrch;\n        string[] cmmts;\n        string status;\n    }\n\n    Tenants tenants;\n    Service service;\n    Merchandise merchandise;\n    Aggreement[] aggreements;\n\n    /// Adds a new agreement to the list and emit a success event. \n    /// @param _ppl the contractor and resource BC address\n    /// @param _issuanceDate date of issuance of the contract\n    /// @param _shipInfo shipment information\n    /// @param _nature nature of the items to deliver\n    /// @param _details merchandise details (quantity,gross weight and volume)\n    function addAggreement(\n        address[2] memory _ppl,\n        string memory _issuanceDate,\n        string[3] memory _shipInfo,\n        string memory _nature,\n        uint256[3] memory _details\n    ) public payable {\n        tenants.consignee = _ppl[0];\n        tenants.consignor = _ppl[1];\n\n        issuanceDate = _issuanceDate;\n\n        service.shipFrom = _shipInfo[0];\n        service.shipTo = _shipInfo[1];\n        service.takeoverDate = _shipInfo[2];\n\n        merchandise.nature = _nature;\n        merchandise.quantity = _details[0];\n        merchandise.grossWeight = _details[1];\n        merchandise.grossVolume = _details[2];\n\n        status.push(\"setCommand\");\n\n        Aggreement memory newAggreement =\n            Aggreement(\n                issuanceDate,\n                tenants,\n                service,\n                merchandise,\n                comments,\n                \"Aggreement set\"\n            );\n        aggreements.push(newAggreement);\n\n        emit NewAggreement(\"new aggreement published\");\n    }\n\n    /// Returns then number of aggreement stored in the SC  \n    /// @return the number of agreements stored in the SC\n    function totalAggreements() public view returns (uint256) {\n        return aggreements.length;\n    }\n\n    function getSender() public view returns (address) {\n        return msg.sender;\n    }\n\n\n    /// Checks for the identity of the requester, and display the requested aggreement \n    /// if the identity matches with the contractor or service provider.  \n    /// @param i index of the contract stored\n    /// @param sender BC address of the requester\n    /// @return the agreement details if the identity of the requester is correct, a fake agreement otherwise.\n    function seeAggreement(uint256 i, address sender)\n        public\n        view\n        returns (\n            address[2] memory _ppl,\n            string memory _issuanceDate,\n            string[3] memory _shipInfo,\n            string memory _nature,\n            uint256[3] memory _details,\n            string memory _status\n        )\n    {\n        //emit Request(msg.sender, aggreements[i].ppl.consignee, aggreements[i].ppl.consignor);\n\n        if (aggreements[i].ppl.consignee == sender) {\n            //    contractState =  \"consignee\";\n            return (\n                [aggreements[i].ppl.consignee, aggreements[i].ppl.consignor],\n                aggreements[i].issuance,\n                [\n                    aggreements[i].srv.shipFrom,\n                    aggreements[i].srv.shipTo,\n                    aggreements[i].srv.takeoverDate\n                ],\n                aggreements[i].mrch.nature,\n                [\n                    aggreements[i].mrch.quantity,\n                    aggreements[i].mrch.grossWeight,\n                    aggreements[i].mrch.grossVolume\n                ],\n                aggreements[i].status\n            );\n        } else if (aggreements[i].ppl.consignor == sender) {\n            //    contractState = \"consignor\";\n\n            (\n                [aggreements[i].ppl.consignee, aggreements[i].ppl.consignor],\n                aggreements[i].issuance,\n                [\n                    aggreements[i].srv.shipFrom,\n                    aggreements[i].srv.shipTo,\n                    aggreements[i].srv.takeoverDate\n                ],\n                aggreements[i].mrch.nature,\n                [\n                    aggreements[i].mrch.quantity,\n                    aggreements[i].mrch.grossWeight,\n                    aggreements[i].mrch.grossVolume\n                ],\n                aggreements[i].status\n            );\n        } else {\n            Tenants memory fakeTenants = Tenants(address(0), address(0));\n            Service memory fakeService = Service(\"\", \"\", \"\");\n            Merchandise memory fakeMerchandise = Merchandise(\"\", 0, 0, 0);\n            string[] memory fakeComment;\n\n            Aggreement memory fakeAggreement =\n                Aggreement(\n                    \"\",\n                    fakeTenants,\n                    fakeService,\n                    fakeMerchandise,\n                    fakeComment,\n                    \"\"\n                );\n            //    contractState = \"wrong address\";\n\n            return (\n                [fakeAggreement.ppl.consignee, fakeAggreement.ppl.consignor],\n                fakeAggreement.issuance,\n                [\n                    fakeAggreement.srv.shipFrom,\n                    fakeAggreement.srv.shipTo,\n                    fakeAggreement.srv.takeoverDate\n                ],\n                fakeAggreement.mrch.nature,\n                [\n                    fakeAggreement.mrch.quantity,\n                    fakeAggreement.mrch.grossWeight,\n                    fakeAggreement.mrch.grossVolume\n                ],\n                fakeAggreement.status\n            );\n        }\n    }\n}\n",
  "sourcePath": "/home/vtlr2002/source/smart-logistics/contracts/Hire.sol",
  "compiler": {
    "name": "solc",
    "version": "0.5.16+commit.9c3226ce.Emscripten.clang"
  },
  "schemaVersion": "3.2.4",
  "updatedAt": "2022-02-10T09:02:27.392Z",
  "networkType": "ethereum",
  "devdoc": {
    "methods": {
      "addAggreement(address[2],string,string[3],string,uint256[3])": {
        "params": {
          "_details": "merchandise details (quantity,gross weight and volume)",
          "_issuanceDate": "date of issuance of the contract",
          "_nature": "nature of the items to deliver",
          "_ppl": "the contractor and resource BC address",
          "_shipInfo": "shipment information"
        }
      },
      "seeAggreement(uint256,address)": {
        "params": {
          "i": "index of the contract stored",
          "sender": "BC address of the requester"
        },
        "return": "the agreement details if the identity of the requester is correct, a fake agreement otherwise."
      },
      "totalAggreements()": {
        "return": "the number of agreements stored in the SC"
      }
    },
    "title": "A smart contract to generate and record a set of binding agreements"
  },
  "userdoc": {
    "methods": {
      "addAggreement(address[2],string,string[3],string,uint256[3])": {
        "notice": "Adds a new agreement to the list and emit a success event. "
      },
      "seeAggreement(uint256,address)": {
        "notice": "Checks for the identity of the requester, and display the requested aggreement  if the identity matches with the contractor or service provider.  "
      },
      "totalAggreements()": {
        "notice": "Returns then number of aggreement stored in the SC  "
      }
    }
  }
}