{
  "contractName": "Hiring",
  "abi": [
    {
      "constant": true,
      "inputs": [
        {
          "internalType": "uint256",
          "name": "",
          "type": "uint256"
        }
      ],
      "name": "employers",
      "outputs": [
        {
          "internalType": "address",
          "name": "",
          "type": "address"
        }
      ],
      "payable": false,
      "stateMutability": "view",
      "type": "function"
    },
    {
      "constant": false,
      "inputs": [
        {
          "internalType": "uint256",
          "name": "resourceId",
          "type": "uint256"
        }
      ],
      "name": "hire",
      "outputs": [
        {
          "internalType": "uint256",
          "name": "",
          "type": "uint256"
        }
      ],
      "payable": false,
      "stateMutability": "nonpayable",
      "type": "function"
    },
    {
      "constant": true,
      "inputs": [],
      "name": "getEmployers",
      "outputs": [
        {
          "internalType": "address[16]",
          "name": "",
          "type": "address[16]"
        }
      ],
      "payable": false,
      "stateMutability": "view",
      "type": "function"
    }
  ],
  "bytecode": "0x608060405234801561001057600080fd5b506101e7806100206000396000f3fe608060405234801561001057600080fd5b50600436106100415760003560e01c8063066c45621461004657806381c8322f1461007f578063c4a74b2b146100c0575b600080fd5b6100636004803603602081101561005c57600080fd5b50356100ef565b604080516001600160a01b039092168252519081900360200190f35b61008761010c565b604051808261020080838360005b838110156100ad578181015183820152602001610095565b5050505090500191505060405180910390f35b6100dd600480360360208110156100d657600080fd5b5035610152565b60408051918252519081900360200190f35b600081601081106100fc57fe5b01546001600160a01b0316905081565b610114610193565b604080516102008101918290529060009060109082845b81546001600160a01b0316815260019091019060200180831161012b575050505050905090565b6000600f82111561016257600080fd5b336000836010811061017057fe5b0180546001600160a01b0319166001600160a01b03929092169190911790555090565b604051806102000160405280601090602082028038833950919291505056fea265627a7a723158205f51f25fd7799dbc09e19ab37358576036c694c83de543c575a69320b6a6fa2164736f6c63430005100032",
  "source": "pragma solidity ^0.5.0;\n\ncontract Hiring {\n    address[16] public employers;\n\n    // Hiring a resource\n    function hire(uint resourceId) public returns (uint) {\n        require(resourceId >= 0 && resourceId <= 15);\n\n        employers[resourceId] = msg.sender;\n\n        return resourceId;\n    }\n\n    // Retrieving the employers\n    function getEmployers() public view returns (address[16] memory) {\n        return employers;\n    }\n\n}",
  "sourcePath": "/home/vtlr2002/source/SMLogs/contracts/Hiring.sol",
  "compiler": {
    "name": "solc",
    "version": "0.5.16+commit.9c3226ce.Emscripten.clang"
  },
  "schemaVersion": "3.2.4",
  "updatedAt": "2020-11-23T09:15:55.249Z",
  "networkType": "ethereum",
  "devdoc": {
    "methods": {}
  },
  "userdoc": {
    "methods": {}
  }
}