{
  "contractName": "Sort",
  "abi": [
    {
      "constant": true,
      "inputs": [
        {
          "internalType": "uint256[]",
          "name": "input",
          "type": "uint256[]"
        }
      ],
      "name": "sort",
      "outputs": [
        {
          "internalType": "uint256[]",
          "name": "",
          "type": "uint256[]"
        }
      ],
      "payable": false,
      "stateMutability": "pure",
      "type": "function"
    }
  ],
  "bytecode": "0x610ca1610026600b82828239805160001a60731461001957fe5b30600052607381538281f3fe73000000000000000000000000000000000000000030146080604052600436106100355760003560e01c80639ec8b0261461003a575b600080fd5b6100f06004803603602081101561005057600080fd5b810190808035906020019064010000000081111561006d57600080fd5b82018360208201111561007f57600080fd5b803590602001918460208302840111640100000000831117156100a157600080fd5b919080806020026020016040519081016040528093929190818152602001838360200280828437600081840152601f19601f820116905080830192505050505050509192919290505050610147565b6040518080602001828103825283818151815260200191508051906020019060200280838360005b83811015610133578082015181840152602081019050610118565b505050509050019250505060405180910390f35b606060008251141561015b5781905061019c565b61019882600060018551038560008151811061017357fe5b60200260200101518660018851038151811061018b57fe5b60200260200101516101a1565b8190505b919050565b60006002858501816101af57fe5b04905060008682815181106101c057fe5b602002602001015190508084106102c25782841161021957808787815181106101e557fe5b602002602001018181525050838783815181106101fe57fe5b602002602001018181525050808480925081955050506102bd565b80831061027f578087878151811061022d57fe5b6020026020010181815250508287838151811061024657fe5b6020026020010181815250508387868151811061025f57fe5b6020026020010181815250508083858095508193508296505050506102bc565b8287878151811061028c57fe5b602002602001018181525050838786815181106102a557fe5b602002602001018181525050828480945081955050505b5b610373565b8281106103715783831061031157828783815181106102dd57fe5b602002602001018181525050808786815181106102f657fe5b6020026020010181815250508281809450819250505061036c565b8287878151811061031e57fe5b6020026020010181815250508387838151811061033757fe5b6020026020010181815250508087868151811061035057fe5b6020026020010181815250508284828095508193508296505050505b610372565b5b5b60008060008790508894505b600115610475575b838a866001019650868151811061039a57fe5b6020026020010151935083116103af57610387565b5b838a8260019003925082815181106103c457fe5b6020026020010151925082106103d9576103b0565b80851061043e576007898203116103fa576103f58a8a83610482565b610408565b6104078a8a838a866101a1565b5b6007858903116104275761041d8a868a610482565b505050505061047b565b6104348a868a868a6101a1565b505050505061047b565b818a868151811061044b57fe5b602002602001018181525050828a828151811061046457fe5b60200260200101818152505061037f565b50505050505b5050505050565b8082141561048f57610c67565b80600101905060008383815181106104a357fe5b60200260200101519050600060018401905060008582815181106104c357fe5b60200260200101519050808311156104e057808380925081945050505b83826001019250821415610534578286868060010197508151811061050157fe5b6020026020010181815250508086868060010197508151811061052057fe5b602002602001018181525050505050610c67565b600086838151811061054257fe5b602002602001015190508082111561057257808280925081935050508184111561057157818480935081955050505b5b848360010193508314156105e6578387878060010198508151811061059357fe5b602002602001018181525050818787806001019850815181106105b257fe5b602002602001018181525050808787806001019850815181106105d157fe5b60200260200101818152505050505050610c67565b60008784815181106105f457fe5b602002602001015190508082111561063757808280925081935050508183111561063657818380935081945050508285111561063557828580945081965050505b5b5b858460010194508414156106cb578488888060010199508151811061065857fe5b6020026020010181815250508288888060010199508151811061067757fe5b6020026020010181815250508188888060010199508151811061069657fe5b602002602001018181525050808888806001019950815181106106b557fe5b6020026020010181815250505050505050610c67565b60008885815181106106d957fe5b602002602001015190508082111561072f57808280925081935050508183111561072e57818380935081945050508284111561072d57828480945081955050508386111561072c57838680955081975050505b5b5b5b868560010195508514156107e357858989806001019a508151811061075057fe5b602002602001018181525050838989806001019a508151811061076f57fe5b602002602001018181525050828989806001019a508151811061078e57fe5b602002602001018181525050818989806001019a50815181106107ad57fe5b602002602001018181525050808989806001019a50815181106107cc57fe5b602002602001018181525050505050505050610c67565b60008986815181106107f157fe5b602002602001015190508082111561085a57808280925081935050508183111561085957818380935081945050508284111561085857828480945081955050508385111561085757838580955081965050508487111561085657848780965081985050505b5b5b5b5b8786600101965086141561092e57868a8a806001019b508151811061087b57fe5b602002602001018181525050848a8a806001019b508151811061089a57fe5b602002602001018181525050838a8a806001019b50815181106108b957fe5b602002602001018181525050828a8a806001019b50815181106108d857fe5b602002602001018181525050818a8a806001019b50815181106108f757fe5b602002602001018181525050808a8a806001019b508151811061091657fe5b60200260200101818152505050505050505050610c67565b60008a878151811061093c57fe5b60200260200101519050808211156109b85780828092508193505050818311156109b75781838093508194505050828411156109b65782848094508195505050838511156109b55783858095508196505050848611156109b45784868096508197505050858811156109b357858880975081995050505b5b5b5b5b5b88876001019750871415610aac57878b8b806001019c50815181106109d957fe5b602002602001018181525050858b8b806001019c50815181106109f857fe5b602002602001018181525050848b8b806001019c5081518110610a1757fe5b602002602001018181525050838b8b806001019c5081518110610a3657fe5b602002602001018181525050828b8b806001019c5081518110610a5557fe5b602002602001018181525050818b8b806001019c5081518110610a7457fe5b602002602001018181525050808b8b806001019c5081518110610a9357fe5b6020026020010181815250505050505050505050610c67565b60008b8881518110610aba57fe5b6020026020010151905080821115610b49578082809250819350505081831115610b48578183809350819450505082841115610b47578284809450819550505083851115610b46578385809550819650505084861115610b45578486809650819750505085871115610b44578587809750819850505086891115610b43578689809850819a5050505b5b5b5b5b5b5b89886001019850881415610c5d57888c8c806001019d5081518110610b6a57fe5b602002602001018181525050868c8c806001019d5081518110610b8957fe5b602002602001018181525050858c8c806001019d5081518110610ba857fe5b602002602001018181525050848c8c806001019d5081518110610bc757fe5b602002602001018181525050838c8c806001019d5081518110610be657fe5b602002602001018181525050828c8c806001019d5081518110610c0557fe5b602002602001018181525050818c8c806001019d5081518110610c2457fe5b602002602001018181525050808c8c806001019d5081518110610c4357fe5b602002602001018181525050505050505050505050610c67565b5050505050505050505b50505056fea265627a7a72315820de84d8301528957e17be7851209f1856fa46c9799a97aaa32eb488c2825c3bd064736f6c63430005100032",
  "source": "/**\n * This file is part of the 1st Solidity Gas Golfing Contest.\n *\n * This work is licensed under Creative Commons Attribution ShareAlike 3.0.\n * https://creativecommons.org/licenses/by-sa/3.0/\n *\n * Author: Greg Hysen (hyszeth.eth)\n * Date: June 2018\n * Description: Sorts an array of integers.\n *              The primary algorithm is quicksort.\n *              The pivot is chosen using Median-of-3.\n *              Hoare partitioning is used to divide the array.\n *              Insertion sort is used for small partitions (<=7).\n *\n */\n\npragma solidity ^0.5.16;\n\nlibrary Sort {\n\n    /**\n     * @dev Sorts a list of integers in ascending order.\n     *\n     * The input list may be of any length.\n     *\n     * @param input The list of integers to sort.\n     * @return The sorted list.\n     */\n    function sort(uint[] memory input)\n      public\n      pure\n      returns(uint[] memory)\n    {\n        // Base case\n        if(input.length == 0) return input;\n\n        // Run quicksort\n        quickSort(\n            input,                      // input array\n            0,                          // start index\n            input.length - 1,            // end index\n            input[0],                   // value at start index\n            input[input.length - 1]      // value and end index\n        );\n        return input;\n     }\n\n    /**\n     * @dev Sorts an array of integers.\n     *      The primary algorithm is quicksort.\n     *      The pivot is chosen using Median-of-3.\n     *      Hoare partitioning is used to divide the array.\n     *      Insertion sort is used for small partitions (<=7).\n     *\n     * @param input The list of integers to sort.\n     * @param lo Start index\n     * @param hi End index\n     * @param loElem Element at `lo`\n     * @param hiElem Element at `hi`\n     */\n    function quickSort(\n        uint[] memory input,\n        uint lo,\n        uint hi,\n        uint loElem,\n        uint hiElem\n    )\n     private\n     pure\n    {\n        // Pivot (Median of 3)\n        uint i = uint((hi+lo)/2);\n        uint pivot = input[i];\n        if(loElem >= pivot) { // [pivot, loElem] [hiElem]\n            if(loElem <= hiElem) {\n                // [pivot, loElem, hiElem]\n                // Only swap pivot and loElem\n                input[lo] = pivot;\n                input[i] = loElem;\n                (loElem, pivot) = (pivot, loElem);\n            } else {\n                // [pivot, hiElem, loElem] or [hiElem, pivot, loElem]\n                if(hiElem >= pivot) {\n                    // [pivot, hiElem, loElem]\n                    input[lo] = pivot;\n                    input[i] = hiElem;\n                    input[hi] = loElem;\n                    (loElem, pivot, hiElem) = (pivot, hiElem, loElem);\n                } else {\n                    // [hiElem, pivot, loElem]\n                    input[lo] = hiElem;\n                    input[hi] = loElem;\n                    (loElem, hiElem) = (hiElem, loElem);\n                }\n            }\n        } else {// if(loElem < pivot) { // [loElem, pivot] [hiElem]\n            if(pivot >= hiElem) {\n                // [loElem, hiElem, pivot] or [hiElem, loElem, pivot]\n                if(hiElem >= loElem) {\n                    // [loElem, hiElem, pivot]\n                    input[i] = hiElem;\n                    input[hi] = pivot;\n                    (pivot, hiElem) = (hiElem, pivot);\n                } else {\n                    // [hiElem, loElem, pivot]\n                    input[lo] = hiElem;\n                    input[i] =  loElem;\n                    input[hi] = pivot;\n                    (loElem, pivot, hiElem) = (hiElem, loElem, pivot);\n                }\n            } else {\n                // [loElem, pivot, hiElem]\n                // Do nothing\n            }\n        }\n\n        // Hoare partition algorithm\n        // Note we skip the lo/hi elements because\n        // they're already in the correct position.\n        uint iElem;\n        uint jElem;\n        uint j = hi;\n        i = lo;\n        while(true) {\n            // Bounds checking has been omitted for efficiency.\n            // The Median-of-Three mitigates this edge case, but does not eliminate it.\n            // In practice, add bounds checking to be safe.\n            while((iElem=input[uint(++i)]) <= pivot) {}\n            while((jElem=input[uint(--j)]) >= pivot) {}\n\n            // When `i` and `j` cross we're finished partitioning.\n            if(i >= j) {\n                // Sort left\n                if(j - lo <= 7) insertionSort(input, lo, j);\n                else            quickSort(input, lo, j, loElem, jElem);\n                // Sort right\n                if(hi - i <= 7) return insertionSort(input, i, hi);\n                                return  quickSort(input, i, hi, iElem, hiElem);\n            }\n\n            // Swap elements between partitions.\n            input[uint(i)] = jElem;\n            input[uint(j)] = iElem;\n        }\n    }\n\n    /**\n     * @dev Sorts an array of integers using a modified Insertion Sort.\n     *      Maximum length is 7. For efficiency, we've completely unrolled\n     *      the insertion sort loop. This saves about 100k gas.\n     *\n     * @param input The list of integers to sort.\n     * @param lo Start index\n     * @param hi End index\n     */\n    function insertionSort(\n        uint[] memory input,\n        uint lo,\n        uint hi\n    )\n        private\n        pure\n    {\n        // Base case\n        if(lo == hi) return;\n        \n        // Increment `hi` so we can use `==` in our exit checks\n        ++hi;\n\n        // A variable is created as-needed for each element of `input`,\n        // following alphabetical naming: [a, b, c, d, e, f, g]\n        uint a = input[lo];\n        // Index into `input`\n        uint i = lo + 1;\n\n        //// Run Insertion Sort ////\n\n        // Iteration 1\n        uint b = input[i];\n        if(a > b) {\n            (a, b) = (b, a);\n        }\n        if(++i == hi) {\n            input[lo++] = a;\n            input[lo++] = b;\n            return;\n        }\n\n        // Iteration 2\n        uint c = input[i];\n        if(b > c) {\n            (b, c) = (c, b);\n            if(a > b) {\n                (a, b) = (b, a);\n            }\n        }\n        if(++i == hi) {\n            input[lo++] = a;\n            input[lo++] = b;\n            input[lo++] = c;\n            return;\n        }\n\n        // Iteration 3\n        uint d = input[i];\n        if(c > d) {\n            (c, d) = (d, c);\n            if(b > c) {\n                (b, c) = (c, b);\n                if(a > b) {\n                    (a, b) = (b, a);\n                }\n            }\n        }\n        if(++i == hi) {\n            input[lo++] = a;\n            input[lo++] = b;\n            input[lo++] = c;\n            input[lo++] = d;\n            return;\n        }\n\n        // Iteration 4\n        uint e = input[i];\n        if(d > e) {\n            (d, e) = (e, d);\n            if(c > d) {\n                (c, d) = (d, c);\n                if(b > c) {\n                    (b, c) = (c, b);\n                    if(a > b) {\n                        (a, b) = (b, a);\n                    }\n                }\n            }\n        }\n        if(++i == hi) {\n            input[lo++] = a;\n            input[lo++] = b;\n            input[lo++] = c;\n            input[lo++] = d;\n            input[lo++] = e;\n            return;\n        }\n\n        // Iteration 5\n        uint f = input[i];\n        if(e > f) {\n            (e, f) = (f, e);\n            if(d > e) {\n                (d, e) = (e, d);\n                if(c > d) {\n                    (c, d) = (d, c);\n                    if(b > c) {\n                        (b, c) = (c, b);\n                        if(a > b) {\n                            (a, b) = (b, a);\n                        }\n                    }\n                }\n            }\n        }\n        if(++i == hi) {\n            input[lo++] = a;\n            input[lo++] = b;\n            input[lo++] = c;\n            input[lo++] = d;\n            input[lo++] = e;\n            input[lo++] = f;\n            return;\n        }\n\n        // Iteration 6\n        uint g = input[i];\n        if(f > g) {\n            (f, g) = (g, f);\n            if(e > f) {\n                (e, f) = (f, e);\n                if(d > e) {\n                    (d, e) = (e, d);\n                    if(c > d) {\n                        (c, d) = (d, c);\n                        if(b > c) {\n                            (b, c) = (c, b);\n                            if(a > b) {\n                                (a, b) = (b, a);\n                            }\n                        }\n                    }\n                }\n            }\n        }\n        if(++i == hi) {\n            input[lo++] = a;\n            input[lo++] = b;\n            input[lo++] = c;\n            input[lo++] = d;\n            input[lo++] = e;\n            input[lo++] = f;\n            input[lo++] = g;\n            return;\n        }\n\n        // Iteration 7\n        uint h = input[i];\n        if(g > h) {\n            (g, h) = (h, g);\n            if(f > g) {\n                (f, g) = (g, f);\n                if(e > f) {\n                    (e, f) = (f, e);\n                    if(d > e) {\n                        (d, e) = (e, d);\n                        if(c > d) {\n                            (c, d) = (d, c);\n                            if(b > c) {\n                                (b, c) = (c, b);\n                                if(a > b) {\n                                    (a, b) = (b, a);\n                                }\n                            }\n                        }\n                    }\n                }\n            }\n        }\n        if(++i == hi) {\n            input[lo++] = a;\n            input[lo++] = b;\n            input[lo++] = c;\n            input[lo++] = d;\n            input[lo++] = e;\n            input[lo++] = f;\n            input[lo++] = g;\n            input[lo++] = h;\n            return;\n        }\n    }\n}\n",
  "sourcePath": "/home/vtlr2002/source/smart-logistics/contracts/Sort.sol",
  "compiler": {
    "name": "solc",
    "version": "0.5.16+commit.9c3226ce.Emscripten.clang"
  },
  "schemaVersion": "3.2.4",
  "updatedAt": "2021-12-08T16:26:35.169Z",
  "networkType": "ethereum",
  "devdoc": {
    "methods": {
      "sort(uint256[])": {
        "details": "Sorts a list of integers in ascending order.     * The input list may be of any length.",
        "params": {
          "input": "The list of integers to sort."
        },
        "return": "The sorted list."
      }
    }
  },
  "userdoc": {
    "methods": {}
  }
}