{
  "contractName": "TenderManager",
  "abi": [
    {
      "inputs": [],
      "payable": true,
      "stateMutability": "payable",
      "type": "constructor"
    },
    {
      "anonymous": false,
      "inputs": [
        {
          "indexed": false,
          "internalType": "string",
          "name": "result",
          "type": "string"
        }
      ],
      "name": "LogBestAlloc",
      "type": "event"
    },
    {
      "anonymous": false,
      "inputs": [
        {
          "indexed": false,
          "internalType": "string",
          "name": "tenderName",
          "type": "string"
        },
        {
          "indexed": false,
          "internalType": "string",
          "name": "offers",
          "type": "string"
        }
      ],
      "name": "LogNewProvableQuery",
      "type": "event"
    },
    {
      "constant": true,
      "inputs": [
        {
          "internalType": "string",
          "name": "",
          "type": "string"
        }
      ],
      "name": "Tenders",
      "outputs": [
        {
          "internalType": "string",
          "name": "RSAPubKey",
          "type": "string"
        },
        {
          "internalType": "string",
          "name": "offers",
          "type": "string"
        },
        {
          "internalType": "enum TenderManager.State",
          "name": "state",
          "type": "uint8"
        },
        {
          "internalType": "bool",
          "name": "isExisting",
          "type": "bool"
        }
      ],
      "payable": false,
      "stateMutability": "view",
      "type": "function"
    },
    {
      "constant": true,
      "inputs": [],
      "name": "getRSApk",
      "outputs": [
        {
          "internalType": "string",
          "name": "",
          "type": "string"
        }
      ],
      "payable": false,
      "stateMutability": "view",
      "type": "function"
    },
    {
      "constant": false,
      "inputs": [
        {
          "internalType": "string",
          "name": "_RSApk",
          "type": "string"
        }
      ],
      "name": "setRSApk",
      "outputs": [
        {
          "internalType": "string",
          "name": "",
          "type": "string"
        }
      ],
      "payable": true,
      "stateMutability": "payable",
      "type": "function"
    },
    {
      "constant": true,
      "inputs": [],
      "name": "getTenders",
      "outputs": [
        {
          "internalType": "string[]",
          "name": "",
          "type": "string[]"
        }
      ],
      "payable": false,
      "stateMutability": "view",
      "type": "function"
    },
    {
      "constant": true,
      "inputs": [
        {
          "internalType": "string",
          "name": "_tenderName",
          "type": "string"
        }
      ],
      "name": "getOffers",
      "outputs": [
        {
          "internalType": "string",
          "name": "offers",
          "type": "string"
        }
      ],
      "payable": false,
      "stateMutability": "view",
      "type": "function"
    },
    {
      "constant": true,
      "inputs": [
        {
          "internalType": "string",
          "name": "_tenderName",
          "type": "string"
        }
      ],
      "name": "getTenderStatus",
      "outputs": [
        {
          "internalType": "enum TenderManager.State",
          "name": "state",
          "type": "uint8"
        }
      ],
      "payable": false,
      "stateMutability": "view",
      "type": "function"
    },
    {
      "constant": true,
      "inputs": [
        {
          "internalType": "string",
          "name": "tenderName",
          "type": "string"
        }
      ],
      "name": "getURLTest",
      "outputs": [
        {
          "internalType": "string",
          "name": "",
          "type": "string"
        }
      ],
      "payable": false,
      "stateMutability": "view",
      "type": "function"
    },
    {
      "constant": true,
      "inputs": [
        {
          "internalType": "string",
          "name": "tenderName",
          "type": "string"
        }
      ],
      "name": "isExisting",
      "outputs": [
        {
          "internalType": "bool",
          "name": "doesIndeed",
          "type": "bool"
        }
      ],
      "payable": false,
      "stateMutability": "view",
      "type": "function"
    },
    {
      "constant": false,
      "inputs": [
        {
          "internalType": "string",
          "name": "tenderName",
          "type": "string"
        }
      ],
      "name": "newTender",
      "outputs": [
        {
          "internalType": "string",
          "name": "rowNumber",
          "type": "string"
        }
      ],
      "payable": true,
      "stateMutability": "payable",
      "type": "function"
    },
    {
      "constant": false,
      "inputs": [
        {
          "internalType": "string",
          "name": "tenderName",
          "type": "string"
        },
        {
          "internalType": "string",
          "name": "c_key",
          "type": "string"
        },
        {
          "internalType": "string",
          "name": "c_offer",
          "type": "string"
        }
      ],
      "name": "newOffer",
      "outputs": [],
      "payable": true,
      "stateMutability": "payable",
      "type": "function"
    },
    {
      "constant": false,
      "inputs": [
        {
          "internalType": "bytes32",
          "name": "_myid",
          "type": "bytes32"
        },
        {
          "internalType": "string",
          "name": "_result",
          "type": "string"
        },
        {
          "internalType": "bytes",
          "name": "_proof",
          "type": "bytes"
        }
      ],
      "name": "__callback",
      "outputs": [],
      "payable": false,
      "stateMutability": "nonpayable",
      "type": "function"
    },
    {
      "constant": false,
      "inputs": [
        {
          "internalType": "bytes32",
          "name": "myid",
          "type": "bytes32"
        },
        {
          "internalType": "string",
          "name": "result",
          "type": "string"
        }
      ],
      "name": "__callback",
      "outputs": [],
      "payable": false,
      "stateMutability": "nonpayable",
      "type": "function"
    },
    {
      "constant": false,
      "inputs": [
        {
          "internalType": "string",
          "name": "_tenderName",
          "type": "string"
        }
      ],
      "name": "askOracleComparison",
      "outputs": [
        {
          "internalType": "string",
          "name": "result",
          "type": "string"
        }
      ],
      "payable": true,
      "stateMutability": "payable",
      "type": "function"
    }
  ],
  "bytecode": "0x6080604052612946806100136000396000f3fe6080604052600436106100c25760003560e01c80637acaaf6b1161007f578063a6af65d111610059578063a6af65d114610296578063be43126e146102c6578063f1e4cf9a146102f6578063f5035e1214610312576100c2565b80637acaaf6b146101dc5780637c82cd60146102195780639436893814610259576100c2565b8063107d8d33146100c757806312d0ec80146100f75780631d5f59701461012257806327dc297e1461014d57806338bbfa50146101765780633faa23e31461019f575b600080fd5b6100e160048036036100dc9190810190612143565b61034f565b6040516100ee9190612564565b60405180910390f35b34801561010357600080fd5b5061010c6104ae565b60405161011991906124c7565b60405180910390f35b34801561012e57600080fd5b50610137610597565b6040516101449190612564565b60405180910390f35b34801561015957600080fd5b50610174600480360361016f919081019061202f565b610639565b005b34801561018257600080fd5b5061019d60048036036101989190810190612083565b6106cb565b005b3480156101ab57600080fd5b506101c660048036036101c19190810190612143565b6106ee565b6040516101d39190612504565b60405180910390f35b3480156101e857600080fd5b5061020360048036036101fe9190810190612143565b610726565b6040516102109190612564565b60405180910390f35b34801561022557600080fd5b50610240600480360361023b9190810190612102565b6107e9565b60405161025094939291906125bd565b60405180910390f35b34801561026557600080fd5b50610280600480360361027b9190810190612143565b610979565b60405161028d91906124e9565b60405180910390f35b6102b060048036036102ab9190810190612143565b6109b1565b6040516102bd9190612564565b60405180910390f35b6102e060048036036102db9190810190612143565b610a6c565b6040516102ed9190612564565b60405180910390f35b610310600480360361030b9190810190612184565b610ca7565b005b34801561031e57600080fd5b5061033960048036036103349190810190612143565b610f1c565b6040516103469190612564565b60405180910390f35b60608061035b83610726565b90507f6ab7baf5a3b31c7e5d38291203112bba5c43cdb8b60a4b462a7c153713dd7753838260405161038e929190612586565b60405180910390a160606103ea6040518060600160405280603181526020016128a36031913985604051806020016040528060008152506040518060200160405280600081525060405180602001604052806000815250610f8a565b905061042b6040518060400160405280600381526020017f55524c000000000000000000000000000000000000000000000000000000000081525082610fbf565b50600260078560405161043e9190612465565b908152602001604051809103902060030160006101000a81548160ff0219169083600381111561046a57fe5b02179055506040518060400160405280600381526020017f323030000000000000000000000000000000000000000000000000000000000081525092505050919050565b60606008805480602002602001604051908101604052809291908181526020016000905b8282101561058e578382906000526020600020018054600181600116156101000203166002900480601f01602080910402602001604051908101604052809291908181526020018280546001816001161561010002031660029004801561057a5780601f1061054f5761010080835404028352916020019161057a565b820191906000526020600020905b81548152906001019060200180831161055d57829003601f168201915b5050505050815260200190600101906104d2565b50505050905090565b606060058054600181600116156101000203166002900480601f01602080910402602001604051908101604052809291908181526020018280546001816001161561010002031660029004801561062f5780601f106106045761010080835404028352916020019161062f565b820191906000526020600020905b81548152906001019060200180831161061257829003601f168201915b5050505050905090565b6106416113be565b73ffffffffffffffffffffffffffffffffffffffff163373ffffffffffffffffffffffffffffffffffffffff161461067857600080fd5b806006908051906020019061068e929190611c5f565b507f552d383289f9078066946d29ef05e7e2aacbef9edaf47a42cf8b1948a40382a360066040516106bf9190612610565b60405180910390a15050565b6000801b600360008060001b815260200190815260200160002081905550505050565b60006007826040516107009190612465565b908152602001604051809103902060030160009054906101000a900460ff169050919050565b60606007826040516107389190612465565b90815260200160405180910390206001018054600181600116156101000203166002900480601f0160208091040260200160405190810160405280929190818152602001828054600181600116156101000203166002900480156107dd5780601f106107b2576101008083540402835291602001916107dd565b820191906000526020600020905b8154815290600101906020018083116107c057829003601f168201915b50505050509050919050565b600781805160208101820180518482526020830160208501208183528095505050505050600091509050806000018054600181600116156101000203166002900480601f0160208091040260200160405190810160405280929190818152602001828054600181600116156101000203166002900480156108ab5780601f10610880576101008083540402835291602001916108ab565b820191906000526020600020905b81548152906001019060200180831161088e57829003601f168201915b505050505090806001018054600181600116156101000203166002900480601f0160208091040260200160405190810160405280929190818152602001828054600181600116156101000203166002900480156109495780601f1061091e57610100808354040283529160200191610949565b820191906000526020600020905b81548152906001019060200180831161092c57829003601f168201915b5050505050908060030160009054906101000a900460ff16908060030160019054906101000a900460ff16905084565b600060078260405161098b9190612465565b908152602001604051809103902060030160019054906101000a900460ff169050919050565b606081600590805190602001906109c9929190611c5f565b5060058054600181600116156101000203166002900480601f016020809104026020016040519081016040528092919081815260200182805460018160011615610100020316600290048015610a605780601f10610a3557610100808354040283529160200191610a60565b820191906000526020600020905b815481529060010190602001808311610a4357829003601f168201915b50505050509050919050565b6060610a7782610979565b15610a8157600080fd5b60606000604051908082528060200260200182016040528015610ab35781602001602082028038833980820191505090505b509050610abe611cdf565b6040518060a0016040528060058054600181600116156101000203166002900480601f016020809104026020016040519081016040528092919081815260200182805460018160011615610100020316600290048015610b5f5780601f10610b3457610100808354040283529160200191610b5f565b820191906000526020600020905b815481529060010190602001808311610b4257829003601f168201915b5050505050815260200160405180602001604052806000815250815260200183815260200160016003811115610b9157fe5b815260200160011515815250905080600785604051610bb09190612465565b90815260200160405180910390206000820151816000019080519060200190610bda929190611d1b565b506020820151816001019080519060200190610bf7929190611d1b565b506040820151816002019080519060200190610c14929190611d9b565b5060608201518160030160006101000a81548160ff02191690836003811115610c3957fe5b021790555060808201518160030160016101000a81548160ff0219169083151502179055509050506008849080600181540180825580915050906001820390600052602060002001600090919290919091509080519060200190610c9e929190611c5f565b50505050919050565b610cb083610979565b610cb957600080fd5b600783604051610cc99190612465565b90815260200160405180910390206002013390806001815401808255809150509060018203906000526020600020016000909192909190916101000a81548173ffffffffffffffffffffffffffffffffffffffff021916908373ffffffffffffffffffffffffffffffffffffffff160217905550506060610dec6040518060400160405280600781526020017f7b635f6b65793a00000000000000000000000000000000000000000000000000815250846040518060400160405280600981526020017f2c635f6f666665723a0000000000000000000000000000000000000000000000815250856040518060400160405280600281526020017f7d2c000000000000000000000000000000000000000000000000000000000000815250610f8a565b9050610ee1600785604051610e019190612465565b90815260200160405180910390206001018054600181600116156101000203166002900480601f016020809104026020016040519081016040528092919081815260200182805460018160011615610100020316600290048015610ea65780601f10610e7b57610100808354040283529160200191610ea6565b820191906000526020600020905b815481529060010190602001808311610e8957829003601f168201915b505050505082604051806020016040528060008152506040518060200160405280600081525060405180602001604052806000815250610f8a565b600785604051610ef19190612465565b90815260200160405180910390206001019080519060200190610f15929190611c5f565b5050505050565b606080610f2883610726565b90506060610f7e6040518060600160405280603081526020016128d46030913983604051806020016040528060008152506040518060200160405280600081525060405180602001604052806000815250610f8a565b90508092505050919050565b60608585858585604051602001610fa595949392919061247c565b604051602081830303815290604052905095945050505050565b60008073ffffffffffffffffffffffffffffffffffffffff16600160009054906101000a900473ffffffffffffffffffffffffffffffffffffffff1673ffffffffffffffffffffffffffffffffffffffff16148061104757506000611045600160009054906101000a900473ffffffffffffffffffffffffffffffffffffffff166116d2565b145b156110585761105660006116dd565b505b600160009054906101000a900473ffffffffffffffffffffffffffffffffffffffff1673ffffffffffffffffffffffffffffffffffffffff166338cc48316040518163ffffffff1660e01b8152600401602060405180830381600087803b1580156110c257600080fd5b505af11580156110d6573d6000803e3d6000fd5b505050506040513d601f19601f820116820180604052506110fa9190810190611fdd565b73ffffffffffffffffffffffffffffffffffffffff166000809054906101000a900473ffffffffffffffffffffffffffffffffffffffff1673ffffffffffffffffffffffffffffffffffffffff161461122f57600160009054906101000a900473ffffffffffffffffffffffffffffffffffffffff1673ffffffffffffffffffffffffffffffffffffffff166338cc48316040518163ffffffff1660e01b8152600401602060405180830381600087803b1580156111b757600080fd5b505af11580156111cb573d6000803e3d6000fd5b505050506040513d601f19601f820116820180604052506111ef9190810190611fdd565b6000806101000a81548173ffffffffffffffffffffffffffffffffffffffff021916908373ffffffffffffffffffffffffffffffffffffffff1602179055505b60008060009054906101000a900473ffffffffffffffffffffffffffffffffffffffff1673ffffffffffffffffffffffffffffffffffffffff1663524f3889856040518263ffffffff1660e01b815260040161128b9190612564565b602060405180830381600087803b1580156112a557600080fd5b505af11580156112b9573d6000803e3d6000fd5b505050506040513d601f19601f820116820180604052506112dd919081019061221b565b905062030d403a02670de0b6b3a764000001811115611302576000801b9150506113b8565b6000809054906101000a900473ffffffffffffffffffffffffffffffffffffffff1673ffffffffffffffffffffffffffffffffffffffff1663adf59f9982600087876040518563ffffffff1660e01b81526004016113629392919061251f565b6020604051808303818588803b15801561137b57600080fd5b505af115801561138f573d6000803e3d6000fd5b50505050506040513d601f19601f820116820180604052506113b49190810190612006565b9150505b92915050565b60008073ffffffffffffffffffffffffffffffffffffffff16600160009054906101000a900473ffffffffffffffffffffffffffffffffffffffff1673ffffffffffffffffffffffffffffffffffffffff16148061144657506000611444600160009054906101000a900473ffffffffffffffffffffffffffffffffffffffff166116d2565b145b156114575761145560006116dd565b505b600160009054906101000a900473ffffffffffffffffffffffffffffffffffffffff1673ffffffffffffffffffffffffffffffffffffffff166338cc48316040518163ffffffff1660e01b8152600401602060405180830381600087803b1580156114c157600080fd5b505af11580156114d5573d6000803e3d6000fd5b505050506040513d601f19601f820116820180604052506114f99190810190611fdd565b73ffffffffffffffffffffffffffffffffffffffff166000809054906101000a900473ffffffffffffffffffffffffffffffffffffffff1673ffffffffffffffffffffffffffffffffffffffff161461162e57600160009054906101000a900473ffffffffffffffffffffffffffffffffffffffff1673ffffffffffffffffffffffffffffffffffffffff166338cc48316040518163ffffffff1660e01b8152600401602060405180830381600087803b1580156115b657600080fd5b505af11580156115ca573d6000803e3d6000fd5b505050506040513d601f19601f820116820180604052506115ee9190810190611fdd565b6000806101000a81548173ffffffffffffffffffffffffffffffffffffffff021916908373ffffffffffffffffffffffffffffffffffffffff1602179055505b6000809054906101000a900473ffffffffffffffffffffffffffffffffffffffff1673ffffffffffffffffffffffffffffffffffffffff1663c281d19e6040518163ffffffff1660e01b815260040160206040518083038186803b15801561169557600080fd5b505afa1580156116a9573d6000803e3d6000fd5b505050506040513d601f19601f820116820180604052506116cd9190810190611fdd565b905090565b6000813b9050919050565b60006116e76116ee565b9050919050565b60008061170e731d3b2638a7cc9f2cb3d298a3da7a90b67e5506ed6116d2565b11156117b057731d3b2638a7cc9f2cb3d298a3da7a90b67e5506ed600160006101000a81548173ffffffffffffffffffffffffffffffffffffffff021916908373ffffffffffffffffffffffffffffffffffffffff1602179055506117a76040518060400160405280600b81526020017f6574685f6d61696e6e6574000000000000000000000000000000000000000000815250611c45565b60019050611c42565b60006117cf73c03a2615d5efaf5f49f60b7bb6583eaec212fdf16116d2565b11156118715773c03a2615d5efaf5f49f60b7bb6583eaec212fdf1600160006101000a81548173ffffffffffffffffffffffffffffffffffffffff021916908373ffffffffffffffffffffffffffffffffffffffff1602179055506118686040518060400160405280600c81526020017f6574685f726f707374656e330000000000000000000000000000000000000000815250611c45565b60019050611c42565b600061189073b7a07bcf2ba2f2703b24c0691b5278999c59ac7e6116d2565b11156119325773b7a07bcf2ba2f2703b24c0691b5278999c59ac7e600160006101000a81548173ffffffffffffffffffffffffffffffffffffffff021916908373ffffffffffffffffffffffffffffffffffffffff1602179055506119296040518060400160405280600981526020017f6574685f6b6f76616e0000000000000000000000000000000000000000000000815250611c45565b60019050611c42565b600061195173146500cfd35b22e4a392fe0adc06de1a1368ed486116d2565b11156119f35773146500cfd35b22e4a392fe0adc06de1a1368ed48600160006101000a81548173ffffffffffffffffffffffffffffffffffffffff021916908373ffffffffffffffffffffffffffffffffffffffff1602179055506119ea6040518060400160405280600b81526020017f6574685f72696e6b656279000000000000000000000000000000000000000000815250611c45565b60019050611c42565b6000611a1273a2998efd205fb9d4b4963afb70778d6354ad3a416116d2565b1115611ab45773a2998efd205fb9d4b4963afb70778d6354ad3a41600160006101000a81548173ffffffffffffffffffffffffffffffffffffffff021916908373ffffffffffffffffffffffffffffffffffffffff160217905550611aab6040518060400160405280600a81526020017f6574685f676f65726c6900000000000000000000000000000000000000000000815250611c45565b60019050611c42565b6000611ad3736f485c8bf6fc43ea212e93bbf8ce046c7f1cb4756116d2565b1115611b3757736f485c8bf6fc43ea212e93bbf8ce046c7f1cb475600160006101000a81548173ffffffffffffffffffffffffffffffffffffffff021916908373ffffffffffffffffffffffffffffffffffffffff16021790555060019050611c42565b6000611b567320e12a1f859b3feae5fb2a0a32c18f5a65555bbf6116d2565b1115611bba577320e12a1f859b3feae5fb2a0a32c18f5a65555bbf600160006101000a81548173ffffffffffffffffffffffffffffffffffffffff021916908373ffffffffffffffffffffffffffffffffffffffff16021790555060019050611c42565b6000611bd97351efaf4c8b3c9afbd5ab9f4bbc82784ab6ef8faa6116d2565b1115611c3d577351efaf4c8b3c9afbd5ab9f4bbc82784ab6ef8faa600160006101000a81548173ffffffffffffffffffffffffffffffffffffffff021916908373ffffffffffffffffffffffffffffffffffffffff16021790555060019050611c42565b600090505b90565b8060029080519060200190611c5b929190611c5f565b5050565b828054600181600116156101000203166002900490600052602060002090601f016020900481019282601f10611ca057805160ff1916838001178555611cce565b82800160010185558215611cce579182015b82811115611ccd578251825591602001919060010190611cb2565b5b509050611cdb9190611e25565b5090565b6040518060a0016040528060608152602001606081526020016060815260200160006003811115611d0c57fe5b81526020016000151581525090565b828054600181600116156101000203166002900490600052602060002090601f016020900481019282601f10611d5c57805160ff1916838001178555611d8a565b82800160010185558215611d8a579182015b82811115611d89578251825591602001919060010190611d6e565b5b509050611d979190611e25565b5090565b828054828255906000526020600020908101928215611e14579160200282015b82811115611e135782518260006101000a81548173ffffffffffffffffffffffffffffffffffffffff021916908373ffffffffffffffffffffffffffffffffffffffff16021790555091602001919060010190611dbb565b5b509050611e219190611e4a565b5090565b611e4791905b80821115611e43576000816000905550600101611e2b565b5090565b90565b611e8a91905b80821115611e8657600081816101000a81549073ffffffffffffffffffffffffffffffffffffffff021916905550600101611e50565b5090565b90565b600081519050611e9c8161285d565b92915050565b600081359050611eb181612874565b92915050565b600081519050611ec681612874565b92915050565b600082601f830112611edd57600080fd5b8135611ef0611eeb8261265f565b612632565b91508082526020830160208301858383011115611f0c57600080fd5b611f178382846127fd565b50505092915050565b600082601f830112611f3157600080fd5b8135611f44611f3f8261268b565b612632565b91508082526020830160208301858383011115611f6057600080fd5b611f6b8382846127fd565b50505092915050565b600082601f830112611f8557600080fd5b8135611f98611f93826126b7565b612632565b91508082526020830160208301858383011115611fb457600080fd5b611fbf8382846127fd565b50505092915050565b600081519050611fd78161288b565b92915050565b600060208284031215611fef57600080fd5b6000611ffd84828501611e8d565b91505092915050565b60006020828403121561201857600080fd5b600061202684828501611eb7565b91505092915050565b6000806040838503121561204257600080fd5b600061205085828601611ea2565b925050602083013567ffffffffffffffff81111561206d57600080fd5b61207985828601611f74565b9150509250929050565b60008060006060848603121561209857600080fd5b60006120a686828701611ea2565b935050602084013567ffffffffffffffff8111156120c357600080fd5b6120cf86828701611f74565b925050604084013567ffffffffffffffff8111156120ec57600080fd5b6120f886828701611ecc565b9150509250925092565b60006020828403121561211457600080fd5b600082013567ffffffffffffffff81111561212e57600080fd5b61213a84828501611f20565b91505092915050565b60006020828403121561215557600080fd5b600082013567ffffffffffffffff81111561216f57600080fd5b61217b84828501611f74565b91505092915050565b60008060006060848603121561219957600080fd5b600084013567ffffffffffffffff8111156121b357600080fd5b6121bf86828701611f74565b935050602084013567ffffffffffffffff8111156121dc57600080fd5b6121e886828701611f74565b925050604084013567ffffffffffffffff81111561220557600080fd5b61221186828701611f74565b9150509250925092565b60006020828403121561222d57600080fd5b600061223b84828501611fc8565b91505092915050565b60006122508383612364565b905092915050565b600061226382612708565b61226d8185612736565b93508360208202850161227f856126e3565b8060005b858110156122bb578484038952815161229c8582612244565b94506122a783612729565b925060208a01995050600181019050612283565b50829750879550505050505092915050565b6122d681612786565b82525050565b6122e5816127d9565b82525050565b6122f4816127eb565b82525050565b60006123058261271e565b61230f8185612758565b935061231f81856020860161280c565b6123288161283f565b840191505092915050565b600061233e8261271e565b6123488185612769565b935061235881856020860161280c565b80840191505092915050565b600061236f82612713565b6123798185612747565b935061238981856020860161280c565b6123928161283f565b840191505092915050565b60006123a882612713565b6123b28185612758565b93506123c281856020860161280c565b6123cb8161283f565b840191505092915050565b6000815460018116600081146123f357600181146124195761245d565b607f60028304166124048187612758565b955060ff19831686526020860193505061245d565b600282046124278187612758565b9550612432856126f3565b60005b8281101561245457815481890152600182019150602081019050612435565b80880195505050505b505092915050565b60006124718284612333565b915081905092915050565b60006124888288612333565b91506124948287612333565b91506124a08286612333565b91506124ac8285612333565b91506124b88284612333565b91508190509695505050505050565b600060208201905081810360008301526124e18184612258565b905092915050565b60006020820190506124fe60008301846122cd565b92915050565b600060208201905061251960008301846122dc565b92915050565b600060608201905061253460008301866122eb565b818103602083015261254681856122fa565b9050818103604083015261255a81846122fa565b9050949350505050565b6000602082019050818103600083015261257e81846122fa565b905092915050565b600060408201905081810360008301526125a081856122fa565b905081810360208301526125b481846122fa565b90509392505050565b600060808201905081810360008301526125d7818761239d565b905081810360208301526125eb818661239d565b90506125fa60408301856122dc565b61260760608301846122cd565b95945050505050565b6000602082019050818103600083015261262a81846123d6565b905092915050565b6000604051905081810181811067ffffffffffffffff8211171561265557600080fd5b8060405250919050565b600067ffffffffffffffff82111561267657600080fd5b601f19601f8301169050602081019050919050565b600067ffffffffffffffff8211156126a257600080fd5b601f19601f8301169050602081019050919050565b600067ffffffffffffffff8211156126ce57600080fd5b601f19601f8301169050602081019050919050565b6000819050602082019050919050565b60008190508160005260206000209050919050565b600081519050919050565b600081519050919050565b600081519050919050565b6000602082019050919050565b600082825260208201905092915050565b600082825260208201905092915050565b600082825260208201905092915050565b600081905092915050565b600061277f826127af565b9050919050565b60008115159050919050565b6000819050919050565b60008190506127aa82612850565b919050565b600073ffffffffffffffffffffffffffffffffffffffff82169050919050565b6000819050919050565b60006127e48261279c565b9050919050565b60006127f6826127cf565b9050919050565b82818337600083830152505050565b60005b8381101561282a57808201518184015260208101905061280f565b83811115612839576000848401525b50505050565b6000601f19601f8301169050919050565b6004811061285a57fe5b50565b61286681612774565b811461287157600080fd5b50565b61287d81612792565b811461288857600080fd5b50565b612894816127cf565b811461289f57600080fd5b5056fe68747470733a2f2f716f736170692e6865726f6b756170702e636f6d2f6170692f464845636f6d703f6e6577436f6d703d68747470733a2f2f716f736170692e6865726f6b756170702e636f6d2f6170692f464845636f6d703f6f66666572733da365627a7a72315820ebc84dca70f4f2aea0854ebfc53176780defa37314c6b9a50fcd8053d9263ddf6c6578706572696d656e74616cf564736f6c63430005100040",
  "source": "pragma solidity ^0.5.16;\npragma experimental ABIEncoderV2;\n\nimport \"./ElectToolbox.sol\";\nimport \"./ProvableAPI_0.5.sol\";\n\n\ncontract TenderManager is usingProvable {\n    enum State {CLOSED, OPEN, PENDING, FINISHED}\n\n    string OracleRSAPubKey;\n\n    struct OfferList {\n        string c_key; //RSA_of_AESkey\n        string c_offer; //AES_of_FHE_of_Offer\n        address respondent;\n    }\n    \n    struct Tender {\n        string RSAPubKey; //From Oracle\n        string offers;\n        address[] addresses;\n \n        //OfferList[] offerList;\n        State state;\n        bool isExisting;\n    }\n\n    string bestAlloc;\n    mapping(string => Tender) public Tenders;\n    string[] tenderList;\n\n    \n    event LogBestAlloc(string result);\n    event LogNewProvableQuery( \n        string tenderName,\n        string offers\n        );\n\n    constructor() public payable {\n        // ...\n    }\n\n    /// @notice getter to fetch RSA public key.\n    /// @return RSA public key hash \n    function getRSApk() public view returns (string memory){\n        return OracleRSAPubKey;\n    }\n \n    /// @notice sets RSA public key.\n    /// @return RSA public key hash \n    function setRSApk(string memory _RSApk) public payable returns (string memory) {\n        OracleRSAPubKey=_RSApk;\n        return OracleRSAPubKey;\n    }\n\n\n    /// @notice getter to fetch list of registered tenders.\n    /// @return list of tenders\n    function getTenders() public view returns (string[] memory){\n        return tenderList;\n    }\n\n    /// @notice getter to fetch all offers stored in a tender.\n    /// @param _tenderName Name of the tender to fetch\n    /// @return list of offers\n    function getOffers(string memory _tenderName) public view returns (string memory offers){\n        return Tenders[_tenderName].offers;\n    }\n    /// @notice getter to fetch tender status \n    /// @param _tenderName Name of the tender\n    /// @return tender state (open/pending/closed)\n    function getTenderStatus(string memory _tenderName) public view returns (State state){\n        return Tenders[_tenderName].state;\n    }\n\n    function getURLTest(string memory tenderName) public view returns (string memory){\n        string memory tmp_offers = getOffers(tenderName);\n        string memory url = append(\"https://qosapi.herokuapp.com/api/FHEcomp?offers=\",\n                            tmp_offers,\"\",\"\",\"\");\n\n        return url;\n    }\n    \n    function append(string memory a, string memory b, string memory c, string memory d, string memory e) internal pure returns (string memory) {\n        return string(abi.encodePacked(a, b, c, d, e));\n    }\n\n    function isExisting(string memory tenderName) public view returns(bool doesIndeed) {\n        return Tenders[tenderName].isExisting;\n    }\n    \n    function newTender(string memory tenderName) public payable returns (string memory rowNumber) {\n        if (isExisting(tenderName)) revert();\n        address[] memory tmpList = new address[](0);\n        Tender memory tempStruct = Tender(OracleRSAPubKey, '', tmpList, State.OPEN, true);\n        Tenders[tenderName] = tempStruct;\n        tenderList.push(tenderName);\n    }\n    \n    function newOffer(string memory tenderName, string memory c_key, string memory c_offer) public payable {\n        if (!isExisting(tenderName)) revert();\n\n        //require(msg.sender==tenderName);\n        //OfferList memory tempStructBis = OfferList(c_key, c_offer, tenderName); \n        Tenders[tenderName].addresses.push(msg.sender);\n\n        string memory tempStruct = append(\"{c_key:\",c_key,\",c_offer:\",c_offer,\"},\");\n        Tenders[tenderName].offers= append(Tenders[tenderName].offers,tempStruct,\"\",\"\",\"\");\n        //Tenders[tenderName].offerList.push(tempStructBis);\n\n    }\n\n    /// @notice Callback function. Emits to the user the best profiles retrieved based on the QoS computation.\n    /// @dev This function is triggered by the oracle.\n    /// @param myid The binary array of required attributes (set of filtering criteria)\n    /// @param result best profiles retrieved by the oracle.\n    function __callback(bytes32 myid, string memory result) public {\n        if (msg.sender != provable_cbAddress()) revert();\n\n        bestAlloc = result;\n\n        emit LogBestAlloc(bestAlloc);\n    }\n\n\n    /// @notice Launches a comparison: delegation to the oracle of the calculation and emits an event with the ipfs hashes to compare.\n    /// @param _tenderName Name of the tender to fetch\n    /// @return returns ok if the query was well sent to the API\n    function askOracleComparison(string memory _tenderName) public payable returns (string memory result){\n        \n        // emit event\n        string memory tmp_offers = getOffers(_tenderName);\n        emit LogNewProvableQuery(\n                _tenderName, \n                tmp_offers\n            );\n\n        //string memory str_offers = ElectToolbox.list2string(tmp_offers);\n        //string memory str_offers = ElectToolbox.list2string(Tenders[tenderName].offers);\n        string memory url = append(\"https://qosapi.herokuapp.com/api/FHEcomp?newComp=\",_tenderName,\"\",\"\",\"\");\n        provable_query(\"URL\", url);\n\n        // set tender state \n        Tenders[_tenderName].state= State.PENDING;\n\n        return \"200\";\n    }\n\n\n}",
  "sourcePath": "/home/vtlr2002/source/smart-logistics/contracts/TenderManager.sol",
  "compiler": {
    "name": "solc",
    "version": "0.5.16+commit.9c3226ce.Emscripten.clang"
  },
  "schemaVersion": "3.2.4",
  "updatedAt": "2022-02-10T17:59:01.624Z",
  "networkType": "ethereum",
  "devdoc": {
    "methods": {
      "__callback(bytes32,string)": {
        "details": "This function is triggered by the oracle.",
        "params": {
          "myid": "The binary array of required attributes (set of filtering criteria)",
          "result": "best profiles retrieved by the oracle."
        }
      },
      "askOracleComparison(string)": {
        "params": {
          "_tenderName": "Name of the tender to fetch"
        },
        "return": "returns ok if the query was well sent to the API"
      },
      "getOffers(string)": {
        "params": {
          "_tenderName": "Name of the tender to fetch"
        },
        "return": "list of offers"
      },
      "getRSApk()": {
        "return": "RSA public key hash "
      },
      "getTenderStatus(string)": {
        "params": {
          "_tenderName": "Name of the tender"
        },
        "return": "tender state (open/pending/closed)"
      },
      "getTenders()": {
        "return": "list of tenders"
      },
      "setRSApk(string)": {
        "return": "RSA public key hash "
      }
    }
  },
  "userdoc": {
    "methods": {
      "__callback(bytes32,string)": {
        "notice": "Callback function. Emits to the user the best profiles retrieved based on the QoS computation."
      },
      "askOracleComparison(string)": {
        "notice": "Launches a comparison: delegation to the oracle of the calculation and emits an event with the ipfs hashes to compare."
      },
      "getOffers(string)": {
        "notice": "getter to fetch all offers stored in a tender."
      },
      "getRSApk()": {
        "notice": "getter to fetch RSA public key."
      },
      "getTenderStatus(string)": {
        "notice": "getter to fetch tender status "
      },
      "getTenders()": {
        "notice": "getter to fetch list of registered tenders."
      },
      "setRSApk(string)": {
        "notice": "sets RSA public key."
      }
    }
  }
}