{
  "contractName": "TenderManager",
  "abi": [
    {
      "inputs": [],
      "payable": true,
      "stateMutability": "payable",
      "type": "constructor"
    },
    {
      "anonymous": false,
      "inputs": [
        {
          "indexed": false,
          "internalType": "string",
          "name": "result",
          "type": "string"
        }
      ],
      "name": "LogBestAlloc",
      "type": "event"
    },
    {
      "anonymous": false,
      "inputs": [
        {
          "indexed": false,
          "internalType": "string",
          "name": "description",
          "type": "string"
        }
      ],
      "name": "LogNewProvableQuery",
      "type": "event"
    },
    {
      "constant": true,
      "inputs": [
        {
          "internalType": "string",
          "name": "",
          "type": "string"
        }
      ],
      "name": "Tenders",
      "outputs": [
        {
          "internalType": "string",
          "name": "RSAPubKey",
          "type": "string"
        },
        {
          "internalType": "string",
          "name": "offers",
          "type": "string"
        },
        {
          "internalType": "enum TenderManager.State",
          "name": "state",
          "type": "uint8"
        },
        {
          "internalType": "bool",
          "name": "isExisting",
          "type": "bool"
        }
      ],
      "payable": false,
      "stateMutability": "view",
      "type": "function"
    },
    {
      "constant": true,
      "inputs": [],
      "name": "getTenders",
      "outputs": [
        {
          "internalType": "string[]",
          "name": "",
          "type": "string[]"
        }
      ],
      "payable": false,
      "stateMutability": "view",
      "type": "function"
    },
    {
      "constant": true,
      "inputs": [],
      "name": "getRSApk",
      "outputs": [
        {
          "internalType": "string",
          "name": "",
          "type": "string"
        }
      ],
      "payable": false,
      "stateMutability": "view",
      "type": "function"
    },
    {
      "constant": true,
      "inputs": [
        {
          "internalType": "string",
          "name": "tenderName",
          "type": "string"
        }
      ],
      "name": "getURLTest",
      "outputs": [
        {
          "internalType": "string",
          "name": "",
          "type": "string"
        }
      ],
      "payable": false,
      "stateMutability": "view",
      "type": "function"
    },
    {
      "constant": false,
      "inputs": [
        {
          "internalType": "string",
          "name": "_RSApk",
          "type": "string"
        }
      ],
      "name": "setRSApk",
      "outputs": [
        {
          "internalType": "string",
          "name": "",
          "type": "string"
        }
      ],
      "payable": true,
      "stateMutability": "payable",
      "type": "function"
    },
    {
      "constant": true,
      "inputs": [
        {
          "internalType": "string",
          "name": "tenderName",
          "type": "string"
        }
      ],
      "name": "isExisting",
      "outputs": [
        {
          "internalType": "bool",
          "name": "doesIndeed",
          "type": "bool"
        }
      ],
      "payable": false,
      "stateMutability": "view",
      "type": "function"
    },
    {
      "constant": false,
      "inputs": [
        {
          "internalType": "string",
          "name": "tenderName",
          "type": "string"
        }
      ],
      "name": "newTender",
      "outputs": [
        {
          "internalType": "string",
          "name": "rowNumber",
          "type": "string"
        }
      ],
      "payable": true,
      "stateMutability": "payable",
      "type": "function"
    },
    {
      "constant": false,
      "inputs": [
        {
          "internalType": "string",
          "name": "tenderName",
          "type": "string"
        },
        {
          "internalType": "string",
          "name": "c_key",
          "type": "string"
        },
        {
          "internalType": "string",
          "name": "c_offer",
          "type": "string"
        }
      ],
      "name": "newOffer",
      "outputs": [],
      "payable": true,
      "stateMutability": "payable",
      "type": "function"
    },
    {
      "constant": false,
      "inputs": [
        {
          "internalType": "bytes32",
          "name": "_myid",
          "type": "bytes32"
        },
        {
          "internalType": "string",
          "name": "_result",
          "type": "string"
        },
        {
          "internalType": "bytes",
          "name": "_proof",
          "type": "bytes"
        }
      ],
      "name": "__callback",
      "outputs": [],
      "payable": false,
      "stateMutability": "nonpayable",
      "type": "function"
    },
    {
      "constant": false,
      "inputs": [
        {
          "internalType": "bytes32",
          "name": "myid",
          "type": "bytes32"
        },
        {
          "internalType": "string",
          "name": "result",
          "type": "string"
        }
      ],
      "name": "__callback",
      "outputs": [],
      "payable": false,
      "stateMutability": "nonpayable",
      "type": "function"
    },
    {
      "constant": true,
      "inputs": [
        {
          "internalType": "string",
          "name": "_tenderName",
          "type": "string"
        }
      ],
      "name": "getOffers",
      "outputs": [
        {
          "internalType": "string",
          "name": "offers",
          "type": "string"
        }
      ],
      "payable": false,
      "stateMutability": "view",
      "type": "function"
    },
    {
      "constant": false,
      "inputs": [
        {
          "internalType": "string",
          "name": "tenderName",
          "type": "string"
        }
      ],
      "name": "askOracleComparison",
      "outputs": [
        {
          "internalType": "string",
          "name": "result",
          "type": "string"
        }
      ],
      "payable": true,
      "stateMutability": "payable",
      "type": "function"
    }
  ],
  "bytecode": "0x6080604052612873806100136000396000f3fe6080604052600436106100a75760003560e01c80637c82cd60116100645780637c82cd60146101c15780639436893814610201578063a6af65d11461023e578063be43126e1461026e578063f1e4cf9a1461029e578063f5035e12146102ba576100a7565b8063107d8d33146100ac57806312d0ec80146100dc5780631d5f59701461010757806327dc297e1461013257806338bbfa501461015b5780637acaaf6b14610184575b600080fd5b6100c660048036036100c1919081019061206d565b6102f7565b6040516100d391906124d9565b60405180910390f35b3480156100e857600080fd5b506100f1610410565b6040516100fe9190612457565b60405180910390f35b34801561011357600080fd5b5061011c6104f9565b60405161012991906124d9565b60405180910390f35b34801561013e57600080fd5b5061015960048036036101549190810190611f59565b61059b565b005b34801561016757600080fd5b50610182600480360361017d9190810190611fad565b61062d565b005b34801561019057600080fd5b506101ab60048036036101a6919081019061206d565b610650565b6040516101b891906124d9565b60405180910390f35b3480156101cd57600080fd5b506101e860048036036101e3919081019061202c565b610713565b6040516101f894939291906124fb565b60405180910390f35b34801561020d57600080fd5b506102286004803603610223919081019061206d565b6108a3565b6040516102359190612479565b60405180910390f35b6102586004803603610253919081019061206d565b6108db565b60405161026591906124d9565b60405180910390f35b6102886004803603610283919081019061206d565b610996565b60405161029591906124d9565b60405180910390f35b6102b860048036036102b391908101906120ae565b610bd1565b005b3480156102c657600080fd5b506102e160048036036102dc919081019061206d565b610e46565b6040516102ee91906124d9565b60405180910390f35b60607fc4dc360d0a9c0677a3379ae0a3d81e887f761e65fdf3d7e00859d1bcd3c4738960405161032690612570565b60405180910390a1606061033983610650565b9050606061038f6040518060600160405280603081526020016128016030913983604051806020016040528060008152506040518060200160405280600081525060405180602001604052806000815250610eb4565b90506103d06040518060400160405280600381526020017f55524c000000000000000000000000000000000000000000000000000000000081525082610ee9565b506040518060400160405280600381526020017f323030000000000000000000000000000000000000000000000000000000000081525092505050919050565b60606008805480602002602001604051908101604052809291908181526020016000905b828210156104f0578382906000526020600020018054600181600116156101000203166002900480601f0160208091040260200160405190810160405280929190818152602001828054600181600116156101000203166002900480156104dc5780601f106104b1576101008083540402835291602001916104dc565b820191906000526020600020905b8154815290600101906020018083116104bf57829003601f168201915b505050505081526020019060010190610434565b50505050905090565b606060058054600181600116156101000203166002900480601f0160208091040260200160405190810160405280929190818152602001828054600181600116156101000203166002900480156105915780601f1061056657610100808354040283529160200191610591565b820191906000526020600020905b81548152906001019060200180831161057457829003601f168201915b5050505050905090565b6105a36112e8565b73ffffffffffffffffffffffffffffffffffffffff163373ffffffffffffffffffffffffffffffffffffffff16146105da57600080fd5b80600690805190602001906105f0929190611b89565b507f552d383289f9078066946d29ef05e7e2aacbef9edaf47a42cf8b1948a40382a36006604051610621919061254e565b60405180910390a15050565b6000801b600360008060001b815260200190815260200160002081905550505050565b606060078260405161066291906123f5565b90815260200160405180910390206001018054600181600116156101000203166002900480601f0160208091040260200160405190810160405280929190818152602001828054600181600116156101000203166002900480156107075780601f106106dc57610100808354040283529160200191610707565b820191906000526020600020905b8154815290600101906020018083116106ea57829003601f168201915b50505050509050919050565b600781805160208101820180518482526020830160208501208183528095505050505050600091509050806000018054600181600116156101000203166002900480601f0160208091040260200160405190810160405280929190818152602001828054600181600116156101000203166002900480156107d55780601f106107aa576101008083540402835291602001916107d5565b820191906000526020600020905b8154815290600101906020018083116107b857829003601f168201915b505050505090806001018054600181600116156101000203166002900480601f0160208091040260200160405190810160405280929190818152602001828054600181600116156101000203166002900480156108735780601f1061084857610100808354040283529160200191610873565b820191906000526020600020905b81548152906001019060200180831161085657829003601f168201915b5050505050908060030160009054906101000a900460ff16908060030160019054906101000a900460ff16905084565b60006007826040516108b591906123f5565b908152602001604051809103902060030160019054906101000a900460ff169050919050565b606081600590805190602001906108f3929190611b89565b5060058054600181600116156101000203166002900480601f01602080910402602001604051908101604052809291908181526020018280546001816001161561010002031660029004801561098a5780601f1061095f5761010080835404028352916020019161098a565b820191906000526020600020905b81548152906001019060200180831161096d57829003601f168201915b50505050509050919050565b60606109a1826108a3565b156109ab57600080fd5b606060006040519080825280602002602001820160405280156109dd5781602001602082028038833980820191505090505b5090506109e8611c09565b6040518060a0016040528060058054600181600116156101000203166002900480601f016020809104026020016040519081016040528092919081815260200182805460018160011615610100020316600290048015610a895780601f10610a5e57610100808354040283529160200191610a89565b820191906000526020600020905b815481529060010190602001808311610a6c57829003601f168201915b5050505050815260200160405180602001604052806000815250815260200183815260200160016003811115610abb57fe5b815260200160011515815250905080600785604051610ada91906123f5565b90815260200160405180910390206000820151816000019080519060200190610b04929190611c45565b506020820151816001019080519060200190610b21929190611c45565b506040820151816002019080519060200190610b3e929190611cc5565b5060608201518160030160006101000a81548160ff02191690836003811115610b6357fe5b021790555060808201518160030160016101000a81548160ff0219169083151502179055509050506008849080600181540180825580915050906001820390600052602060002001600090919290919091509080519060200190610bc8929190611b89565b50505050919050565b610bda836108a3565b610be357600080fd5b600783604051610bf391906123f5565b90815260200160405180910390206002013390806001815401808255809150509060018203906000526020600020016000909192909190916101000a81548173ffffffffffffffffffffffffffffffffffffffff021916908373ffffffffffffffffffffffffffffffffffffffff160217905550506060610d166040518060400160405280600781526020017f7b635f6b65793a00000000000000000000000000000000000000000000000000815250846040518060400160405280600981526020017f2c635f6f666665723a0000000000000000000000000000000000000000000000815250856040518060400160405280600281526020017f7d2c000000000000000000000000000000000000000000000000000000000000815250610eb4565b9050610e0b600785604051610d2b91906123f5565b90815260200160405180910390206001018054600181600116156101000203166002900480601f016020809104026020016040519081016040528092919081815260200182805460018160011615610100020316600290048015610dd05780601f10610da557610100808354040283529160200191610dd0565b820191906000526020600020905b815481529060010190602001808311610db357829003601f168201915b505050505082604051806020016040528060008152506040518060200160405280600081525060405180602001604052806000815250610eb4565b600785604051610e1b91906123f5565b90815260200160405180910390206001019080519060200190610e3f929190611b89565b5050505050565b606080610e5283610650565b90506060610ea86040518060600160405280603081526020016128016030913983604051806020016040528060008152506040518060200160405280600081525060405180602001604052806000815250610eb4565b90508092505050919050565b60608585858585604051602001610ecf95949392919061240c565b604051602081830303815290604052905095945050505050565b60008073ffffffffffffffffffffffffffffffffffffffff16600160009054906101000a900473ffffffffffffffffffffffffffffffffffffffff1673ffffffffffffffffffffffffffffffffffffffff161480610f7157506000610f6f600160009054906101000a900473ffffffffffffffffffffffffffffffffffffffff166115fc565b145b15610f8257610f806000611607565b505b600160009054906101000a900473ffffffffffffffffffffffffffffffffffffffff1673ffffffffffffffffffffffffffffffffffffffff166338cc48316040518163ffffffff1660e01b8152600401602060405180830381600087803b158015610fec57600080fd5b505af1158015611000573d6000803e3d6000fd5b505050506040513d601f19601f820116820180604052506110249190810190611f07565b73ffffffffffffffffffffffffffffffffffffffff166000809054906101000a900473ffffffffffffffffffffffffffffffffffffffff1673ffffffffffffffffffffffffffffffffffffffff161461115957600160009054906101000a900473ffffffffffffffffffffffffffffffffffffffff1673ffffffffffffffffffffffffffffffffffffffff166338cc48316040518163ffffffff1660e01b8152600401602060405180830381600087803b1580156110e157600080fd5b505af11580156110f5573d6000803e3d6000fd5b505050506040513d601f19601f820116820180604052506111199190810190611f07565b6000806101000a81548173ffffffffffffffffffffffffffffffffffffffff021916908373ffffffffffffffffffffffffffffffffffffffff1602179055505b60008060009054906101000a900473ffffffffffffffffffffffffffffffffffffffff1673ffffffffffffffffffffffffffffffffffffffff1663524f3889856040518263ffffffff1660e01b81526004016111b591906124d9565b602060405180830381600087803b1580156111cf57600080fd5b505af11580156111e3573d6000803e3d6000fd5b505050506040513d601f19601f820116820180604052506112079190810190612145565b905062030d403a02670de0b6b3a76400000181111561122c576000801b9150506112e2565b6000809054906101000a900473ffffffffffffffffffffffffffffffffffffffff1673ffffffffffffffffffffffffffffffffffffffff1663adf59f9982600087876040518563ffffffff1660e01b815260040161128c93929190612494565b6020604051808303818588803b1580156112a557600080fd5b505af11580156112b9573d6000803e3d6000fd5b50505050506040513d601f19601f820116820180604052506112de9190810190611f30565b9150505b92915050565b60008073ffffffffffffffffffffffffffffffffffffffff16600160009054906101000a900473ffffffffffffffffffffffffffffffffffffffff1673ffffffffffffffffffffffffffffffffffffffff1614806113705750600061136e600160009054906101000a900473ffffffffffffffffffffffffffffffffffffffff166115fc565b145b156113815761137f6000611607565b505b600160009054906101000a900473ffffffffffffffffffffffffffffffffffffffff1673ffffffffffffffffffffffffffffffffffffffff166338cc48316040518163ffffffff1660e01b8152600401602060405180830381600087803b1580156113eb57600080fd5b505af11580156113ff573d6000803e3d6000fd5b505050506040513d601f19601f820116820180604052506114239190810190611f07565b73ffffffffffffffffffffffffffffffffffffffff166000809054906101000a900473ffffffffffffffffffffffffffffffffffffffff1673ffffffffffffffffffffffffffffffffffffffff161461155857600160009054906101000a900473ffffffffffffffffffffffffffffffffffffffff1673ffffffffffffffffffffffffffffffffffffffff166338cc48316040518163ffffffff1660e01b8152600401602060405180830381600087803b1580156114e057600080fd5b505af11580156114f4573d6000803e3d6000fd5b505050506040513d601f19601f820116820180604052506115189190810190611f07565b6000806101000a81548173ffffffffffffffffffffffffffffffffffffffff021916908373ffffffffffffffffffffffffffffffffffffffff1602179055505b6000809054906101000a900473ffffffffffffffffffffffffffffffffffffffff1673ffffffffffffffffffffffffffffffffffffffff1663c281d19e6040518163ffffffff1660e01b815260040160206040518083038186803b1580156115bf57600080fd5b505afa1580156115d3573d6000803e3d6000fd5b505050506040513d601f19601f820116820180604052506115f79190810190611f07565b905090565b6000813b9050919050565b6000611611611618565b9050919050565b600080611638731d3b2638a7cc9f2cb3d298a3da7a90b67e5506ed6115fc565b11156116da57731d3b2638a7cc9f2cb3d298a3da7a90b67e5506ed600160006101000a81548173ffffffffffffffffffffffffffffffffffffffff021916908373ffffffffffffffffffffffffffffffffffffffff1602179055506116d16040518060400160405280600b81526020017f6574685f6d61696e6e6574000000000000000000000000000000000000000000815250611b6f565b60019050611b6c565b60006116f973c03a2615d5efaf5f49f60b7bb6583eaec212fdf16115fc565b111561179b5773c03a2615d5efaf5f49f60b7bb6583eaec212fdf1600160006101000a81548173ffffffffffffffffffffffffffffffffffffffff021916908373ffffffffffffffffffffffffffffffffffffffff1602179055506117926040518060400160405280600c81526020017f6574685f726f707374656e330000000000000000000000000000000000000000815250611b6f565b60019050611b6c565b60006117ba73b7a07bcf2ba2f2703b24c0691b5278999c59ac7e6115fc565b111561185c5773b7a07bcf2ba2f2703b24c0691b5278999c59ac7e600160006101000a81548173ffffffffffffffffffffffffffffffffffffffff021916908373ffffffffffffffffffffffffffffffffffffffff1602179055506118536040518060400160405280600981526020017f6574685f6b6f76616e0000000000000000000000000000000000000000000000815250611b6f565b60019050611b6c565b600061187b73146500cfd35b22e4a392fe0adc06de1a1368ed486115fc565b111561191d5773146500cfd35b22e4a392fe0adc06de1a1368ed48600160006101000a81548173ffffffffffffffffffffffffffffffffffffffff021916908373ffffffffffffffffffffffffffffffffffffffff1602179055506119146040518060400160405280600b81526020017f6574685f72696e6b656279000000000000000000000000000000000000000000815250611b6f565b60019050611b6c565b600061193c73a2998efd205fb9d4b4963afb70778d6354ad3a416115fc565b11156119de5773a2998efd205fb9d4b4963afb70778d6354ad3a41600160006101000a81548173ffffffffffffffffffffffffffffffffffffffff021916908373ffffffffffffffffffffffffffffffffffffffff1602179055506119d56040518060400160405280600a81526020017f6574685f676f65726c6900000000000000000000000000000000000000000000815250611b6f565b60019050611b6c565b60006119fd736f485c8bf6fc43ea212e93bbf8ce046c7f1cb4756115fc565b1115611a6157736f485c8bf6fc43ea212e93bbf8ce046c7f1cb475600160006101000a81548173ffffffffffffffffffffffffffffffffffffffff021916908373ffffffffffffffffffffffffffffffffffffffff16021790555060019050611b6c565b6000611a807320e12a1f859b3feae5fb2a0a32c18f5a65555bbf6115fc565b1115611ae4577320e12a1f859b3feae5fb2a0a32c18f5a65555bbf600160006101000a81548173ffffffffffffffffffffffffffffffffffffffff021916908373ffffffffffffffffffffffffffffffffffffffff16021790555060019050611b6c565b6000611b037351efaf4c8b3c9afbd5ab9f4bbc82784ab6ef8faa6115fc565b1115611b67577351efaf4c8b3c9afbd5ab9f4bbc82784ab6ef8faa600160006101000a81548173ffffffffffffffffffffffffffffffffffffffff021916908373ffffffffffffffffffffffffffffffffffffffff16021790555060019050611b6c565b600090505b90565b8060029080519060200190611b85929190611b89565b5050565b828054600181600116156101000203166002900490600052602060002090601f016020900481019282601f10611bca57805160ff1916838001178555611bf8565b82800160010185558215611bf8579182015b82811115611bf7578251825591602001919060010190611bdc565b5b509050611c059190611d4f565b5090565b6040518060a0016040528060608152602001606081526020016060815260200160006003811115611c3657fe5b81526020016000151581525090565b828054600181600116156101000203166002900490600052602060002090601f016020900481019282601f10611c8657805160ff1916838001178555611cb4565b82800160010185558215611cb4579182015b82811115611cb3578251825591602001919060010190611c98565b5b509050611cc19190611d4f565b5090565b828054828255906000526020600020908101928215611d3e579160200282015b82811115611d3d5782518260006101000a81548173ffffffffffffffffffffffffffffffffffffffff021916908373ffffffffffffffffffffffffffffffffffffffff16021790555091602001919060010190611ce5565b5b509050611d4b9190611d74565b5090565b611d7191905b80821115611d6d576000816000905550600101611d55565b5090565b90565b611db491905b80821115611db057600081816101000a81549073ffffffffffffffffffffffffffffffffffffffff021916905550600101611d7a565b5090565b90565b600081519050611dc6816127bb565b92915050565b600081359050611ddb816127d2565b92915050565b600081519050611df0816127d2565b92915050565b600082601f830112611e0757600080fd5b8135611e1a611e15826125bd565b612590565b91508082526020830160208301858383011115611e3657600080fd5b611e4183828461275b565b50505092915050565b600082601f830112611e5b57600080fd5b8135611e6e611e69826125e9565b612590565b91508082526020830160208301858383011115611e8a57600080fd5b611e9583828461275b565b50505092915050565b600082601f830112611eaf57600080fd5b8135611ec2611ebd82612615565b612590565b91508082526020830160208301858383011115611ede57600080fd5b611ee983828461275b565b50505092915050565b600081519050611f01816127e9565b92915050565b600060208284031215611f1957600080fd5b6000611f2784828501611db7565b91505092915050565b600060208284031215611f4257600080fd5b6000611f5084828501611de1565b91505092915050565b60008060408385031215611f6c57600080fd5b6000611f7a85828601611dcc565b925050602083013567ffffffffffffffff811115611f9757600080fd5b611fa385828601611e9e565b9150509250929050565b600080600060608486031215611fc257600080fd5b6000611fd086828701611dcc565b935050602084013567ffffffffffffffff811115611fed57600080fd5b611ff986828701611e9e565b925050604084013567ffffffffffffffff81111561201657600080fd5b61202286828701611df6565b9150509250925092565b60006020828403121561203e57600080fd5b600082013567ffffffffffffffff81111561205857600080fd5b61206484828501611e4a565b91505092915050565b60006020828403121561207f57600080fd5b600082013567ffffffffffffffff81111561209957600080fd5b6120a584828501611e9e565b91505092915050565b6000806000606084860312156120c357600080fd5b600084013567ffffffffffffffff8111156120dd57600080fd5b6120e986828701611e9e565b935050602084013567ffffffffffffffff81111561210657600080fd5b61211286828701611e9e565b925050604084013567ffffffffffffffff81111561212f57600080fd5b61213b86828701611e9e565b9150509250925092565b60006020828403121561215757600080fd5b600061216584828501611ef2565b91505092915050565b600061217a838361228e565b905092915050565b600061218d82612666565b6121978185612694565b9350836020820285016121a985612641565b8060005b858110156121e557848403895281516121c6858261216e565b94506121d183612687565b925060208a019950506001810190506121ad565b50829750879550505050505092915050565b612200816126e4565b82525050565b61220f81612737565b82525050565b61221e81612749565b82525050565b600061222f8261267c565b61223981856126b6565b935061224981856020860161276a565b6122528161279d565b840191505092915050565b60006122688261267c565b61227281856126c7565b935061228281856020860161276a565b80840191505092915050565b600061229982612671565b6122a381856126a5565b93506122b381856020860161276a565b6122bc8161279d565b840191505092915050565b60006122d282612671565b6122dc81856126b6565b93506122ec81856020860161276a565b6122f58161279d565b840191505092915050565b60008154600181166000811461231d576001811461234357612387565b607f600283041661232e81876126b6565b955060ff198316865260208601935050612387565b6002820461235181876126b6565b955061235c85612651565b60005b8281101561237e5781548189015260018201915060208101905061235f565b80880195505050505b505092915050565b600061239c6035836126b6565b91507f50726f7661626c65207175657279207761732073656e742c207374616e64696e60008301527f6720627920666f722074686520616e737765722e2e00000000000000000000006020830152604082019050919050565b6000612401828461225d565b915081905092915050565b6000612418828861225d565b9150612424828761225d565b9150612430828661225d565b915061243c828561225d565b9150612448828461225d565b91508190509695505050505050565b600060208201905081810360008301526124718184612182565b905092915050565b600060208201905061248e60008301846121f7565b92915050565b60006060820190506124a96000830186612215565b81810360208301526124bb8185612224565b905081810360408301526124cf8184612224565b9050949350505050565b600060208201905081810360008301526124f38184612224565b905092915050565b6000608082019050818103600083015261251581876122c7565b9050818103602083015261252981866122c7565b90506125386040830185612206565b61254560608301846121f7565b95945050505050565b600060208201905081810360008301526125688184612300565b905092915050565b600060208201905081810360008301526125898161238f565b9050919050565b6000604051905081810181811067ffffffffffffffff821117156125b357600080fd5b8060405250919050565b600067ffffffffffffffff8211156125d457600080fd5b601f19601f8301169050602081019050919050565b600067ffffffffffffffff82111561260057600080fd5b601f19601f8301169050602081019050919050565b600067ffffffffffffffff82111561262c57600080fd5b601f19601f8301169050602081019050919050565b6000819050602082019050919050565b60008190508160005260206000209050919050565b600081519050919050565b600081519050919050565b600081519050919050565b6000602082019050919050565b600082825260208201905092915050565b600082825260208201905092915050565b600082825260208201905092915050565b600081905092915050565b60006126dd8261270d565b9050919050565b60008115159050919050565b6000819050919050565b6000819050612708826127ae565b919050565b600073ffffffffffffffffffffffffffffffffffffffff82169050919050565b6000819050919050565b6000612742826126fa565b9050919050565b60006127548261272d565b9050919050565b82818337600083830152505050565b60005b8381101561278857808201518184015260208101905061276d565b83811115612797576000848401525b50505050565b6000601f19601f8301169050919050565b600481106127b857fe5b50565b6127c4816126d2565b81146127cf57600080fd5b50565b6127db816126f0565b81146127e657600080fd5b50565b6127f28161272d565b81146127fd57600080fd5b5056fe68747470733a2f2f716f736170692e6865726f6b756170702e636f6d2f6170692f464845636f6d703f6f66666572733da365627a7a7231582048096d77b74b18478f0d82d069afa6d86a06d4bc65a4e33662124d75e2450d4c6c6578706572696d656e74616cf564736f6c63430005100040",
  "source": "pragma solidity ^0.5.16;\npragma experimental ABIEncoderV2;\n\nimport \"./ElectToolbox.sol\";\nimport \"./ProvableAPI_0.5.sol\";\n\n\ncontract TenderManager is usingProvable {\n    enum State {CLOSED, OPEN, PENDING, FINISHED}\n\n    string OracleRSAPubKey;\n\n    struct OfferList {\n        string c_key; //RSA_of_AESkey\n        string c_offer; //AES_of_FHE_of_Offer\n        address respondent;\n    }\n    \n    struct Tender {\n        string RSAPubKey; //From Oracle\n        string offers;\n        address[] addresses;\n \n        //OfferList[] offerList;\n        State state;\n        bool isExisting;\n    }\n\n    string bestAlloc;\n    mapping(string => Tender) public Tenders;\n    string[] tenderList;\n\n    \n    event LogBestAlloc(string result);\n    event LogNewProvableQuery(string description);\n\n    constructor() public payable {\n        // ...\n    }\n\n\n    function getTenders() public view returns (string[] memory){\n        return tenderList;\n    }\n\n    function getRSApk() public view returns (string memory){\n        return OracleRSAPubKey;\n    }\n\n    function getURLTest(string memory tenderName) public view returns (string memory){\n        string memory tmp_offers = getOffers(tenderName);\n        string memory url = append(\"https://qosapi.herokuapp.com/api/FHEcomp?offers=\",\n                            tmp_offers,\"\",\"\",\"\");\n\n        return url;\n    }\n\n\n    function setRSApk(string memory _RSApk) public payable returns (string memory) {\n        OracleRSAPubKey=_RSApk;\n        return OracleRSAPubKey;\n    }\n\n    \n    function append(string memory a, string memory b, string memory c, string memory d, string memory e) internal pure returns (string memory) {\n        return string(abi.encodePacked(a, b, c, d, e));\n    }\n\n    function isExisting(string memory tenderName) public view returns(bool doesIndeed) {\n        return Tenders[tenderName].isExisting;\n    }\n    \n    function newTender(string memory tenderName) public payable returns (string memory rowNumber) {\n        if (isExisting(tenderName)) revert();\n        address[] memory tmpList = new address[](0);\n        Tender memory tempStruct = Tender(OracleRSAPubKey, '', tmpList, State.OPEN, true);\n        Tenders[tenderName] = tempStruct;\n        tenderList.push(tenderName);\n    }\n    \n    function newOffer(string memory tenderName, string memory c_key, string memory c_offer) public payable {\n        if (!isExisting(tenderName)) revert();\n\n        //require(msg.sender==tenderName);\n        //OfferList memory tempStructBis = OfferList(c_key, c_offer, tenderName); \n        Tenders[tenderName].addresses.push(msg.sender);\n\n        string memory tempStruct = append(\"{c_key:\",c_key,\",c_offer:\",c_offer,\"},\");\n        Tenders[tenderName].offers= append(Tenders[tenderName].offers,tempStruct,\"\",\"\",\"\");\n        //Tenders[tenderName].offerList.push(tempStructBis);\n\n    }\n\n    /// @notice Callback function. Emits to the user the best profiles retrieved based on the QoS computation.\n    /// @dev This function is triggered by the oracle.\n    /// @param myid The binary array of required attributes (set of filtering criteria)\n    /// @param result best profiles retrieved by the oracle.\n    function __callback(bytes32 myid, string memory result) public {\n        if (msg.sender != provable_cbAddress()) revert();\n\n        bestAlloc = result;\n\n        emit LogBestAlloc(bestAlloc);\n    }\n\n    function getOffers(string memory _tenderName) public view returns (string memory offers){\n        return Tenders[_tenderName].offers;\n    }\n\n    function askOracleComparison(string memory tenderName) public payable returns (string memory result){\n        // send oracle request for comparison\n\n            /// compute qos via oracle\n            //if (provable_getPrice(\"URL\") > address(this).balance) {\n            //    emit LogNewProvableQuery(\n            //        \"Provable query was NOT sent, please add some ETH to cover for the query fee\"\n            //    );\n            //} else {\n                emit LogNewProvableQuery(\n                    \"Provable query was sent, standing by for the answer..\"\n                );\n\n                string memory tmp_offers = getOffers(tenderName);\n                //string memory str_offers = ElectToolbox.list2string(tmp_offers);\n\n                //string memory str_offers = ElectToolbox.list2string(Tenders[tenderName].offers);\n                string memory url = append(\"https://qosapi.herokuapp.com/api/FHEcomp?offers=\",\n                            tmp_offers,\"\",\"\",\"\");\n                provable_query(\"URL\", url);\n            //}\n\n\n        return \"200\";\n    }\n\n\n}",
  "sourcePath": "/home/vtlr2002/source/smart-logistics/contracts/TenderManager.sol",
  "compiler": {
    "name": "solc",
    "version": "0.5.16+commit.9c3226ce.Emscripten.clang"
  },
  "schemaVersion": "3.2.4",
  "updatedAt": "2022-02-10T09:02:27.436Z",
  "networkType": "ethereum",
  "devdoc": {
    "methods": {
      "__callback(bytes32,string)": {
        "details": "This function is triggered by the oracle.",
        "params": {
          "myid": "The binary array of required attributes (set of filtering criteria)",
          "result": "best profiles retrieved by the oracle."
        }
      }
    }
  },
  "userdoc": {
    "methods": {
      "__callback(bytes32,string)": {
        "notice": "Callback function. Emits to the user the best profiles retrieved based on the QoS computation."
      }
    }
  }
}